:020000040800F2
:10000000D812002079020008773100089D160008F8
:100010007531000841050008293A00080000000079
:10002000000000000000000000000000553400083F
:100030007B06000800000000E132000831390008AA
:10004000930200089302000893020008930200083C
:10005000930200089302000893020008930200082C
:100060009302000893020008930200087506000836
:100070007706000893020008930200089302000824
:1000800093020008000000006F04000893020008BB
:10009000930200089302000893020008B1060008CA
:1000A00093020008930200089302000893020008DC
:1000B00093020008930200089302000893020008CC
:1000C00093020008930200089302000893020008BC
:1000D00093020008930200089302000893020008AC
:1000E000930200089302000893020008930200089C
:1000F0009302000893020008930200080000000029
:1001000000000000930200080000000093020008B5
:100110009302000800000000930200089302000808
:100120009302000879060008930200089302000871
:100130009302000800000000000000009302000885
:100140009302000893020008000000000000000075
:10015000000000000000000000000000000000009F
:1001600000000000000000000000000093020008F2
:1001700093020008000000000000000000000000E2
:1001800000000000930200080000000000000000D2
:10019000000000000000000000000000000000005F
:1001A0000000000000000000930200089302000815
:1001B0009302000893020008930200080000000068
:1001C0000000000093020008000000000000000092
:1001D000930200089302000800F002F800F03CF8D7
:1001E0000AA090E8000C82448344AAF10107DA4592
:1001F00001D100F031F8AFF2090EBAE80F0013F0A8
:10020000010F18BFFB1A43F001031847DC5A000026
:10021000FC5A0000103A24BF78C878C1FAD85207B7
:1002200024BF30C830C144BF04680C607047000070
:100230000023002400250026103A28BF78C1FBD8EF
:10024000520728BF30C148BF0B6070471FB505F08B
:10025000F5FA1FBD10B510BD00F0CFF81146FFF73D
:10026000F5FF03F0A5FC00F0EDF803B4FFF7F2FF93
:1002700003BC00F0F5F80000094880470948004732
:10028000FEE7FEE7FEE7FEE7FEE7FEE7FEE7FEE746
:10029000FEE7FEE704480549054A064B70470000A3
:1002A000193A0008D9010008D80C0020D812002003
:1002B000D80E0020D80E002053EA020C00F069800E
:1002C0002DE9F04B4FF00006002B1FBFB3FA83F56A
:1002D00003FA05F424FA05F65E4012BF1643B2FA9B
:1002E00082F502FA05F4C5F120051EBF22FA05FCCD
:1002F00044EA0C04203556EA044C4FEA144418BF73
:10030000641C4FF000084FF00009904271EB030CA1
:1003100039D3002919BFB1FA81F701FA07F6B0FA0B
:1003200080F700FA07F6C7F120071EBF20FA07FC86
:1003300046EA0C062037B6FBF4FCA7EB0507103F96
:1003400007F01F0BCBF120060CFA0BFB2CFA06F67C
:1003500044BFB3460026202FA4BF5E464FF0000BDB
:100360005BEA060C08BF4FF0010B19EB0B09ABFB66
:10037000027C48EB0608C01B06FB02CC0BFB03CC3F
:1003800071EB0C01C1E70B46024641464846BDE809
:10039000F08B13B54FF000004FF00001AFF3008079
:1003A000BDE81C4070474FF0000200B5134694466C
:1003B0009646203922BFA0E80C50A0E80C50B1F1BD
:1003C0002001BFF4F7AF090728BFA0E80C5048BFD1
:1003D0000CC05DF804EB890028BF40F8042B08BF6F
:1003E000704748BF20F8022B11F0804F18BF00F86B
:1003F000012B7047704770477047754600F02CF826
:10040000AE4605006946534620F00700854618B001
:1004100020B5FFF73FFFBDE820404FF000064FF04A
:1004200000074FF000084FF0000B21F00701AC4629
:10043000ACE8C009ACE8C009ACE8C009ACE8C00948
:100440008D46704710B50446AFF300802046BDE8E6
:100450001040FFF70ABF000000487047780C0020EA
:1004600001491820ABBEFEE72600020070474FF09E
:10047000A040016811F0400F1ABFD0F8001111F030
:10048000400F704740210160C0F8001102F02ABF00
:10049000D0ED000A90ED011AF0EE001A90ED000A7E
:1004A00041EE210A9FED021A60EE810A70470000BA
:1004B0003ACD133F91ED010AD0ED000A90ED011AFB
:1004C000D0ED001A20EE200AD1ED000A00EE810ADC
:1004D000D1ED010A90ED011A60EE810A91ED001A4A
:1004E00041EE610A7047F0EE400A90ED000A90ED8F
:1004F000041AD0ED011A90ED052A20EE010A01EE52
:10050000820AD0ED021A90ED062A01EEA00AD0ED83
:10051000031A80ED051A01EE820A80ED040AC0ED8F
:10052000060A704780EC040A9FED040A80ED060A73
:1005300080ED050A80ED040A70470000000000000D
:10054000FEE701F02DB9000070B4404B90ED000AB9
:1005500092ED001A1B683E4E30EE411AD3ED060AAA
:1005600090ED030A9FED3B3A3B4D01EE200ADFED93
:100570003B3A80ED030A90ED030A10EE103AB342C5
:10058000C8BF80ED033A0BDC90ED030A10EE103A81
:10059000AB4234BF90ED030AB0EE630A80ED030A6C
:1005A00090ED030ADFED2E2AB0EE002ADFF8B4C08A
:1005B00020EE220A2D4C9FED2E4A01EE020A9FEDFD
:1005C0002A1A10EE103A6345C8BFB0EE410A05DCA6
:1005D00010EE103AA34228BFB0EE440AD1ED001A43
:1005E000D2ED014A71EEE41AD1ED034A41EEA04A80
:1005F000C1ED034AD1ED030A10EE902AB242C8BF02
:1006000081ED033A09DCD1ED030A10EE902AAA42EB
:1006100038BFD1ED033AC1ED033AD1ED030A60EEE4
:10062000A20A41EE820A10EE902A6245C8BFF0EE9F
:10063000410A05DC10EE902AA24228BFF0EE440ADF
:1006400080ED040AC1ED040A70BC70477000002000
:100650002D6F8C3F2D6F8C3F2D6F8CBF2D6F8CBFFE
:10066000000096414992A4414992A4414992A4C1F3
:100670004992A4C1704770477047704791ED010AD5
:10068000D0ED000A90ED011AD0ED011A20EE200AFB
:10069000D1ED000A00EEC10AD1ED000A90ED001A7A
:1006A00060EE810A91ED011A41EE210A70470000C7
:1006B0000D48016811F0400F08BF704710B5402188
:1006C00001600A4C20680178002908BF10BD4178FC
:1006D00019B140690649486210BD0121417001F01D
:1006E00011F82168486110BD14040140A0000020E9
:1006F000003401402DE9F041494D2DED028B82B0CF
:100700002868417C4FF000089FED468A464F474CD1
:10071000F9B1012978D002291EBF02B0BDEC028BCD
:10072000BDE8F081B0EE480A01F03AF83868404977
:1007300080ED010AC0ED020A096800F099FE206808
:1007400080ED020A80ED038A02B0BDEC028BBDE8A9
:10075000F08141684A1C4260364EB1F5FA6F2ED2E4
:100760003068354DB1EE000A80ED000A2868B0EE21
:10077000480A80ED000A01F013F8386880ED010A9C
:10078000C0ED020A1C30FFF783FE8DED000ACDEDAF
:10079000010A3868011D6846FFF78CFE386800F1D1
:1007A000240280ED090AC0ED0A0A29683068FFF7C3
:1007B000CBFE206880ED020AC0ED030AC4E7DFED3E
:1007C0001F1A9FED1F1ADFED1F0A9FED1F0A00F091
:1007D00037FFDFED1E1A9FED1E1ADFED1E0A9FED9B
:1007E0001E0A00F00BFF306880ED008A206880ED63
:1007F000038A80ED028A04F075FF2868C0F804803F
:1008000001214174A0E7FFE741684A1C4260B1F54D
:100810007A7F84BFC0F804800221F2D894E70000F8
:100820007000002000000000A400002098000020BC
:10083000A8000020AC000020B00000203ECBF33A1E
:100840004B22FB3A713D6ABF17D9FE3FDAACFABCC6
:10085000DAACFA3CF01678BF9318F43F2DE9F04F6C
:10086000924D2DED028B83B02868427C944FDFF8C7
:100870004092DFF84082904C904E39684FF0000A69
:1008800072B1012A53D0DFF83CB29FED8F8A022A61
:100890005ED0032A7DD003B0BDEC028BBDE8F08FA3
:1008A00043685A1C42609FED890A814AB3F5FA6F8A
:1008B00012682DD2D1ED030AC2ED000AD8F800006B
:1008C00080ED000A00F06CFF206880ED010AC0EDA9
:1008D000020A1C30FFF7DCFD8DED000ACDED010AA8
:1008E0002068011D6846FFF7E5FD206800F124023D
:1008F00080ED090AC0ED0A0AD8F80010D9F8000006
:10090000FFF722FE306880ED020AC0ED030AC2E75D
:10091000C0F804A082ED000A306880ED030A80ED83
:10092000020A04F0DFFE296801204874B3E7426838
:10093000531C4360642AAED9D8F8000091ED030A35
:1009400080ED000A2868C0F804A002214174A2E7E3
:1009500091ED020A00F024FF206880ED010AC0ED4D
:10096000020A1C30FFF794FD8DED000ACDED010A5F
:100970002068011D6846FFF79DFD206800F12402F4
:1009800080ED090AC0ED0A0AD8F80010D9F8000075
:1009900000E03EE0FFF7D8FD306880ED020AC0EDD0
:1009A000030A29684A68501C4860386803699A42FB
:1009B0000AD290ED010AD1ED060A90ED001A00EE80
:1009C000810A80ED010A03E0C1F804A003224A7401
:1009D00090ED020AD1ED060A90ED011A00EE810AAF
:1009E00080ED020A90ED020A10EE101A90ED020A54
:1009F0005945C8BF30EE480A09DC10EE101A344AD7
:100A0000914284BF90ED020A30EE080A01D980EDD0
:100A1000020A386890ED020A00F0C2FE206880EDFC
:100A2000010AC0ED020A1C30FFF732FD8DED000A0D
:100A3000CDED010A2068011D6846FFF73BFD2068E7
:100A400000F1240280ED090AC0ED0A0AD8F800106E
:100A5000D9F80000FFF778FD306880ED020AC0ED9C
:100A6000030A3868296890ED020AD1ED060A90ED74
:100A7000011A00EE810A80ED020A90ED020A10EEE2
:100A8000101A90ED020A5945C8BF30EE480A0ADC38
:100A900010EE101A0E4A914284BF90ED020A30EE19
:100AA000080A7FF6F8AE80ED020AF4E67000002036
:100AB000AC000020B0000020A4000020980000201E
:100AC000C0000020DB0F4940DB0FC94000000000E0
:100AD000DB0F49C02DE9F04F9C4D2DED028B83B00B
:100AE0002868427C9F4FDFF86892DFF868A2DFF841
:100AF00068829A4C9A4E39684FF0000B62B1012A15
:100B00005BD09FED998A022A68D0032A7DD003B07A
:100B1000BDEC028BBDE8F08F43685A1C42609FED2C
:100B2000930A8C4AB3F5FA6F126831D2D1ED030AF9
:100B3000C2ED000AD8F8000080ED000A00F030FE97
:100B4000206880ED010AC0ED020A1C30FFF7A0FC0E
:100B50008DED000ACDED010A2068011D6846FFF702
:100B6000A9FC206800F1240280ED090AC0ED0A0A00
:100B7000D8F80010DAF80000FFF7E6FC306880EDE6
:100B8000020AC0ED030A40F2E24000F0ADFFBEE70A
:100B9000C0F804B082ED000A306880ED030A80EDF1
:100BA000020A04F09FFDD9F800100120087040F2FD
:100BB000E2428A6129684874A9E74268531C43608D
:100BC000642AA4D9D8F8000091ED030A80ED000A48
:100BD0002868C0F804B00221417498E791ED020A38
:100BE00000F0DEFD206880ED010AC0ED020A1C3035
:100BF000FFF74EFC8DED000ACDED010A2068011DC6
:100C00006846FFF757FC206800E049E080ED090ADC
:100C1000C0ED0A0A00F12402D8F80010DAF800004A
:100C2000FFF792FC306880ED020AC0ED030A2968E4
:100C30004A68501C4860386803699A420AD290EDAD
:100C4000010AD1ED060A90ED001A00EE810A80ED4E
:100C5000010A03E0C1F804B003224A7490ED020ACD
:100C6000D1ED060A90ED011A414A00EE810A80EDAD
:100C7000020A90ED020A10EE101A90ED020A91425B
:100C8000C8BF30EE480A09DC10EE101A394A91420A
:100C900084BF90ED020A30EE080A01D980ED020A05
:100CA000D9F8000000F05EFFD9F8000080ED080AD6
:100CB000386890ED020A00F073FD206880ED010AAB
:100CC000C0ED020A1C30FFF7E3FB8DED000ACDED0D
:100CD000010A2068011D6846FFF7ECFB206800F15F
:100CE000240280ED090AC0ED0A0AD8F80010DAF8EB
:100CF0000000FFF729FC30681D4A80ED020AC0EDB4
:100D0000030A3868296890ED020AD1ED060A90EDD1
:100D1000011A00EE810A80ED020A90ED020A10EE3F
:100D2000101A90ED020A9142C8BF30EE480A0ADC60
:100D300010EE101A0F4A914284BF90ED020A30EE75
:100D4000080A7FF6E4AE80ED020AE0E670000020BB
:100D5000A0000020AC000020B0000020A400002073
:100D600098000020C0000020DB0FC94000000000F8
:100D7000DB0F4940DB0F49C02DE9F0476E4E6F4C49
:100D80002DED028B82B03068216890ED078A4A7C95
:100D9000DFF8ACA16B4D6C4FDFF8B0814FF000096C
:100DA000002A68D0012A7CD0022A1EBF02B0BDEC06
:100DB000028BBDE8F08700F0D5FE306880ED080AB0
:100DC00090ED080A00F0ECFC286880ED010AC0ED07
:100DD000020A1C30FFF75CFB8DED000ACDED010A25
:100DE0002868011D6846FFF765FB286800F12402AA
:100DF00080ED090AC0ED0A0AD8F80010DAF8000000
:100E0000FFF7A2FB52482968006891ED0A1AD0ED5D
:100E1000021A90ED012A21EE211AD1ED091A01EEF4
:100E2000480A90ED061A386801EE821A80ED020A2F
:100E300041EE080AC0ED030A206841684A1C42607E
:100E4000092913D1C0F80490306890ED070A00F02A
:100E5000A3FE306880ED070A90ED070A3D48006860
:100E600002F00CFDD8F8000080ED000A02B0BDECE5
:100E7000028BBDE8F0874A68501C486030489FEDFF
:100E8000360AB2F5FA6F00682FD2F1EE000AC0ED13
:100E9000000AD8F8000080ED000A00F081FC286804
:100EA00000E03AE080ED010AC0ED020A1C30FFF7D5
:100EB000EFFA8DED000ACDED010A2868011D6846A4
:100EC000FFF7F8FA286800F1240280ED090AC0ED66
:100ED0000A0AD8F80010DAF80000FFF735FB386886
:100EE00080ED020AC0ED030AC0E7C1F8049080ED6E
:100EF000000A3868012580ED030A80ED020A306897
:100F0000057040F2E241816104F0ECFB40F2E24006
:100F100000F0EAFD20684574A8E74868421C4A6072
:100F20006428A3D9002000F08DFD2068C0F804904B
:100F3000022141749AE70000A00000207000002008
:100F4000AC000020A400002098000020B000002089
:100F50009C000020B4000020000000002DE9F043B8
:100F60004E4C89B02068407CDFF834914D4E00280B
:100F70007DD001281CBF09B0BDE8F0834A4D286828
:100F800090ED0B0A00F00CFC484F386880ED010A28
:100F9000C0ED020A1C30FFF77BFA8DED020ACDEDA1
:100FA000030A3868011D80ED0B0A9DED030A80EDF0
:100FB0000C0A02A8FFF77EFA3868DFF8F48000F127
:100FC000240280ED090AC0ED0A0AD8F80010D9F809
:100FD0000000FFF7B9FACDED050A3868354F2A68E9
:100FE00090ED0A1A3968D1ED021A21EE211AD2EDDC
:100FF0000A1A01EE610A8DED040A91ED061AD0ED90
:10100000091A91ED012A2C4901EE821AD2ED0A1A31
:1010100041EE210ACDED050A096881ED020A9DED38
:10102000050A81ED030A011D04A8FFF727FB8DEDDA
:10103000060ACDED070A02A8009006AB32682968BF
:10104000386802F099F8206841684A1C4260092912
:101050001CBF09B0BDE8F08300214160286890ED15
:101060000A0A306802F00AFCD8F8000000E004E048
:1010700080ED000A09B0BDE8F083D9F800009FEDCB
:101080000F0A80ED000A30689FED0D0A80ED000A1E
:1010900021680120487409B0BDE8F0837000002089
:1010A000AC000020B4000020BC000020A400002000
:1010B000B00000209C0000209800002000000000EC
:1010C000D2537B432DE9F04F894C89B02068417C95
:1010D000DFF820B2884D894EDFF82482894FDFF88F
:1010E00028924FF0000A00297DD001297CD00229E6
:1010F0001CBF09B0BDE8F08FD8F8000000F032FD49
:10110000D8F80000DFF8048280ED080AD8F8000063
:1011100090ED0B0A00F044FB286880ED010AC0ED59
:10112000020A1C30FFF7B4F98DED040ACDED050A73
:101130002868011D80ED0B0A9DED050A80ED0C0A63
:1011400004A8FFF7B7F9286800F1240280ED090A26
:10115000C0ED0A0A3968DBF80000FFF7F5F9CDEDBC
:10116000030A28686A4DD8F8002090ED0A1A296809
:10117000D1ED021A21EE211AD2ED0A1A01EE610A0E
:101180008DED020A91ED061AD0ED091A91ED012AB2
:1011900001EE821AD2ED0A1A41EE210ACDED030AC0
:1011A000316881ED020A9DED030A81ED030A011DFC
:1011B00002A8FFF763FA8DED060ACDED070A04A831
:1011C000009006ABD9F80020D8F80010286801F08C
:1011D000D3FF206841684A1C426009291CBF09B03E
:1011E000BDE8F08F01E010E06EE0C0F804A0D8F890
:1011F000000090ED0A0AD9F8000002F03FFB3868C1
:1012000080ED000A09B0BDE8F08F41684A1C4260D9
:101210009FED400A374AB1F5FA6F126833D2F0EE0B
:10122000080AC2ED000A386880ED000A00F0B8FA3A
:10123000286880ED010AC0ED020A1C30FFF728F98A
:101240008DED040ACDED050A2868011D04A8FFF7FD
:1012500031F9286800F1240280ED090AC0ED0A0A7C
:101260003968DBF80000FFF76FF98DED020ACDED6C
:10127000030A306880ED020A9DED030A80ED030A3F
:1012800009B0BDE8F08FC0F804A082ED000AD9F8DB
:101290000000DFED210A0125C0ED000A306880ED75
:1012A000030A80ED020AD8F80000057040F2E2411E
:1012B000816104F017FA40F2E24000F015FC20686A
:1012C000457409B0BDE8F08F41684A1C426064294A
:1012D0009CBF09B0BDE8F08F002000F0B3FB206890
:1012E000C0F804A00221417409B0BDE8F08F0000ED
:1012F00070000020AC000020A40000209800002016
:10130000A0000020B0000020B4000020BC0000209D
:101310009C00002000000000DD7E3C43F0B54A4CFC
:1013200083B02068417C494E494D0027E9B101292D
:101330005FD002291CBF03B0F0BD28681C30FFF746
:10134000A7F88DED000ACDED010A2868011D684659
:10135000FFF7B0F8286880ED090AC0ED0A0A216895
:101360004B683C4A192B55D14DE041684A1C4260FC
:101370009FED390AB1F5FA6F2ED2384C384FF1EEA5
:10138000000A2068C0ED000A386880ED000A00F00D
:1013900007FA286880ED010AC0ED020A1C30FFF749
:1013A00077F88DED000ACDED010A2868011D684629
:1013B000FFF780F8286800F1240280ED090AC0EDEB
:1013C0000A0A39682068FFF7BFF8306880ED020A22
:1013D000C0ED030A03B0F0BD306880ED020A80ED75
:1013E000030A04F07FF9206847600121417403B0CB
:1013F000F0BD41684A1C4260642987BF47600221F2
:1014000003B0F0BDF2E74F6092ED000AB1EE400A82
:1014100082ED000A4B6803F1010CC1F804C01149C8
:101420005BB90B6892ED001A9FED0F0AD3ED010A2C
:10143000326800EEC10A82ED020A90ED090A0868DE
:1014400001F082FB03B0F0BD700000209800002086
:10145000A40000202800002000000000AC000020B4
:10146000B0000020B8000020CDCC4C3E00F018B9F0
:101470002DE9F041054656480C462DED028B0068DB
:1014800091ED0B0AD0ED068A00F08AF984ED010A8D
:10149000C4ED020A94ED0B0AD4ED0F0A9FED4D8ABC
:1014A0004D4F4E4E60EE880A00EEA80A84ED0B0AFE
:1014B00094ED0B0A10EE100A94ED0B0AB842C8BF67
:1014C00030EE480A08DC10EE100AB04284BF94EDFA
:1014D0000B0A30EE080A01D984ED0B0A05F11C0055
:1014E000FEF7D6FF84ED030AC4ED040A291D04F1BA
:1014F0000C00FEF7DFFF84ED050AC4ED060A94ED4B
:10150000050A3748FEF7EFFF84ED070A94ED060A57
:101510003448FEF7E8FF84ED080A94ED050AD4ED9F
:10152000070A314830EE600A01F0E0FA85ED090A59
:1015300094ED060AD4ED080A2C4830EE600A01F05A
:10154000D5FA85ED090A94ED080AD4ED010A284878
:1015500020EE200A01F0CAFA264884ED0E0AD4EDE6
:101560000E0A90ED000A00EEA80A80ED000AD4ED04
:101570000E0A94ED101A60EE810A94ED111A40EEF5
:10158000010AC4ED0D0A90ED010A00EEA80A10EE62
:10159000101A80ED010AB942C4BFDFED170A30EE20
:1015A000200A06DC10EE101AB14288BF38EE400A5D
:1015B00001D980ED010A84ED0C0A94ED020AD4ED04
:1015C000000ABDEC028B20EE200ABDE8F08100008D
:1015D00070000020DB0FC940DB0F4940DB0F49C022
:1015E00088070020A40700203407002050070020AF
:1015F0006C070020C4000020DB0FC9C010B50E48E6
:101600002DED048BB0EE618AF0EE418AB0EE609A67
:10161000F0EE409AFEF786FFF0EE481AB0EE681A38
:10162000F0EE490AB0EE690ABDEC048BBDE810404B
:101630000248FEF777BF000088070020A4070020BB
:1016400010B513482DED048BB0EE618AF0EE418A9F
:10165000B0EE609AF0EE409A01F068FAF0EE481AA7
:10166000B0EE681AF0EE490AB0EE690A094801F0D6
:101670005DFAF0EE481AB0EE681AF0EE490AB0EEE4
:10168000690ABDEC048BBDE81040034801F04EBA76
:1016900034070020500700206C070020FEE7000000
:1016A000F0EE400AF5EEC00AF1EE10FAACBFB1EE72
:1016B000E00A9FED010A70470000000010B5104CD1
:1016C00040220121204601F059F9402210212046F4
:1016D00001F054F940229100204601F04FF95022C8
:1016E0000421204601F04AF950224021204601F011
:1016F00045F9502221152046BDE8104001F03EB9C1
:10170000002C01400148006870470000243401406B
:101710004FF0A040816821F03F0121F0004141F0ED
:1017200004018160016811F0040FFBD0016C9FED92
:10173000141A89B200EE101ADFED121AF8EE400A00
:1017400080EE810ADFED100A20EE210A20EE200A49
:10175000016811F0040FFBD0006C80B200EE900A1B
:101760000B48F8EE600A006880EE812A9FED071AA8
:1017700062EE210AC1EE201AC0ED001A7047000087
:1017800000FF7F47AE4751400000CA4200109B3F18
:10179000A400002001480068704700002448014070
:1017A0009FED0F1A1049C0EE010A9FED0E0A20EEC0
:1017B000800ABDEEC00A10EE100A48608868896889
:1017C00000EE100A00EE901A9FED081AB8EEC00A5B
:1017D000F8EEE00A20EE010A60EE810A7047000090
:1017E000DB0F49400000004F000C024000000030B9
:1017F0000B4800694FF0000110F0080F094818BFAE
:1018000081800BD18288521C92B28280B2F5967F81
:1018100004D98180017881F001010170007870475E
:1018200000080048080000201B481A4902780B1DD8
:10183000D2581204120C18BF7047184ADFF864C05F
:10184000126892ED070A164A82ED000ADCF800C021
:101850009CED070A82ED010A9CED080A82ED020A5E
:1018600002788A5890F800C022F0010241F80C205A
:101870000278D25890F800C06FF30F0242F01002C5
:101880004CF8032002788A58007842F001020A508E
:101890007047000000000240BC580008A40000206F
:1018A00014000020A800002010B5104C7022012167
:1018B000204601F063F870221021204601F05EF806
:1018C0007022A115204601F059F87022042120460B
:1018D00001F054F870224021204601F04FF87022A8
:1018E00021152046BDE8104001F048B8002C014009
:1018F0002DE9F00145494FF47A708E68B6FBF0F29D
:1019000000FB1260002848D14148426842F400526E
:101910004260404802880088120A42EA002000B271
:10192000401100EE100A3C48F4EE000AB8EEC00A7E
:1019300000683A4B3A4A20EE200A80ED040A90ED06
:10194000040A10EE100A98421EDD3648436C23F458
:1019500000434364036A23F001030362036A23F034
:1019600004030362036A23F010030362036A23F093
:1019700040030362036A23F480730362036A23F45F
:1019800080630362C014906150694FF480638343A5
:1019900000F4806043EA00409061488800F07F05D1
:1019A00000F10108821CC01C00F07F071E4802F0F5
:1019B0007F0C08F07F04425D532A01BF025D3A2A82
:1019C000C25D0A2A1AD1194A10F80C301268C92BC4
:1019D00024BF92ED000AB1EE400A07D200EE103AA1
:1019E000DFED130AB8EE400A20EE200A82ED000A6D
:1019F000002202554255C25500F80C20A1F8028081
:101A0000701C8860BDE8F0017047000008000020ED
:101A10000054004000000020A4000020000082428A
:101A200000080048002C0140DC000020B400002029
:101A3000DB0FC940024B58639963DA6370470000BB
:101A4000002C0140014948627047000000480140F5
:101A50001048016A41F001010162016A41F004018C
:101A60000162016A41F010010162016A41F0400126
:101A70000162016A41F480710162016A41F480618E
:101A80000162416C41F4004141640349C014886221
:101A900070470000002C0140000800481048416CCD
:101AA00021F400414164016A21F001010162016AEF
:101AB00021F004010162016A21F010010162016A52
:101AC00021F040010162016A21F480710162016A22
:101AD00021F4806101620349C014886170470000ED
:101AE000002C01400008004801494862704700008E
:101AF00000340140154800689FED151A80B200EED1
:101B0000100ADFED150ADFED131AB8EE400ADFED1B
:101B1000132A134880EE012AB0EE600A006802EE34
:101B2000610AB3EE042A80EE023A23EE220A80B262
:101B300003EE100AF8EE433A83EE813A43EE610A6F
:101B400080EE821A61EE220A704700008000005089
:101B500000FF7F47AE475140AE47D13F00004843AA
:101B60008001005010B50446FFF7CCFDA168D4ED0C
:101B7000040AB0FBF1F201FB120000EE100AB8EE0D
:101B8000C00A80EE201A9FED030AF0EE400A11EE23
:101B9000200A10BDDB0F494070B505462DED028BC4
:101BA000B0EE408A8669FFF7ADFD0446FFF7F2FD0F
:101BB00008EE900A0020FFF745FF404BA21B586833
:101BC0004042C11700EB91703D49B2EBA00F08DD18
:101BD00058684FEAE07C00EB9C70B2EBA00FB8BFF6
:101BE000CA60384800688461B5EEC08AF1EE10FA28
:101BF00038BFB1EE488A0A78DFED330A9FED330A29
:101C0000002A40D05B68F8EE681A01EE103A304BBB
:101C1000B8EEC11A1B6821EE211AD3ED071A2D4B1D
:101C200061EE211A1B681B789FED2B2A01EE103AFA
:101C3000B8EE411A21EE022A82EE211AD1ED021AE3
:101C400021EE201A01EE801A81ED021AD1ED031A5D
:101C5000F8EEE11A21EE811A61EE200A91ED011AE7
:101C600041EE000AC1ED010A90ED0A0AB4EEC80A7D
:101C7000F1EE10FA38BFD04300D20870B0EE600A1F
:101C8000BDEC028B70BD91ED031AD5ED031AB8EED1
:101C9000C11A21EE811A61EE200A91ED011A41EE7E
:101CA000000AC1ED010A90ED090AB4EEC80AF1EE8E
:101CB00010FAC8BFFF20E1DDDFE70000E8040020E4
:101CC000CC000020A0000020CDCCCC3D6666663F55
:101CD000700000209C000020DB0FC94010B44FF0C2
:101CE000A04C4A68DCF808400023DCF808C144EA4C
:101CF0000C0C1CF0010F18BF012302D010BC1846B9
:101D00007047DFF828C052B10C682243D1E9024184
:101D100021431143826802EA0C02114304E0826805
:101D2000096802EA0C0211438160E7E7E030C0FF76
:101D30004B68D0F808C000221CF0010F18BF012228
:101D400001D0104670475BB1D1E9023C43EA0C0375
:101D5000D0F80CC02CF0047C43EA0C03C36007E00D
:101D6000C368D1F80CC023F0047343EA0C03C360CA
:101D7000D1E900310B43C16C6FF308011943C16411
:101D8000DFE78368002213F0010F18BF012201D0A2
:101D900010467047D1E9003C43EA0C038968D0F84B
:101DA0000CC02CF0180C2CF4404C41EA0C011943E7
:101DB000C160EDE730B44B68D0F808C000221CF0D9
:101DC000010F18BF012202D030BC10467047002B13
:101DD000DFF848C00B680ED08C682343D1E9034577
:101DE0002C4323434C692343C46804EA0C0C43EAA4
:101DF0000C03C3600BE0CC682343D1E904452C43BA
:101E00002343C46804EA0C0C43EA0C03C36049682A
:101E1000036B23F00F0319430163D5E71CC0F0FFE8
:101E200010B403680022DB0F18BF012202D010BCDF
:101E300010467047D1E9003C43EA0C03D1E902C4E3
:101E40004CEA040C096943EA0C0319430368DFF800
:101E50000CC003EA0C0319430160E8E70F7E00FFA2
:101E600070B4002401F010030125D2F808C0066800
:101E70009D40B54308BF01245BD0BCF1000F39D0B1
:101E8000BCF1C00F10D0016840F6FC759D40A9431D
:101E9000156845EA0C0CD5684CEA050C0CFA03FCF5
:101EA00041EA0C01016033E005684FF0C00C0CFA08
:101EB00003FC25EA0C0545EA0C0CC0F800C0D0F87C
:101EC00060C040F60F759D402CEA050C15685668F9
:101ED000AD08B60845EA06259D404CEA050CC0F859
:101EE00060C0C1F3C01100EB8101D2F80CC0C1F891
:101EF00058C00DE001684FF0FC0C0CFA03FC21EA1D
:101F00000C01D2F800C00CFA03FC41EA0C0101609C
:101F1000C16B4FF0070C0CFA03FC21EA0C01D2E96B
:101F200004C592694CEA050C4CEA02029A4011433E
:101F3000C163204670BC704770B4684A067A684B2B
:101F40000025141F0168A3F1040C002E74D0A1B168
:101F5000467A76B3012E36D0022E18BF01253BD02B
:101F6000847A54B15F490A1F012C3DD0022C45D020
:101F7000032C18BF45F002054AD04168002971D0F2
:101F8000427A002A4DD0012A57D0022A18BF45F0C4
:101F900004055DD0837A002B64D053490A1F012BBE
:101FA00061D0022B6AD0032B18BF45F0050571D014
:101FB00090E0FFE7166826EA0101116001682268D7
:101FC00011432160CCE7266826EA010121600168FF
:101FD000146821431160C3E726683143216001681A
:101FE000146821431160BBE704680E6826EA040404
:101FF0000C600168146821431160BEE7046816682C
:1020000026EA0404146002680C6822430A60B4E7FC
:10201000046816683443146002680C6822430A603E
:10202000ABE71A6822EA010119604168DCF8002078
:102030001143CCF80010ADE737E0DCF8002022EACD
:102040000101CCF8001041681A6811431960A1E73A
:10205000DCF800201143CCF8001041681A681143E5
:10206000196097E736E04368D1F800C02CEA030313
:102070000B6040681168084310602BE04368D2F899
:1020800000C02CEA0303136040680A68104308602C
:1020900020E0FFE74368D2F800C04CEA0303136076
:1020A00040680A681043086014E0266826EA0101C7
:1020B00021600168146824EA010111604168DCF8BC
:1020C000002022EA0101CCF800104068196821EADA
:1020D00000001860284670BC7047000004040140EE
:1020E000240401400C0401402C0401402DE9F003BC
:1020F0000A6892FAA2F3B3FA83F3DA407ED001259C
:102100000F244FF0030C00BF0E6805FA03F23240B3
:1021100075D04E68012E18BF022E22D18F68D0F8DC
:10212000088092FAA2F6B6FA86F64FEA46060CFA4C
:1021300006F628EA060692FAA2F8B8FA88F84FEAF4
:10214000480807FA08F746EA07068660CF680E686F
:10215000D0F8048028EA060806FB07F648EA0606D7
:1021600046600E69D0F80C8092FAA2F7B7FA87F7AA
:102170004FEA47070CFA07F728EA070792FAA2F88E
:10218000B8FA88F84FEA480806FA08F647EA060659
:10219000C6604E68022E34D1B2F5807F16D24E69E9
:1021A000076A92FAA2F8B8FA88F84FEA880804FA9F
:1021B00008F827EA080792FAA2F8B8FA88F84FEA6E
:1021C000880806FA08F63E4306621AE04F69D0F81E
:1021D0002480160A96FAA6F9B9FA89F94FEA89090C
:1021E00004FA09F996FAA6F6B6FA86F6B60028EACF
:1021F000090807FA06F648EA060601E01BE015E0C2
:1022000046624F68D0F8008092FAA2F6B6FA86F6D7
:1022100076000CFA06F692FAA2F2B2FA82F25200B4
:1022200028EA060607FA02F2324302600A685B1CDB
:10223000DA407FF469AFBDE8F00300207047026820
:1022400022F001020260D1E90232D0F800C043EA74
:1022500002222CF4F85C4CEA020202604A68026135
:10226000026842F001020260826822F40042826049
:102270000B698A69D0F808C01A436FF30A0C4CEA5C
:10228000020282600A691AB1826842F400428260E6
:102290000A68036823F440131A43026049694268DC
:1022A00022F4004211434160002070474FF47A71DC
:1022B000B0FBF1F0411E4FF0E0204161002181614F
:1022C0000521016170470000014610B50020C029BA
:1022D00018BF10BD1A4CD4F8881001F0C00141F4A9
:1022E00040014039B1F5400117D0402919D080296B
:1022F0001ED001F07BF8A168124A01F0F001090933
:10230000515C01F01F01C840A1680F4AC1F30221CE
:10231000515C01F01F01C84010BDBDE8104001F044
:1023200065B82168C1F38021002918BF074810BD96
:10233000D4F8901011F0020F18BF4FF4004010BDF8
:1023400000100240A4580008B45800080024F4000B
:1023500070B5024600204449444D454E454C032A81
:1023600013D00C2A43D0302A18BF70BDD4F888206F
:1023700002F0300242F44012103AB2F5401262D03C
:10238000102A64D0202A68D03FE0D4F888206FF467
:10239000403302F0030242F44032D21853D0012AF3
:1023A00013D0022A19D001F021F8A16801F0F00140
:1023B0000909695C01F01F01C840A168C1F3C2218D
:1023C000715C01F01F01C84070BD2268C2F3802219
:1023D000002A08BF70BD084670BDD4F8901011F0F7
:1023E000020F08BF70BD00BF4FF4004070BDD4F8AD
:1023F000882002F00C0242F44022121FB2F5402263
:1024000021D0042A13D0082A17D000F0EFFFA168CA
:1024100001F0F0010909695C01F01F01C840A168E1
:10242000C1F30221715C01F01F01C84070BD226838
:10243000C2F38022002ACED170BDD4F8901011F0E2
:10244000020FD1D170BDBDE8704000F0CFBF22684F
:10245000C2F38022002ABED170BDD4F8901011F0D2
:10246000020FC1D170BD00000024F400A458000880
:10247000B4580008001002400368012213F0400F16
:1024800031D1D1E900231A43D1E9033C43EA0C03DB
:102490001A434B691A438B691A43CB691A430B6A77
:1024A0001A43036823F0BF0323F47F431A430260F7
:1024B00042684B6922F4417222F4406242EA1342BC
:1024C0008B681A4342608A68B2F5006F03D2426893
:1024D00042F4805242600A6AB2F5005F02D1898CF0
:1024E00089B201610022C16921F40061C161104615
:1024F0007047000001490860704700000400002098
:102500000A7B8B681A434B6822F480621A430B687B
:1025100022F400621A43CB8922F480521A430B69D9
:1025200022F400521A43CB6A22F480421A434B69C8
:1025300022F470221A438B6922F080521A43A0F1D0
:102540008043B3F596331CBFA0F18043B3F59A33B3
:102550000FD14B6A22F470021A43CB6922F08072C9
:102560001A430B6A22F000721A43896A22F0005261
:102570000A434264002070472DE9F0010268234BB2
:10258000234CDFF89080DFF890C0984218BFB0F17C
:10259000804F04D0A0421CBF4045604504D14D6827
:1025A00022F0700242EA05021C4D1D4E1D4F98425A
:1025B00018BFB0F1804F0BD0A04218BF404507D0E4
:1025C000604518BFA84203D0B04218BFB84204D13A
:1025D000CC6822F4407242EA040202608A68C26255
:1025E0000A888262984218BF604504D0A8421CBF86
:1025F000B042B84201D109690163416941F001016A
:102600004161BDE8F0014FF000007047002C01402F
:102610000004004000080040003401400040014038
:1026200000440140004801402DE9F0070023DFF895
:1026300038C3CE4CCE4DCF4ECF4F4FF00108B1F541
:10264000805F00F0E08008DC012910D0102952D012
:10265000B1F5807F7ED000F083B9B1F5803F00F006
:102660001781B1F5801F00F0488100F079B9016A47
:1026700021F001010162016AD0F80480D0F81890BD
:10268000D2F800A029F0730929F4803949EA0A092F
:10269000D2F810A021F0020141EA0A01D2F804A008
:1026A00021F0010141EA0A01604518BFA04204D0AF
:1026B000A8421CBFB042B84215D1D2F814C021F0D4
:1026C000080141EA8C01D2F808C021F0040141EA76
:1026D0008C01946928F4807C4CEA040CD4692CF4B5
:1026E000007C4CEA4408C0F80480C0F81890D26816
:1026F000426300F033B9016A21F010010162D0F8A1
:1027000020804168D0F81890D2F800A029F4E6495A
:1027100029F0807949EA0A29D2F810A028F0200887
:1027200048EA0A18D2F804A028F0100848EA0A1863
:10273000604518BFA04204D0A8421CBFB042B842B6
:1027400017D1546928F0800C4CEA841C2CF0400C02
:10275000946800E013E04CEA8418D2F818C021F421
:10276000806141EA8C01D2F81CC021F4006141EA89
:10277000CC014160C0F81890D168816340E0016AE3
:1027800021F480710162D0F820804168D0F81C905B
:10279000D2F800A029F0730929F4803949EA0A091E
:1027A000D2F810A028F4007848EA0A28D2F804A049
:1027B00028F4807848EA0A28604518BFA04204D06F
:1027C000A8421CBFB042B84215D1546928F4006C2D
:1027D0004CEA842C94682CF4806C4CEA8428D2F85F
:1027E00018C021F4805141EA0C11D2F81CC021F428
:1027F000005141EA4C114160C0F81C90D168C1639E
:10280000C0F82080ABE0016A21F480510162D0F869
:1028100020804168D0F81C90D2F800A029F4E64945
:1028200029F0807949EA0A29D2F810A028F4005842
:1028300048EA0A38D2F804A028F4805848EA0A384E
:10284000604518BFA04204D0A8421CBFB042B842A5
:1028500015D1546928F4004C4CEA843C94682CF45B
:10286000804C4CEA8438D2F818C021F4804141EA07
:102870008C11D2F81CC021F4004141EACC11416016
:10288000C0F81C90D1680164C0F82080984667E0C9
:10289000016A21F480310162D0F82080016DD2F804
:1028A000009021F0700121F4803141EA0901B2F871
:1028B000109028F4003848EA0948B2F8049028F447
:1028C000803848EA0948604518BFA04204D0A842B1
:1028D0001CBFB042B84208D1D0F804C094692CF4AF
:1028E000803C4CEA042CC0F804C00165D168826CBD
:1028F0008164C0F82080984632E0016A21F480119A
:102900000162016AD0F85080D2F8009028F4E048C3
:1029100028F0807848EA0928B2F8109021F40011D4
:1029200041EA0951B2F8049021F4801141EA0951B9
:10293000604518BFA04204D0A8421CBFB042B842B4
:1029400008D1D0F804C094692CF4802C4CEA842C73
:10295000C0F804C0C0F85080D268C26401629846D2
:102960004046BDE8F0077047002C014000340140AC
:10297000004001400044014000480140012908BFD7
:10298000002124D0042908BF012120D0102908BF2C
:1029900002211CD0402908BF032118D0B1F5807F47
:1029A00008BF042113D0B1F5806F08BF05210ED0F8
:1029B000B1F5805F08BF062109D0B1F5804F08BF8F
:1029C000072104D0B1F5803F0CBF08210921084B35
:1029D00018305B5C1844D0F800C0064B595C064BBD
:1029E0008B402CEA030302FA01F11943016070479E
:1029F000C2580008CC5800087300010070B50446A6
:102A000000680D46012610F0010F5CD12969A86805
:102A1000EA6908436969114308432168314A114052
:102A200008432060E868616821F440510843606011
:102A3000A869A16821F440710843A060A4F1804016
:102A4000B0F59C3013D0A4F18040B0F5884008BFA9
:102A50000C2010D0A4F18040B0F5904008BF302089
:102A600009D0A4F18040B0F5984007D024E00320BD
:102A7000FFF76EFC05E0FFF76BFC02E0C020FFF7FC
:102A800023FC00281CBF6968002915D02A68EB695F
:102A90004FF000060B2A0FD8DFF84CC0D2B2B3F5C6
:102AA000004F5CF82220B0FBF2F00ED000EB51009A
:102AB000B0FBF1F080B2E0602888E16A80B221F0DA
:102AC0000F010843E062304670BD400000EB51004A
:102AD000B0FBF1F080B24FF6F0710140C0F342005C
:102AE0000843E8E7F369FFEF74580008F0EE400A86
:102AF00090ED000A90ED041AD0ED011A90ED052A30
:102B000020EE010A01EE820AD0ED021A90ED062AAB
:102B100001EEA00AD0ED031A80ED051A01EE820A3B
:102B200080ED040AC0ED060A7047000080EC040A3C
:102B30009FED040A80ED060A80ED050A80ED040A87
:102B400070470000000000002DE9F041A04D044650
:102B50002DED048BD5ED008ADFED9E0A95ED011A6F
:102B600068EEA00ADFED9C1A41EE610A9FED9B1A08
:102B7000D5ED021AC5ED018A40EE010A41EEC10A07
:102B8000C5ED000A85ED020A90ED020AD0ED000ABB
:102B90009FED938A9348944F60EE880A0068DFF8AF
:102BA0004C8290ED061A00EE810A84ED020A94ED43
:102BB000020A10EE100A94ED020AB842C8BF30EEC5
:102BC000480A08DC10EE100A404584BF94ED020A62
:102BD00030EE080A01D984ED020A94ED020AD4ED20
:102BE000040A30EE200A10EE100AB842C8BF30EED8
:102BF000480A05DC10EE100A404588BF30EE080A8E
:102C0000FDF79FFC94ED031A794821EE001A94ED2C
:102C1000030A84ED051A20EE200A61EE280A84EDED
:102C2000060A20EE280AC4ED070A84ED080A90ED92
:102C3000000ADFED700A00F1080120EE200AD1ED54
:102C4000001A9FED6D1A00F1100201EEC10A92ED1B
:102C5000002ADFED6A1AD4ED072A02EE210A9FED61
:102C6000682AA0F1080300F11806B7EE009A02EEF8
:102C7000820A83ED000AD4ED072AC2ED002A80ED16
:102C8000000A81ED000AD0ED012A62EEA00AD1ED22
:102C9000012A42EEC10A92ED011A41EE210A94ED99
:102CA000081A41EE020AC3ED010A94ED081A82EDFA
:102CB000011AC0ED010AC1ED010A84ED090AC4ED53
:102CC0000A0AD6ED000A94ED090A94ED091A40EEBD
:102CD000010AC6ED000A96ED010A94ED0A1AD4ED38
:102CE0000A1A01EE210A86ED010A95ED030A30EE7B
:102CF000091A80EE810AFEF7B9FBF0EE408A95EDE5
:102D0000030AD6ED010A30EE091A80EE810AFEF7B9
:102D1000ADFBD5ED030A70EE890AC5ED030AC4EDDB
:102D20000B8A84ED0C0A94ED0B0AD4ED0B0A94ED9A
:102D30000C1A20EE200AD4ED0C0A00EE810AFEF7F0
:102D400095FBF0EE000A60EE208AD4ED0B0A94EDBC
:102D50000C0A00F0A3FED4ED010A9FED2A1A2B49BC
:102D600060EE810A80EEA81ADFED270A61EE208A64
:102D700018EE900A8842C8BFDFED258AB1EE400AFE
:102D800010EE100AB842C8BF30EE480A05DC10EE5B
:102D9000100A404588BF30EE080AFDF7D2FB60EE0E
:102DA000A80A20EE280A9FED1B1AC4ED0F0AFEEEBA
:102DB000000A60EE200A80EE810AD4ED000A80EE5F
:102DC000201A84ED101ABDEC048BBDE8F0810000E0
:102DD00038000020AC1CFA3FF016783F24B9FC3CC8
:102DE000DB0FC94070000020DB0F4940DB0F49C0FA
:102DF00050000020355EFA3F2FDD743FA9E8FE3910
:102E0000B72FFB39AAF1A23F2368D03F0000204131
:102E100000000000DB0F49402DE9F04FA1B0002475
:102E20001C941F940A9406940794089409940F9490
:102E30000B940C940D940E94149410941194129479
:102E400013941994AB4D15941694179418940094F8
:102E500001940294039404940594286E40F4006055
:102E60002866286EA44E00F400601A9040201D9041
:102E700042F233101E9001202090ADF870401CA942
:102E80003046FFF779FB306820F080003060B06892
:102E900020F0070020F4A030B060DFF860B298485E
:102EA0009BF800100F1838680BF10A094FF0080A58
:102EB00099F800100AFA01F1084338607020CDE952
:102EC0000604089409940A940B940C9406AA012110
:102ED00030460D94FFF7A8FB386899F800104FF0C2
:102EE000040808FA01F1884338609BF8021084480E
:102EF0000F18386899F802100AFA01F1084338608F
:102F000006AA10213046FFF78FFB386899F80210A7
:102F100008FA01F1884338609BF8041078480F18CC
:102F2000386899F804100AFA01F10843386006AAD3
:102F3000A9153046FFF778FB386899F8041008FAAD
:102F400001F188433860706820F0700020F0007054
:102F500040F020007060706820F470007060B0680D
:102F600020F08000B0606749086898FAA8F2B2FAC9
:102F700082F202F01F024F1507FA02F2904398FA0C
:102F8000A8F2B2FA82F202F01F0204FA02F210432F
:102F90000860086840F00400086008689AFAAAF21D
:102FA000B2FA82F202F01F0207FA02F290439AFA92
:102FB000AAF2B2FA82F202F01F0204FA02F21043FD
:102FC0000860086840F0080008600A68102090FA5D
:102FD000A0F3B3FA83F390FAA0F003F01F03B0FA62
:102FE00080F007FA03F300F01F009A4304FA00F0A0
:102FF00010430860086840F01000086088148DF8DD
:103000004440ADF846004FF400590E940F941094CC
:103010008001CDF84890CDE91304C001CDE91540F9
:10302000179418940EA930461994FFF769FAE86CC2
:1030300040F00400E864E86C00F004001A90E86CCA
:1030400040F00200E864E86C00F002001A90E86CBE
:1030500040F00100E864E86C022500F001001A90DD
:10306000CDF80090CDE90154274ECDE904486946DA
:1030700030460394FFF73AF801200090CDE901545F
:10308000694630460394CDE90445FFF72FF8CDF8A3
:103090000080CDE90154694630460394CDE90445EA
:1030A000FFF724F868030090CDE901540626DFF805
:1030B0005C80CDE90446694640460394FFF716F864
:1030C0000097CDE90154CDE9044669464FF09040A0
:1030D0000394FFF70BF80097CDE901540C20CDE9DC
:1030E0000440694603944046FFF700F821B0BDE86C
:1030F000F08F000000100240002C01404C580008E6
:10310000182C0140602C01400008004800040048D1
:1031100010B49FED170A03293CBF10BC70474FF055
:10312000000C4C1E002C1BDDA1EB0C035A1E002AC8
:10313000C4BF02465B1E0FDD92ED000AD2ED010A0C
:10314000B4EEE00AF1EE10FAC4BFC2ED000A82ED5F
:10315000010A121D5B1EEFD10CF1010C6445E3DC8A
:10316000490800EB810090ED000A10BC7047000098
:1031700000000000FEE7FEE710B553480C462DEDB9
:103180000C8B0E99006894ED031A91ED009A90ED66
:10319000040AD1ED018AD0ED060A69EE001A28EE84
:1031A000802A94ED040AD4ED002A31EE613A30EE23
:1031B000421A90ED038A454823EE030A23EE223A91
:1031C000006893ED00CA01EE010A21EE221AD0ED4B
:1031D000069AD3ED01BA10EEA00A23EE00AA61EE22
:1031E00000AA94ED030A94ED041A30EE610A31EE60
:1031F000421AC0EE201A81EE200AC4ED061A84EDB0
:10320000050AD4ED06CA94ED05DA90ED06BA94ED00
:103210000D0AFDF796F960EE8D0A2D494CEEC00AB5
:10322000C4ED070A94ED0C0A00EE8B0A84ED0C0A3B
:1032300094ED0C0A94ED091A20EE010A94ED081A97
:1032400001EE200A84ED0A0A94ED0D0AD4ED0A0A73
:1032500000EE8B0A84ED0D0A94ED0D0A10EE100AB3
:1032600094ED0D0A884220DDDFED1A0A30EE200AC7
:1032700084ED0D0A09EE48AA94ED0D0A48EEC8AA9D
:1032800084ED0B0A94ED030A7AEE0C0A00EEA90A0B
:103290007AEEAB0A84ED030A94ED040A00EEA90A63
:1032A00084ED040ABDEC0C8B10BD10EE100A0A4927
:1032B00094ED0D0A884284BFDFED080A30EE200A43
:1032C00084ED0D0AD6E700009C000020700000206D
:1032D000DB0F4940DB0FC9C0DB0F49C0DB0FC94022
:1032E0007047000070B5FEF705FC3C4C3C49206877
:1032F00080ED070AC0ED080A09680A7A042A07D097
:103300000A7A022A04BF91F82020002A45D060E002
:1033100090ED070AD0ED050A30EE600A80ED070A4D
:1033200090ED080AD0ED060A30EE600A80ED080A3A
:10333000087C082819D2DFE800F00418070A0D10ED
:103340001316FDF719FD10E0FDF7E8FF0DE0FDF79E
:1033500005FE0AE0FDF7B6FE07E0FDF77FFA04E0A0
:10336000FDF7B8FB01E0FDF7C5F920681D4D011D13
:1033700028680830FDF782F9286880ED040AC0ED5E
:10338000050A216891ED030A00F060F92868828C33
:10339000418C008CFEF74EFB1BE04A68531C4B60CF
:1033A000642A11D090ED070A4A680F4B03EB8202A2
:1033B00082ED000A90ED080A486803F5C87101EB38
:1033C000800080ED000A04E000204860012081F8C0
:1033D0002000BDE87040FEF727BA0000A4000020DE
:1033E00070000020980000205C01002015498868CA
:1033F00000F00C031448042B08BF7047134A082B35
:1034000004BF104670470C2B18BF7047CB6803F001
:103410000303022B02D0032B08BF1046CA68C2F375
:1034200006224243C868012300F0F00003EB1010AD
:10343000B2FBF0F0C968C1F34161491C4900B0FB1F
:10344000F1F07047001002400024F40000127A00EE
:1034500000F0ECBA704700002DE9F05F714C2DEDE3
:10346000028B206890F90810DFF8BC81DFF8BC916E
:1034700000256F4F6F4E491C4FF0020A052977D285
:10348000DFE801F0030A3B586E00FEF707FB01F08E
:10349000D3FF206805726BE0FEF73AF9D7E9020125
:1034A000B0EE408A0A220023FCF706FF08EB8200F8
:1034B0000A2180ED008A5C48FFF72AFE306880ED23
:1034C000030A90ED030A10EE101A494512DD90ED43
:1034D000030A594910EE100A81420BDD2168086881
:1034E000421C0A60322843D9FEF7E8F820680560DC
:1034F000012133E0206805603AE001684A1C02605F
:10350000322904D94560056080F808A030E00168E0
:103510002D2909D949480068C06902461146FEF7BD
:1035200089FAFEF795FA23E00068232888BFFEF7A2
:10353000BBF91DE090F82000D0B164214048FFF7AE
:10354000E7FD3068642180ED050A3E48FFF7E0FDA5
:10355000306880ED060A206805600321017207E0EB
:10356000FEF746F920B1FEF773FA216804200872CD
:103570002068007A042848D1FEF73AF94FF0FF3B63
:10358000002804BF206880F808B0FEF7C1F8D7E92A
:103590000201B0EE408A0A220023FCF78DFE08EB00
:1035A00082000A2180ED008A1F48FFF7B1FD3068D4
:1035B00080ED030A90ED030A10EE101A49450CDA6B
:1035C00021680868421C0A608C281ED9FEF766FA3A
:1035D0002068056080F809A015E090ED030A1A49FB
:1035E00010EE100A8842DCBF206805600DDD2168FE
:1035F0000868421C0A608C2807D9FEF74FFA206839
:1036000005600121417280F808B0D7E90201401C31
:1036100041F10001C7E90201BDEC028BBDE8F05F9A
:10362000FEF766B9700000207C040020CDCCF44188
:1036300028000020A400002099992542980000202D
:103640005C010020EC020020676666428749D0EDED
:10365000042AD0ED051A096891ED062A0021DFED54
:10366000840AB6EE003A62EEA00AB0EE601A01EEED
:10367000C31AB0EE414ADFED7F3A62EEA33AF0EEB4
:10368000634A41EEC34ADFED7C2AF5EEC01A0122FF
:1036900022EE225AC5EE002AF1EE10FAC8BF01212F
:1036A000B5EEC01AF1EE10FAC8BF891CF5EEC04A9B
:1036B000F1EE10FAC8BF091DB5EE001A07297AD23B
:1036C000DFE801F096041E3449617A00022180F897
:1036D000261041EE833A41EE830A23EEA20A60EE01
:1036E000A21A72EE402A32EE000A72EEA10A30EE01
:1036F000210A72EEE11A60EE810A20EE010A74E0FE
:10370000062180F8261041EE830A62EEE11A20EECF
:10371000A20A72EE000A32EE402A70EEA10A32EEE0
:10372000610A60EE810A20EE010A29E080F8262075
:1037300024EE220A62EEA11A72EE000A32EE402A4C
:1037400070EEA10A32EE210A72EE611A60EE810A71
:1037500020EE010A49E0042180F8261041EE833A68
:1037600022EEE14A32EE440A63EEA21A32EE042A55
:1037700070EE610A30EE210A60EE810A20EE010A45
:1037800072EE211A31E0032180F8261041EE830AFF
:1037900022EEA10A62EEE01A72EE402A32EE000A30
:1037A00072EEE10A30EE210A72EEA11A60EE810A91
:1037B00020EE010A19E01BE0052180F8261041EEF9
:1037C000830A41EE833A22EEE04A62EEE31A32EED9
:1037D000440A32EE042A70EE210A30EE610A72EEDB
:1037E000211A60EE810A20EE010A21EE811A05E01D
:1037F00022EE010AF0EE400AB0EE401AD0ED061AB1
:1038000061EEA00AFDEEE00A10EE903AD0ED060A55
:10381000002B20EE800ABDEEC00A10EE102A90EDBB
:10382000060A20EE010ABDEEC00A10EE101AB8BF5B
:10383000002304DBD0F81CC09C4538BFC369002AB4
:10384000B8BF002204DBD0F81CC0944538BFC26961
:103850000029B8BF002104DBD0F81CC08C4538BF5C
:10386000C169038442848184704700007000002095
:10387000D7B35D3FD7B35DBFD7B3DD3F2149D0EDAF
:10388000000A214A096870EEC00A90ED030A91ED22
:10389000051A00EE810A80ED030A90ED030A10EE8E
:1038A000101A9142C4BF9FED190A80ED030A0CDC87
:1038B00090ED030A164A10EE101A914234BF90EDB3
:1038C000030A9FED140A80ED030A90ED030A9FEDB1
:1038D000121A134A20EE010A9FED101A00EE810A17
:1038E00010EE101A9142C8BF9FED0E0A04DC10EED4
:1038F000101A0D4A914202D880ED040A70479FEDDC
:103900000B0AF9E77000002000008A4200008A429A
:1039100000008AC200008AC2CDCCCC3D0AD7233C2D
:10392000CDCCDC40CDCCDC40CDCCDCC0CDCCDCC0C3
:10393000FFF792BD314810B5016821F00F0141F049
:1039400004010160016801F00F010429FAD12C483B
:1039500050F8801F21F4807101602A48016841F409
:10396000803101600168C1F340410029FAD0C2688A
:1039700045F21351244B1A401143C160C16841F014
:103980008071C160016841F0807101600168C1F31C
:1039900040610029FAD0816841F0030181608168AB
:1039A00021F0F00141F080018160816801F00C019B
:1039B0000C29FAD115490A6842F080720A6014494C
:1039C0000A6842F001020A6000224A604A68642ADA
:1039D000FCD3816821F0F0018160816821F4E0610D
:1039E0008160816821F4605181600A4C2046FEF7B5
:1039F0005DFC2046BDE81040FEF77CBD0020024083
:103A000000700040001002400C80FFF9FCED00E067
:103A1000001000E080FE210A0248016841F47001B4
:103A20000160704788ED00E0FEE7000010B5164C1D
:103A3000A8212046FCF7B7FC03202061606113A099
:103A4000A06104F1A800E0614FF4806020620020D2
:103A5000A0626062E0620DA1216604F59561616675
:103A60001021A1662067E06660670B49C0F10F0274
:103A70008A5C2254C0F10E0223188A5C5A70801CA2
:103A80001028F3D310BD0000C00700205465726DEC
:103A9000696E616C00000000D45C00089FED3F1A65
:103AA000B5EEC00AF1EE10FA04BFF5EEC00AF1EE71
:103AB00010FA65D0B5EEC00A0021F1EE10FA64D21A
:103AC000F5EEC00AF1EE10FA2CBF04220322F5EE47
:103AD000C00AF1EE10FAD8BFF1EE600AB5EEC00AE6
:103AE000F1EE10FAD8BFB1EE400AB4EEE00AF1EE02
:103AF00010FAD8BFF0EE601A04DDF0EE401AB0EE16
:103B0000600A012180EE212A9FED260ADFED242A9A
:103B1000F7EE000A62EE001AF4EEC01AF1EE10FAA7
:103B200028BFFD200BD2FCEEE10A10EE900AF8EE61
:103B3000600A00EEA21A72EE410A60EE800A1A4B89
:103B4000002903EB800090ED001A90ED010A30EEA1
:103B5000410A00EE201A1CBFB5EE000A30EE411AF1
:103B6000B6EE000A022A08BF30EE411A08D0032A36
:103B700008BF31EE401A03D0042A08BFB1EE411A43
:103B80009FED0A0A21EE000A7047F5EEC00AF1EE39
:103B900010FA34BF0222012299E700000000000061
:103BA0000402813B00007E43D8580008DB0FC94067
:103BB000DFF870A49AB0DAF8600040F00100CAF8AB
:103BC0006000DAF8600000F001000090DAF85800B8
:103BD00040F08050CAF85800DAF85800DFF848B4CE
:103BE00000F080500090DBF800004FF6FF01084025
:103BF00040F4407040F0FD7040F08060CBF8000071
:103C0000DBF80000C0F30220C0F10701042988BFDF
:103C10000421021D072A34BF0020C01E012707FA15
:103C200001F1491E01F0060101FA00F0FF490025EB
:103C3000000181F8140DFE48016B21F001010163C0
:103C4000016B41F002010163FA48816841F480414F
:103C50008160FFF76FFEDAF8480040F00400CAF810
:103C60004800DAF8480000F004000090DAF8480054
:103C700040F00100CAF84800DAF8480000F00100FE
:103C80000090DAF8480040F00200CAF84800DAF87C
:103C9000480000F002000090DBF80000C0F30220B2
:103CA000011D072934BF0020C01E05FA00F0E249BB
:103CB000000181F800044FF0E0284FF40064C8F8D8
:103CC0000041DBF80000C0F30220011D072934BFCA
:103CD0000020C01E05FA00F0D849000181F8000458
:103CE0004FF48050C8F80001DBF80000C0F3022058
:103CF000011D072934BF0020C01E05FA00F0D0497D
:103D0000000181F80004CF494FF00070C1F80001B4
:103D100006950795089501950295039504950595D7
:103D2000DAF84C0040F00400CAF84C00DAF84C0015
:103D300000F004000990DAF84C0040F02000CAF8C6
:103D40004C00DAF84C0000F020000990DAF84C0042
:103D500040F00100CAF84C00DAF84C0000F0010015
:103D60000990DAF84C0040F00200CAF84C00DAF88A
:103D70004C00B54900F0020009904FF48060886261
:103D800040008862082000906946AF48FEF7AEF90F
:103D90004FF480600090CDE9017503956946AA480B
:103DA0000495FEF7A3F94FF400600090CDE901758A
:103DB00003956946A4480495FEF798F9A3488068DE
:103DC0004FF4706191FAA1F1B1FA81F101F01F0194
:103DD00020F4706007FA01F108439C498860402094
:103DE0008DF8207006908DF821508DF8227006A86D
:103DF000FEF7A2F896490220CA68402393FAA3F37B
:103E0000B3FA83F35B00032404FA03F39A434023D9
:103E100093FAA3F3B3FA83F35B0098401043C860AE
:103E20000868402292FAA2F2B2FA82F2520004FA30
:103E300002F29043402292FAA2F2B2FA82F25200C7
:103E400005FA02F210430860DBF80000C0F302201C
:103E5000C0F10701042988BF0421021D072A34BFCD
:103E60000020C01E07FA01F1491E01F0050101FA08
:103E700000F07849000181F800044FF40000C8F810
:103E800000011795189516950095039504950195D1
:103E90000295059508950995069507951295139530
:103EA000149515950C950D950E950F95DAF88800DB
:103EB0005C4920F0405040F000500226C1F88800D4
:103EC000C86C40F40050C864C86C00F400501090F6
:103ED000C86C40F00100C864C86C0AA900F0010079
:103EE0001090CDE90A744FF09040FEF7FFF80420DF
:103EF000CDE90A040AA90E954FF09040FEF7F6F8B6
:103F0000DBF80000C0F30220C0F10701042988BFDC
:103F10000421021D072A34BF0020C01E07FA01F148
:103F2000491E01F0040101FA00F04B49000181F83B
:103F300000044FF48020C8F80001C010CDE91650ED
:103F400016A94FF0A0401895FDF71BFFCDE90057CB
:103F500002950395049569464FF0A0400595FDF73D
:103F600029FF4FF0A040D0F8C0004FF0A0416FF300
:103F70000D00C1F8C000086920F4803008610869AC
:103F800020F0030020F4806008614FF44030CDE958
:103F9000060506A93148FDF7A1FE4FF08009CDE9DD
:103FA0001295149512A94FF0A0401595FDF7C0FE8B
:103FB0004FF0A040C0684FF0A04120F4001020F066
:103FC000004040F00040C860C86C20F4C07040F071
:103FD0008000C864886820F03F0020F0204088609E
:103FE000886820F03F0020F0004040F0805088605A
:103FF0001B4801681B48B1FBF0F000EB800081001A
:104000001948A0FB0110C00803D0B0F1004F81F0A7
:10401000F98116494FF0A0400A6822F4F86242F094
:10402000C00225E0001002400CED00E00FE000E0CF
:1040300000000140007000400BE000E00CE000E0F8
:1040400039E000E004E000E000080048040001401E
:104050000004004817E000E012E000E00003005018
:1040600004000020400D0300CDCCCCCC300000502B
:104070000A60FE4A136823F4606343F4007313601C
:1040800050F8B03F23F0080340F86439036823F484
:10409000785343F400730360136823F0380313600C
:1040A000426E22F0020242660A6822F4F83242F4BA
:1040B00090320A60EE490A6822F0E06242F0007233
:1040C0000A60416E21F480214166EA488068E9492E
:1040D00020F0E07040F48000886006950895049513
:1040E00005950B950C950D9509950A9501950295E9
:1040F000039500951095119512951395DAF888009F
:1041000020F0405040F00050CAF88800DAF84C0027
:1041100040F40050CAF84C00DAF84C0000F40050AB
:104120000790DAF84C0040F00100CAF84C00DAF8C9
:104130004C00CDE90E6400F0010007900EA94FF08D
:104140009040FDF7D3FFDBF80000C0F30220C0F180
:104150000701042988BF0421021D072A34BF00205B
:10416000C01E07FA01F1491E01F0040101FA00F036
:10417000C149000181F800044FF0E0214FF4802094
:10418000C1F80001C010CDE90450DFF8F08204A9A5
:1041900040460695FDF7F5FD09950A950B950C959A
:1041A00008A940460D95FDF705FED8F8C0006FF34D
:1041B0000D00C8F8C000D8F8100020F48030C8F80E
:1041C0001000D8F8100020F0030020F48060C8F838
:1041D0001000CDE900950295694640460395FDF72C
:1041E000A7FDD8F80C0020F4001020F0004040F0AB
:1041F0000040C8F80C00D8F84C0020F4C07040F023
:104200008000C8F84C00D8F8080020F03F0020F0EB
:104210002040C8F80800D8F8080020F03F0020F03F
:10422000004040F08050C8F80800DFF854829548FC
:10423000D8F80010B1FBF0F000EB8000810092484C
:10424000A0FB0110C00803D0B0F1004F81F0DE8068
:104250008A4850F84C1F21F4785141F48061016084
:104260008A490A6822F4E0720A60416E21F0040172
:10427000416609950A950B950C9508950495059549
:1042800006950795DAF84C0040F00200CAF84C0099
:10429000DAF84C0000F002000090DAF84C0040F030
:1042A0000100CAF84C00DAF84C0002A900F0010045
:1042B00000900320CDE902607548FDF717FF4FF429
:1042C00000600290CDE903650824CDE9065402A9F7
:1042D0004FF090400595FDF709FF600108905020D0
:1042E00009904FF4E020CDE90A0508A969480C952A
:1042F000FDF796FD6848D8F80010B1FBF0F0C82132
:1043000048430D90019019D0B0F1004F81F06280C8
:104310000028D8BF002005DD10F0010002D00D9963
:10432000491E0D910199401C491C884206DA0D9ADC
:10433000801C521E521E0D928842F8DB57480168BD
:1043400021F400110160A0F10408D8F8000020F465
:104350000010C8F800000595079508950995069581
:104360000C950D950E950F95DAF84C0040F0010074
:10437000CAF84C00DAF84C000AA900F001000090DD
:1043800008200A9003200B904FF09040FDF7AEFEFE
:104390004FF480700590402006904FF4E020CDE966
:1043A000070505A93E480995FDF73AFD3448DFF8B1
:1043B000E8B0C8210068B0FBFBF0484304900190CE
:1043C00019D0B0F1004F81F00B800028D8BF002039
:1043D00005DD10F0010002D00499491E04910199F5
:1043E000401C491C884206DA049A801C521E521E48
:1043F00004928842F8DB294C206820F48000206079
:10440000D8F8000020F48000C8F800002548019585
:104410000395049505950295089509950A950B95C0
:10442000C16C41F00401C164C06C06A900F0040035
:1044300000900320CDE906601B48FDF757FE4020A1
:10444000CDE902054FF4807ACDF804A0049501A9C6
:1044500016480595FDF7E4FC0948C8210068B0FB43
:10446000FBF048430C900D903CD021E0140000502C
:10447000180000500003005012E000E0000100505E
:1044800004000020400D0300CDCCCCCC1401005022
:10449000000400480002014080841E000404014022
:1044A00004020140001002400008004808020140D8
:1044B000B0F1004F80F09A870028D8BF002005DDBA
:1044C00010F0010002D00C99491E0C910D99401C6E
:1044D000491C884206DA0C9A801C521E521E0C920D
:1044E0008842F8DBFE48016821F000510160D8F8ED
:1044F000000020F00050C8F80000FA4C009501952B
:104500000295039504950A950B950C950D95E06C15
:1045100040F00200E064E06C08A900F002000590A1
:104520000120089003200990EF48FDF7DFFD4020AF
:10453000CDE900504FF4E020CDE902056946EB4893
:104540000495FDF76DFCEA48C8210068B0FBFBF05C
:1045500048430790069019D0B0F1004F80F04C8787
:104560000028D8BF002005DD10F0010002D0079917
:10457000491E07910699401C4A1C904206DA079989
:10458000801C491E491E07919042F8DBD448006800
:10459000D34920F080400860D8F80000091F20F0BF
:1045A0008040086001950095029503950695E06CA2
:1045B00040F48030E064E06CCF4F00F4803007902E
:1045C000DFF830B3F86B20F40070F8634FF00108A7
:1045D000CDE904686A4659463846FDF741FC38681B
:1045E00020F002003860F86B20F48070F8630195C9
:1045F0000095029503950695E06C40F48020E064F8
:10460000E06CBE4F00F480200790F86B20F400703F
:10461000F863CDE904686A4659463846FDF720FC40
:10462000386820F002003860F86B20F48070F8637E
:10463000B349F86B20F00070F8636A463846FDF71E
:104640000FFC386820F400303860F86B20F0807080
:10465000F863AC480095019502950395049505957E
:1046600006950168032721F440510160E06C40F099
:104670000200E064E06CCDE90A7800F002000996DF
:10468000CDE907090420CDE90C8008A99648FDF77B
:104690002DFD0420CDE90C80CDE90A78CDE908A6EE
:1046A00008A99148FDF722FDA06D40F40010A06517
:1046B000A06D964900F4001007909348D1F80018B7
:1046C000924A21F0FF0141F01001C2F80018904910
:1046D0004A7882584B7822F0100222F48042C2506D
:1046E0004A7882584B7822F44052C2504A78825815
:1046F0004B7842F02002C2504A7882584B7822F020
:104700004002C2504A7882584B7842F08002C25030
:104710004A7882584B7822F44072C2504A788258C4
:10472000497822F4406242507A487B4FCDE90050EC
:104730000295039504950595694638460695FDF75B
:104740007EFD786840F000707860F8686FF34A008A
:10475000F860F86820F40040F860386820F4002021
:104760003860386820F4003038606648009501955C
:104770000295039504950595069501684FF0030B86
:1047800021F440310160E06C40F00400E064E06C32
:1047900000F004000790E06C40F00100E064E06C81
:1047A00008A900F0010007907815CDE9080601205E
:1047B000CDE90AB00C9008200D905848FDF796FC02
:1047C0000120CDE908A6CDE90AB0CDE90C0608A97B
:1047D0004FF09040FDF78AFCA06D40F08040A0654E
:1047E000A06D4F4F00F0804007904A480295CDE9F8
:1047F0000050039504950595694638460695FDF7E2
:104800001EFD786840F000707860F8686FF34A0029
:10481000F860F86820F40040F860386820F4002060
:104820003860386820F4003038600795089509959D
:1048300006950A950C950D950E950B950F9502957D
:1048400003950495A06D40F48040A065A06D00F430
:1048500080401090E06C40F00200E064E06C00F0FA
:1048600002001090E06C40F00100E064E06C6946EA
:1048700000F001001090B814CDE900060520059065
:104880001948FDF733FC78140090CDE90165052047
:10489000CDE90450694603951348FDF727FC381508
:1048A0000090CDE901650520CDE9045069460395E6
:1048B0004FF09040FDF71AFC381506904FF48270C7
:1048C00007904FF45060CDE908054FF48020CDE902
:1048D0000A502820CDE90C05072006A9114F23E036
:1048E0000404014000100240000400480C02014092
:1048F00004000020010011020008005000100050C8
:10490000F2004235881002400004024024000240B8
:1049100046580008FBA7A03000540040000800489B
:104920000078004000380040CDE90E503846FDF7D1
:10493000A3FD786820F010007860786840F00800E7
:104940007860FEF769FA1195129510951395079501
:1049500008950F95069509950C950D950A950B955B
:10496000029503950495A06D40F00200A065A06D2E
:1049700000F002000E90E06C40F00100E064E06C9A
:1049800000F001000E90E06C40F00400E064E06C88
:10499000694600F004000E904020CDE900064FF07B
:1049A00090400596FDF7A2FBCDF80090CDE901659A
:1049B000CDE9045669464FF090400395FDF796FB0C
:1049C000B8150090CDE90165CDE904566946FD486A
:1049D0000395FDF78BFB4FF6FF70CDE91050FA4FB2
:1049E000ADF83C500FA938461295FDF7C5FD386863
:1049F00020F080003860386A20F011003862F348F7
:104A0000007800F1804000F583600168DFF8C08322
:104A100098F800200BFA02FA21EA0A0141EA0A0199
:104A20000160026898F800300C219940169122EA42
:104A3000010198F8002005FA02F941EA0901016034
:104A4000026898F80010F02303FA01F10E9122EAAF
:104A5000010141EA09010160386A08F10A010A22EC
:104A6000097802FA01F1884308F10A01097805FA88
:104A700001F108433862786840F080007860B868D7
:104A800020F0700020F4401040F04000B860B8689A
:104A900020F0070020F4803040F00400B86070205F
:104AA000CDE90605089509950A950B950C9506AA7A
:104AB000102138460D95FDF7B7FDA8F11400807858
:104AC00000F1804000F583600168A8F10A024FF010
:104AD000040B92780BFA02F291430160786820F09F
:104AE000700020F0007040F050007860B86820F04E
:104AF0008000B86009950A950B9508950C9504956A
:104B000005950695206E40F400502066206E00F456
:104B100000500090E06C40F00400E064E06CCDF8E0
:104B20001CB000F0040000904020CDE9020602A96C
:104B3000A448FDF7DBFA80200290CDE90365CDE9BA
:104B4000065B02A99F480595FDF7D0FAADF8205005
:104B500042F21070CDE909509E4F0B9508A93846D6
:104B60000C95FDF709FD386820F080003860B868C2
:104B700020F0070020F4803040F00300B860A8F176
:104B80001400954900780844016898F8002021EA4B
:104B90000A0301219140194301600268169922EA33
:104BA000010141EA0901016002680E9998F800309C
:104BB00022EA010130229A40114301603846002365
:104BC000D0F820C008F10A010A27CA5C97402CEAF5
:104BD000070C03FA02F24CEA02020262A1F11E0281
:104BE00093787D4A1A441768A1F10A0C03239CF8B4
:104BF000028003FA08F39F43012303FA08F33B43BF
:104C0000136017689CF802800C2303FA08F39F4393
:104C100008F0FF0305FA03F31F43176017689CF8B9
:104C200002C04FF0F00808FA0CFC27EA0C0C4CEA22
:104C300003031360026A8B784FF00A0C89780CFA30
:104C400003F39A4305FA01F111430162416821F02F
:104C5000700121F000714160416821F470014160F0
:104C6000816821F080018160029503950495079584
:104C700008950995059506950C950D950E95D4F812
:104C8000880020F00300C4F88800206E40F48040C3
:104C90002066206E00F480400090E06C40F004003C
:104CA000E064E06C4FF0070A00F004000090102070
:104CB000CDF83CA0CDE90A060AA94248FDF716FA4C
:104CC00020200A900220CDE90B050720CDE90E50E7
:104CD0000AA90D953B48FDF709FADFF8008108F1B4
:104CE000040BDBF8000820F0FF0040F01800CBF8C0
:104CF00000083B4F787858F80000797820F01000D1
:104D000020F4804048F80100787858F8000079785D
:104D100020F4405048F80100787858F8000079787D
:104D200040F0200048F80100787858F800007978C1
:104D300020F0400048F80100787858F800007978B1
:104D400040F0800048F80100787858F80000797841
:104D500020F4407048F80100787858F8000079781D
:104D600020F4406048F80100D8F8000820F0FF0067
:104D700040F01900C8F80008387858F80000397871
:104D800020F0100020F4804040F0100048F80100AE
:104D9000387858F80000397820F4405048F801007D
:104DA000387858F80000397820F0200048F80100E1
:104DB000387858F80000397820F0400048F80100B1
:104DC00038780FE000080048000400404C58000804
:104DD00060580008003401401834014000000240CF
:104DE0004658000858F80000397840F0800048F82C
:104DF0000100387858F80000397820F4407048F8FD
:104E00000100387858F80000397820F4406048F8FC
:104E10000100FE48DFF8F893CDE902500C20CDE9FF
:104E2000065004950595089502A948460995FDF791
:104E3000E5FD002209F1080050E8001F62F35F71F0
:104E400040E80013002BF7D1002209F1080000BF51
:104E500050E8001F21F0606141EA426140E8001320
:104E6000002BF5D1D9F8000020F00050C9F800005F
:104E7000D9F8040020F49040C9F80400D9F80800DB
:104E800020F02A00C9F80800D9F8000040F001001D
:104E9000C9F80000D9F81C00C0F340500028F9D030
:104EA000D9F81C00C0F380500028F3D00495029577
:104EB0000395059506950995079508950E950F9507
:104EC0001095D4F8880020F03000C4F88800A06D58
:104ED00040F48020A065A06D00F480200090E06C7C
:104EE00040F00200E064E06CCDF844A000F0020065
:104EF00000904FF48060CDE90C060CA9C548FDF781
:104F0000F5F84FF400600C90CDE90D65CDE9105A2D
:104F10000CA9C0480F95FDF7E9F84FF4E130CDE951
:104F200002500C20CDE90650BB4E0495059508951E
:104F300002A930460995FDF761FD002206F108003F
:104F400050E8001F62F35F7140E80013002BF7D1B7
:104F5000002106F1080000BF50E8002F22F0606237
:104F600042EA416240E80023002BF5D1306820F08E
:104F700000503060706820F490407060B06820F09D
:104F80002A00B060306840F001003060F069C0F382
:104F900040500028FAD0F069C0F380500028F5D0C6
:104FA0000095019503950495A06D40F00100A06562
:104FB000A06D694600F00100059044F2682002905F
:104FC000ADF80050C006FDF7D7FA4FF080463068C4
:104FD00020F080003060B06820F0070020F4A0309E
:104FE000B060706820F0700020F0007040F0200089
:104FF0007060B06820F08000B060A06C40F00800E5
:10500000A064A06C009500F008000195039504953C
:10501000206E40F480202066206E694600F48020D7
:105020000590ADF800504FF6FF707C4D0290284679
:10503000FDF7A2FA286820F080002860A06C40F4F8
:105040008050A064A06C00F4805000907448816887
:1050500021F060018160816821F0800181607149E7
:105060004161816821F0180181604FF0FF310161D9
:105070006D48016F11F4803F1BD16C4981606C4910
:1050800081606C49C1606C49C160016911F4803F65
:10509000FBD1416921F080414161016F41F48031D0
:1050A0000167416941F400314161016911F4803FB8
:1050B000FBD1FEF7CDF961480168614A114041EA30
:1050C000E02101605F48016841F001010160016871
:1050D00041F4803101605C490A686FF30B0242F4CD
:1050E0007A620A6059490A686FF30B0242F47A62E5
:1050F0000A60416841F001014160416811F0010F0F
:10510000FBD1416841F002014160416811F0020F9A
:10511000FBD14F48016841F001010160001D0168A9
:1051200041F001010160001D016841F001010160D1
:105130004848016841F001010160474940F23A7373
:105140000A686FF30B021A430A60416841F00101DB
:105150004160011D086810F0010FFBD13F48016854
:1051600041F00101016009F1080000BF50E8001F93
:1051700041F0800140E80012002AF7D13B783A4A1A
:105180003748384998503878131FC150387850F84C
:105190000B0039786FF30F0040F0100041F80B005E
:1051A000387858F80000397840F0010048F80100DC
:1051B00009F1080050E8001F41F0400140E8001CE0
:1051C000BCF1000FF6D197F801C0284928484CF8E7
:1051D000031079788850787850F80B0079786FF35D
:1051E0000F0040F0800041F80B00787858F800007C
:1051F000797840F0010048F801004FF0A040816844
:1052000021F03F0121F0404134E0000060E316004E
:1052100000380140000400480048004000480140B8
:1052200000300240B71DC104002002402301674541
:10523000AB89EFCD3B2A19087F6E5D4C000C024014
:1052400000F887FF001000500810005014100050A4
:10525000040201400008005008080050000201400C
:1052600014000020283801400C000240243801407E
:10527000DC00002041F0004181608168C90FFCD151
:1052800064498A6822F03F0222F0404242F0004224
:105290008A608A68D20FFCD1826822F03F0222F035
:1052A000004242F008028260426842F040024260DE
:1052B000826822F03F0222F0004242F00102826046
:1052C000886820F03F0020F0004040F0080088602F
:1052D000486840F040004860886820F03F0020F0B7
:1052E000004040F0010088604B4800214163816329
:1052F000C163416C41F480514164416C21F400412F
:105300004164016A21F001010162016A21F0040196
:105310000162016A21F010010162016A21F040017D
:105320000162016A21F480710162016A21F48061E5
:105330000162016841F001010160306840F0010044
:1053400030603648016841F001010160344801686D
:1053500041F0010101603348416841F480614160DE
:1053600041686FF3090141F090014160416821F407
:105370007F0141F400314160016841F40041016066
:10538000016841F0010101607B78DFF8A8C026497F
:10539000264A274843F80C207A780CF10403D050B1
:1053A0007A78081D12587B786FF30F0242F00202E0
:1053B0001A50787808587A7840F0010088502868A8
:1053C00040F0010028604FF0E020016941F0020147
:1053D0000161FEE70D98401E0D90FCD1FEF7AEBFB7
:1053E0000498401E0490FCD1FFF705B80C98401EAD
:1053F0000C90FCD1FFF776B80798401E0790FCD1BF
:10540000FFF7C4B8401EFDD1FEF703BE401EFDD11C
:10541000FEF71EBF00010050002C014000040040B8
:105420000034014000540040000402402454004075
:105430000000002008040240924800B5002180F8D6
:1054400020104172FF2101720021C16001604160A2
:1054500007210174002141749FED8B0A80ED050A3C
:10546000DFED8A0AC0ED060ADFED890AC0ED070A02
:10547000DFED880A884842F23311C0ED060AC161A7
:10548000DFED860AC0ED000ADFED850AC0ED010AF6
:10549000DFED841A0021C0ED041AC0ED051AC0ED3D
:1054A000021AC0ED031A01844184818480F8261019
:1054B000DFED7D0A2830C0ED060ADFED7C0A04210D
:1054C000C0ED050A80ED010A80ED020A80ED040AB4
:1054D0000170B5EE080A80ED030A4830B7EE001AF5
:1054E00080ED001AC0ED011AC0ED021AC0ED031ADA
:1054F000C0ED041AC0ED051AC0ED061AC0ED071A7A
:10550000C0ED081AC0ED0A1AC0ED091AC0ED0C1A58
:10551000C0ED0B1A343080ED001AC0ED0C1AC0ED4E
:105520000D1AC0ED0B1AC0ED011A80ED021AC0ED84
:10553000081AC0ED071AC0ED031AC0ED041AC0ED39
:10554000051AC0ED061AC0ED0E1AC0ED0A1AC0ED1C
:10555000091A9FED570AB1EE002A80ED0F0AB3EE4B
:10556000040A80ED100A80ED112A00F0C9F85148B4
:10557000C0ED031A1430C0ED031A1430C0ED031A45
:10558000C0ED001A143080ED002A80ED012A9FED55
:105590004A0A80ED030A9FED490A052180ED040ABD
:1055A0008162002180F83010C0ED051AC0ED061AA6
:1055B000C0ED0B1A4162C0ED021A142101620022F3
:1055C000C26134309FED3E0A80ED011A80ED000A81
:1055D000C0ED101A9FED3B0AC0ED0F1A80ED040AD2
:1055E00080ED031A44309FED380AC0ED071AC0ED74
:1055F0000C1AC0ED0B1A80ED030A9FED340A80ED02
:10560000040AC0ED051AC0ED061A80F83420C0ED7A
:10561000021AC0ED011A01624262027082623830E1
:105620009FED2B0AC0ED021AC0ED011AC0ED041A5D
:10563000C0ED031A80ED000A9FED260A80ED080AEE
:105640009FED250A80ED090AC0ED0B1AC0ED0A1A7C
:10565000C0ED0C1AC0ED0D1AC0ED051AC0ED061A0A
:1056600000F094F81E489FED1D0A4FF47A7180ED0A
:10567000000A0161C0ED021AC0ED011A80ED032A93
:1056800000BD0000740000206F12833A17B7D138B4
:10569000B91DCA31E81F224DA404002000001042A9
:1056A000E246A64100000000696C423CBD378635E9
:1056B0000000C843FC0500208FC2F53C8FC2F5BC3A
:1056C00000004843FAECD0BE66666640666666C077
:1056D00000401C480000FA4400409C4563141D45EE
:1056E0002007002005489FED040A80ED030A1430CE
:1056F00080ED030A7047000000000000FC05002058
:105700001F489FED1E0ADFED1F0A80ED170A80ED8E
:10571000180AC0ED120A012180F8681080ED0A0A0B
:1057200080ED0B0A80ED080A80ED090A80ED040A7D
:1057300080ED050A80ED0E0A80ED0F0A80ED100A5B
:1057400080ED110A80ED190A80ED130A80ED140A2C
:1057500080ED070ADFED0C0A80ED060AC0ED150AA0
:10576000F2EE040AC0ED160A80ED010A80ED000A8F
:1057700080ED030A80ED020A70470000000000007F
:1057800090050020CDCC4C3E000048432548002128
:10579000017041708170416181610421C17040F6E6
:1057A000C41181608168C27851434160416800EE54
:1057B000101A1D49B8EEC00A0968D1ED050A20EE9D
:1057C000200ADFED1A0A80EE801A80ED031A416884
:1057D000F5EE000A00EE101AB8EEC00A20EE200A1C
:1057E000F6EE000A20EE200A80ED040A9FED100A72
:1057F00080ED070A9FED0F0A80ED090A9FED0E0A62
:1058000080ED0A0A90ED090AB5EEC00AF1EE10FA31
:1058100028BF704790ED090AB1EE400A80ED090AF1
:1058200070470000E804002070000020DB0FC94131
:1058300000000000D253FB42DD7E3C434FF040703D
:10584000E1EE100A7047081C3044586C000000005C
:1058500004040404383800000800000008000008B0
:105860000000080000000800000000020406080A0A
:105870000C0E1014010000000200000004000000E3
:1058800006000000080000000A0000000C000000F4
:105890001000000020000000400000008000000018
:1058A00000010000000000000000000001020304ED
:1058B000060708090000000001020304081C304428
:1058C000586C00000000040404043838000008008C
:1058D000000008000008000000000000D041243A49
:1058E0002941A43A1C60F63A8E3E243BC04B4D3B06
:1058F0005157763B77B08F3B2234A43B80B6B83B00
:105900006837CD3BAFB6E13B2E34F63BDD57053C67
:1059100095940F3C2CD0193C8B0A243C9F432E3C81
:10592000547B383C96B1423C4FE64C3C6D19573C99
:10593000DA4A613C837A6B3C55A8753C3BD47F3C8A
:1059400010FF843CFA128A3CD0258F3C8937943C66
:105950001C48993C7E579E3CA765A33C8C72A83C92
:10596000247EAD3C6688B23C4991B73CC298BC3CB1
:10597000CA9EC13C57A3C63C5FA6CB3CDBA7D03C2C
:10598000C0A7D53C06A6DA3CA4A2DF3C929DE43C2D
:10599000C796E93C3A8EEE3CE383F33CB977F83C9A
:1059A000B469FD3CE62C013DFCA3033D191A063DFC
:1059B000388F083D55030B3D6C760D3D7AE80F3D61
:1059C0007A59123D6AC9143D4438173D05A6193D60
:1059D000AB121C3D307E1E3D92E8203DCD51233D53
:1059E000DDB9253DBF20283D70862A3DECEA2C3DDF
:1059F000314E2F3D39B0313D0411343D8D70363D6F
:105A0000D0CE383DCD2B3B3D7E873D3DE1E13F3D56
:105A1000F43A423DB392443D1CE9463D2B3E493D9C
:105A2000DF914B3D33E44D3D2735503DB684523D2B
:105A3000DFD2543DA01F573DF46A593DDCB45B3DB5
:105A400053FD5D3D5744603DE789623D00CE643DB6
:105A5000A010673DC551693D6C916B3D94CF6D3D84
:105A60003B0C703D5F47723DFE80743D16B9763D3C
:105A7000A6EF783DAB247B3D24587D3D0F8A7F3DCA
:105A800035DD803D9BF4813D370B833D0921843D0D
:105A90001136853D4D4A863DBE5D873D6170883D2E
:105AA0003882893D40938A3D7AA38B3DE5B28C3D97
:105AB00080C18D3D4BCF8E3D46DC8F3D6FE8903DE4
:105AC000C7F3913D4DFE923D0108943DE110953D97
:105AD000EF18963D2920973D8F26983D212C993D22
