:020000040800F2
:10000000080F00207902000863270008890C000807
:1000100061270008F70300081D30000800000000F9
:100020000000000000000000000000006D2A000831
:10003000290500080000000061290008012F0008C0
:10004000930200089302000893020008930200083C
:10005000930200089302000893020008930200082C
:10006000930200089302000893020008210500088B
:100070002305000893020008930200089302000879
:1000800093020008000000007F03000893020008AC
:100090009302000893020008930200085D0500081F
:1000A00093020008930200089302000893020008DC
:1000B00093020008930200089302000893020008CC
:1000C00093020008930200089302000893020008BC
:1000D00093020008930200089302000893020008AC
:1000E000930200089302000893020008930200089C
:1000F000F92F000893020008930200080000000096
:1001000000000000930200080000000093020008B5
:100110009302000800000000930200089302000808
:10012000250500082705000893020008930200082F
:100130009302000800000000000000009302000885
:100140009302000893020008000000000000000075
:10015000000000000000000000000000000000009F
:1001600000000000000000000000000093020008F2
:1001700093020008000000000000000000000000E2
:1001800000000000930200080000000000000000D2
:10019000000000000000000000000000000000005F
:1001A0000000000000000000930200089302000815
:1001B0009302000893020008930200080000000068
:1001C0000000000093020008000000000000000092
:1001D000930200089302000800F002F800F03CF8D7
:1001E0000AA090E8000C82448344AAF10107DA4592
:1001F00001D100F031F8AFF2090EBAE80F0013F0A8
:10020000010F18BFFB1A43F0010318475C510000AF
:100210007C510000103A24BF78C878C1FAD8520740
:1002200024BF30C830C144BF04680C607047000070
:100230000023002400250026103A28BF78C1FBD8EF
:10024000520728BF30C148BF0B6070471FB504F08C
:1002500035FE1FBD10B510BD00F058F81146FFF770
:10026000F5FF02F09FFF00F076F803B4FFF7F2FF0E
:1002700003BC00F07DF800000948804709480047AA
:10028000FEE7FEE7FEE7FEE7FEE7FEE7FEE7FEE746
:10029000FEE7FEE704480549054A064B70470000A3
:1002A000E92F0008D901000808090020080F0020E4
:1002B000080B0020080B00204FF0000200B5134689
:1002C00094469646203922BFA0E80C50A0E80C5076
:1002D000B1F12001BFF4F7AF090728BFA0E80C5027
:1002E00048BF0CC05DF804EB890028BF40F8042B20
:1002F00008BF704748BF20F8022B11F0804F18BF8D
:1003000000F8012B7047704770477047754600F042
:100310002BF8AE4605006946534620F00700854697
:1003200018B020B5FFF7B6FFBDE820404FF000063B
:100330004FF000074FF000084FF0000B21F00701CD
:10034000AC46ACE8C009ACE8C009ACE8C009ACE810
:10035000C0098D46704710B50446AFF300802046B3
:10036000BDE81040FFF781BF00487047A408002097
:1003700001491820ABBEFEE72600020070474FF08F
:10038000A040016811F0400F1ABFD0F8001111F021
:10039000400F704740210160C0F8001102F0E2BA3E
:1003A000D0ED000A90ED011AF0EE001A90ED000A6F
:1003B00041EE210A9FED021A60EE810A70470000AB
:1003C0003ACD133F91ED010AD0ED000A90ED011AEC
:1003D000D0ED001A20EE200AD1ED000A00EE810ACD
:1003E000D1ED010A90ED011A60EE810A91ED001A3B
:1003F00041EE610A7047FEE700F020BD70B43F4B4C
:1004000090ED000A92ED001A1B683D4D30EE411A46
:10041000D3ED060A90ED030A9FED3A3A3A4E01EE0B
:10042000200ADFED3A3A80ED030A90ED030A10EE60
:10043000103AAB42C8BF80ED033A0BDC90ED030AE3
:1004400010EE103AB34234BF90ED030AB0EE630AE7
:1004500080ED030A90ED030A9FED2D2ADFED2D2A92
:10046000DFF8B4C020EE020A2C4C01EE220AB2EEF4
:10047000041A10EE103A6345C8BFB0EE410A05DC1D
:1004800010EE103AA34228BFBAEE040AD1ED001ACA
:1004900092ED014A71EEC41A91ED034A01EEA04AB1
:1004A00081ED034AD1ED030A10EE902AAA42C8BF9B
:1004B00081ED033A09DCD1ED030A10EE902AB24235
:1004C00038BFD1ED033AC1ED033AD1ED030A60EE36
:1004D000820A41EEA20A10EE902A6245C8BFF0EEF1
:1004E000410A05DC10EE902AA24228BFFAEE040A67
:1004F00080ED040AC1ED040A70BC7047680000205A
:100500001F11473F1F11473F1F1147BF1F1147BF13
:100510008FC24D41C3F5284000002041000020C19A
:100520007047704770477047704791ED010AD0EDF2
:10053000000A90ED011AD0ED011A20EE200AD1ED4B
:10054000000A00EEC10AD1ED000A90ED001A60EE3B
:10055000810A91ED011A41EE210A70470E480168A7
:1005600011F0400F08BF704710B5402101600B4CDF
:1005700020680178002908BF10BD417821B1806949
:10058000BDE8104000F0EABD0121417000F0C6FB5B
:100590002168886110BD000014040140940000200F
:1005A0002DE9F04F924D2DED028B83B02868427CEF
:1005B000944FDFF84092DFF84082904C904E3968BB
:1005C0004FF0000A72B1012A53D0DFF83CB29FED20
:1005D0008F8A022A5ED0032A7DD003B0BDEC028B45
:1005E000BDE8F08F43685A1C42609FED890A814A3A
:1005F000B3F5FA6F12682DD2D1ED030AC2ED000AED
:10060000D8F8000080ED000A00F018FC206880EDAA
:10061000010AC0ED020A1C30FFF7C2FE8DED000A90
:10062000CDED010A2068011D6846FFF7CBFE20686A
:1006300000F1240280ED090AC0ED0A0AD8F8001082
:10064000D9F80000FFF7DAFE306880ED020AC0ED4D
:10065000030AC2E7C0F804A082ED000A306880ED0A
:10066000030A80ED020A04F03DFB2968012048746A
:10067000B3E74268531C4360642AAED9D8F800003F
:1006800091ED030A80ED000A2868C0F804A0022159
:100690004174A2E791ED020A00F0D0FB206880EDE2
:1006A000010AC0ED020A1C30FFF77AFE8DED000A48
:1006B000CDED010A2068011D6846FFF783FE206822
:1006C00000F1240280ED090AC0ED0A0AD8F80010F2
:1006D000D9F8000000E03EE0FFF790FE306880EDC2
:1006E000020AC0ED030A29684A68501C486038684D
:1006F00003699A420AD290ED010AD1ED060A90ED03
:10070000001A00EE810A80ED010A03E0C1F804A09E
:1007100003224A7490ED020AD1ED060A90ED011A07
:1007200000EE810A80ED020A90ED020A10EE101A26
:1007300090ED020A5945C8BF30EE480A09DC10EEB8
:10074000101A344A914284BF90ED020A30EE080A32
:1007500001D980ED020A386890ED020A00F06EFBC4
:10076000206880ED010AC0ED020A1C30FFF718FE78
:100770008DED000ACDED010A2068011D6846FFF7E6
:1007800021FE206800F1240280ED090AC0ED0A0A6A
:10079000D8F80010D9F80000FFF730FE306880ED7F
:1007A000020AC0ED030A3868296890ED020AD1ED0B
:1007B000060A90ED011A00EE810A80ED020A90ED22
:1007C000020A10EE101A90ED020A5945C8BF30EE29
:1007D000480A0ADC10EE101A0E4A914284BF90EDCE
:1007E000020A30EE080A7FF6F8AE80ED020AF4E65F
:1007F000680000209C000020A0000020980000203D
:100800008C000020B0000020DB0F4940DB0FC94006
:1008100000000000DB0F49C02DE9F0476E4E6F4C21
:100820002DED028B82B03068216890ED088A4A7CF9
:10083000DFF8ACA16B4D6C4FDFF8B0814FF00009D1
:10084000002A68D0012A7CD0022A1EBF02B0BDEC6B
:10085000028BBDE8F08700F0BFFC306880ED090A2C
:1008600090ED090A00F0EAFA286880ED010AC0ED6F
:10087000020A1C30FFF794FD8DED000ACDED010A50
:100880002868011D6846FFF79DFD286800F12402D5
:1008900080ED090AC0ED0A0AD8F80010DAF8000065
:1008A000FFF7ACFD52482968006891ED0A1AD0EDB7
:1008B000021A90ED012A21EE211AD1ED091A01EE5A
:1008C000480A90ED041A386801EE821A80ED020A97
:1008D00041EE080AC0ED030A206841684A1C4260E4
:1008E000092913D1C0F80490306890ED080A00F08F
:1008F0008DFC306880ED080A90ED080A3D480068DC
:1009000002F0A8FAD8F8000080ED000A02B0BDECB1
:10091000028BBDE8F0874A68501C486030489FED64
:10092000360AB2F5FA6F006833D2F1EE000AC0ED74
:10093000000AD8F8000080ED000A00F07FFA28686D
:1009400000E03AE080ED010AC0ED020A1C30FFF73A
:1009500027FD8DED000ACDED010A2868011D6846CE
:10096000FFF730FD286800F1240280ED090AC0ED90
:100970000A0AD8F80010DAF80000FFF73FFD3868DF
:1009800080ED020AC0ED030A40F2E24000F0E6FB0F
:10099000BCE7C1F8049080ED000A3868012580EDBD
:1009A000030A80ED020A3068057040F2E241C1613D
:1009B00004F098F920684574A8E74868421C4A602A
:1009C0006428A3D9002000F083FB2068C0F80490BD
:1009D000022141749AE70000940000206800002082
:1009E0009C000020980000208C000020A000002027
:1009F00090000020A4000020000000002DE9F0413C
:100A0000434986B00868427C424E72B1012A1CBF3D
:100A100006B0BDE8F08141684A1C42603E4C3F4F41
:100A2000DFF8FC80092917D10AE03068B6EE000A29
:100A300080ED000A09680120487406B0BDE8F08125
:100A400000214160206890ED0D0A386802F002FA3A
:100A5000D8F8000080ED000A206890ED0E0A00F042
:100A6000EDF9304D286880ED010AC0ED020A1C3016
:100A7000FFF796FC8DED020ACDED030A2868011DF3
:100A800002A8FFF79FFC286800F1240280ED090A04
:100A9000C0ED0A0AD8F800103068FFF7AFFC224911
:100AA000CDED010A28680968226890ED0A1AD1ED97
:100AB000021A21EE211AD2ED0F1A01EE610A8DED14
:100AC000000A91ED041AD0ED091A91ED012A174997
:100AD00001EE821AD2ED0F1A41EE210ACDED010A84
:100AE000096881ED020A9DED010A81ED030A011DED
:100AF0006846FFF71AFD8DED040ACDED050A02AB3D
:100B000004AA3968206801F049FE06B0BDE8F0810A
:100B1000680000209C000020AC000020A400002001
:100B2000A000002098000020900000208C000020F1
:100B3000F0B54A4C83B02068417C494E494D0027AE
:100B4000E9B101295FD002291CBF03B0F0BD2868BC
:100B50001C30FFF725FC8DED000ACDED010A286859
:100B6000011D6846FFF72EFC286880ED090AC0EDDC
:100B70000A0A21684B683C4A192B55D14DE041685F
:100B80004A1C42609FED390AB1F5FA6F2ED2384CFB
:100B9000384FF1EE000A2068C0ED000A386880ED99
:100BA000000A00F04BF9286880ED010AC0ED020A46
:100BB0001C30FFF7F5FB8DED000ACDED010A28682A
:100BC000011D6846FFF7FEFB286800F1240280ED56
:100BD000090AC0ED0A0A39682068FFF70FFC30687F
:100BE00080ED020AC0ED030A03B0F0BD306880ED6D
:100BF000020A80ED030A04F075F8206847600121BD
:100C0000417403B0F0BD41684A1C4260642987BF4B
:100C10004760022103B0F0BDF2E74F6092ED000A99
:100C2000B1EE400A82ED000A4B6803F1010CC1F8F5
:100C300004C011495BB90B6892ED001A9FED0F0AD1
:100C4000D3ED010A326800EEC10A82ED020A90ED8E
:100C5000090A086801F0A0FA03B0F0BD680000209E
:100C60008C000020980000202000002000000000E0
:100C70009C000020A0000020A8000020CDCC4C3E0D
:100C800000F004B800F018B8FEE7000010EE100AFB
:100C9000F6EE000A074960EE200AA1EB600000EEC4
:100CA000100A20EE801AF7EE080A41EE400A20EE04
:100CB000800A7047DF59375FF0EE400AF5EEC00A50
:100CC000F1EE10FAACBFB1EEE00A9FED010A7047F9
:100CD0000000000010B5104C40220121204601F018
:100CE000A3F940221021204601F09EF940229100F4
:100CF000204601F099F950220421204601F094F990
:100D000050224021204601F08FF950222115204623
:100D1000BDE8104001F088B9002C0140014800688E
:100D200070470000243401400348006810F0100FA1
:100D30000CBF012000207047003401404FF0A0405C
:100D4000816821F03F0121F0004141F00401816000
:100D5000016811F0040FFBD0016C9FED141A89B2E9
:100D600000EE101ADFED121AF8EE400A80EE810A4A
:100D7000DFED100A20EE210A20EE200A016811F0B2
:100D8000040FFBD0006C80B200EE900A0B48F8EE26
:100D9000600A006880EE812A9FED071A62EE210A40
:100DA000C1EE201AC0ED001A7047000000FF7F4717
:100DB000333353400000CA4200109B3F980000208C
:100DC000154800689FED151A80B200EE100ADFED9D
:100DD000150ADFED131AB8EE400ADFED132A1348A7
:100DE00080EE012AB0EE600A006802EE610AB3EEFE
:100DF000042A80EE023A23EE220A80B203EE100AA1
:100E0000F8EE433A83EE813A43EE610A80EE821AAD
:100E100061EE220A704700008000005000FF7F470B
:100E2000333353403333D33F0000484380010050F5
:100E30000148006870470000244801409FED0F1AE8
:100E40001049C0EE010A9FED0E0A20EE800ABDEEA9
:100E5000C00A10EE100A48608868896800EE100A1F
:100E600000EE901A9FED081AB8EEC00AF8EEE00AFC
:100E700020EE010A60EE810A70470000DB0F494056
:100E80000000004F000C0240000000300B480069D9
:100E90004FF0000110F0080F094818BF81800BD1F6
:100EA0008288521C92B28280B2F5967F04D98180EA
:100EB000017881F001010170007870470008004856
:100EC000080000207047000010B5104C702201216E
:100ED000204601F0A9F870221021204601F0A4F864
:100EE0007022A115204601F09FF8702204212046AF
:100EF00001F09AF870224021204601F095F8702206
:100F000021152046BDE8104001F08EB8002C0140AC
:100F10002DE9F0015C494FF47A72D1F808C0BCFBAE
:100F2000F2F002FB10C000283CD15848436843F45B
:100F3000005343605648038800881B0A43EA002098
:100F400000B2401100EE100A5248F4EE000AB8EE6A
:100F5000C00A0068504B20EE200A80ED040A90ED94
:100F6000040A10EE100A98421CDD4C48436C23F42E
:100F700000434364036A23F001030362036A23F01E
:100F800004030362036A23F010030362036A23F07D
:100F900040030362036A23F480730362036A23F449
:100FA00080630362BCFBF2F002FB10C048B93C4A0C
:100FB0004FF480635069834300F4806043EA00404B
:100FC00090614888384D00F07F02441C831CC01C8F
:100FD00000F07F0733482D6804F07F0610F8028088
:100FE00003F07F03B8F1530F01BF10F80680B8F18A
:100FF0003A0F10F80780B8F10A0F15D110F80380E6
:10100000DFED2A0A00EE108A4FF00008B8EE400A21
:1010100020EE200A85ED000A00F8068000F8028024
:1010200000F8078000F803802248214A067802F180
:101030000403F6583604360C1ED11F4E366896ED62
:10104000080A1E4E86ED000A95ED000A86ED010A9B
:1010500005785559067825F0010595510578ED5824
:1010600006786FF30F0545F00C05F5500378D3585B
:10107000007843F0010313504C800CF101008860AC
:10108000BDE8F00170470000080000200054004057
:10109000000000209800002000008242002C014047
:1010A00000080048BC000020A4000020DB0FC9C0DD
:1010B000000002403C4F0008940000201400002073
:1010C000024B58639963DA6370470000002C0140BB
:1010D0000149486270470000004801400E48016A1B
:1010E00041F001010162016A41F004010162016AFB
:1010F00041F010010162016A41F040010162016AA0
:1011000041F480710162016A41F480610162416CC5
:1011100041F4004141647047002C01400E48416C8D
:1011200021F400414164016A21F001010162016A78
:1011300021F004010162016A21F010010162016ADB
:1011400021F040010162016A21F480710162016AAB
:1011500021F4806101627047002C0140014948621E
:101160007047000000340140154800689FED151AD3
:1011700080B200EE100ADFED150ADFED131AB8EEAB
:10118000400ADFED132A134880EE012AB0EE600A10
:10119000006802EE610AB3EE042A80EE023A23EE02
:1011A000220A80B203EE100AF8EE433A83EE813A47
:1011B00043EE610A80EE821A61EE220A7047000057
:1011C0008000005000FF7F47333353403333D33F19
:1011D000000048438001005010B50446FFF79EFD13
:1011E000A168D4ED040AB0FBF1F201FB120000EE9D
:1011F000100AB8EEC00A80EE201A9FED030AF0EE46
:10120000400A11EE200A10BDDB0F49402DE9F041E4
:1012100004462DED028BB0EE408AC669FFF77EFDD5
:101220000546FFF705FE08EE900AFFF77DFD07462D
:101230000020FFF74DFF002194F9302008464FB100
:10124000531C84F83030042A04BF012284F8312072
:1012500009D00AE0531E84F8303012F1040F08BFA1
:1012600084F8310001D184F83000237D3E4A002B00
:1012700008BFA91B0FD094F83130012B03D094F88C
:10128000313023B106E051682944891B02E05368DC
:10129000A91BC91A207535480368DD61B5EEC08AFF
:1012A000F1EE10FA38BFB1EE488A31489FED310AAD
:1012B000DFED310A90F800C0BCF1000F3AD052685F
:1012C000F8EE681A01EE102A2C4AB8EE411A12689C
:1012D00021EE211AD2ED071A294A61EE211A12686D
:1012E00012789FED282A01EE102AB8EE411A21EE5D
:1012F000022A82EE211A01EE901AF8EEE11A21EE8E
:10130000811A21EE000A90ED011A01EE200A80ED0B
:10131000010A93ED0B0AB4EEC80AF1EE10FA38BFD9
:101320006FEA0C0100D2017090ED010ABDEC028B56
:10133000BDE8F08101EE101AD4ED031AB8EEC11A1F
:1013400021EE811A21EE000A90ED011A01EE200A29
:1013500080ED010A93ED0A0AB4EEC80AF1EE10FA24
:10136000C8BFFF21E0DDDEE770010020940000200F
:10137000B4000020CDCCCC3D6666663F68000020FE
:1013800090000020DB0FC94010B44FF0A04C4A6819
:10139000DCF808400023DCF808C144EA0C0C1CF01F
:1013A000010F18BF012302D010BC18467047DFF8A8
:1013B00028C052B10C682243D1E9024121431143B4
:1013C000826802EA0C02114304E08268096802EABA
:1013D0000C0211438160E7E7E030C0FF4B68D0F8B2
:1013E00008C000221CF0010F18BF012201D01046D6
:1013F00070475BB1D1E9023C43EA0C03D0F80CC062
:101400002CF0047C43EA0C03C36007E0C368D1F806
:101410000CC023F0047343EA0C03C360D1E900312C
:101420000B43C16C6FF308011943C164DFE78368A4
:10143000002213F0010F18BF012201D0104670479F
:10144000D1E9003C43EA0C038968D0F80CC02CF0C9
:10145000180C2CF4404C41EA0C011943C160EDE733
:1014600030B44B68D0F808C000221CF0010F18BF40
:10147000012202D030BC10467047002BDFF848C074
:101480000B680ED08C682343D1E903452C432343DA
:101490004C692343C46804EA0C0C43EA0C03C360A0
:1014A0000BE0CC682343D1E904452C432343C468B3
:1014B00004EA0C0C43EA0C03C3604968036B23F095
:1014C0000F0319430163D5E71CC0F0FF10B4036894
:1014D0000022DB0F18BF012202D010BC104670475B
:1014E000D1E9003C43EA0C03D1E902C44CEA040C04
:1014F000096943EA0C0319430368DFF80CC003EAE7
:101500000C0319430160E8E70F7E00FF70B400246C
:1015100001F010030125D2F808C006689D40B543CC
:1015200008BF01245BD0BCF1000F39D0BCF1C00F63
:1015300010D0016840F6FC759D40A943156845EA46
:101540000C0CD5684CEA050C0CFA03FC41EA0C01C2
:10155000016033E005684FF0C00C0CFA03FC25EA8B
:101560000C0545EA0C0CC0F800C0D0F860C040F68D
:101570000F759D402CEA050C15685668AD08B60835
:1015800045EA06259D404CEA050CC0F860C0C1F351
:10159000C01100EB8101D2F80CC0C1F858C00DE0B9
:1015A00001684FF0FC0C0CFA03FC21EA0C01D2F8A4
:1015B00000C00CFA03FC41EA0C010160C16B4FF062
:1015C000070C0CFA03FC21EA0C01D2E904C592696C
:1015D0004CEA050C4CEA02029A401143C1632046D2
:1015E00070BC704770B4684A067A684B0025141FB7
:1015F0000168A3F1040C002E74D0A1B1467A76B331
:10160000012E36D0022E18BF01253BD0847A54B16A
:101610005F490A1F012C3DD0022C45D0032C18BF76
:1016200045F002054AD04168002971D0427A002A6B
:101630004DD0012A57D0022A18BF45F004055DD0CD
:10164000837A002B64D053490A1F012B61D0022BEF
:101650006AD0032B18BF45F0050571D090E0FFE775
:10166000166826EA010111600168226811432160B1
:10167000CCE7266826EA010121600168146821434D
:101680001160C3E726683143216001681468214373
:101690001160BBE704680E6826EA04040C60016868
:1016A000146821431160BEE70468166826EA040442
:1016B000146002680C6822430A60B4E70468166884
:1016C0003443146002680C6822430A60ABE71A686E
:1016D00022EA010119604168DCF800201143CCF8CE
:1016E0000010ADE737E0DCF8002022EA0101CCF879
:1016F000001041681A6811431960A1E7DCF8002066
:101700001143CCF8001041681A681143196097E73B
:1017100036E04368D1F800C02CEA03030B60406850
:101720001168084310602BE04368D2F800C02CEA2F
:101730000303136040680A681043086020E0FFE775
:101740004368D2F800C04CEA0303136040680A689B
:101750001043086014E0266826EA01012160016850
:10176000146824EA010111604168DCF8002022EAD3
:101770000101CCF800104068196821EA00001860E7
:10178000284670BC70470000040401402404014056
:101790000C0401402C0401402DE9F0030A6892FA80
:1017A000A2F3B3FA83F3DA407ED001250F244FF081
:1017B000030C00BF0E6805FA03F2324075D04E6884
:1017C000012E18BF022E22D18F68D0F8088092FA1D
:1017D000A2F6B6FA86F64FEA46060CFA06F628EAAC
:1017E000060692FAA2F8B8FA88F84FEA480807FA0B
:1017F00008F746EA07068660CF680E68D0F80480CE
:1018000028EA060806FB07F648EA060646600E695F
:10181000D0F80C8092FAA2F7B7FA87F74FEA470799
:101820000CFA07F728EA070792FAA2F8B8FA88F83C
:101830004FEA480806FA08F647EA0606C6604E6808
:10184000022E34D1B2F5807F16D24E69076A92FA21
:10185000A2F8B8FA88F84FEA880804FA08F827EAE4
:10186000080792FAA2F8B8FA88F84FEA880806FA48
:1018700008F63E4306621AE04F69D0F82480160A43
:1018800096FAA6F9B9FA89F94FEA890904FA09F929
:1018900096FAA6F6B6FA86F6B60028EA090807FA16
:1018A00006F648EA060601E01BE015E046624F68CE
:1018B000D0F8008092FAA2F6B6FA86F676000CFA14
:1018C00006F692FAA2F2B2FA82F2520028EA06066C
:1018D00007FA02F2324302600A685B1CDA407FF4C6
:1018E00069AFBDE8F00300207047026822F00102F2
:1018F0000260D1E90232D0F800C043EA02222CF49F
:10190000F85C4CEA020202604A680261026842F036
:1019100001020260826822F4004282600B698A69D7
:10192000D0F808C01A436FF30A0C4CEA0202826036
:101930000A691AB1826842F4004282600A68036848
:1019400023F440131A4302604969426822F40042BA
:1019500011434160002070474FF47A71B0FBF1F001
:10196000411E4FF0E02041610021816105210161AC
:1019700070470000014610B50020C02918BF10BDF7
:101980001A4CD4F8881001F0C00141F440014039EC
:10199000B1F5400117D0402919D080291ED001F09F
:1019A00031F8A168124A01F0F0010909515C01F017
:1019B0001F01C840A1680F4AC1F30221515C01F028
:1019C0001F01C84010BDBDE8104001F01BB82168E0
:1019D000C1F38021002918BF074810BDD4F890102A
:1019E00011F0020F18BF4FF4004010BD001002406C
:1019F000244F0008344F00080024F40070B502465C
:101A000000204449444D454E454C032A13D00C2A2E
:101A100043D0302A18BF70BDD4F8882002F03002BD
:101A200042F44012103AB2F5401262D0102A64D04B
:101A3000202A68D03FE0D4F888206FF4403302F0C9
:101A4000030242F44032D21853D0012A13D0022AA2
:101A500019D000F0D7FFA16801F0F0010909695C15
:101A600001F01F01C840A168C1F3C221715C01F0FF
:101A70001F01C84070BD2268C2F38022002A08BF3F
:101A800070BD084670BDD4F8901011F0020F08BF69
:101A900070BD00BF4FF4004070BDD4F8882002F044
:101AA0000C0242F44022121FB2F5402221D0042A37
:101AB00013D0082A17D000F0A5FFA16801F0F001AB
:101AC0000909695C01F01F01C840A168C1F3022146
:101AD000715C01F01F01C84070BD2268C2F3802212
:101AE000002ACED170BDD4F8901011F0020FD1D1E0
:101AF00070BDBDE8704000F085BF2268C2F380224F
:101B0000002ABED170BDD4F8901011F0020FC1D1DF
:101B100070BD00000024F400244F0008344F00087A
:101B2000001002400368012213F0400F31D1D1E9C7
:101B300000231A43D1E9033C43EA0C031A434B69DF
:101B40001A438B691A43CB691A430B6A1A43036819
:101B500023F0BF0323F47F431A43026042684B69BA
:101B600022F4417222F4406242EA13428B681A4323
:101B700042608A68B2F5006F03D2426842F4805234
:101B800042600A6AB2F5005F02D1898C89B20161B4
:101B90000022C16921F40061C16110467047000054
:101BA0000149086070470000040000200A7B8B6830
:101BB0001A434B6822F480621A430B6822F40062D5
:101BC0001A43CB8922F480521A430B6922F4005243
:101BD0001A43CB6A22F480421A434B6922F47022E2
:101BE0001A438B6922F080521A43A0F18043B3F567
:101BF00096331CBFA0F18043B3F59A330FD14B6AE3
:101C000022F470021A43CB6922F080721A430B6AE5
:101C100022F000721A43896A22F000520A43426499
:101C2000002070472DE9F0010268234B234CDFF8B8
:101C30009080DFF890C0984218BFB0F1804F04D078
:101C4000A0421CBF4045604504D14D6822F070029F
:101C500042EA05021C4D1D4E1D4F984218BFB0F1BF
:101C6000804F0BD0A04218BF404507D0604518BF39
:101C7000A84203D0B04218BFB84204D1CC6822F4C5
:101C8000407242EA040202608A68C2620A88826282
:101C9000984218BF604504D0A8421CBFB042B84269
:101CA00001D109690163416941F001014161BDE868
:101CB000F0014FF000007047002C0140000400408C
:101CC0000008004000340140004001400044014051
:101CD000004801402DE9F0070023DFF838C3CE4C5F
:101CE000CE4DCF4ECF4F4FF00108B1F5805F00F0E1
:101CF000E08008DC012910D0102952D0B1F5807F96
:101D00007ED000F083B9B1F5803F00F01781B1F5C6
:101D1000801F00F0488100F079B9016A21F00101CB
:101D20000162016AD0F80480D0F81890D2F800A0BF
:101D300029F0730929F4803949EA0A09D2F810A078
:101D400021F0020141EA0A01D2F804A021F00101C8
:101D500041EA0A01604518BFA04204D0A8421CBF56
:101D6000B042B84215D1D2F814C021F0080141EABE
:101D70008C01D2F808C021F0040141EA8C01946979
:101D800028F4807C4CEA040CD4692CF4007C4CEAE6
:101D90004408C0F80480C0F81890D268426300F08C
:101DA00033B9016A21F010010162D0F82080416846
:101DB000D0F81890D2F800A029F4E64929F08079EB
:101DC00049EA0A29D2F810A028F0200848EA0A189F
:101DD000D2F804A028F0100848EA0A18604518BF95
:101DE000A04204D0A8421CBFB042B84217D15469E7
:101DF00028F0800C4CEA841C2CF0400C946800E025
:101E000013E04CEA8418D2F818C021F4806141EA4A
:101E10008C01D2F81CC021F4006141EACC01416080
:101E2000C0F81890D168816340E0016A21F48071A4
:101E30000162D0F820804168D0F81C90D2F800A050
:101E400029F0730929F4803949EA0A09D2F810A067
:101E500028F4007848EA0A28D2F804A028F4807808
:101E600048EA0A28604518BFA04204D0A8421CBF17
:101E7000B042B84215D1546928F4006C4CEA842C65
:101E800094682CF4806C4CEA8428D2F818C021F4B1
:101E9000805141EA0C11D2F81CC021F4005141EAF2
:101EA0004C114160C0F81C90D168C163C0F820801B
:101EB000ABE0016A21F480510162D0F820804168D2
:101EC000D0F81C90D2F800A029F4E64929F08079D6
:101ED00049EA0A29D2F810A028F4005848EA0A383A
:101EE000D2F804A028F4805848EA0A38604518BFA0
:101EF000A04204D0A8421CBFB042B84215D15469D8
:101F000028F4004C4CEA843C94682CF4804C4CEA55
:101F10008438D2F818C021F4804141EA8C11D2F8FB
:101F20001CC021F4004141EACC114160C0F81C9072
:101F3000D1680164C0F82080984667E0016A21F406
:101F400080310162D0F82080016DD2F8009021F03C
:101F5000700121F4803141EA0901B2F8109028F4AF
:101F6000003848EA0948B2F8049028F4803848EA72
:101F70000948604518BFA04204D0A8421CBFB04227
:101F8000B84208D1D0F804C094692CF4803C4CEAE3
:101F9000042CC0F804C00165D168826C8164C0F86B
:101FA0002080984632E0016A21F480110162016AC2
:101FB000D0F85080D2F8009028F4E04828F08078DB
:101FC00048EA0928B2F8109021F4001141EA0951B9
:101FD000B2F8049021F4801141EA0951604518BF1C
:101FE000A04204D0A8421CBFB042B84208D1D0F8E9
:101FF00004C094692CF4802C4CEA842CC0F804C0F2
:10200000C0F85080D268C264016298464046BDE87C
:10201000F0077047002C01400034014000400140AF
:102020000044014000480140012908BF002124D09C
:10203000042908BF012120D0102908BF02211CD08B
:10204000402908BF032118D0B1F5807F08BF0421C3
:1020500013D0B1F5806F08BF05210ED0B1F5805FB8
:1020600008BF062109D0B1F5804F08BF072104D071
:10207000B1F5803F0CBF08210921084B18305B5C8B
:102080001844D0F800C0064B595C064B8B402CEA34
:10209000030302FA01F1194301607047424F00083F
:1020A0004C4F00087300010070B5044600680D46EF
:1020B000012610F0010F5CD12969A868EA6908437C
:1020C0006969114308432168314A1140084320607F
:1020D000E868616821F4405108436060A869A1681C
:1020E00021F440710843A060A4F18040B0F59C3019
:1020F00013D0A4F18040B0F5884008BF0C2010D068
:10210000A4F18040B0F5904008BF302009D0A4F180
:102110008040B0F5984007D024E00320FFF76EFC24
:1021200005E0FFF76BFC02E0C020FFF723FC00286E
:102130001CBF6968002915D02A68EB694FF00006BA
:102140000B2A0FD8DFF84CC0D2B2B3F5004F5CF8C1
:102150002220B0FBF2F00ED000EB5100B0FBF1F00A
:1021600080B2E0602888E16A80B221F00F01084364
:10217000E062304670BD400000EB5100B0FBF1F072
:1021800080B24FF6F0710140C0F342000843E8E727
:10219000F369FFEFF44E00082DE9F041A04D04462D
:1021A0002DED048BD5ED008ADFED9E0A95ED011A29
:1021B00068EEA00ADFED9C1A41EE610A9FED9B1AC2
:1021C000D5ED021AC5ED018A40EE010A41EEC10AC1
:1021D000C5ED000A85ED020A90ED020AD0ED000A75
:1021E0009FED938A9348944F60EE880A0068DFF869
:1021F0004C8290ED061A00EE810A84ED020A94EDFD
:10220000020A10EE100A94ED020AB842C8BF30EE7E
:10221000480A08DC10EE100A404584BF94ED020A1B
:1022200030EE080A01D984ED020A94ED020AD4EDD9
:10223000040A30EE200A10EE100AB842C8BF30EE91
:10224000480A05DC10EE100A404588BF30EE080A47
:10225000FEF7D2F894ED031A794821EE001A94EDB6
:10226000030A84ED051A20EE200A61EE280A84EDA7
:10227000060A20EE280AC4ED070A84ED080A90ED4C
:10228000000ADFED700A00F1080120EE200AD1ED0E
:10229000001A9FED6D1A00F1100201EEC10A92EDD5
:1022A000002ADFED6A1AD4ED072A02EE210A9FED1B
:1022B000682AA0F1080300F11806B7EE009A02EEB2
:1022C000820A83ED000AD4ED072AC2ED002A80EDD0
:1022D000000A81ED000AD0ED012A62EEA00AD1EDDC
:1022E000012A42EEC10A92ED011A41EE210A94ED53
:1022F000081A41EE020AC3ED010A94ED081A82EDB4
:10230000011AC0ED010AC1ED010A84ED090AC4ED0C
:102310000A0AD6ED000A94ED090A94ED091A40EE76
:10232000010AC6ED000A96ED010A94ED0A1AD4EDF1
:102330000A1A01EE210A86ED010A95ED030A30EE34
:10234000091A80EE810AFEF79DFCF0EE408A95EDB9
:10235000030AD6ED010A30EE091A80EE810AFEF773
:1023600091FCD5ED030A70EE890AC5ED030AC4EDB0
:102370000B8A84ED0C0A94ED0B0AD4ED0B0A94ED54
:102380000C1A20EE200AD4ED0C0A00EE810AFEF7AA
:1023900079FCF0EE000A60EE208AD4ED0B0A94ED91
:1023A0000C0A00F075FED4ED010A9FED2A1A2B49A4
:1023B00060EE810A80EEA81ADFED270A61EE208A1E
:1023C00018EE900A8842C8BFDFED258AB1EE400AB8
:1023D00010EE100AB842C8BF30EE480A05DC10EE15
:1023E000100A404588BF30EE080AFEF705F860EE97
:1023F000A80A20EE280A9FED1B1AC4ED0F0AFEEE74
:10240000000A60EE200A80EE810AD4ED000A80EE18
:10241000201A84ED101ABDEC048BBDE8F081000099
:1024200030000020AC1CFA3FF016783F24B9FC3C89
:10243000DB0FC94068000020DB0F4940DB0F49C0BB
:1024400048000020355EFA3F2FDD743FA9E8FE39D1
:10245000B72FFB39AAF1A23F2368D03F00002041EB
:1024600000000000DB0F49402DE9F04FA1B000242F
:102470001C941F940A9406940794089409940F944A
:102480000B940C940D940E94149410941194129433
:1024900013941994AB4D15941694179418940094B2
:1024A00001940294039404940594286E40F400600F
:1024B0002866286EA44E00F400601A9040201D90FB
:1024C00042F233101E9001202090ADF870401CA9FC
:1024D0003046FFF7A7FB306820F080003060B0681E
:1024E00020F0070020F4A030B060DFF860B2984818
:1024F0009BF800100F1838680BF10A094FF0080A12
:1025000099F800100AFA01F1084338607020CDE90B
:102510000604089409940A940B940C9406AA0121C9
:1025200030460D94FFF7D6FB386899F800104FF04D
:10253000040808FA01F1884338609BF802108448C7
:102540000F18386899F802100AFA01F10843386048
:1025500006AA10213046FFF7BDFB386899F8021033
:1025600008FA01F1884338609BF8041078480F1886
:10257000386899F804100AFA01F10843386006AA8D
:10258000A9153046FFF7A6FB386899F8041008FA39
:1025900001F188433860706820F0700020F000700E
:1025A00040F020007060706820F470007060B068C7
:1025B00020F08000B0606749086898FAA8F2B2FA83
:1025C00082F202F01F024F1507FA02F2904398FAC6
:1025D000A8F2B2FA82F202F01F0204FA02F21043E9
:1025E0000860086840F00400086008689AFAAAF2D7
:1025F000B2FA82F202F01F0207FA02F290439AFA4C
:10260000AAF2B2FA82F202F01F0204FA02F21043B6
:102610000860086840F0080008600A68102090FA16
:10262000A0F3B3FA83F390FAA0F003F01F03B0FA1B
:1026300080F007FA03F300F01F009A4304FA00F059
:1026400010430860086840F01000086088148DF896
:102650004440ADF846004FF400590E940F94109486
:102660008001CDF84890CDE91304C001CDE91540B3
:10267000179418940EA930461994FFF797FAE86C4E
:1026800040F00400E864E86C00F004001A90E86C84
:1026900040F00200E864E86C00F002001A90E86C78
:1026A00040F00100E864E86C022500F001001A9097
:1026B000CDF80090CDE90154274ECDE90448694694
:1026C00030460394FFF768F801200090CDE90154EB
:1026D000694630460394CDE90445FFF75DF8CDF82F
:1026E0000080CDE90154694630460394CDE90445A4
:1026F000FFF752F868030090CDE901540626DFF891
:102700005C80CDE90446694640460394FFF744F8EF
:102710000097CDE90154CDE9044669464FF0904059
:102720000394FFF739F80097CDE901540C20CDE967
:102730000440694603944046FFF72EF821B0BDE8F7
:10274000F08F000000100240002C0140CC4E000829
:10275000182C0140602C014000080048000400488B
:10276000FEE7FEE700F00703C3F10700042888BF77
:10277000042003F1040CBCF1070F34BF0023DB1E5F
:102780004FF0010C0CFA00F0401E084098400CFA83
:1027900003F1491E114008437047000070B504461C
:1027A0002DED048BD4ED000A93ED003A94ED041A5C
:1027B000D3ED012A23EE204A94ED020AD4ED033A28
:1027C00094ED056A71EE444A22EEA01AD4ED011A86
:1027D0005C4D64EEA40A64EEA34A36EE416A92EDC3
:1027E000005A41EE010A286866EE233AD2ED015AFA
:1027F00090ED062A50EE000A64EEA04A63EEA00AAD
:10280000D4ED063A43EE614A42EEE10A34EE853AEF
:1028100070EEA50A43EE023AC4ED063A94ED073A8B
:1028200000EE823A84ED073AD4ED060AC4ED040ABC
:10283000D4ED070AC4ED050AD4ED060A70EEC41AF9
:10284000D4ED070A70EEC10A81EE801A84ED091AF0
:1028500080EE801A84ED081A94ED090AD4ED090A75
:1028600094ED081A20EE200AD4ED080A00EE810A41
:10287000FEF706FAD4ED090A60EE800AC4ED090AF3
:10288000D4ED080A20EE800A84ED080A2868D4ED09
:10289000098A94ED089A90ED068A94ED110AFDF7E5
:1028A000ABFD60EE890A2A4948EEC00AC4ED0A0A67
:1028B00094ED100A00EE880A84ED100A94ED100AD7
:1028C00094ED0C1A20EE010A94ED0B1A01EE200A89
:1028D000DFED1D0A9FED1D1A84ED0D0A20EE200A82
:1028E000D4ED0F0A00EE810A84ED0F0A94ED110A6F
:1028F000D4ED0D0A00EE880A84ED110A94ED110A58
:1029000010EE100A94ED110A88420CDDDFED110A79
:1029100030EE200A84ED110A94ED110A84ED0E0ABE
:10292000BDEC048B70BD10EE100A0B4994ED110A3A
:10293000884284BFDFED090A30EE200A84ED110AD7
:10294000EAE70000680000206F12833A77BE7F3FFD
:10295000DB0F4940DB0FC9C0DB0F49C0DB0FC940AB
:102960007047000070B5FEF7FFFB234C206880ED38
:10297000070AC0ED080A90ED070AD0ED050A30EE0F
:10298000600A80ED070A90ED080AD0ED060A30EEE5
:10299000600A80ED080A19480068017A184D042978
:1029A00021D1007C05280FD2DFE800F0030E0609D4
:1029B0000C00FDF731FF07E0FEF7BAF804E0FEF780
:1029C0001DF801E0FDF7ECFD2068011D28680830C6
:1029D000FDF7ABFD286880ED040AC0ED050A00F0A4
:1029E0002BF9FEF76FFA2868828B418B008BBDE8CC
:1029F0007040FEF765BB00009800002068000020D2
:102A00008C0000201549886800F00C031448042B42
:102A100008BF7047134A082B04BF104670470C2BA1
:102A200018BF7047CB6803F00303022B02D0032BBF
:102A300008BF1046CA68C2F306224243C868012391
:102A400000F0F00003EB1010B2FBF0F0C968C1F326
:102A50004161491C4900B0FBF1F070470010024091
:102A60000024F40000127A0000F0DABA7047000087
:102A70002DE9F047664C2DED028B206890F9081087
:102A8000DFED648A9FED648ADFF8908102270025DC
:102A9000634E491C4FF00109052964D2DFE801F0BB
:102AA000030A2F3A5B00FEF739FB01F0F5FF2068BF
:102AB000057258E0FEF742F9306820EE280AD0EDA2
:102AC000030A00EE880A80ED030A90ED030A10EE77
:102AD000101A414510DD90ED030A524910EE100A1C
:102AE000814209DD206801684A1C0260322984BFE6
:102AF000056080F8089036E02068056033E00168E2
:102B00004A1C026032292ED90560FEF7E3F82068DE
:102B1000077228E0FEF754F9306890ED051A21EEAF
:102B2000081A00EE281A80ED051A90ED060A20EE2C
:102B3000080A00EEA80A80ED060A206801684A1C0F
:102B40000260B1F57A7F0ED90560FEF7BDF9216804
:102B50000320087207E0FEF799F920B1FEF7BEFAEC
:102B60002168042008722068007A042841D1FEF709
:102B70008DF94FF0FF3A002804BF206880F808A0C4
:102B8000FEF7DCF83068DFED280A9FED281A20EE0A
:102B9000200AD0ED030A00EE810A80ED030A90EDD1
:102BA000030A10EE101A41450BDA21680868421C2E
:102BB0000A608C281DD9FEF7B1FA206805604772BB
:102BC00015E090ED030A1A4910EE100A8842DCBFA6
:102BD000206805600DDD21680868421C0A608C28A9
:102BE00007D9FEF79BFA2068056080F8099080F805
:102BF00008A01048D0E90212491C42F10002C0E9C5
:102C00000212BDEC028BBDE8F047FEF781B900006F
:102C100068000020CDCCCC3D6666663FCDCCF4414B
:102C20009800002099992542A4707D3F0AD7233C43
:102C30000000584220000020D0ED041A90ED050A53
:102C40000021DFED7E0AF6EE002A61EEA00AB0EE6A
:102C5000601A00EE621AF0EE413A9FED791A90ED9B
:102C6000002A61EE811AB0EE613A40EE621A9FEDE1
:102C7000754AB5EEC00A84EE021AF1EE10FAC8BF2A
:102C80000121B0EE632AB5EEC02AF1EE10FAC8BFFA
:102C9000891CF5EEC01AF1EE10FAC8BF091D9FEDB0
:102CA0006A2AF5EE001A072976D2DFE801F09104CE
:102CB0001D32475E76000221817700EE223A40EE17
:102CC000220A23EE013A20EE811A72EE432A32EEF6
:102CD000810A60EE210A33EE020A30EE010A32EE7A
:102CE000C11A20EE210A70E00621817740EE220A07
:102CF00060EE812A21EE401A32EE820A32EE622A1A
:102D000030EE010A60EE210A32EE410A20EE210A7D
:102D100028E00121817763EE812A21EE001A32EE4C
:102D2000820A32EE622A30EE010A60EE210A32EEA9
:102D3000010A32EE411A20EE210A46E00421817791
:102D400000EE223A61EE403A32EE630A23EE011AB7
:102D500033EE822A70EE410A30EE010A60EEA10ADB
:102D600020EE210A32EE011A2FE00321817740EE96
:102D7000220A21EE003A72EE432A21EE601A32EE68
:102D8000C10A60EE210A33EE020A30EE010A32EE89
:102D9000811A20EE210A18E01AE00521817740EE21
:102DA000220A00EE223A61EE603A21EE431A32EE38
:102DB000630A33EE822A70EE010A30EE410A32EEE7
:102DC000011A60EEA10A20EE210A21EE211A05E087
:102DD0009FED1E0AF0EE400AB0EE401ADFED1C1A1D
:102DE00042F2331C20EE210A60EEA10ABDEEC00AB9
:102DF000FDEEE00A10EE102A21EE210A10EE903AC4
:102E0000BDEEC00A002B10EE101AB4BF00236345BC
:102E1000C8BF42F23313002AB4BF00226245C8BFC4
:102E200042F233120029B4BF00216145C8BF42F20B
:102E3000331103834283818370470000D7B35D3F22
:102E4000D7B35DBFEA983539C6B0D138C6B0D137EF
:102E5000E81F224D2149D0ED000A214A096870EE91
:102E6000C00A90ED030A91ED051A00EE810A80ED8B
:102E7000030A90ED030A10EE101A9142C4BF9FEDB1
:102E8000190A80ED030A0CDC90ED030A164A10EED5
:102E9000101A914234BF90ED030A9FED140A80EDA1
:102EA000030A90ED030A9FED121A134A20EE010A5D
:102EB0009FED101A00EE810A10EE101A9142C8BF61
:102EC000B2EE040A04DC10EE101A0C4A914202D849
:102ED00080ED040A7047BAEE040AF9E768000020A2
:102EE0000000C8420000C8420000C8C20000C8C2BA
:102EF000CDCCCC3D0AD7233C00002041000020C1AE
:102F0000FFF7B6BD314810B5016821F00F0141F05F
:102F100004010160016801F00F010429FAD12C4875
:102F200050F8801F21F4807101602A48016841F443
:102F3000803101600168C1F340410029FAD0C268C4
:102F400045F21351244B1A401143C160C16841F04E
:102F50008071C160016841F0807101600168C1F356
:102F600040610029FAD0816841F0030181608168E5
:102F700021F0F00141F080018160816801F00C01D5
:102F80000C29FAD115490A6842F080720A60144986
:102F90000A6842F001020A6000224A604A68642A14
:102FA000FCD3816821F0F0018160816821F4E06147
:102FB0008160816821F4605181600A4C2046FEF7EF
:102FC000CBFC2046BDE81040FEF7EABD00200240E1
:102FD00000700040001002400C80FFF9FCED00E0A2
:102FE000001000E080FE210A0248016841F47001EF
:102FF0000160704788ED00E00648016811F0010F9C
:1030000008BF70476FF001010160012002490968A3
:10301000087570471034014094000020FEE700005E
:1030200010B5164CA8212046FDF746F90320206173
:10303000606113A0A06104F1A800E0614FF480601A
:1030400020620020A0626062E0620DA1216604F5AA
:10305000956161661021A1662067E06660670B4993
:10306000C0F10F028A5C2254C0F10E0223188A5C60
:103070005A70801C1028F3D310BD0000EC03002010
:103080005465726D696E616C000000005453000855
:103090009FED3F1AB5EEC00AF1EE10FA04BFF5EE4F
:1030A000C00AF1EE10FA65D0B5EEC00A0021F1EECB
:1030B00010FA64D2F5EEC00AF1EE10FA2CBF042229
:1030C0000322F5EEC00AF1EE10FAD8BFF1EE600A65
:1030D000B5EEC00AF1EE10FAD8BFB1EE400AB4EE78
:1030E000E00AF1EE10FAD8BFF0EE601A04DDF0EE5F
:1030F000401AB0EE600A012180EE212A9FED260AD7
:10310000DFED242AF7EE000A62EE001AF4EEC01A90
:10311000F1EE10FA28BFFD200BD2FCEEE10A10EE12
:10312000900AF8EE600A00EEA21A72EE410A60EE12
:10313000800A1A4B002903EB800090ED001A90EDF5
:10314000010A30EE410A00EE201A1CBFB5EE000A5B
:1031500030EE411AB6EE000A022A08BF30EE411ADC
:1031600008D0032A08BF31EE401A03D0042A08BF52
:10317000B1EE411A9FED0A0A21EE000A7047F5EE02
:10318000C00AF1EE10FA34BF0222012299E70000D2
:10319000000000000402813B00007E43584F0008FD
:1031A000DB0FC940FE4C9CB054F8600F40F00100AA
:1031B00044F81809A06900F001000090206940F06F
:1031C000805020612069F74F00F0805000903868EF
:1031D0004FF6FF01084040F4407040F0FD7040F0B1
:1031E0008060386038680022C0F302200621FFF7B3
:1031F000B9FAED49000181F8140DEC48016B21F09A
:1032000001010163016B41F002010163E84880683C
:10321000E74940F480408860FFF774FE206840F082
:1032200004002060206800F004000090206840F056
:1032300002002060206800F002000090206840F04A
:1032400001002060206800F0010000903868002232
:10325000C0F302201146FFF785FAD649000181F834
:1032600000044FF0E0294FF400604FF00108002502
:10327000C9F8000138680022C0F302201146FFF7A8
:1032800071FACD49000181F800044FF48050C9F86B
:10329000000138680022C0F302201146FFF762FAED
:1032A000C649000181F8000409F104014FF0807063
:1032B0004FF0040BC1F8000138680022C0F302206F
:1032C0001146FFF74FFABE49000181F8000409F1E9
:1032D00004014FF00070C1F80001069507950895AC
:1032E00001950295039504950595606840F00400EA
:1032F0006060606800F004000990606840F02000A1
:103300006060606800F020000990606840F0010093
:103310006060606800F001000990606840F00200A1
:1033200060606068A74E00F002004FF48061099071
:10333000B1624800B0620820009069463046FEF74E
:103340002BFA4FF480600090CDE901850395694622
:1033500030460495FEF720FA4FF400600090CDE966
:1033600001850395694630460495FEF715FA96489F
:1033700080684FF4706191FAA1F1B1FA81F101F026
:103380001F0120F4706008FA01F108438E4988603B
:103390008DF8208040268DF8215006968DF82280E9
:1033A00006A8FEF71FF989480221C26896FAA6F31B
:1033B000B3FA83F35B004FF0030A0AFA03F39A436C
:1033C00096FAA6F3B3FA83F35B0099401143C16008
:1033D000016896FAA6F2B2FA82F252000AFA02F2F2
:1033E000914396FAA6F2B2FA82F2520005FA02F27C
:1033F0001143016038680022C0F302200421FFF766
:10340000B1F97349000181F800047004C9F80001A2
:1034100007950895069500950295039501950495E5
:103420000595119512951095139514951695179568
:1034300015950C950D950E950F95206C022620F094
:10344000405040F000502064606840F400506060DC
:10345000606800F400500990606840F0010060600E
:103460006068CDF82CA000F00100CDE909080AA998
:103470004FF09040FEF790F9CDE90ABA0AA94FF053
:1034800090400E95FEF788F938680022C0F30220BC
:103490000521FFF767F94F49000181F80004700426
:1034A000C9F80001C010CDE9065006A94FF0A040B0
:1034B0000895FDF7BCFFCDE90058029503950495EA
:1034C00069464FF0A0400595FDF7CAFF4FF0A044B4
:1034D000D4F8C0006FF30D00C4F8C000206920F4D8
:1034E00080302061206920F0030020F4806020619A
:1034F0004FF44030CDE9100510A93748FDF744FFDF
:103500008020CDE91405169514A920461795FDF7DE
:1035100065FFE06820F4001020F0004040F000401B
:10352000E060E06C20F4C07040F08000E064A068CF
:1035300020F03F0020F02040A060A06820F03F0075
:1035400020F0004040F08050A060244824490068EA
:10355000B0FBF1F000EB800022498000A1FB0010DD
:10356000C00803D0B0F1004F81F07B821E480025D7
:103570004FF0A0410268032322F4F86242F0C00237
:1035800002601A4AD2F800C02CF4606C4CF4007C43
:10359000C2F800C051F8B0CF2CF0080C28E00000B1
:1035A000001002400CED00E00FE000E000000140E0
:1035B000007000400BE000E00CE000E038E000E0CC
:1035C00039E000E000080048040001400004004821
:1035D00017E000E012E000E00003005004000020CB
:1035E000400D0300CDCCCCCC300000501400005076
:1035F000C1F800C051F864CC2CF4785C4CF4007C29
:1036000041F864CCD2F800C02CF0380CC2F800C0ED
:103610000A6822F002020A60026822F4F83242F4D8
:1036200090320260FE480068FD4A20F0E06040F001
:1036300000701060086820F480200860F9488068F5
:10364000F84920F0E07040F48000886011951295F0
:1036500010950495059507950895F34806950995E5
:1036600000950295039501950C950D950E950F9576
:1036700050F8881F21F0405141F0005140F83C19AA
:10368000016841F400510160016801F40051139197
:10369000016841F0010101600068CDE90A6300F0B2
:1036A000010013900AA94FF09040FEF775F8DF482B
:1036B00000680022C0F302200521FFF753F8DC491F
:1036C000000181F800044FF0E0214FF48020C1F8A0
:1036D0000001C010CDE91050D64C10A9204612951B
:1036E000FDF7A5FE059506950795089504A92046C2
:1036F0000995FDF7B5FED4F8C0006FF30D00C4F8CE
:10370000C000206920F480302061206920F003008F
:1037100020F4806020618020CDE900050295694693
:1037200020460395FDF75AFEE06820F4001020F0D3
:10373000004040F00040E060E06C20F4C07040F0D9
:103740008000E064A06820F03F0020F02040A060EE
:10375000A06820F03F0020F0004040F08050A060C2
:10376000B548B6490068B0FBF1F000EB8000B44901
:103770008000A1FB0010C00803D0B0F1004F81F021
:103780007481AC4850F84C1F21F4785141F48061A9
:103790000160AC4900240A6822F4E0720A60416EBC
:1037A00021F004014166A04D02940394059406940F
:1037B00004940A940B940C940D94E86C40F002006D
:1037C000E864E86C00F002000090E86C40F0010052
:1037D000E864E86C08A900F0010000900320CDE93E
:1037E00008609948FDF7D8FFE8140890CDE909640E
:1037F0004FF00809CDE90C4908A94FF090400B940F
:10380000FDF7CAFFA8150290502003904FF4E02066
:10381000CDE9040402A98D480694FDF757FEDFF8B0
:1038200018A28B4FDAF80000B0FBF7F1C82048432C
:103830000790019019D0B0F1004F81F0FA80002874
:10384000D8BF002005DD10F0010002D00799491E05
:1038500007910199401C491C884206DA079A801C8E
:10386000521E521E07928842F8DBDFF8E881D8F832
:10387000000020F40010C8F80000A8F1040BDBF8E9
:10388000000020F40010CBF8000000240294039400
:103890000594069404940A940B940C940D94E86C8B
:1038A00040F00100E864E86C4FF0030900F001000B
:1038B00000900820CDE9080908A94FF09040FDF7D5
:1038C0006BFF4FF4807002904020CDE90304059413
:1038D00002A961480694FDF7F9FD5748C821006820
:1038E000B0FBF7F048430790019019D0B0F1004FBA
:1038F00081F0A5800028D8BF002005DD10F0010070
:1039000002D00799491E07910199401C491C884221
:1039100006DA079A801C521E521E07928842F8DB74
:10392000D8F8000020F48000C8F80000DBF80000A0
:1039300020F48000CBF800000B940C940D940E94AE
:103940000A940694079408940994E86C40F00400E3
:10395000E864E86C04A900F004000090CDE9046973
:103960003E48FDF719FF4FF4807A4020CDF828A09B
:10397000CDE90B040D940AA939480E94FDF7A6FD74
:103980002D4801683248B1FBF0F0C821484302904D
:10399000019019D0B0F1004F81F057800028D8BFB6
:1039A000002005DD10F0010002D00299491E0291AD
:1039B0000199401C491C884206DA029A801C521E5A
:1039C000521E02928842F8DBD8F8000020F0005026
:1039D000C8F80000DBF8000020F00050CBF8000031
:1039E000029403940594069404940A940B940C9402
:1039F0000D94E86C40F00200E864E86C012700F0E8
:103A00000200CDE90879009008A90F48FDF7C4FE2F
:103A10004020CDE902400494059402A9114823E016
:103A20001800005000030050001002400CED00E0B0
:103A300012E000E00001005004000020400D0300EF
:103A4000CDCCCCCC14010050000400480002014051
:103A500080841E0004040140040201400008004864
:103A6000080201400C0201400694FDF72FFDFE48BC
:103A70000168FE48B1FBF0F0C8214843079001906F
:103A800019D0B0F1004F80F0E6870028D8BF0020A1
:103A900005DD10F0010002D00799491E0791019938
:103AA000401C491C884206DA079A801C521E521E8E
:103AB00007928842F8DBD8F80000ED4920F08040FA
:103AC0000860DBF80000091F20F0804008600194C6
:103AD0000094029403940694E86C40F48030E86407
:103AE000E86CDFF8948300F480300790DFF884B34B
:103AF000D8F83C0020F40070C8F83C006A465946EB
:103B00004046CDE90467FDF701FDD8F8000020F03C
:103B10000200C8F80000D8F83C0020F48070C8F813
:103B20003C0001940094029403940694E86C40F4E1
:103B30008020E864E86CDFF8448300F4802007907C
:103B4000D8F83C0020F40070C8F83C006A4659469A
:103B50004046CDE90467FDF7D9FCD8F8000020F015
:103B60000200C8F80000D8F83C0020F48070C8F8C3
:103B70003C00C349D8F83C0020F00070C8F83C0075
:103B80006A464046FDF7C2FCD8F8000020F4003039
:103B9000C8F80000D8F83C0020F08070C8F83C005D
:103BA000B84806940794089409940A940B940C94CA
:103BB000016821F440510160E86C40F00200E864C3
:103BC000E86C694600F002000D908020CDE9000607
:103BD0000420CDE90470CDE90297AB48FDF7DCFD88
:103BE0000420CDE90470CDE90297CDE900A669462D
:103BF000A548FDF7D1FDA86D40F40010A865A86D9B
:103C0000A34900F400100D90A048D1F8001821F04D
:103C1000FF0141F010029E49C1F800289D494A78F1
:103C200082584B7822F0100222F48042C2504A7827
:103C300082584B7842F44052C2504A7882584B78AE
:103C400042F02002C2504A7882584B7822F040025B
:103C5000C2504A7882584B7842F08002C2504A786B
:103C600082584B7822F44072C2504A788258497880
:103C700022F4406242508848DFF82082CDE90640B5
:103C8000089409940A940B9406A940460C94FDF7F5
:103C90002CFED8F8040040F00070C8F80400D8F8F2
:103CA0000C006FF34A00C8F80C00D8F80C0020F4A0
:103CB0000040C8F80C00D8F8000020F40020C8F834
:103CC0000000D8F8000020F40030C8F800006D486B
:103CD00006940794089409940A940B940C94016830
:103CE00021F440310160E86C40F00400E864E86CC5
:103CF00000F004000D90E86C40F00100E864E86C0E
:103D0000694600F001000D904FF40070CDE9000607
:103D10000820CDE90470CDE902976148FDF73CFD2C
:103D2000CDE900A6CDE90297CDE9047669464FF0CA
:103D30009040FDF731FDA86D40F08040A865A86D6A
:103D4000DFF8608100F080400D9053480894CDE981
:103D5000064009940A940B9406A940460C94FDF77A
:103D6000C4FDD8F8040040F00070C8F80400D8F88A
:103D70000C006FF34A00C8F80C00D8F80C0020F4CF
:103D80000040C8F80C00D8F8000020F40020C8F863
:103D90000000D8F8000020F40030C8F800000794B4
:103DA0000894099406940A940C940D940E940B9420
:103DB0000F94029403940494A86D40F48040A86585
:103DC000A86D00F480401090E86C40F00200E864B8
:103DD000E86C00F002001090E86C40F00100E8642C
:103DE000E86C694600F0010010904FF48050CDE976
:103DF0000006052005902448FDF7CEFC4FF4005046
:103E00000090CDE901640520CDE9044069460394A2
:103E10001D48FDF7C1FC4FF480600090CDE90164BE
:103E20000520CDE90440694603944FF09040FDF72A
:103E3000B3FC1D481549D0F800081B4A20F0FF00CC
:103E400040F00C00C2F80008124802788A58037843
:103E500022F0100222F48042CA5002788A58037875
:103E600022F44052CA5021E00400002080841E0049
:103E7000040401400100110200080050001000502D
:103E8000F20042358810024000040048000402405D
:103E900024000240C64E0008FBA7A030005400409A
:103EA00000080048007800402000024002788A584C
:103EB000037842F02002CA5002788A58037822F030
:103EC0004002CA5002788A58037822F08002CA5011
:103ED00002788A58037822F4407242F48072CA5001
:103EE00002788A58007822F4406242F480620A50D4
:103EF000081506904FF4827007904FF45060CDE99A
:103F000008044FF48020CDE90A402820CDE90C04B4
:103F10000720CDE90E40DFF8A48406A94046FDF74E
:103F200001FED8F8040020F01000C8F80400D8F80A
:103F3000040040F00800C8F80400FEF795FA099460
:103F40000A940B940E940F94109408940C94139468
:103F50001494159411941294049405940694A86DE5
:103F600040F00200A865A86D00F002000090E86C27
:103F700040F00100E864E86C00F001000090E86C9B
:103F800040F00400E864E86C02A900F0040000902E
:103F90004020CDE902064FF090400796FDF7FCFB6C
:103FA00080200290CDE90364CDE9064602A94FF0D6
:103FB00090400594FDF7F0FB4FF480700290CDE93E
:103FC0000364CDE9064602A9FD480594FDF7E4FB2C
:103FD000ADF820404FF6FF70CDE90940DFF8E483EB
:103FE00008A940460B94FDF71DFED8F8000020F00C
:103FF0008000C8F80000D8F8200020F01100C8F8B0
:104000002000F148007800F1804000F583600268EC
:10401000EE490B7809FA03FB22EA0B0242EA0B0293
:10402000026002680B784FF00C0C0CFA03F39A4311
:1040300019930B7804FA03FA42EA0A020260026852
:104040000978F0238B4022EA030141EA0A011A931E
:104050000160D8F82010DE480A22007802FA00F049
:1040600081431B90DA48007804FA00F01890084366
:10407000C8F82000D8F8040040F08000C8F8040018
:10408000D8F8080020F0700020F4401040F0400004
:10409000C8F80800D8F8080020F0070020F48030A5
:1040A00040F00400C8F808007020CDE90E04109418
:1040B00011941294139414940EAA1021404615944E
:1040C000FDF708FEC0480221405C00F1804000F589
:1040D00083600268BF4B4FF00408595C08FA01F195
:1040E00022EA01010160B748416821F0700121F026
:1040F000007141F050014160816821F080018160D0
:10410000019402940594039404940A940B940C94DF
:10411000286E40F400502866286E00F4005000908D
:10412000E86C40F00400E864E86CCDF8348000F0FE
:10413000040000904020CDE9080608A9A048FDF73A
:104140002BFB80200890CDE90964CDE90C4808A933
:104150009B480B94FDF720FB9F4800680022C0F3AA
:1041600002200321FEF7FEFA9C49000181F80004B9
:104170009B494FF48050C1F8000142F21070CDE924
:104180000240DFF86082ADF80440049401A9404683
:104190000594FDF747FDD8F8000020F08000C8F82E
:1041A0000000D8F8080020F0070020F4803040F02C
:1041B0000300C8F8080084488B4A0078104403685C
:1041C000824923EA0B0391F800C007FA0CFC43EA8A
:1041D0000C030360D0F800C0199B2CEA030343EAE8
:1041E0000A030360D0F800A01A9B91F800B02AEAF5
:1041F00003034FF0300A0AFA0BFA43EA0A034FF0BE
:10420000F00C0360D8F820B01B9801F10A032BEAE8
:10421000000B18984FF00A0A4BEA0000C8F820007B
:10422000A1F1140080781044026891F8028009FA24
:1042300008F822EA080291F8028007FA08F73A43E0
:10424000026002688F784FF00C0808FA07F722EA3C
:1042500007078A7804FA02F217430760076889782B
:104260000CFA01F127EA0101114301605D480022C7
:10427000D0F820C099780AFA01F32CEA030302FA75
:1042800001F119430162416821F0700121F00071D0
:104290004160416821F470014160816821F0800132
:1042A000816004940594069409940A940B940794ED
:1042B00008940E940F941094D5F8880020F0030011
:1042C000C5F88800286E40F480402866286E00F407
:1042D00080400090E86C40F00400E864E86C4FF027
:1042E000070900F00400009010200C9002200D90AF
:1042F0000CA9CDF844903248FDF74EFA20200C90DE
:104300000220CDE90D040720CDE910400CA90F943F
:104310002B48FDF741FA354FD7F8000820F0FF0091
:1043200040F01900C7F80008314E3078385831781D
:1043300020F0100020F4804040F0100078503078D9
:104340003858317840F440507850307838583178C7
:1043500020F02000785030783858317820F0400034
:10436000785030783858317840F080007850307884
:104370003858317820F44070785030783858317897
:1043800020F44060785007F1040BDBF8000820F0BF
:10439000FF0040F01800CBF80008707838587178AA
:1043A00020F0100020F480407850707838587178F0
:1043B00020F440507850707838581BE000380040A6
:1043C0000008004800040040CC4E0008E04E000801
:1043D000EA4E0008D64E00080CED00E02CE000E0AC
:1043E00004E000E0003401401834014000000240C5
:1043F000C64E0008717820F0200078507078385848
:10440000717820F04000785070783858717840F01A
:104410008000785070783858717820F44070785067
:1044200070783858717820F440607850FE48C24661
:10443000CDE90440CDE9084ADFF8F08306940794FB
:104440000A9404A940460B94FDF72EFE002208F1C1
:10445000080000BF50E8001F62F35F7140E80013DE
:10446000002BF7D1002108F1080000BF50E8002F11
:1044700022F0606242EA416240E80023002BF5D15D
:10448000D8F8000020F00050C8F80000D8F8040068
:1044900020F49040C8F80400D8F8080020F02A0062
:1044A000C8F80800D8F8000040F00100C8F8000083
:1044B000D8F81C00C0F340500028F9D0D8F81C00F0
:1044C000C0F380500028F3D00A940B940C940E94FF
:1044D0000F9410940D941194049405940694D5F8B7
:1044E000880020F03000C5F88800A86D40F48020D6
:1044F000A865A86D00F480200090E86C40F00200F0
:10450000E864E86C02A900F0020000904FF48060BB
:10451000029002200390CDF81C90C548FDF73CF9AD
:104520004FF4006002900220CDE90304CDE9064972
:1045300002A9BF480594FDF72FF94FF4E130CDE90A
:104540000A40CDE90E4ADFF8EC920C940D941094D9
:104550000AA948461194FDF7A7FD002209F10801B8
:1045600051E8000F62F35F7041E80003002BF7D1C0
:10457000002109F1080000BF50E8002F22F060621E
:1045800042EA416240E80023002BF5D1D9F800004F
:1045900020F00050C9F80000D9F8040020F4904041
:1045A000C9F80400D9F8080020F02A00C9F808006A
:1045B000D9F8000040F00100C9F80000D9F81C004B
:1045C000C0F340500028F9D0D9F81C00C0F3805047
:1045D0000028F3D00094019403940494A86D40F053
:1045E0000100A865A86D694600F00100059044F23D
:1045F00068200290ADF80040C006FDF713FB4FF0B5
:104600008049D9F8000020F08000C9F80000D9F8EE
:10461000080020F0070020F4A030C9F80800D9F8FD
:10462000040020F0700020F0007040F02000C9F875
:104630000400D9F8080020F08000C9F80800A86C30
:1046400040F00800A864A86C00F008000090A86C76
:1046500040F48050A864A86C00F480500090764824
:10466000816821F060018160816821F080018160B2
:1046700072494161816821F0180181604FF0FF317A
:1046800001610094019403940494286E40F4802006
:104690002866286E00F480200590ADF80040080CD4
:1046A000674C029069462046FDF7BCFA206820F06E
:1046B000800020606348016F11F4803F1BD1624984
:1046C0008160624981606249C1606249C16001697B
:1046D00011F4803FFBD1416921F080414161016FBC
:1046E00041F480310167416941F400314161016960
:1046F00011F4803FFBD1FEF7B7F957480168574ADC
:10470000114041EAE02101605548016841F0010192
:104710000160016841F48031016052490A686FF319
:104720000B0242F47A620A604F490A686FF30B0287
:1047300042F47A620A60416841F0010141604168D7
:1047400011F0010FFBD1416841F002014160416865
:1047500011F0020FFBD14548016841F001010160F1
:10476000001D016841F001010160001D016841F078
:10477000010101603E4B186840F0010018603D489F
:1047800040F2E24102686FF30B0211430160586886
:1047900040F001005860181D016811F0010FFBD1B5
:1047A0003548016841F00101016008F1080000BFCF
:1047B00050E8001F41F0800140E80012002AF7D1C4
:1047C0003378304A2D482E4998503078131FC15005
:1047D000307850F80B0031786FF30F0040F00C0088
:1047E00041F80B0030783858317840F001007850AB
:1047F00008F1080050E8001F41F0400140E8001CAB
:10480000BCF1000FF6D196F801C01F491F484CF8C3
:10481000031071788850707850F80B0071786FF33E
:104820000F0040F0800033E060E3160000380140E4
:10483000000400480048004000300240B71DC10499
:10484000004801400020024023016745AB89EFCDBD
:104850003B2A19087F6E5D4C000C024000F887FF70
:1048600000100050081000501410005004020140C5
:104870000008005008080050000201401400002009
:10488000283801400C00024024380140BC000020C0
:1048900041F80B0070783858717840F0010078507A
:1048A0004FF0A040D0F8B41021F07F01C0F8B41050
:1048B000816821F03F0121F0404141F000418160D9
:1048C0008168C90FFCD16B49D1F8B42022F07F0276
:1048D000C1F8B4208A6822F03F0222F0404242F040
:1048E00000428A608A68D20FFCD1826822F03F02BF
:1048F00022F0004242F008028260426842F0400228
:104900004260826822F03F0222F0004242F001023F
:104910008260886820F03F0020F0004040F00800EE
:104920008860486840F040004860886820F03F0098
:1049300020F0004040F0010088604F4800214163B2
:104940008163C163416C41F480514164416C21F445
:1049500000414164016A21F001010162016A21F014
:1049600004010162016A21F010010162016A21F073
:1049700040010162016A21F480710162016A21F43F
:1049800080610162016841F001010160D9F8000015
:1049900040F00100C9F800003848016841F0010109
:1049A00001603748016841F001010160C16841F0D0
:1049B0000101C1603348416841F480614160416850
:1049C0006FF3090141F090014160416821F47F01DA
:1049D00041F400314160016841F400410160016827
:1049E00041F0010101607378DFF8A8C02649274A29
:1049F000274843F80C2072780CF10403D0507278E9
:104A0000081D125873786FF30F0242F002021A5019
:104A100070780858727840F001008850206840F0A3
:104A2000010020604FF0E020016941F002010161C6
:104A3000FEE70798401E0790FCD1FEF716BF0798C7
:104A4000401E0790FCD1FEF76BBF0298401E0290FB
:104A5000FCD1FEF7B9BF0798401E0790FCD1FFF7C5
:104A60002AB8401EFDD1FEF781BD401EFDD1FEF7E4
:104A700088BE000000010050002C014000040040EE
:104A8000003401400054004000040240245400401F
:104A900000000020080402407B4900B50020487255
:104AA000FF2008720020C8600860486008744874DD
:104AB0009FED760A084680ED050ADFED750AC0ED28
:104AC000060ADFED740AC0ED070ADFED730A7348CA
:104AD000C0ED000ADFED720AC0ED010ADFED711AC8
:104AE0000021C0ED041AC0ED051AC0ED021AC0ED98
:104AF000031A0183418381838177DFED6B2A2030A4
:104B0000C0ED042ADFED690A0421C0ED030A80ED3F
:104B1000010A80ED020A01704830B7EE001A80EDFC
:104B2000001AC0ED011AC0ED021AC0ED031AC0ED63
:104B3000041AC0ED051AC0ED061AC0ED071AC0ED43
:104B4000081AC0ED0A1AC0ED091AC0ED0C1AC0ED22
:104B50000B1A00F0D5F800F00DF95548B1EE002A17
:104B6000C0ED031A1430C0ED031A1430C0ED031A5F
:104B7000C0ED001A143080ED002A80ED012A9FED6F
:104B80004D0A80ED030A9FED4C0A052180ED040AD1
:104B90008162002180F83010C0ED051AC0ED061AC0
:104BA000C0ED0B1A4162C0ED021A1421016200220D
:104BB000C261343080ED011A9FED400A80ED000A99
:104BC000C0ED101AC0ED0F1ADFED3D0AC0ED040A6A
:104BD00080ED031A4430DFED3B0AC0ED071AC0ED4B
:104BE0000C1AC0ED0B1AC0ED030ADFED370AC0ED59
:104BF000040AC0ED051AC0ED061A80F83420C0ED95
:104C0000021AC0ED011A01624262027082623830FB
:104C1000DFED2E0AC0ED051AC0ED041AC0ED071A2B
:104C2000C0ED061AC0ED022AC0ED000ADFED280A29
:104C3000C0ED010ADFED270AC0ED030AC0ED0F1A2F
:104C400080ED0B0A9FED240A80ED0C0AC0ED0E1AD0
:104C5000C0ED0D1AC0ED101AC0ED111AC0ED081A02
:104C6000C0ED091A00F0CCF81D489FED1C0A4FF466
:104C70007A7180ED000A0161C0ED021AC0ED011ADF
:104C800080ED032A00BD00006C0000206F12833A03
:104C900017B7D138B91DCA31000010423C010020BD
:104CA000E246A641000000000E4F2F3CBD3786357E
:104CB000A40200208FC2F53C8FC2F5BC000048431F
:104CC000FAECD0BE66666640666666C011C73A3AC0
:104CD000CDCC883E00401C460000C84363141D45EF
:104CE000D803002005489FED040A80ED030A143024
:104CF00080ED030A7047000000000000A4020020BD
:104D00001B489FED1A0AF7EE000A80ED130A80EDAA
:104D1000140A80ED000A80ED010A80ED120A80ED90
:104D2000020AC0ED030A80ED0A0A80ED0B0A80ED4D
:104D3000080A80ED090A80ED040A80ED050A80ED7D
:104D4000060A80ED070A80ED0E0A80ED0F0A80ED5D
:104D5000150A80ED160A002180F85C1080F85D10BD
:104D600080ED110A80ED100A70470000000000007D
:104D7000D80100201F489FED1E0ADFED1F0A80EDBD
:104D8000170A80ED180AC0ED120A012180F8681098
:104D900080ED0A0A80ED0B0A80ED080A80ED090A11
:104DA00080ED040A80ED050A80ED0E0A80ED0F0A01
:104DB00080ED100A80ED110A80ED190A80ED130ACA
:104DC00080ED140A80ED070ADFED0C0A80ED060A7B
:104DD000C0ED150AF2EE040AC0ED160A80ED010AD4
:104DE00080ED000A80ED030A80ED020A70470000A2
:104DF0000000000038020020CDCCCC3E000048432B
:104E00002848002101704170817001758161C16184
:104E10000422C27040F6C41282608268C3785A438A
:104E20004260426800EE102A1F4AB8EE400A12683B
:104E3000D2ED050A20EE200ADFED1C0A80EE801A72
:104E400080ED031A4268F5EE000A00EE102AB8EE73
:104E5000400A20EE200AF6EE000A20EE200A80ED3D
:104E6000040A9FED130A80ED080A9FED120A80EDF7
:104E70000A0A9FED110A80ED0B0A80F83010FF211D
:104E800080F8311090ED0A0AB5EEC00AF1EE10FA82
:104E900028BF704790ED0A0AB1EE400A80ED0A0A79
:104EA000704700007001002068000020DB0FC9413E
:104EB00000000000D253FB42DD7E3C434FF04070C7
:104EC000E1EE100A7047081C3044586C00000000E6
:104ED000040404043838000008000000080000083A
:104EE0000000080000000800000000020406080A94
:104EF0000C0E10140100000002000000040000006D
:104F000006000000080000000A0000000C0000007D
:104F100010000000200000004000000080000000A1
:104F20000001000000000000000000000102030476
:104F3000060708090000000001020304081C3044B1
:104F4000586C000000000404040438380000080015
:104F5000000008000008000000000000D041243AD2
:104F60002941A43A1C60F63A8E3E243BC04B4D3B8F
:104F70005157763B77B08F3B2234A43B80B6B83B89
:104F80006837CD3BAFB6E13B2E34F63BDD57053CF1
:104F900095940F3C2CD0193C8B0A243C9F432E3C0B
:104FA000547B383C96B1423C4FE64C3C6D19573C23
:104FB000DA4A613C837A6B3C55A8753C3BD47F3C14
:104FC00010FF843CFA128A3CD0258F3C8937943CF0
:104FD0001C48993C7E579E3CA765A33C8C72A83C1C
:104FE000247EAD3C6688B23C4991B73CC298BC3C3B
:104FF000CA9EC13C57A3C63C5FA6CB3CDBA7D03CB6
:10500000C0A7D53C06A6DA3CA4A2DF3C929DE43CB6
:10501000C796E93C3A8EEE3CE383F33CB977F83C23
:10502000B469FD3CE62C013DFCA3033D191A063D85
:10503000388F083D55030B3D6C760D3D7AE80F3DEA
:105040007A59123D6AC9143D4438173D05A6193DE9
:10505000AB121C3D307E1E3D92E8203DCD51233DDC
:10506000DDB9253DBF20283D70862A3DECEA2C3D68
:10507000314E2F3D39B0313D0411343D8D70363DF8
:10508000D0CE383DCD2B3B3D7E873D3DE1E13F3DE0
:10509000F43A423DB392443D1CE9463D2B3E493D26
:1050A000DF914B3D33E44D3D2735503DB684523DB5
:1050B000DFD2543DA01F573DF46A593DDCB45B3D3F
:1050C00053FD5D3D5744603DE789623D00CE643D40
:1050D000A010673DC551693D6C916B3D94CF6D3D0E
:1050E0003B0C703D5F47723DFE80743D16B9763DC6
:1050F000A6EF783DAB247B3D24587D3D0F8A7F3D54
:1051000035DD803D9BF4813D370B833D0921843D96
:105110001136853D4D4A863DBE5D873D6170883DB7
:105120003882893D40938A3D7AA38B3DE5B28C3D20
:1051300080C18D3D4BCF8E3D46DC8F3D6FE8903D6D
:10514000C7F3913D4DFE923D0108943DE110953D20
:10515000EF18963D2920973D8F26983D212C993DAB
:10516000DE309A3DC7349B3DDA379C3D183A9D3D71
:10517000803B9E3D133C9F3DD03BA03DB63AA13DB8
:10518000C638A23D0036A33D6332A43DF02DA53DB7
:10519000A528A63D8422A73D8C1BA83DBC13A93D94
:1051A000160BAA3D9901AB3D44F7AB3D19ECAC3D64
:1051B00016E0AD3D3DD3AE3D8DC5AF3D05B7B03D2D
:1051C000A7A7B13D7397B23D6886B33D8674B43DE1
:1051D000CE61B53D404EB63DDC39B73DA224B83D69
:1051E000930EB93DAEF7B93DF4DFBA3D65C7BB3D9F
:1051F00001AEBC3DC993BD3DBD78BE3DDC5CBF3D4D
:105200002840C03DA022C13D4604C23D18E5C23D34
:1052100019C5C33D47A4C43DA382C53D2D60C63D0D
:10522000E73CC73DD018C83DE9F3C83D31CEC93D84
:10523000AAA7CA3D5480CB3D2F58CC3D3C2FCD3D35
:105240007B05CE3DEDDACE3D91AFCF3D6983D03DBC
:105250007556D13DB528D23D2AFAD23DD4CAD33DA8
:10526000B49AD43DCA69D53D1738D63D9B05D73D84
:1052700057D2D73D4B9ED83D7869D93DDE33DA3DD4
:105280007FFDDA3D59C6DB3D6F8EDC3DC055DD3D0F
:105290004D1CDE3D16E2DE3D1DA7DF3D616BE03DAE
:1052A000E42EE13DA5F1E13DA6B3E23DE774E33D27
:1052B0006835E43D2BF5E43D2FB4E53D7672E63DDF
:1052C0000030E73DCDECE73DDEA8E83D3564E93D43
:1052D000D01EEA3DB2D8EA3DDA91EB3D494AEC3DB9
:1052E0000002ED3D00B9ED3D486FEE3DDB24EF3DA2
:1052F000B7D9EF3DDF8DF03D5241F13D12F4F13D64
:105300001EA6F23D7857F33D2008F43D16B8F43D53
:105310005D67F53DF315F63DDAC3F63D1271F73DD5
:105320009C1DF83D79C9F83DAA74F93D2E1FFA3D40
:1053300007C9FA3D3572FB3DB81AFC3D93C2FC3DEE
:10534000C569FD3D4E10FE3D30B6FE3D6B5BFF3D39
:105350000000003E0000000000005454522052455E
:105360004747455300000000885300080000002014
:10537000BC0000001402000844540008BC000020D7
:105380004C0E000030020008000000000024F40071
:10539000000000000000000000000000000000000D
:1053A000000000000000807F0000803F000000003F
:1053B00000000000000000000000000000000000ED
:1053C00000000000000000000000000000000000DD
:1053D00000000000000000000000000000000000CD
:1053E00000000000000000000000000000000000BD
:1053F0006C0000200000000000000000FF00000022
:10540000000000000000000000000000000000009C
:10541000000000003C0100205C0100207001002021
:10542000A4010020A4020020B8020020CC02002029
:105430001403002090030020D8030020FF00000088
:045440000000000068
:04000005080001D915
:00000001FF
