:020000040800F2
:10000000F00E00207902000807240008FD0900080E
:1000100005240008F7030008A92C000800000000D0
:1000200000000000000000000000000001270008A0
:100030002505000800000000FD2500088D2B0008A4
:10004000930200089302000893020008930200083C
:10005000930200089302000893020008930200082C
:100060009302000893020008930200081D0500088F
:100070001F0500089302000893020008930200087D
:1000800093020008000000007F03000893020008AC
:100090009302000893020008930200085905000823
:1000A00093020008930200089302000893020008DC
:1000B00093020008930200089302000893020008CC
:1000C00093020008930200089302000893020008BC
:1000D00093020008930200089302000893020008AC
:1000E000930200089302000893020008930200089C
:1000F000852C00089302000893020008000000000D
:1001000000000000930200080000000093020008B5
:100110009302000800000000930200089302000808
:100120002105000823050008930200089302000837
:100130009302000800000000000000009302000885
:100140009302000893020008000000000000000075
:10015000000000000000000000000000000000009F
:1001600000000000000000000000000093020008F2
:1001700093020008000000000000000000000000E2
:1001800000000000930200080000000000000000D2
:10019000000000000000000000000000000000005F
:1001A0000000000000000000930200089302000815
:1001B0009302000893020008930200080000000068
:1001C0000000000093020008000000000000000092
:1001D000930200089302000800F002F800F03CF8D7
:1001E0000AA090E8000C82448344AAF10107DA4592
:1001F00001D100F031F8AFF2090EBAE80F0013F0A8
:10020000010F18BFFB1A43F001031847484D0000C7
:10021000684D0000103A24BF78C878C1FAD8520758
:1002200024BF30C830C144BF04680C607047000070
:100230000023002400250026103A28BF78C1FBD8EF
:10024000520728BF30C148BF0B6070471FB504F08C
:100250002BFC1FBD10B510BD00F058F81146FFF77C
:10026000F5FF02F0E5FD00F076F803B4FFF7F2FFCA
:1002700003BC00F07DF800000948804709480047AA
:10028000FEE7FEE7FEE7FEE7FEE7FEE7FEE7FEE746
:10029000FEE7FEE704480549054A064B70470000A3
:1002A000752C0008D9010008F0080020F00E00208D
:1002B000F00A0020F00A00204FF0000200B51346BB
:1002C00094469646203922BFA0E80C50A0E80C5076
:1002D000B1F12001BFF4F7AF090728BFA0E80C5027
:1002E00048BF0CC05DF804EB890028BF40F8042B20
:1002F00008BF704748BF20F8022B11F0804F18BF8D
:1003000000F8012B7047704770477047754600F042
:100310002BF8AE4605006946534620F00700854697
:1003200018B020B5FFF7B6FFBDE820404FF000063B
:100330004FF000074FF000084FF0000B21F00701CD
:10034000AC46ACE8C009ACE8C009ACE8C009ACE810
:10035000C0098D46704710B50446AFF300802046B3
:10036000BDE81040FFF781BF004870478C080020AF
:1003700001491820ABBEFEE72600020070474FF08F
:10038000A040016811F0400F1ABFD0F8001111F021
:10039000400F704740210160C0F8001102F030B9F1
:1003A000D0ED000A90ED011AF0EE001A90ED000A6F
:1003B00041EE210A9FED021A60EE810A70470000AB
:1003C0003ACD133F91ED010AD0ED000A90ED011AEC
:1003D000D0ED001A20EE200AD1ED000A00EE810ACD
:1003E000D1ED010A90ED011A60EE810A91ED001A3B
:1003F00041EE610A7047FEE700F0D4BB70B490EDA7
:10040000000AD2ED000A90ED051A3C4D70EE600A2C
:1004100090ED030ADFED3A2A3A4E00EE810ADFED55
:100420003A3A80ED030A90ED030A10EE103AAB421F
:10043000C8BFC0ED032A0BDC90ED030A10EE103AA2
:10044000B34234BF90ED030AB0EE630A80ED030AB5
:1004500090ED030A9FED2D3A9FED2D2A2D4C20EEB5
:10046000030ADFF8B4C0B2EE041A00EE820A10EEFE
:10047000103AA342C8BFB0EE410A05DC10EE103AB4
:10048000634528BFBAEE040AD1ED000AD2ED011A85
:1004900091ED054A70EEE11AD1ED030A41EE840AAE
:1004A000C1ED030AD1ED030A10EE902AAA42C8BF9B
:1004B000C1ED032A09DCD1ED030A10EE902AB24205
:1004C00038BFD1ED033AC1ED033AD1ED030A60EE36
:1004D000830A41EE820A10EE902AA242C8BFF0EED3
:1004E000410A05DC10EE902A624528BFFAEE040AA4
:1004F00080ED040AC1ED040A70BC70471F11473F2C
:100500001F11473F1F1147BF1F1147BF8FC24D41EA
:10051000C3F5284000002041000020C1704770470B
:1005200070477047704791ED010AD0ED000A90EDD9
:10053000011AD0ED011A20EE200AD1ED000A00EEDA
:10054000C10AD1ED000A90ED001A60EE810A91ED2A
:10055000011A41EE210A70470E48016811F0400F60
:1005600008BF704710B5402101600B4C206801782E
:10057000002908BF10BD417821B18069BDE8104055
:1005800000F09ABC0121417000F082FA2168886174
:1005900010BD000014040140880000202DE9F04740
:1005A0006A4D6B4E2DED028B82B0286890ED088A63
:1005B0003068417CDFF89CA1674C684FDFF8A08170
:1005C0004FF00009002965D001297DD002291EBF06
:1005D00002B0BDEC028BBDE8F08700F0ABFC2868F0
:1005E00080ED090A90ED090A00F0DCFA206880ED40
:1005F000010AC0ED020A1C30FFF7D2FE8DED000AA1
:10060000CDED010A2068011D6846FFF7DBFE20687A
:1006100000F1240280ED090AC0ED0A0AD8F80010A2
:10062000DAF80000FFF7EAFE4E482168006891ED15
:100630000A1AD0ED021A90ED012A21EE211AD1ED0D
:10064000091A01EE480A90ED041A386801EE821A80
:1006500080ED020A41EE080AC0ED030A30684168E5
:100660004A1C4260092910D1C0F8049000F080FCB7
:10067000286880ED080A90ED080A3B48006802F0FF
:1006800033FAD8F8000080ED000A02B0BDEC028B0E
:10069000BDE8F0874268511C41602E499FED330A46
:1006A000B2F5FA6F096833D2F1EE000AC1ED000A23
:1006B000D8F8000080ED000A00F074FA206880EDA0
:1006C000010AC0ED020A00E036E01C30FFF768FEC8
:1006D0008DED000ACDED010A2068011D6846FFF787
:1006E00071FE206800F1240280ED090AC0ED0A0ABB
:1006F000D8F80010DAF80000FFF780FE386880EDC7
:10070000020AC0ED030A40F2E24000F0D5FBBCE76C
:10071000C0F8049081ED000A3868012480ED030AD6
:1007200080ED020A2868047040F2E241C16104F0E1
:100730001FF930684474A8E741684A1C4260642984
:10074000A3D9C0F80490022141749EE788000020DC
:100750007C000020900000208C0000208000002001
:100760009400002084000020980000200000000079
:100770002DE9F041434986B00868427C424E72B18F
:10078000012A1CBF06B0BDE8F08141684A1C4260E6
:100790003E4C3F4FDFF8FC80092917D10AE0306852
:1007A000B6EE000A80ED000A09680120487406B020
:1007B000BDE8F08100214160206890ED0E0A3868A4
:1007C00002F092F9D8F8000080ED000A206890ED60
:1007D0000F0A00F0E7F9304D286880ED010AC0EDFE
:1007E000020A1C30FFF7DCFD8DED020ACDED030A95
:1007F0002868011D02A8FFF7E5FD286800F1240222
:1008000080ED090AC0ED0A0AD8F800103068FFF739
:10081000F5FD2249CDED010A28680968226890EDAE
:100820000A1AD1ED021A21EE211AD2ED101A01EEA8
:10083000610A8DED000A91ED041AD0ED091A91EDCF
:10084000012A174901EE821AD2ED101A41EE210A4F
:10085000CDED010A096881ED020A9DED010A81EDE5
:10086000030A011D6846FFF75EFE8DED040ACDED1B
:10087000050A02AB04AA3968206801F0E1FD06B060
:10088000BDE8F0817C00002090000020A000002046
:1008900098000020940000208C000020840000209C
:1008A00080000020F0B54A4C83B02068417C494E5E
:1008B000494D0027E9B101295FD002291CBF03B0CF
:1008C000F0BD28681C30FFF76BFD8DED000ACDED03
:1008D000010A2868011D6846FFF774FD286880ED4D
:1008E000090AC0ED0A0A21684B683C4A192B55D108
:1008F0004DE041684A1C42609FED390AB1F5FA6F3C
:100900002ED2384C384FF1EE000A2068C0ED000AB4
:10091000386880ED000A00F045F9286880ED010A8A
:10092000C0ED020A1C30FFF73BFD8DED000ACDED56
:10093000010A2868011D6846FFF744FD286800F198
:10094000240280ED090AC0ED0A0A39682068FFF721
:1009500055FD306880ED020AC0ED030A03B0F0BD1A
:10096000306880ED020A80ED030A04F001F8206887
:1009700047600121417403B0F0BD41684A1C4260E8
:10098000642987BF4760022103B0F0BDF2E74F60E2
:1009900092ED000AB1EE400A82ED000A4B6803F1C5
:1009A000010CC1F804C011495BB90B6892ED001A43
:1009B0009FED0F0AD3ED010A326800EEC10A82ED05
:1009C000020A90ED090A086801F03AFA03B0F0BD96
:1009D0007C000020800000208C00002020000020EF
:1009E0000000000090000020940000209C000020E7
:1009F000CDCC4C3E00F004B800F018B8FEE7000083
:100A000010EE100AF6EE000A074960EE200AA1EB8C
:100A1000600000EE100A20EE801AF7EE080A41EEA0
:100A2000400A20EE800A7047DF59375FF0EE400A37
:100A3000F5EEC00AF1EE10FAACBFB1EEE00A9FEDA0
:100A4000010A70470000000010B5104C402201213F
:100A5000204601F03DF940221021204601F038F9EE
:100A600040229100204601F033F950220421204613
:100A700001F02EF950224021204601F029F95022A0
:100A800021152046BDE8104001F022B9002C01409C
:100A900001480068704700002434014003480068A2
:100AA00010F0100F0CBF01200020704700340140EF
:100AB0004FF0A040816821F03F0121F0004141F05A
:100AC00004018160016811F0040FFBD0016C9FEDFF
:100AD000141A89B200EE101ADFED121AF8EE400A6D
:100AE00080EE810ADFED100A20EE210A20EE200AB6
:100AF000016811F0040FFBD0006C80B200EE900A88
:100B00000B48F8EE600A006880EE812A9FED071A14
:100B100062EE210AC1EE201AC0ED001A70470000F3
:100B200000FF7F47333353400000CA4200109B3F11
:100B30008C000020154800689FED151A80B200EE69
:100B4000100ADFED150ADFED131AB8EE400ADFEDEB
:100B5000132A134880EE012AB0EE600A006802EE04
:100B6000610AB3EE042A80EE023A23EE220A80B232
:100B700003EE100AF8EE433A83EE813A43EE610A3F
:100B800080EE821A61EE220A704700008000005059
:100B900000FF7F47333353403333D33F0000484394
:100BA000800100509FED0F1A1049C0EE010A9FED21
:100BB0000E0A20EE800ABDEEC00A10EE100A486050
:100BC0008868896800EE100A00EE901A9FED081AF6
:100BD000B8EEC00AF8EEE00A20EE010A60EE810AE3
:100BE00070470000DB0F49400000004F000C02403E
:100BF000000000300B4800694FF0000110F0080FB2
:100C0000094818BF81800BD18288521C92B2828021
:100C1000B2F5967F04D98180017881F001010170DD
:100C20000078704700080048080000207047000066
:100C300010B5104C70220121204601F049F87022B5
:100C40001021204601F044F87022A115204601F041
:100C50003FF870220421204601F03AF8702240212A
:100C6000204601F035F8702221152046BDE81040DD
:100C700001F02EB8002C01402DE9F0015C494FF441
:100C80007A72D1F808C0BCFBF2F002FB10C0002859
:100C90003CD15848436843F40053436056480388A6
:100CA00000881B0A43EA002000B2401100EE100A3F
:100CB0005248F4EE000AB8EEC00A0068504B20EE2D
:100CC000200A80ED040A90ED040A10EE100A984202
:100CD0001CDD4C48436C23F400434364036A23F057
:100CE00001030362036A23F004030362036A23F02F
:100CF00010030362036A23F040030362036A23F4D0
:100D000080730362036A23F480630362BCFBF2F026
:100D100002FB10C048B93C4A4FF4806350698343DA
:100D200000F4806043EA004090614888384D00F04C
:100D30007F06441C821CC01C00F07F0733482D68CE
:100D400004F07F0310F8068002F07F02B8F1530F21
:100D500001BF10F80380B8F13A0F10F80780B8F11E
:100D60000A0F15D110F80280DFED2A0A00EE108A72
:100D70004FF00008B8EE400A20EE200A85ED000A88
:100D800000F8038000F8068000F8078000F8028071
:100D90002248214A067802F10403F6583604360C3C
:100DA0001ED195ED000A1E4D1E4E85ED000A3668D7
:100DB00096ED080A85ED010A05785559067825F063
:100DC000010595510578ED5806786FF30F0545F04C
:100DD0000C05F5500378D358007843F00103135005
:100DE0004C800CF101008860BDE8F0017047000004
:100DF0000800002000540040000000208C0000206B
:100E000000008242002C014000080048A800002099
:100E100098000020DB0FC94000000240284B00086A
:100E20001400002088000020024B58639963DA63A5
:100E300070470000002C01400E48016A41F001019A
:100E40000162016A41F004010162016A41F010018E
:100E50000162016A41F040010162016A41F480715E
:100E60000162016A41F480610162416C41F4004118
:100E700041647047002C01400E48416C21F4004150
:100E80004164016A21F001010162016A21F004015B
:100E90000162016A21F010010162016A21F0400142
:100EA0000162016A21F480710162016A21F48061AA
:100EB00001627047002C0140014948627047000000
:100EC00000340140154800689FED151A80B200EE0D
:100ED000100ADFED150ADFED131AB8EE400ADFED58
:100EE000132A134880EE012AB0EE600A006802EE71
:100EF000610AB3EE042A80EE023A23EE220A80B29F
:100F000003EE100AF8EE433A83EE813A43EE610AAB
:100F100080EE821A61EE220A7047000080000050C5
:100F200000FF7F47333353403333D33F0000484300
:100F30008001005010B5FFF7ABFD0B4909688A68C6
:100F4000D1ED040AB0FBF2F302FB130000EE100A2D
:100F5000B8EEC00A80EE201A9FED040AF0EE400AB7
:100F600011EE200A10BD000088000020DB0F494070
:100F70002DE9F041294C2068C769FFF789FD064635
:100F80000025FFF78BFD00210028206890F928201C
:100F900009D0531C80F828300A2A04BF012280F8A7
:100FA000292009D00AE0531E80F8283012F10A0FD8
:100FB00008BF80F8291001D180F828102068027D30
:100FC000002A08BFF51B10D090F82930144A012BD5
:100FD00003D090F8293023B106E052683244D51B83
:100FE00002E05268F31B9D1A0175C66100EE105AAB
:100FF000D0ED030A0C48B8EEC00A9FED0C1A20EEA3
:10100000800ADFED080A20EE200AD0ED000A00EE8B
:10101000810A80ED000ABDE8F08100008800002010
:101020005C010020CDCCCC3DA40000206666663F6C
:1010300010B44FF0A04C4A68DCF808400023DCF8FC
:1010400008C144EA0C0C1CF0010F18BF012302D0A8
:1010500010BC18467047DFF828C052B10C68224314
:10106000D1E9024121431143826802EA0C02114393
:1010700004E08268096802EA0C0211438160E7E734
:10108000E030C0FF4B68D0F808C000221CF0010F10
:1010900018BF012201D0104670475BB1D1E9023C74
:1010A00043EA0C03D0F80CC02CF0047C43EA0C0398
:1010B000C36007E0C368D1F80CC023F0047343EAAF
:1010C0000C03C360D1E900310B43C16C6FF308011D
:1010D0001943C164DFE78368002213F0010F18BFD2
:1010E000012201D010467047D1E9003C43EA0C03CD
:1010F0008968D0F80CC02CF0180C2CF4404C41EA54
:101100000C011943C160EDE730B44B68D0F808C05A
:1011100000221CF0010F18BF012202D030BC104683
:101120007047002BDFF848C00B680ED08C68234353
:10113000D1E903452C4323434C692343C46804EAA3
:101140000C0C43EA0C03C3600BE0CC682343D1E9E9
:1011500004452C432343C46804EA0C0C43EA0C0303
:10116000C3604968036B23F00F0319430163D5E79C
:101170001CC0F0FF10B403680022DB0F18BF01226F
:1011800002D010BC10467047D1E9003C43EA0C0382
:10119000D1E902C44CEA040C096943EA0C0319437F
:1011A0000368DFF80CC003EA0C0319430160E8E7A9
:1011B0000F7E00FF70B4002401F010030125D2F867
:1011C00008C006689D40B54308BF01245BD0BCF150
:1011D000000F39D0BCF1C00F10D0016840F6FC758B
:1011E0009D40A943156845EA0C0CD5684CEA050CEE
:1011F0000CFA03FC41EA0C01016033E005684FF092
:10120000C00C0CFA03FC25EA0C0545EA0C0CC0F8EE
:1012100000C0D0F860C040F60F759D402CEA050C68
:1012200015685668AD08B60845EA06259D404CEAA3
:10123000050CC0F860C0C1F3C01100EB8101D2F809
:101240000CC0C1F858C00DE001684FF0FC0C0CFA5E
:1012500003FC21EA0C01D2F800C00CFA03FC41EABD
:101260000C010160C16B4FF0070C0CFA03FC21EA82
:101270000C01D2E904C592694CEA050C4CEA020261
:101280009A401143C163204670BC704770B4684AED
:10129000067A684B0025141F0168A3F1040C002E88
:1012A00074D0A1B1467A76B3012E36D0022E18BF83
:1012B00001253BD0847A54B15F490A1F012C3DD0EF
:1012C000022C45D0032C18BF45F002054AD04168D6
:1012D000002971D0427A002A4DD0012A57D0022A23
:1012E00018BF45F004055DD0837A002B64D05349C4
:1012F0000A1F012B61D0022B6AD0032B18BF45F0C7
:10130000050571D090E0FFE7166826EA010111603B
:101310000168226811432160CCE7266826EA0101B2
:1013200021600168146821431160C3E726683143D6
:1013300021600168146821431160BBE704680E68EE
:1013400026EA04040C600168146821431160BEE7BA
:101350000468166826EA0404146002680C682243D4
:101360000A60B4E7046816683443146002680C68C5
:1013700022430A60ABE71A6822EA0101196041685A
:10138000DCF800201143CCF80010ADE737E0DCF8C2
:10139000002022EA0101CCF8001041681A681143CC
:1013A0001960A1E7DCF800201143CCF80010416877
:1013B0001A681143196097E736E04368D1F800C016
:1013C0002CEA03030B6040681168084310602BE0AF
:1013D0004368D2F800C02CEA0303136040680A682F
:1013E0001043086020E0FFE74368D2F800C04CEAF1
:1013F0000303136040680A681043086014E026681D
:1014000026EA010121600168146824EA01011160E3
:101410004168DCF8002022EA0101CCF800104068A5
:10142000196821EA00001860284670BC7047000067
:1014300004040140240401400C0401402C04014038
:101440002DE9F0030A6892FAA2F3B3FA83F3DA40C3
:101450007ED001250F244FF0030C00BF0E6805FA63
:1014600003F2324075D04E68012E18BF022E22D1F1
:101470008F68D0F8088092FAA2F6B6FA86F64FEA9C
:1014800046060CFA06F628EA060692FAA2F8B8FA18
:1014900088F84FEA480807FA08F746EA0706866020
:1014A000CF680E68D0F8048028EA060806FB07F625
:1014B00048EA060646600E69D0F80C8092FAA2F758
:1014C000B7FA87F74FEA47070CFA07F728EA070742
:1014D00092FAA2F8B8FA88F84FEA480806FA08F62D
:1014E00047EA0606C6604E68022E34D1B2F5807F08
:1014F00016D24E69076A92FAA2F8B8FA88F84FEA4B
:10150000880804FA08F827EA080792FAA2F8B8FA55
:1015100088F84FEA880806FA08F63E4306621AE0A1
:101520004F69D0F82480160A96FAA6F9B9FA89F913
:101530004FEA890904FA09F996FAA6F6B6FA86F688
:10154000B60028EA090807FA06F648EA060601E0A6
:101550001BE015E046624F68D0F8008092FAA2F6D0
:10156000B6FA86F676000CFA06F692FAA2F2B2FA0B
:1015700082F2520028EA060607FA02F232430260BB
:101580000A685B1CDA407FF469AFBDE8F003002015
:101590007047026822F001020260D1E90232D0F8FD
:1015A00000C043EA02222CF4F85C4CEA020202601A
:1015B0004A680261026842F001020260826822F415
:1015C000004282600B698A69D0F808C01A436FF341
:1015D0000A0C4CEA020282600A691AB1826842F47B
:1015E000004282600A68036823F440131A430260D1
:1015F0004969426822F4004211434160002070476B
:101600004FF47A71B0FBF1F0411E4FF0E0204161E0
:10161000002181610521016170470000014610B57C
:101620000020C02918BF10BD1A4CD4F8881001F052
:10163000C00141F440014039B1F5400117D04029C3
:1016400019D080291ED001F027F8A168124A01F0B4
:10165000F0010909515C01F01F01C840A1680F4A5F
:10166000C1F30221515C01F01F01C84010BDBDE86B
:10167000104001F011B82168C1F38021002918BF82
:10168000074810BDD4F8901011F0020F18BF4FF4A6
:10169000004010BD00100240104B0008204B000815
:1016A0000024F40070B5024600204449444D454EE4
:1016B000454C032A13D00C2A43D0302A18BF70BDE2
:1016C000D4F8882002F0300242F44012103AB2F509
:1016D000401262D0102A64D0202A68D03FE0D4F8AB
:1016E00088206FF4403302F0030242F44032D218F3
:1016F00053D0012A13D0022A19D000F0CDFFA168DF
:1017000001F0F0010909695C01F01F01C840A168FE
:10171000C1F3C221715C01F01F01C84070BD226895
:10172000C2F38022002A08BF70BD084670BDD4F8FD
:10173000901011F0020F08BF70BD00BF4FF40040C1
:1017400070BDD4F8882002F00C0242F44022121F2F
:10175000B2F5402221D0042A13D0082A17D000F075
:101760009BFFA16801F0F0010909695C01F01F010C
:10177000C840A168C1F30221715C01F01F01C8409B
:1017800070BD2268C2F38022002ACED170BDD4F889
:10179000901011F0020FD1D170BDBDE8704000F083
:1017A0007BBF2268C2F38022002ABED170BDD4F86C
:1017B000901011F0020FC1D170BD00000024F400A0
:1017C000104B0008204B0008001002400368012263
:1017D00013F0400F31D1D1E900231A43D1E9033C82
:1017E00043EA0C031A434B691A438B691A43CB69CA
:1017F0001A430B6A1A43036823F0BF0323F47F43A1
:101800001A43026042684B6922F4417222F440623A
:1018100042EA13428B681A4342608A68B2F5006F4D
:1018200003D2426842F4805242600A6AB2F5005F15
:1018300002D1898C89B201610022C16921F4006161
:10184000C161104670470000014908607047000000
:10185000040000200A7B8B681A434B6822F48062E4
:101860001A430B6822F400621A43CB8922F4805297
:101870001A430B6922F400521A43CB6A22F48042C5
:101880001A434B6922F470221A438B6922F080526A
:101890001A43A0F18043B3F596331CBFA0F18043F7
:1018A000B3F59A330FD14B6A22F470021A43CB6915
:1018B00022F080721A430B6A22F000721A43896A7E
:1018C00022F000520A434264002070472DE9F001E3
:1018D0000268234B234CDFF89080DFF890C09842D9
:1018E00018BFB0F1804F04D0A0421CBF40456045F6
:1018F00004D14D6822F0700242EA05021C4D1D4ED3
:101900001D4F984218BFB0F1804F0BD0A04218BFB6
:10191000404507D0604518BFA84203D0B04218BF69
:10192000B84204D1CC6822F4407242EA0402026058
:101930008A68C2620A888262984218BF604504D0F1
:10194000A8421CBFB042B84201D109690163416994
:1019500041F001014161BDE8F0014FF00000704726
:10196000002C014000040040000800400034014009
:101970000040014000440140004801402DE9F007CB
:101980000023DFF838C3CE4CCE4DCF4ECF4F4FF0B3
:101990000108B1F5805F00F0E08008DC012910D07B
:1019A000102952D0B1F5807F7ED000F083B9B1F517
:1019B000803F00F01781B1F5801F00F0488100F0F2
:1019C00079B9016A21F001010162016AD0F804804D
:1019D000D0F81890D2F800A029F0730929F48039C2
:1019E00049EA0A09D2F810A021F0020141EA0A01ED
:1019F000D2F804A021F0010141EA0A01604518BFB4
:101A0000A04204D0A8421CBFB042B84215D1D2F8BF
:101A100014C021F0080141EA8C01D2F808C021F07D
:101A2000040141EA8C01946928F4807C4CEA040C9E
:101A3000D4692CF4007C4CEA4408C0F80480C0F857
:101A40001890D268426300F033B9016A21F01001A6
:101A50000162D0F820804168D0F81890D2F800A038
:101A600029F4E64929F0807949EA0A29D2F810A038
:101A700028F0200848EA0A18D2F804A028F0100834
:101A800048EA0A18604518BFA04204D0A8421CBF0B
:101A9000B042B84217D1546928F0800C4CEA841C3B
:101AA0002CF0400C946800E013E04CEA8418D2F863
:101AB00018C021F4806141EA8C01D2F81CC021F4E5
:101AC000006141EACC014160C0F81890D16881639F
:101AD00040E0016A21F480710162D0F82080416801
:101AE000D0F81C90D2F800A029F0730929F48039AD
:101AF00049EA0A09D2F810A028F4007848EA0A282E
:101B0000D2F804A028F4807848EA0A28604518BF73
:101B1000A04204D0A8421CBFB042B84215D15469BB
:101B200028F4006C4CEA842C94682CF4806C4CEA09
:101B30008428D2F818C021F4805141EA0C11D2F85F
:101B40001CC021F4005141EA4C114160C0F81C90C6
:101B5000D168C163C0F82080ABE0016A21F48051F4
:101B60000162D0F820804168D0F81C90D2F800A023
:101B700029F4E64929F0807949EA0A29D2F810A027
:101B800028F4005848EA0A38D2F804A028F480580B
:101B900048EA0A38604518BFA04204D0A8421CBFDA
:101BA000B042B84215D1546928F4004C4CEA843C48
:101BB00094682CF4804C4CEA8438D2F818C021F494
:101BC000804141EA8C11D2F81CC021F4004141EA65
:101BD000CC114160C0F81C90D1680164C0F820802D
:101BE000984667E0016A21F480310162D0F82080D4
:101BF000016DD2F8009021F0700121F4803141EAAA
:101C00000901B2F8109028F4003848EA0948B2F8FF
:101C1000049028F4803848EA0948604518BFA0427B
:101C200004D0A8421CBFB042B84208D1D0F804C0CA
:101C300094692CF4803C4CEA042CC0F804C0016583
:101C4000D168826C8164C0F82080984632E0016AD5
:101C500021F480110162016AD0F85080D2F800901E
:101C600028F4E04828F0807848EA0928B2F8109073
:101C700021F4001141EA0951B2F8049021F48011D5
:101C800041EA0951604518BFA04204D0A8421CBFD8
:101C9000B042B84208D1D0F804C094692CF4802C2A
:101CA0004CEA842CC0F804C0C0F85080D268C264EA
:101CB000016298464046BDE8F0077047002C01409D
:101CC0000034014000400140004401400048014010
:101CD000012908BF002124D0042908BF012120D0F8
:101CE000102908BF02211CD0402908BF032118D0A9
:101CF000B1F5807F08BF042113D0B1F5806F08BF14
:101D000005210ED0B1F5805F08BF062109D0B1F5DD
:101D1000804F08BF072104D0B1F5803F0CBF0821D8
:101D20000921084B18305B5C1844D0F800C0064B02
:101D3000595C064B8B402CEA030302FA01F119436C
:101D4000016070472E4B0008384B000873000100FB
:101D500070B5044600680D46012610F0010F5CD1F5
:101D60002969A868EA690843696911430843216839
:101D7000314A114008432060E868616821F440510D
:101D800008436060A869A16821F440710843A0601D
:101D9000A4F18040B0F59C3013D0A4F18040B0F5A0
:101DA000884008BF0C2010D0A4F18040B0F59040CE
:101DB00008BF302009D0A4F18040B0F5984007D08A
:101DC00024E00320FFF76EFC05E0FFF76BFC02E068
:101DD000C020FFF723FC00281CBF6968002915D02C
:101DE0002A68EB694FF000060B2A0FD8DFF84CC0C9
:101DF000D2B2B3F5004F5CF82220B0FBF2F00ED067
:101E000000EB5100B0FBF1F080B2E0602888E16A9D
:101E100080B221F00F010843E062304670BD4000FF
:101E200000EB5100B0FBF1F080B24FF6F0710140D1
:101E3000C0F342000843E8E7F369FFEFE04A000817
:101E40002DE9F041A04D04462DED048BD5ED008A1F
:101E5000DFED9E0A95ED011A68EEA00ADFED9C1AEF
:101E600041EE610A9FED9B1AD5ED021AC5ED018A7C
:101E700040EE010A41EEC10AC5ED000A85ED020AF5
:101E800090ED020AD0ED000A9FED938A94ED0F1AAF
:101E9000924F60EE880ADFF8488200EE810A84EDF6
:101EA000020A94ED020A10EE100A94ED020AB842FA
:101EB000C8BF30EE480A08DC10EE100A404584BF67
:101EC00094ED020A30EE080A01D984ED020A94ED7D
:101ED000020AD4ED040A30EE200A10EE100AB842CD
:101EE000C8BF30EE480A05DC10EE100A404588BF36
:101EF00030EE080AFEF780FA94ED031A794821EED5
:101F0000000A94ED031A84ED050A61EE200A20EE22
:101F1000280AC4ED060A60EEA80A84ED070AC4ED9B
:101F2000080A90ED000ADFED700A00F1080120EECA
:101F3000200AD1ED001A9FED6D1A00F1100201EE9A
:101F4000C10A92ED002ADFED6A1AD4ED072A02EEEB
:101F5000210A9FED682AA0F1080300F11806F7EEA8
:101F6000008A02EE820A83ED000AD4ED072AC2ED50
:101F7000002A80ED000A81ED000AD0ED012A62EE10
:101F8000A00AD1ED012A42EEC10A92ED011A41EEFA
:101F9000210A94ED081A41EE020AC3ED010A94EDFC
:101FA000081A82ED011AC0ED010AC1ED010A84EDA3
:101FB000090AC4ED0A0AD6ED000A94ED090A94ED67
:101FC000091A40EE010AC6ED000A96ED010A94EDE9
:101FD0000A1AD4ED0A1A01EE210A86ED010A95EDDE
:101FE000030A30EE281A80EE810AFEF705FDF0EEB6
:101FF000400A95ED030AB0EE609AD6ED010A30EE84
:10200000281A80EE810AFEF7F7FCD5ED030A70EE80
:10201000A80AC5ED030A84ED0B9A84ED0C0A94ED31
:102020000B0AD4ED0B0A94ED0C1A20EE200AD4ED25
:102030000C0A00EE810AFEF7DFFCF0EE000A60EE0B
:10204000208AD4ED0B0A94ED0C0A00F067FED4ED63
:10205000010A9FED291A2A4960EE810A80EEA81A2A
:10206000DFED260A61EE208A18EE900A8842C8BF8A
:10207000DFED248AB1EE400A10EE100AB842C8BF64
:1020800030EE480A05DC10EE100A404588BF30EEFD
:10209000080AFEF7B1F960EEA80A20EE280A9FEDC3
:1020A0001A1AC4ED100AFEEE000A60EE200A80EE55
:1020B000810AD4ED000A80EE201A84ED111ABDECDD
:1020C000048BBDE8F081000030000020AC1CFA3F1A
:1020D000F016783F24B9FC3CDB0FC940DB0F4940C8
:1020E000DB0F49C048000020355EFA3F2FDD743F0A
:1020F000A9E8FE39B72FFB39AAF1A23F2368D03FE8
:102100000000204100000000DB0F49402DE9F04FA6
:10211000A1B000241C941F940A9406940794089478
:1021200009940F940B940C940D940E9414941094A1
:102130001194129413941994AB4D1594169417940A
:102140001894009401940294039404940594286EC6
:1021500040F400602866286EA44E00F400601A90D7
:1021600040201D9042F233101E9001202090ADF8C7
:1021700070401CA93046FFF7A9FB306820F08000B2
:102180003060B06820F0070020F4A030B060DFF8C5
:1021900060B298489BF800100F1838680BF10A09D4
:1021A0004FF0080A99F800100AFA01F10843386064
:1021B0007020CDE90604089409940A940B940C94B9
:1021C00006AA012130460D94FFF7D8FB386899F82C
:1021D00000104FF0040808FA01F1884338609BF8BA
:1021E000021084480F18386899F802100AFA01F1B1
:1021F0000843386006AA10213046FFF7BFFB386855
:1022000099F8021008FA01F1884338609BF804102D
:1022100078480F18386899F804100AFA01F1084351
:10222000386006AAA9153046FFF7A8FB386899F868
:10223000041008FA01F188433860706820F07000DB
:1022400020F0007040F020007060706820F4700092
:102250007060B06820F08000B0606749086898FA44
:10226000A8F2B2FA82F202F01F024F1507FA02F248
:10227000904398FAA8F2B2FA82F202F01F0204FA2E
:1022800002F210430860086840F004000860086823
:102290009AFAAAF2B2FA82F202F01F0207FA02F2E6
:1022A00090439AFAAAF2B2FA82F202F01F0204FAFA
:1022B00002F210430860086840F0080008600A68ED
:1022C000102090FAA0F3B3FA83F390FAA0F003F091
:1022D0001F03B0FA80F007FA03F300F01F009A43DF
:1022E00004FA00F010430860086840F0100008602D
:1022F00088148DF84440ADF846004FF400590E9410
:102300000F9410948001CDF84890CDE91304C001DA
:10231000CDE91540179418940EA930461994FFF78B
:1023200099FAE86C40F00400E864E86C00F00400FE
:102330001A90E86C40F00200E864E86C00F00200DB
:102340001A90E86C40F00100E864E86C022500F0A7
:1023500001001A90CDF80090CDE90154274ECDE947
:102360000448694630460394FFF76AF8012000905C
:10237000CDE90154694630460394CDE90445FFF7A1
:102380005FF8CDF80080CDE90154694630460394EA
:10239000CDE90445FFF754F868030090CDE90154F6
:1023A0000626DFF85C80CDE9044669464046039482
:1023B000FFF746F80097CDE90154CDE90446694698
:1023C0004FF090400394FFF73BF80097CDE901549C
:1023D0000C20CDE90440694603944046FFF730F8ED
:1023E00021B0BDE8F08F000000100240002C014039
:1023F000B84A0008182C0140602C01400008004831
:1024000000040048FEE7FEE700F00703C3F1070001
:10241000042888BF042003F1040CBCF1070F34BF6B
:102420000023DB1E4FF0010C0CFA00F0401E0840A8
:1024300098400CFA03F1491E114008437047000010
:1024400010B504462DED048BD0ED000AD3ED003A13
:1024500090ED041A93ED013A23EEA02A90ED020AC2
:1024600090ED034A90ED056A71EE424A23EE201A80
:10247000D0ED012A92ED005A64EEA40A64EE844A7B
:1024800036EE416AD0ED081A41EE010AD2ED015A4A
:1024900026EE044A50EE000A64EEA04A64EE200ADA
:1024A00094ED064A43EEE24A43EE620A74EE853A40
:1024B00070EEA50A03EEA14A84ED064AD4ED073A70
:1024C00040EEA13AC4ED073AD4ED060AC4ED040A81
:1024D000D4ED070AC4ED050AD4ED060AD4ED071AB7
:1024E00070EEC20A31EEC11AC0EE801AC1EE000AC7
:1024F000C4ED0A1AC4ED090A94ED0A0AD4ED0A0AD9
:1025000094ED091A20EE200AD4ED090A00EE810AA2
:10251000FEF770FAD4ED0A0A60EE800AC4ED0A0AEA
:10252000D4ED090A20EE800A84ED090A94ED0A9A96
:10253000D4ED098A94ED088A94ED120AFDF75CFF48
:1025400060EEA80A294949EE400AC4ED0B0A94ED51
:10255000110A00EE880A84ED110A94ED110A94ED37
:102560000D1A20EE010A94ED0C1A01EE200ADFED9F
:102570001D0A9FED1D1A84ED0E0A20EE200AD4EDEF
:10258000100A00EE810A84ED100A94ED120AD4EDCF
:102590000E0A00EE880A84ED120A94ED120A10EE7B
:1025A000100A94ED120A88420DDDDFED110A30EEBB
:1025B000200A84ED120A00BF94ED120A84ED0F0A7E
:1025C000BDEC048B10BD10EE100A0A4994ED120AFE
:1025D000884284BFDFED080A30EE200A84ED120A3B
:1025E000EAE700006F12833A77BE7F3FDB0F494076
:1025F000DB0FC9C0DB0F49C0DB0FC94070470000CB
:1026000070B5FEF75FFC214C206880ED070AC0ED35
:10261000080A90ED070AD0ED050A30EE600A80ED59
:10262000070A90ED080AD0ED060A30EE600A80ED48
:10263000080A17480068017A164D04291ED1007C4B
:1026400040B101280BD0022807D0032808BFFEF7AD
:102650008FF804E0FDF7A2FF01E0FEF723F9206800
:10266000011D28680830FDF75EFF286880ED040A28
:10267000C0ED050A00F02AF9FEF7D8FA2868828B27
:10268000418B008BBDE87040FEF7CEBB8C00002074
:102690007C000020800000201549886800F00C03B1
:1026A0001448042B08BF7047134A082B04BF104678
:1026B00070470C2B18BF7047CB6803F00303022B45
:1026C00002D0032B08BF1046CA68C2F30622424359
:1026D000C868012300F0F00003EB1010B2FBF0F02B
:1026E000C968C1F34161491C4900B0FBF1F0704772
:1026F000001002400024F40000127A0000F0D6BA64
:10270000704700002DE9F05F674C2DED028B2068CB
:1027100090F90810DFED658A9FED658A654FDFF857
:1027200098810025654E491C4FF001094FF0020ABF
:10273000052964D2DFE801F0030A2E3A5B00FEF7B8
:102740009BFB01F0C3FF2068057258E0FEF7B0F96B
:10275000306820EE280AD0ED030A00EE880A80EDEA
:10276000030A90ED030A10EE101AB9420FDD90ED46
:10277000030A10EE100A804509DD206801684A1C32
:102780000260322984BF056080F8089037E0206835
:10279000056034E001684A1C026032292FD90560C7
:1027A000FEF752F9206880F808A028E0FEF7C2F989
:1027B000306890ED051A21EE081A00EE281A80ED17
:1027C000051A90ED060A20EE080A00EEA80A80ED30
:1027D000060A206801684A1C0260B1F57A7F0ED9AA
:1027E0000560FEF725FA21680320087207E0FEF76E
:1027F00001FA20B1FEF720FB21680420087220684E
:10280000007A042841D1FEF7F5F94FF0FF3B00288C
:1028100004BF206880F808B0FEF74AF93068DFEDA1
:10282000280A9FED281A20EE200AD0ED030A00EEB8
:10283000810A80ED030A90ED030A10EE101AB942E6
:102840000CDA21680868421C0A608C281DD9FEF742
:1028500013FB2068056080F809A014E090ED030ADE
:1028600010EE100A4045DCBF206805600DDD2168D0
:102870000868421C0A608C2807D9FEF7FDFA206818
:10288000056080F8099080F808B00F48D0E902127E
:10289000491C42F10002C0E90212BDEC028BBDE806
:1028A000F05FFEF7E9B900007C000020CDCCCC3D04
:1028B0006666663FCDCCF441999925428C00002094
:1028C000A4707D3F0AD7233C20000020D0ED041ADD
:1028D00090ED050A0021DFED7E0AF6EE002A61EE9A
:1028E000A00AB0EE601A00EE621AF0EE413A9FEDD7
:1028F000791A90ED002A61EE811AB0EE613A40EE4D
:10290000621A9FED754AB5EEC00A84EE021AF1EE26
:1029100010FAC8BF0121B0EE632AB5EEC02AF1EE6D
:1029200010FAC8BF891CF5EEC01AF1EE10FAC8BF44
:10293000091D9FED6A2AF5EE001A072976D2DFE815
:1029400001F091041D32475E76000221817700EE8E
:10295000223A40EE220A23EE013A20EE811A72EE6C
:10296000432A32EE810A60EE210A33EE020A30EE8B
:10297000010A32EEC11A20EE210A70E006218177A9
:1029800040EE220A60EE812A21EE401A32EE820ADF
:1029900032EE622A30EE010A60EE210A32EE410A7E
:1029A00020EE210A28E00121817763EE812A21EEC1
:1029B000001A32EE820A32EE622A30EE010A60EE2E
:1029C000210A32EE010A32EE411A20EE210A46E0D7
:1029D0000421817700EE223A61EE403A32EE630A3A
:1029E00023EE011A33EE822A70EE410A30EE010A1C
:1029F00060EEA10A20EE210A32EE011A2FE0032137
:102A0000817740EE220A21EE003A72EE432A21EE4F
:102A1000601A32EEC10A60EE210A33EE020A30EE8D
:102A2000010A32EE811A20EE210A18E01AE005218F
:102A3000817740EE220A00EE223A61EE603A21EE02
:102A4000431A32EE630A33EE822A70EE010A30EE48
:102A5000410A32EE011A60EEA10A20EE210A21EEAF
:102A6000211A05E09FED1E0AF0EE400AB0EE401A72
:102A7000DFED1C1A42F2331C20EE210A60EEA10A9F
:102A8000BDEEC00AFDEEE00A10EE102A21EE210A8A
:102A900010EE903ABDEEC00A002B10EE101AB4BF33
:102AA00000236345C8BF42F23313002AB4BF00229B
:102AB0006245C8BF42F233120029B4BF002161450C
:102AC000C8BF42F233110383428381837047000001
:102AD000D7B35D3FD7B35DBFEA983539C6B0D138BB
:102AE000C6B0D137E81F224DD0ED000A90ED051A8F
:102AF0001E4A70EEC00A90ED030A00EE810A80EDD6
:102B0000030A90ED030A10EE101A9142C4BF9FED24
:102B1000180A80ED030A0CDC90ED030A154A10EE4A
:102B2000101A914234BF90ED030A9FED130A80ED15
:102B3000030A90ED030A9FED111A124A20EE010AD2
:102B40009FED0F1A00EE810A10EE101A9142C8BFD5
:102B5000B2EE040A04DC10EE101A0B4A914202D8BD
:102B600080ED040A7047BAEE040AF9E70000C84293
:102B70000000C8420000C8C20000C8C2CDCCCC3D95
:102B80000AD7233C00002041000020C1FFF7BABD56
:102B9000314810B5016821F00F0141F004010160D6
:102BA000016801F00F010429FAD12C4850F8801F68
:102BB00021F4807101602A48016841F4803101608C
:102BC0000168C1F340410029FAD0C26845F21351AF
:102BD000244B1A401143C160C16841F08071C1604B
:102BE000016841F0807101600168C1F34061002912
:102BF000FAD0816841F003018160816821F0F00121
:102C000041F080018160816801F00C010C29FAD14A
:102C100015490A6842F080720A6014490A6842F055
:102C200001020A6000224A604A68642AFCD3816873
:102C300021F0F0018160816821F4E06181608168A8
:102C400021F4605181600A4C2046FEF7D9FC2046F1
:102C5000BDE81040FEF7F8BD0020024000700040C3
:102C6000001002400C80FFF9FCED00E0001000E0D5
:102C700080FE210A0248016841F47001016070473A
:102C800088ED00E00648016811F0010F08BF7047A9
:102C90006FF0010101600120024909680875704761
:102CA0001034014088000020FEE7000010B5164CEB
:102CB000A8212046FDF700FB03202061606113A0DE
:102CC000A06104F1A800E0614FF480602062002060
:102CD000A0626062E0620DA1216604F59561616603
:102CE0001021A1662067E06660670B49C0F10F0202
:102CF0008A5C2254C0F10E0223188A5C5A70801C30
:102D00001028F3D310BD0000D40300205465726D69
:102D1000696E616C00000000404F00089FED3F1A93
:102D2000B5EEC00AF1EE10FA04BFF5EEC00AF1EEFE
:102D300010FA65D0B5EEC00A0021F1EE10FA64D2A7
:102D4000F5EEC00AF1EE10FA2CBF04220322F5EED4
:102D5000C00AF1EE10FAD8BFF1EE600AB5EEC00A73
:102D6000F1EE10FAD8BFB1EE400AB4EEE00AF1EE8F
:102D700010FAD8BFF0EE601A04DDF0EE401AB0EEA3
:102D8000600A012180EE212A9FED260ADFED242A28
:102D9000F7EE000A62EE001AF4EEC01AF1EE10FA35
:102DA00028BFFD200BD2FCEEE10A10EE900AF8EEEF
:102DB000600A00EEA21A72EE410A60EE800A1A4B17
:102DC000002903EB800090ED001A90ED010A30EE2F
:102DD000410A00EE201A1CBFB5EE000A30EE411A7F
:102DE000B6EE000A022A08BF30EE411A08D0032AC4
:102DF00008BF31EE401A03D0042A08BFB1EE411AD1
:102E00009FED0A0A21EE000A7047F5EEC00AF1EEC6
:102E100010FA34BF0222012299E7000000000000EE
:102E20000402813B00007E43444B0008DB0FC94095
:102E3000FE4C9CB054F8600F40F0010044F81809B3
:102E4000A06900F001000090206940F080502061EE
:102E50002069F74F00F08050009038684FF6FF016E
:102E6000084040F4407040F0FD7040F080603860F1
:102E700038680022C0F302200621FFF7C5FAED49A9
:102E8000000181F8140DEC48016B21F00101016390
:102E9000016B41F002010163E8488068E74940F4B2
:102EA00080408860FFF774FE206840F004002060D6
:102EB000206800F004000090206840F002002060CC
:102EC000206800F002000090206840F001002060BF
:102ED000206800F00100009038680022C0F3022052
:102EE0001146FFF791FAD649000181F800044FF02E
:102EF000E02A4FF400604FF001080025CAF80001F5
:102F000038680022C0F302201146FFF77DFACD4950
:102F1000000181F800044FF48050CAF800013868BD
:102F20000022C0F302201146FFF76EFAC6490001E5
:102F300081F800040AF104014FF080704FF0040B97
:102F4000C1F8000138680022C0F302201146FFF7E3
:102F50005BFABE49000181F800040AF104014FF058
:102F60000070C1F800010095019502950595069540
:102F7000079508950995606840F0040060606068F6
:102F800000F004000390606840F02000606060681A
:102F900000F020000390606840F00100606060680D
:102FA00000F001000390606840F00200606060681B
:102FB000A74E00F0020003904FF48060B062400022
:102FC000B0620820049004A93046FEF739FA4FF4A5
:102FD00080600490CDE90585079504A930460895E1
:102FE000FEF72EFA4FF400600490CDE905850795B1
:102FF00004A930460895FEF723FA964880684FF4F6
:10300000706191FAA1F1B1FA81F101F01F0120F490
:10301000706008FA01F108438E4988608DF80880D5
:1030200040268DF8095000968DF80A806846FEF714
:103030002DF989480221C26896FAA6F3B3FA83F300
:103040005B004FF0030909FA03F39A4396FAA6F3DB
:10305000B3FA83F35B0099401143C160016896FAAB
:10306000A6F2B2FA82F2520009FA02F2914396FAFB
:10307000A6F2B2FA82F2520005FA02F2114301609E
:1030800038680022C0F302200421FFF7BDF973491C
:10309000000181F800047004CAF800011695149527
:1030A000159507950895099506950A951195129518
:1030B00013950B950C950D950E950F951095029502
:1030C000039504950595206C022620F0405040F0B1
:1030D00000502064606840F400506060606800F454
:1030E00000501790606840F00100606060686946B9
:1030F00000F0010017904FF09040CDE90089FEF7F5
:103100009FF9CDE900B969464FF090400495FEF76C
:1031100097F938680022C0F302200521FFF774F9FF
:103120004F49000181F800047004CAF80001C01082
:10313000CDE9145014A94FF0A0401695FDF7CBFF30
:10314000CDE90658089509950A9506A94FF0A040C3
:103150000B95FDF7D9FF4FF0A044D4F8C0006FF3F2
:103160000D00C4F8C000206920F48030206120697F
:1031700020F0030020F4806020614FF44030CDE95E
:10318000100510A93748FDF753FF8020CDE90C0545
:103190000E950CA920460F95FDF774FFE06820F40A
:1031A000001020F0004040F00040E060E06C20F4AF
:1031B000C07040F08000E064A06820F03F0020F084
:1031C0002040A060A06820F03F0020F0004040F0C8
:1031D0008050A060244825490068B0FBF1F000EB66
:1031E000800023498000A1FB0010C00803D0B0F18B
:1031F000004F81F052821F4A00254FF0A041106815
:10320000032320F4F86040F0C00010601A48D0F8A2
:1032100000C02CF4606C4CF4007CC0F800C051F885
:10322000B0CF2CF0080CC1F800C027E0001002401D
:103230000CED00E00FE000E00000014000700040F5
:103240000BE000E00CE000E038E000E039E000E0F6
:1032500000080048040001400004004817E000E0B6
:1032600012E000E00003005004000020400D0300C5
:10327000CDCCCCCC300000501400005051F864CCC0
:103280002CF4785C4CF4007C41F864CCD0F800C09D
:103290002CF0380CC0F800C0086820F0020008606C
:1032A000106820F4F83040F490301060FE48006858
:1032B000FD4A20F0E06040F000701060086820F4E3
:1032C00080200860F9488068F84920F0E07040F4F8
:1032D00080008860019502950095049506950795F4
:1032E0000895F348059509950B950C950D950A954C
:1032F000109511951295139550F8881F21F04051A3
:1033000041F0005140F83C19016841F4005101605E
:10331000016801F400510391016841F0010101606D
:103320000068CDE90E6300F0010003900EA94FF094
:103330009040FEF785F8DF4800680022C0F30220C5
:103340000521FFF761F8DC49000181F800044FF026
:10335000E0204FF48021C0F80011C810CDE90050E2
:10336000D64C694620460295FDF7B5FE05950695B3
:103370000795089504A920460995FDF7C5FED4F8E0
:10338000C0006FF30D00C4F8C000206920F4803045
:103390002061206920F0030020F4806020618020FB
:1033A000CDE90A050C950AA920460D95FDF76AFEA0
:1033B000E06820F4001020F0004040F00040E060A1
:1033C000E06C20F4C07040F08000E064A06820F061
:1033D0003F0020F02040A060A06820F03F0020F0D7
:1033E000004040F08050A060B548B6490068B0FB8E
:1033F000F1F000EB8000B4498000A1FB0010C00890
:1034000003D0B0F1004F81F04C81AC4850F84C1F14
:1034100021F4785141F480610160AC4900240A68CC
:1034200022F4E0720A60416E21F004014166A04D71
:1034300009940A940B940C940D94049405940694A6
:103440000794E86C40F00200E864E86C00F00200C9
:103450000090E86C40F00100E864E86C02A900F01C
:10346000010000900320CDE902609948FDF7E8FFD4
:10347000E8140290CDE903644FF00809CDE906494C
:1034800002A94FF090400594FDF7DAFFA8150990C6
:1034900050200A904FF4E020CDE90B0409A98D4893
:1034A0000D94FDF767FEDFF818A28B4FC821DAF8FC
:1034B0000000B0FBF7F048430890019019D0B0F13C
:1034C000004F81F0D2800028D8BF002005DD10F029
:1034D000010002D00899491E08910199401C491C1D
:1034E000884206DA089A801C521E521E08928842B0
:1034F000F8DBDFF8E881D8F8000020F40010C8F805
:103500000000A8F1040BDBF8000020F40010CBF859
:10351000000000240B940C940D940E940A940694CD
:10352000079408940994E86C40F00100E864E86CA2
:103530004FF0030900F0010000900820CDE90409D4
:1035400004A94FF09040FDF77BFF4FF480700A9084
:103550004020CDE90B040D940AA961480E94FDF7B3
:1035600009FE5748C8210068B0FBF7F048430290B5
:10357000019019D0B0F1004F81F07D800028D8BFB4
:10358000002005DD10F0010002D00299491E0291D1
:103590000199401C491C884206DA029A801C521E7E
:1035A000521E02928842F8DBD8F8000020F4800016
:1035B000C8F80000DBF8000020F48000CBF8000021
:1035C000049405940794089406940C940D940E9416
:1035D0000F94E86C40F00400E864E86C0AA900F07D
:1035E00004000090CDE90A693E48FDF729FF4FF439
:1035F000807A4020CDF810A0CDE90504079404A9F5
:1036000039480894FDF7B6FD2D4801683248B1FBF2
:10361000F0F0C82148430990039019D0B0F1004F51
:1036200081F02F800028D8BF002005DD10F00100B8
:1036300002D00999491E09910399401C491C8842EE
:1036400006DA099A801C521E521E09928842F8DB43
:10365000D8F8000020F00050C8F80000DBF80000A7
:1036600020F00050CBF8000009940A940B940C94BD
:1036700008940494059406940794E86C40F00200C2
:10368000E864E86C012700F00200CDE902790090BF
:1036900002A90F48FDF7D4FE4020CDE908400A9466
:1036A0000B9408A9114823E01800005000030050B3
:1036B000001002400CED00E012E000E000010050BC
:1036C00004000020400D0300CDCCCCCC14010050F0
:1036D000000400480002014080841E0004040140F0
:1036E0000402014000080048080201400C020140A9
:1036F0000C94FDF73FFDFE480168FE48B1FBF0F079
:10370000C82148430D90019019D0B0F1004F80F0CE
:10371000BE870028D8BF002005DD10F0010002D0D0
:103720000D99491E0D910199401C491C884206DAE9
:103730000D9A801C521E521E0D928842F8DBD8F85A
:103740000000ED4920F080400860DBF80000091F10
:1037500020F0804008600194009402940394069441
:10376000E86C40F48030E864E86CDFF8948300F49F
:1037700080300790DFF884B3D8F83C0020F4007064
:10378000C8F83C006A4659464046CDE90467FDF753
:1037900011FDD8F8000020F00200C8F80000D8F8A9
:1037A0003C0020F48070C8F83C000194009402941E
:1037B00003940694E86C40F48020E864E86CDFF839
:1037C000448300F480200790D8F83C0020F4007077
:1037D000C8F83C006A4659464046CDE90467FDF703
:1037E000E9FCD8F8000020F00200C8F80000D8F882
:1037F0003C0020F48070C8F83C00C349D8F83C0075
:1038000020F00070C8F83C006A464046FDF7D2FC44
:10381000D8F8000020F40030C8F80000D8F83C00C8
:1038200020F08070C8F83C00B848069407940894CB
:1038300009940A940B940C94016821F4405101609E
:10384000E86C40F00200E864E86C694600F00200B1
:103850000D908020CDE900060420CDE90470CDE96B
:103860000297AB48FDF7ECFD0420CDE90470CDE9EB
:103870000297CDE900A66946A548FDF7E1FDA86DD0
:1038800040F40010A865A86DA34900F400100D9045
:10389000A048D1F8001821F0FF0141F010029E4924
:1038A000C1F800289D494A7882584B7822F01002CE
:1038B00022F48042C2504A7882584B7842F44052F7
:1038C000C2504A7882584B7842F02002C2504A785F
:1038D00082584B7822F04002C2504A7882584B7886
:1038E00042F08002C2504A7882584B7822F44072EB
:1038F000C2504A788258497822F44062425088483F
:10390000DFF82082CDE90640089409940A940B94CC
:1039100006A940460C94FDF73CFED8F8040040F0A0
:103920000070C8F80400D8F80C006FF34A00C8F81B
:103930000C00D8F80C0020F40040C8F80C00D8F8AF
:10394000000020F40020C8F80000D8F8000020F49F
:103950000030C8F800006D4800940194029403946C
:10396000049405940694016821F440310160E86CE8
:1039700040F00400E864E86C00F004000790E86C94
:1039800040F00100E864E86CCDE90A9700F001001E
:1039900007904FF40070CDE908060820CDE90C70BF
:1039A00008A96148FDF74CFDCDE908A6CDE90A97C5
:1039B000CDE90C7608A94FF09040FDF741FDA86DC8
:1039C00040F08040A865A86DDFF8608100F080407D
:1039D000079053480294CDE9004003940494059461
:1039E000694640460694FDF7D4FDD8F8040040F03F
:1039F0000070C8F80400D8F80C006FF34A00C8F84B
:103A00000C00D8F80C0020F40040C8F80C00D8F8DE
:103A1000000020F40020C8F80000D8F8000020F4CE
:103A20000030C8F8000002940394049400940194B8
:103A3000079408940994059406940C940D940E949C
:103A4000A86D40F48040A865A86D00F480401090F7
:103A5000E86C40F00200E864E86C00F002001090AE
:103A6000E86C40F00100E864E86C0AA900F001008D
:103A700010904FF48050CDE90A0605200F9024489D
:103A8000FDF7DEFC4FF400500A90CDE90B640520F1
:103A9000CDE90E400AA90D941D48FDF7D1FC4FF465
:103AA00080600A90CDE90B640520CDE90E400AA99B
:103AB0000D944FF09040FDF7C3FC1D491548D1F817
:103AC00000181B4A21F0FF0141F00C01C2F8001858
:103AD00012490A7882580B7822F0100222F48042B0
:103AE000C2500A7882580B7822F44052C25021E02A
:103AF0000400002080841E00040401400100110223
:103B00000008005000100050F200423588100240BA
:103B1000000400480004024024000240B24A0008A9
:103B2000FBA7A03000540040000800480078004087
:103B3000200002400A7882580B7842F02002C250DE
:103B40000A7882580B7822F04002C2500A788258D4
:103B50000B7822F08002C2500A7882580B7822F447
:103B6000407242F48072C2500A788258097822F476
:103B7000406242F480624250001500904FF482701F
:103B800001904FF45060CDE902044FF48020CDE95C
:103B900004402820CDE906040720CDE90840DFF8DD
:103BA000A48469464046FDF711FED8F8040020F0D1
:103BB0001000C8F80400D8F8040040F00800C8F865
:103BC0000400FEF7A3FA0A94089409940B940C9449
:103BD0000094019402940394049405940694079429
:103BE000129413941494A86D40F00200A865A86D77
:103BF00000F002000D90E86C40F00100E864E86C11
:103C000000F001000D90E86C40F00400E864E86CFE
:103C100010A900F004000D904020CDE910064FF0EF
:103C200090401596FDF70CFC80201090CDE91164B2
:103C3000CDE9144610A94FF090401394FDF700FC15
:103C40004FF480701090CDE91164CDE9144610A9AD
:103C5000FD481394FDF7F4FBADF820404FF6FF70DC
:103C6000CDE90940DFF8E48308A940460B94FDF74D
:103C70002DFED8F8000020F08000C8F80000D8F829
:103C8000200020F01100C8F82000F148007800F171
:103C9000804000F583600268EE490B7809FA03FB67
:103CA00022EA0B0242EA0B02026002680B784FF034
:103CB0000C0C0CFA03F39A4316930B7804FA03FAEC
:103CC00042EA0A02026002680978F0238B4022EA85
:103CD000030141EA0A0118930160D8F82010DE4878
:103CE0000A22007802FA00F081431790DA4800783F
:103CF00004FA00F00D900843C8F82000D8F804003A
:103D000040F08000C8F80400D8F8080020F07000E7
:103D100020F4401040F04000C8F80800D8F808002F
:103D200020F0070020F4803040F00400C8F80800BC
:103D30007020CDE900040294039404940594069441
:103D40006A46102140460794FDF718FEC04902203C
:103D5000095C01F1804101F583610A68BF4B4FF0B6
:103D60000408185C08FA00F022EA00000860B7486E
:103D7000416821F0700121F0007141F05001416073
:103D8000816821F08001816009940A940B94089461
:103D90000C94049405940694286E40F40050286610
:103DA000286E00F400500090E86C40F00400E864D5
:103DB000E86CCDF81C8000F0040000904020CDE9B4
:103DC000020602A9A048FDF73BFB80200290CDE946
:103DD0000364CDE9064802A99B480594FDF730FB32
:103DE0009F4800680022C0F302200321FEF70CFB6D
:103DF0009C49000181F800049B484FF48051C0F8B1
:103E00000011ADF8204042F21070CDE90940DFF812
:103E10005C820B9408A940460C94FDF757FDD8F836
:103E2000000020F08000C8F80000D8F8080020F05A
:103E3000070020F4803040F00300C8F808008448F0
:103E40008B4A007810440368824923EA0B0391F8F7
:103E500000C007FA0CFC43EA0C030360D0F800C072
:103E6000169B2CEA030343EA0A030360D0F800A080
:103E7000189B91F800B02AEA03034FF0300A0AFABF
:103E80000BFA43EA0A034FF0F00C0360D8F820B0B5
:103E9000179801F10A032BEA000B0D984FF00A0A5C
:103EA0004BEA0000C8F82000A1F11400807810440B
:103EB000026891F8028009FA08F822EA080291F8EB
:103EC000028007FA08F73A43026002688F784FF0E1
:103ED0000C0808FA07F722EA07078A7804FA02F2C0
:103EE00017430760076889780CFA01F127EA010196
:103EF000114301605D480022D0F820C099780AFA89
:103F000001F32CEA030302FA01F11943016241684B
:103F100021F0700121F000714160416821F47001CD
:103F20004160816821F080018160029403940494CF
:103F3000079408940994059406940C940D940E9497
:103F4000D5F8880020F00300C5F88800286E40F4FA
:103F500080402866286E00F480400090E86C40F0B5
:103F60000400E864E86C4FF0070900F004000090DA
:103F700010200A9002200B900AA9CDF83C903248FC
:103F8000FDF75EFA20200A900220CDE90B040720FD
:103F9000CDE90E400AA90D942B48FDF751FA354F93
:103FA000D7F8000820F0FF0040F01900C7F800081B
:103FB000314E30783858317820F0100020F48040AD
:103FC00040F01000785030783858317840F4405044
:103FD000785030783858317820F020007850307898
:103FE0003858317820F0400078503078385831789F
:103FF00040F08000785030783858317820F44070A4
:10400000785030783858317820F44060785007F193
:10401000040BDBF8000820F0FF0040F01800CBF89C
:10402000000870783858717820F0100020F4804033
:10403000785070783858717820F440507850707803
:1040400038581BE0003800400008004800040040D9
:10405000B84A0008CC4A0008D64A0008C24A0008FC
:104060000CED00E02CE000E004E000E00034014052
:104070001834014000000240B24A0008717820F074
:104080002000785070783858717820F040007850CF
:1040900070783858717840F08000785070783858CF
:1040A000717820F44070785070783858717820F426
:1040B00040607850FE48C246CDE90240CDE9064A4C
:1040C000DFF8F08304940594089402A9404609940B
:1040D000FDF73EFE002208F1080000BF50E8001F77
:1040E00062F35F7140E80013002BF7D1002108F163
:1040F000080000BF50E8002F22F0606242EA4162EF
:1041000040E80023002BF5D1D8F8000020F0005043
:10411000C8F80000D8F8040020F49040C8F8040063
:10412000D8F8080020F02A00C8F80800D8F80000E5
:1041300040F00100C8F80000D8F81C00C0F340505F
:104140000028F9D0D8F81C00C0F380500028F3D024
:1041500002940094019403940494079405940694A3
:104160000C940D940E94D5F8880020F03000C5F81A
:104170008800A86D40F48020A865A86D00F4802018
:104180000890E86C40F00200E864E86C0AA900F0CE
:10419000020008904FF480600A9002200B90CDF846
:1041A0003C90C548FDF74CF94FF400600A9002209E
:1041B000CDE90B04CDE90E490AA9BF480D94FDF7DE
:1041C0003FF94FF4E130CDE90040CDE9044ADFF892
:1041D000EC92029403940694694648460794FDF7CE
:1041E000B7FD002209F1080050E8001F62F35F717B
:1041F00040E80013002BF7D1002109F1080000BFAF
:1042000050E8002F22F0606242EA416240E8002359
:10421000002BF5D1D9F8000020F00050C9F80000BB
:10422000D9F8040020F49040C9F80400D9F8080037
:1042300020F02A00C9F80800D9F8000040F0010079
:10424000C9F80000D9F81C00C0F340500028F9D08C
:10425000D9F81C00C0F380500028F3D000940194DA
:1042600003940494A86D40F00100A865A86D694608
:1042700000F00100059044F268200290ADF8004083
:10428000C006FDF723FB4FF08044206820F080003B
:104290002060A06820F0070020F4A030A0606068D3
:1042A00020F0700020F0007040F020006060A068F6
:1042B00020F08000A060A86C40F00800A864A86C02
:1042C00000F008000090A86C40F48050A864A86C2E
:1042D00000F4805000907A48816821F0600181608C
:1042E000816821F08001816076494161816821F017
:1042F000180181604FF0FF3101617348016F11F4C3
:10430000803F1BD171498160714981607149C160F1
:104310007149C160016911F4803FFBD1416921F00D
:1043200080414161016F41F480310167416941F48D
:1043300000314161016911F4803FFBD1FEF7DEF9E4
:1043400066480168664A114041EAE021016065481B
:10435000016841F001010160016841F480310160B0
:1043600061490A686FF30B0242F47A620A605F499E
:104370000A686FF30B0242F47A620A60416841F006
:1043800001014160416811F0010FFBD1416841F02A
:1043900002014160416811F0020FFBD154480168ED
:1043A00041F001010160001D016841F0010101605F
:1043B000001D016841F0010101604E49086840F0AC
:1043C000010008604C4B40F2E24218686FF30B00AA
:1043D00010431860486840F001004860081D0168FB
:1043E00011F0010FFBD14548016841F00101016066
:1043F00008F1080050E8001F41F0800140E8001279
:10440000002AF7D13378404A3D493E4899503178E7
:10441000131FC850307850F80B0031786FF30F003D
:1044200040F00C0041F80B0030783858317840F0FB
:104430000100785008F1080050E8001F41F04001E9
:1044400040E8001CBCF1000FF6D196F801C02F49DE
:104450002F484CF8031071788850707850F80B0092
:1044600071786FF30F0040F0800041F80B00707816
:104470003858717840F0010078504FF0A040D0F8E3
:10448000B41021F07F01C0F8B410816821F03F0121
:1044900021F0404141F0004181608168C90FFCD1A9
:1044A0001C49D1F8B42022F07F02C1F8B42033E0D7
:1044B00060E3160000380140000400480048004056
:1044C00000300240B71DC1040020024023016745AF
:1044D000AB89EFCD3B2A19087F6E5D4C000C024082
:1044E00000F887FF00100050081000501410005012
:1044F000040201400008005008080050000201407A
:1045000014000020283801400C00024024380140EB
:10451000A8000020000100508A6822F03F0222F02B
:10452000404242F000428A608A68D20FFCD1826821
:1045300022F03F0222F0004242F00802826042680C
:1045400042F040024260826822F03F0222F00042C4
:1045500042F001028260886820F03F0020F00040B5
:1045600040F008008860486840F040004860886873
:1045700020F03F0020F0004040F0010088604B48F0
:10458000002141638163C163416C41F48051416406
:10459000416C21F400414164016A21F00101016292
:1045A000016A21F004010162016A21F01001016237
:1045B000016A21F040010162016A21F48071016207
:1045C000016A21F480610162016841F0010101602A
:1045D000206840F0010020603548016841F0010189
:1045E00001603448016841F001010160C16841F097
:1045F0000101C1603048416841F480614160416817
:104600006FF3090141F090014160416821F47F019D
:1046100041F400314160016841F4004101600168EA
:1046200041F0010101607378DFF89CC02348244AFF
:10463000244943F80C2072780CF10403D1507278AD
:10464000011D525873786FF30F0242F002025A5064
:1046500071784158727841F0010181504FF0E020AB
:10466000016941F002010161FEE70898401E0890CF
:10467000FCD1FEF73EBF0298401E0290FCD1FEF72F
:1046800093BF0998401E0990FCD1FEF7E1BF0D9839
:10469000401E0D90FCD1FFF752B8401EFDD1FEF731
:1046A000AABD401EFDD1FEF7B0BE0000002C0140A7
:1046B0000004004000340140005400400004024067
:1046C000245400400000002008040240924800B535
:1046D00000224272FF210172C260026042600274D5
:1046E00042749FED8E0A8E4880ED000A9FED8D0A80
:1046F00080ED010A9FED8C1A80ED041A80ED051AF9
:1047000080ED021A80ED031A02834283828382774E
:104710009FED860A203080ED040A9FED850A80ED2A
:10472000030A9FED840A80ED010A9FED820A824907
:1047300080ED020A0420087001F14000F7EE001A33
:10474000C0ED001A80ED011A80ED021A80ED031A07
:1047500080ED041A80ED051A80ED061A80ED071A27
:1047600080ED081A80ED0A1A80ED091A80ED0C1A06
:1047700080ED0B1A00F012F900F04AF96F4800F1D1
:10478000180180ED031A81ED031A9FED6D0A80ED8B
:10479000050A81ED050A00F1300181ED031A81ED72
:1047A000001ADFED640A4830C1ED050AF1EE000A97
:1047B000C0ED000AC0ED010ADFED620AC0ED030A98
:1047C000DFED610A0523C0ED040A836280F8302022
:1047D00080ED051A80ED061A80ED0B1A426280ED1D
:1047E000021A14230362C2613430C0ED011ADFEDF6
:1047F000570AC0ED000A80ED0F0A80ED111A80ED16
:10480000101A9FED532A80ED042AC0ED031A483098
:1048100080ED071A80ED0C1A80ED0B1ADFED4D1AB2
:10482000C0ED031ADFED4C1AC0ED041A80ED051A35
:1048300080ED061A80F8342080ED021A80ED011A0E
:1048400003624262027082623830DFED381A80ED16
:10485000051A80ED041A80ED071A80ED061AC0EDE6
:10486000021ADFED3E1AC0ED001ADFED3D1AC0ED71
:10487000011A80ED080A9FED3B0A80ED030A80EDE6
:10488000101A9FED390AC0ED0C0A80ED0D0A80ED7B
:104890000F1A80ED0E1A80ED111A80ED121A80EDBC
:1048A000091A80ED0A1AA0F50B700270427082702E
:1048B00002758261C2610423C37040F6C413836031
:1048C000836890F803C003FB0CF343604368D1EDA9
:1048D000050A00EE103AB8EE400A20EE200ADFED9D
:1048E000230AC0EE801AC0ED031A4168F5EE000AF3
:1048F00000EE101AB8EE400A20EE200AF6EE000A8A
:1049000020EE200A80ED040A80ED081A80F82820A5
:10491000FF2180F8291000BD68000020000010422F
:1049200028010020E246A641000000000E4F2F3C67
:10493000BD3786356F12833A480100208C02002073
:1049400017B7D1388FC2F53C8FC2F5BC0000484381
:10495000FAECD0BE66666640666666C011C73A3A33
:10496000CDCC883E00401C460000C843DB0FC94147
:1049700008489FED070A00F1180180ED030A81ED58
:10498000030A9FED050A80ED050A81ED050A7047CF
:10499000000000008C02002017B7D1381B489FEDA3
:1049A0001A0AF7EE000A80ED130A80ED140A80ED72
:1049B000000A80ED010A80ED120A80ED020AC0EDC6
:1049C000030A80ED0A0A80ED0B0A80ED080A80EDEB
:1049D000090A80ED040A80ED050A80ED060A80EDE3
:1049E000070A80ED0E0A80ED0F0A80ED150A80EDB2
:1049F000160A002180F85C1080F85D1080ED110A25
:104A000080ED100A7047000000000000BC0100208B
:104A100021489FED200ADFED210A80ED170A80ED85
:104A2000180AC0ED120A012180F86C1080ED0A0A04
:104A300080ED0B0A80ED080A80ED090A80ED040A7A
:104A400080ED050A80ED0E0A80ED0F0A80ED100A58
:104A500080ED110A80ED190A80ED130A80ED140A29
:104A600080ED070ADFED0E0A80ED060AC0ED1A0A96
:104A7000DFED0C0AC0ED150AF2EE040AC0ED160ACD
:104A800080ED010A80ED000A80ED030A80ED020A44
:104A900070470000000000001C020020CDCCCC3E7E
:104AA00017B7D138000048434FF04070E1EE100ACC
:104AB0007047081C3044586C0000000004040404D3
:104AC0003838000008000000080000080000080056
:104AD00000000800000000020406080A0C0E101472
:104AE00001000000020000000400000006000000B9
:104AF000080000000A0000000C0000001000000088
:104B000020000000400000008000000000010000C4
:104B1000000000000000000001020304060708096D
:104B20000000000001020304081C3044586C00001F
:104B300000000404040438380000080000000800E5
:104B40000008000000000000D041243A2941A43AA6
:104B50001C60F63A8E3E243BC04B4D3B5157763B92
:104B600077B08F3B2234A43B80B6B83B6837CD3B4F
:104B7000AFB6E13B2E34F63BDD57053C95940F3C38
:104B80002CD0193C8B0A243C9F432E3C547B383C50
:104B900096B1423C4FE64C3C6D19573CDA4A613CB9
:104BA000837A6B3C55A8753C3BD47F3C10FF843C1A
:104BB000FA128A3CD0258F3C8937943C1C48993C9A
:104BC0007E579E3CA765A33C8C72A83C247EAD3CDE
:104BD0006688B23C4991B73CC298BC3CCA9EC13C75
:104BE00057A3C63C5FA6CB3CDBA7D03CC0A7D53CB7
:104BF00006A6DA3CA4A2DF3C929DE43CC796E93CC1
:104C00003A8EEE3CE383F33CB977F83CB469FD3C63
:104C1000E62C013DFCA3033D191A063D388F083DE3
:104C200055030B3D6C760D3D7AE80F3D7A59123DE8
:104C30006AC9143D4438173D05A6193DAB121C3D09
:104C4000307E1E3D92E8203DCD51233DDDB9253D0E
:104C5000BF20283D70862A3DECEA2C3D314E2F3D89
:104C600039B0313D0411343D8D70363DD0CE383DE4
:104C7000CD2B3B3D7E873D3DE1E13F3DF43A423D5A
:104C8000B392443D1CE9463D2B3E493DDF914B3DEF
:104C900033E44D3D2735503DB684523DDFD2543D7F
:104CA000A01F573DF46A593DDCB45B3D53FD5D3DAB
:104CB0005744603DE789623D00CE643DA010673DEA
:104CC000C551693D6C916B3D94CF6D3D3B0C703D82
:104CD0005F47723DFE80743D16B9763DA6EF783D84
:104CE000AB247B3D24587D3D0F8A7F3D35DD803DE3
:104CF0009BF4813D370B833D0921843D1136853D71
:104D00004D4A863DBE5D873D6170883D3882893D54
:104D100040938A3D7AA38B3DE5B28C3D80C18D3DA9
:104D20004BCF8E3D46DC8F3D6FE8903DC7F3913D04
:104D30004DFE923D0108943DE110953DEF18963DE2
:104D40002920973D8F26983D212C993DDE309A3DB4
:104D5000C7349B3DDA379C3D183A9D3D803B9E3DD4
:104D6000133C9F3DD03BA03DB63AA13DC638A23D85
:104D70000036A33D6332A43DF02DA53DA528A63DF8
:104D80008422A73D8C1BA83DBC13A93D160BAA3D50
:104D90009901AB3D44F7AB3D19ECAC3D16E0AD3DA0
:104DA0003DD3AE3D8DC5AF3D05B7B03DA7A7B13DE5
:104DB0007397B23D6886B33D8674B43DCE61B53D10
:104DC000404EB63DDC39B73DA224B83D930EB93D07
:104DD000AEF7B93DF4DFBA3D65C7BB3D01AEBC3DA2
:104DE000C993BD3DBD78BE3DDC5CBF3D2840C03DA4
:104DF000A022C13D4604C23D18E5C23D19C5C33DD0
:104E000047A4C43DA382C53D2D60C63DE73CC73DD8
:104E1000D018C83DE9F3C83D31CEC93DAAA7CA3D67
:104E20005480CB3D2F58CC3D3C2FCD3D7B05CE3D16
:104E3000EDDACE3D91AFCF3D6983D03D7556D13D82
:104E4000B528D23D2AFAD23DD4CAD33DB49AD43D36
:104E5000CA69D53D1738D63D9B05D73D57D2D73DBA
:104E60004B9ED83D7869D93DDE33DA3D7FFDDA3D92
:104E700059C6DB3D6F8EDC3DC055DD3D4D1CDE3D32
:104E800016E2DE3D1DA7DF3D616BE03DE42EE13D16
:104E9000A5F1E13DA6B3E23DE774E33D6835E43DAD
:104EA0002BF5E43D2FB4E53D7672E63D0030E73D5D
:104EB000CDECE73DDEA8E83D3564E93DD01EEA3D96
:104EC000B2D8EA3DDA91EB3D494AEC3D0002ED3DB6
:104ED00000B9ED3D486FEE3DDB24EF3DB7D9EF3D26
:104EE000DF8DF03D5241F13D12F4F13D1EA6F23D41
:104EF0007857F33D2008F43D16B8F43D5D67F53D65
:104F0000F315F63DDAC3F63D1271F73D9C1DF83DF1
:104F100079C9F83DAA74F93D2E1FFA3D07C9FA3D3B
:104F20003572FB3DB81AFC3D93C2FC3DC569FD3DA1
:104F30004E10FE3D30B6FE3D6B5BFF3D0000003E77
:104F4000000000000000545452205245474745538A
:104F500000000000744F000800000020A8000000BE
:104F6000140200081C500008A8000020480E000091
:104F700030020008000000000024F40000000000DF
:104F80000000000000000000000000000000000021
:104F90000000807F0000803F000000000000000053
:104FA0000000000000000000000000000000000001
:104FB00000000000000000000000000000000000F1
:104FC00000000000000000000000000000000000E1
:104FD00000000000000000000000000000000000D1
:104FE00000000000FF0000000000000000000000C2
:104FF0006800002028010020480100205C010020FA
:10500000880100208C020020A4020020BC020020A5
:0C501000080300208803002000000000BE
:04000005080001D915
:00000001FF
