:020000040800F2
:10000000F8080020D5020008EB2800083D0400088D
:10001000E9280008EF030008392F0008000000005D
:10002000000000000000000000000000592C000843
:10003000F903000800000000952B0008252E000899
:10004000EF020008EF020008EF020008EF020008CC
:10005000EF020008EF020008EF020008EF020008BC
:10006000EF020008EF020008EF020008F1030008A9
:10007000F3030008EF020008EF020008EF02000897
:10008000EF0200080000000001000010EF0200086D
:10009000EF020008EF020008EF020008FD0300086D
:1000A000EF020008EF020008EF020008EF0200086C
:1000B000EF020008EF020008EF020008EF0200085C
:1000C000EF020008EF020008EF020008EF0200084C
:1000D000EF020008EF020008EF020008EF0200083C
:1000E000EF020008EF020008EF020008EF0200082C
:1000F000152F0008EF020008EF02000800000000C2
:1001000000000000EF02000800000000EF020008FD
:10011000EF02000800000000EF020008EF020008F4
:10012000F5030008F7030008EF020008EF020008DB
:10013000EF0200080000000000000000EF020008CD
:10014000EF020008EF0200080000000000000000BD
:10015000000000000000000000000000000000009F
:10016000000000000000000000000000EF02000896
:10017000EF02000800000000000000000000000086
:1001800000000000EF020008000000000000000076
:10019000000000000000000000000000000000005F
:1001A0000000000000000000EF020008EF0200085D
:1001B000EF020008EF020008EF0200080000000054
:1001C00000000000EF020008000000000000000036
:1001D000EF020008EF02000800F002F800F06AF8F1
:1001E0000AA090E8000C82448344AAF10107DA4592
:1001F00001D100F05FF8AFF2090EBAE80F0013F07A
:10020000010F18BFFB1A43F001031847AC3A000076
:10021000EC3A00000A444FF0000C10F8013B13F0D8
:10022000070408BF10F8014B1D1108BF10F8015B4F
:10023000641E05D010F8016B641E01F8016BF9D142
:1002400013F0080F1EBF10F8014BAD1C0C1B09D199
:100250006D1E58BF01F801CBFAD505E014F8016B0B
:1002600001F8016B6D1EF9D59142D6D3704700009D
:10027000103A24BF78C878C1FAD8520724BF30C8D2
:1002800030C144BF04680C607047000000230024A4
:1002900000250026103A28BF78C1FBD8520728BF96
:1002A00030C148BF0B6070471FB503F0B9FA1FBDDE
:1002B00010B510BD00F058F81146FFF7F5FF02F039
:1002C0006FFE00F076F803B4FFF7F2FF03BC00F016
:1002D0007DF800000948804709480047FEE7FEE72F
:1002E000FEE7FEE7FEE7FEE7FEE7FEE7FEE7FEE7E6
:1002F00004480549054A064B70470000052F0008D1
:10030000D9010008F8020020F8080020F8040020B5
:10031000F80400204FF0000200B5134694469646BC
:10032000203922BFA0E80C50A0E80C50B1F1200108
:10033000BFF4F7AF090728BFA0E80C5048BF0CC0B6
:100340005DF804EB890028BF40F8042B08BF704714
:1003500048BF20F8022B11F0804F18BF00F8012B86
:100360007047704770477047754600F02BF8AE46EF
:1003700005006946534620F00700854618B020B5B1
:10038000FFF7B6FFBDE820404FF000064FF0000732
:100390004FF000084FF0000B21F00701AC46ACE82D
:1003A000C009ACE8C009ACE8C009ACE8C0098D469A
:1003B000704710B50446AFF300802046BDE81040FA
:1003C000FFF781BF004870479802002001491820BC
:1003D000ABBEFEE726000200704740F2DF1CC1F210
:1003E000000C604740F2791CC1F2000C6047FEE748
:1003F0007047704770477047704700000C4910B550
:100400000A68402090430CD1012240200860094C2A
:1004100020680178002904D0417819B14068064964
:10042000486210BD4270FFF7D8FF2168486010BDD8
:1004300014040140240C001000340140FEE70000C9
:1004400010B5104C40220121204601F0D7F840227F
:100450001021204601F0D2F840229100204601F000
:10046000CDF850220421204601F0C8F85022402146
:10047000204601F0C3F8502221152046BDE8104067
:1004800001F0BCB8002C01404FF0A0408168194A2F
:100490001140091D81600168C1F380010029FAD073
:1004A000016C9FED151A89B200EE101ADFED131AD8
:1004B000F8EE400A80EE810ADFED110A20EE210AF3
:1004C00020EE200A0168C1F380010029FAD0006CF7
:1004D00080B200EE900A0C48F8EE600A006880EEE8
:1004E000812A9FED081A62EE210AC1EE201AC0EDA2
:1004F000021A7047C0FFFF7F00FF7F47333353402E
:100500000000CA4200109B3F280C00100A484168B6
:1005100041F400514160094801880088090A41EA14
:10052000002000B2401100EE100AF4EE000AB8EE0E
:10053000C00A20EE200A704700540040000000204E
:100540000B4800694FF0000110F0080F094801D076
:1005500081800BE08288521C92B28280B2F5967F35
:1005600004D98180017881F0010101700078704721
:10057000000800480800002010B5104C702201212E
:10058000204601F03BF870221021204601F036F899
:100590007022A115204601F031F870220421204676
:1005A00001F02CF870224021204601F027F870223B
:1005B00021152046BDE8104001F020B8002C014074
:1005C000F0B5314A4FF47A739068B0FBF3F103FB56
:1005D000110070B9FFF79AFF2C482D49006880ED93
:1005E000060A90ED060A10EE100A884201DD00F0BE
:1005F0007FF89768B7FBF3F003FB107048B9254B01
:100600004FF480615869814300F4806041EA004002
:1006100098615088831C00F07F06411C03F07F0422
:10062000C01C00F07F031C4801F07F0510F806C0D5
:10063000BCF1530F23D110F805C0BCF13A0F1ED105
:1006400010F803C0BCF10A0F19D110F804C0F1EE84
:10065000000A00EE10CADFF844C0B8EE400ADCF829
:1006600000C020EE200A8CED000A4FF0000C00F8CC
:1006700005C000F806C000F803C000F804C05180AF
:100680007F1C9760F0BD000008000020280C0010BF
:10069000000082420008004848000020340C00108E
:1006A000024B58639963DA6370470000002C0140E5
:1006B0000E48016A41F001010162016A41F0040142
:1006C0000162016A41F010010162016A41F04001DA
:1006D0000162016A41F480710162016A41F4806142
:1006E0000162416C41F4004141647047002C0140BB
:1006F0000E48416C21F400414164016A21F001017E
:100700000162016A21F004010162016A21F0100115
:100710000162016A21F040010162016A21F48071E5
:100720000162016A21F4806101627047002C01407E
:1007300030B54FF0A0444B68A46800220E4D04F081
:100740000104AD6805F001052C4302D001221046DA
:1007500030BD0A4D53B10C681C43D1E902310B4343
:1007600081681C4329400C438460F0E78368096872
:100770002B400B438360EAE700010050E030C0FFEC
:1007800010B54B688468002214F0010F02D00122DA
:10079000104610BD33B1D1E902342343C46824F0BC
:1007A000047403E0C368CC6823F004732343C3607C
:1007B000D1E900310B43C16C6FF308010B43C364F3
:1007C000E6E70C2202EA91110844D0F8800080B2DA
:1007D000704710B5C36C01F01F011F248C40C2F399
:1007E0008462A3438A401343C36410BD30B5836859
:1007F000002213F0010F02D00122104630BDD1E9D2
:10080000003423438968C4684CF21805AC43214383
:100810000B43C360F1E7000070B54C6883680022A9
:1008200013F0010F02D00122104670BD002C0E4BB8
:100830000C6807D08D682C43D1E9035635432C430F
:100840004D6904E0CD682C43D1E9045635432C436F
:10085000C5681D402C43C4604968036B23F00F0337
:100860000B430363E0E700001CC0F0FF0C2303EA26
:10087000911310B51844036B01F01F011F248C4025
:10088000C2F38462A3438A401343036310BD10B5CF
:1008900050F8B43F01F07F14A3430C0B8C4304F0D9
:1008A00010018A401343036010BD042303EAD153AF
:1008B00010B518444369C1F3045107248C40A34385
:1008C0008A401343436110BD10B550F8B03FC1F3E7
:1008D0001204A34302F01804024AE2400A40134300
:1008E000036010BDFFFF0700D0F8C0206FF30D02BA
:1008F0000A43C0F8C020026922F4803201B101210C
:1009000042EA0141016170478268044B01F0804175
:100910001A400A4342F0004181607047C0FFFF3F28
:10092000044908B58A6C02438A64896C01400091CD
:1009300008BD000000100240044908B5CA6C02431B
:10094000CA64C96C0140009108BD0000001002405B
:10095000044908B58A6D02438A65896D014000919A
:1009600008BD000000100240044908B50A6E0243A9
:100970000A66096E0140009108BD000000100240A7
:1009800030B503680022DB0F02D00122104630BDD3
:10099000D1E900342343D1E902452C4309692343BB
:1009A0000B430168024C21400B430360EEE700005B
:1009B0000F7E00FF090F00EB810081686FF30B01D0
:1009C000114381607047F0B5002501F01003012646
:1009D000946807689E40BE430FD054B30668C02C8D
:1009E0000DD040F6FC7199408E4311682143D468C4
:1009F000214399400E43066023E001252DE0C024E9
:100A00009C40A64326430660046E40F60F769E4047
:100A1000B44316685768B608BF0846EA07269E40E2
:100A200034430466C1F3C01100EB8101D4688C65C6
:100A300007E00168FC249C40A14314689C402143CA
:100A40000160C46B072199408C43D2E90416926976
:100A50003143114399400C43C4632846F0BD10B59F
:100A6000C36B01F010014FF400748C40A3438A4023
:100A70001343C36310BD0000F0B5084D00F10C0432
:100A8000059F261F685C102F03D08251685C0351BC
:100A9000F0BD0251685C8351F0BD00002A380008A7
:100AA000034A515C425842F0010242507047000034
:100AB0002A380008034B595C435823F4405313432E
:100AC000435070472A380008044B001D595C0B58EE
:100AD0006FF30F0313430B50704700002A380008D0
:100AE000044B10B5595C435844F21004A34313431C
:100AF000435010BD2A380008034B595C435823F07B
:100B000080031343435070472A380008034B595C55
:100B1000435823F440631343435070472A38000876
:100B2000034B595C435823F0200313434350704751
:100B30002A380008034B595C435823F04003134301
:100B4000435070472A380008074B83EA902001EB96
:100B5000C000810098020844D0F8001821F0FF017D
:100B60001143C0F80018704780001000034B595C17
:100B7000435823F440731343435070472A38000806
:100B800002490A6882430A60704700000404014079
:100B900002490A6882430A6070470000000401406D
:100BA000F0B54F4B4E4A077A20330026151F1C1F05
:100BB0000168002F74D099B1477A5FB3012F31D00B
:100BC000022F32D00126857A55B1454908310A1FD6
:100BD000012D32D0022D3AD0032D3CD046F0020632
:100BE0004168002979D0427A82B3012A44D0022A8E
:100BF00045D046F00406837A002B6ED03849283160
:100C00000A1F012B43D0022B4BD0032B4DD046F0B3
:100C1000050662E017688F43176001682A680A4377
:100C20002A60D0E72F688F4301E02F680F432F60C1
:100C3000016815680D431560C5E705680F68AF4387
:100C40000F60016815680D431560C9E70CE0056881
:100C50001768AF4302E0056817682F431760026802
:100C60000D6815430D60BBE71A688A431A60416836
:100C700022680A432260BEE722688A4301E02268B4
:100C80000A43226041681A680A431A60B3E743685E
:100C90000C689C430C6040681168014311601CE0C3
:100CA0000CE0436814689C4302E0436814681C43EA
:100CB000146040680A6802430A600EE02F688F43A0
:100CC0002F60016815688D431560416822688A436A
:100CD000226040681968814319603046F0BD000009
:100CE00004040140F0B50A680F2692FAA2F2B2FAA3
:100CF00082F303248AE001259D402A407ED04D687E
:100D0000012D01D0022D20D18D68876892FAA2FCB6
:100D1000BCFA8CFC4FEA4C0E04FA0EFC27EA0C07D6
:100D200092FAA2FCBCFA8CFC4FEA4C0C05FA0CF5CA
:100D30002F438760CF680D68D0F804C02CEA050CFB
:100D40007D434CEA050CC0F804C00F69D0F80CC014
:100D500092FAA2F5B5FA85F54FEA450E04FA0EF5BA
:100D60002CEA050C92FAA2F5B5FA85F56D00AF40B4
:100D70004CEA070CC0F80CC04D68022D2FD1FF2A99
:100D800015D8D1F814C0056A92FAA2F7B7FA87F716
:100D9000BF0006FA07F7BD4392FAA2F7B7FA87F742
:100DA000BF000CFA07FC45EA0C05056217E0D1F814
:100DB00014E0476A150A95FAA5FCBCFA8CFC4FEAC8
:100DC0008C0C06FA0CFC95FAA5F5B5FA85F5AD0084
:100DD00027EA0C070EFA05FE47EA0E0747624D6840
:100DE000076892FAA2FCBCFA8CFC4FEA4C0C04FA9D
:100DF0000CFE27EA0E0792FAA2F200E005E0B2FA32
:100E000082F2520095402F4307605B1C0A6832FA59
:100E100003F57FF470AF0020F0BD10B5026822F03A
:100E200001020260D1E90232046843EA022224F49A
:100E3000F854144304604A680261026842F00102F7
:100E40000260826822F4004282608B690A698468C9
:100E50001A436FF30A04144384600A691AB1826862
:100E600042F4004282600A68036823F4401313438B
:100E700003604969426822F400420A43426000204C
:100E800010BD4FF47A71B0FBF1F14FF0E020491E34
:100E900041610021816105210161704710B5002485
:100EA000C02823D11248D0F8880000F0C00040F4D8
:100EB00040004038B0F540000AD040280CD08028CF
:100EC0000FD001F099FE01F067FE01F075FE01E020
:100ED00001F092FE044609E000F068F830B1054CDC
:100EE00004E000F06BF808B14FF40044204610BD58
:100EF000001002400024F40070B5002429492A4D56
:100F00004FF40046032804D00C281AD030282FD0E4
:100F100040E0D1F888006FF4403100F0030040F465
:100F2000403040180AD0012836D002282ED001F0D7
:100F300063FE01F031FE01F04FFE17E001F05CFEB0
:100F400014E0D1F8880000F00C0040F44020001FAD
:100F5000B0F54020F2D004281ED0082816D000BFDB
:100F600001F04AFE01F018FE01F026FE044611E0F1
:100F7000D1F8880000F0300040F440101038B0F58F
:100F80004010DBD0102807D02028E9D100F016F857
:100F900000B13446204670BD00F008F80028F9D0B2
:100FA0002C46F7E7001002400024F40002480068D5
:100FB000C0F3802070470000001002400248D0F8C3
:100FC0009000C0F34000704700100240064A10B580
:100FD00052F8881FC0F3044303249C40C0B2A143CD
:100FE00098400143116010BD0010024003498A6817
:100FF00022F0F00202438A607047000000100240B5
:10100000074910B501EB10610A68C0F304430324DB
:101010009C40C0B2A243984002430A6010BD000049
:1010200088100240044951F8882F22EA104280B209
:1010300002430A60704700000010024010B50368C8
:101040000122C3F3801373BBD1E900231A43D1E912
:10105000033423431A434B691A438B691A43CB6900
:101060001A430B6A1A4303684FF6BF74A3431A432B
:101070000260426840F604739A434B6942EA1342A5
:101080008B681A4342608A68B2F5006F03D24268E7
:1010900042F4805242600A6AB2F5005F02D1898C44
:1010A00089B201610022C16921F40061C161104669
:1010B00010BD0000014908607047000004000020D6
:1010C0000A7B8B681A434B6822F480621A430B68D0
:1010D00022F400621A43CB8922F480521A430B692E
:1010E00022F400521A43CB6A22F480421A434B691D
:1010F00022F470221A438B6922F080521A430C4B5F
:10110000984202D00B4B98420FD14B6A22F47002E6
:101110001A43CB6922F080721A430B6A22F00072E4
:101120001A43896A22F000520A4342640020704741
:10113000002C01400034014010B5012925D00429BC
:1011400025D0102925D0402925D0B1F5807F24D085
:10115000B1F5806F23D0B1F5805F22D0B1F5804F1B
:1011600021D0B1F5803F20D00921114B18305B5CB4
:10117000184403680E4C1434615C03248C40120C38
:10118000A3438A401343036010BD0021EDE7012112
:10119000EBE70221E9E70321E7E70421E5E7052181
:1011A000E3E70621E1E70721DFE70821DDE70000AB
:1011B0003038000810B5012925D0042925D0102980
:1011C00025D0402925D0B1F5807F24D0B1F5806F9E
:1011D00023D0B1F5805F22D0B1F5804F21D0B1F599
:1011E000803F20D00921114B18305B5C1844036804
:1011F0000E4C1434615CF0248C40120CA3438A40E2
:101200001343036010BD0021EDE70121EBE702214C
:10121000E9E70321E7E70421E5E70521E3E7062104
:10122000E1E70721DFE70821DDE7000030380008AB
:1012300010B501291FD004291FD010291FD0402923
:101240001FD0B1F5807F1ED0B1F5806F1DD0B1F5F4
:10125000805F1CD0B1F5804F1BD0B1F5803F1AD014
:101260000921036A0D4C615C0A248C40A3438A4027
:101270001343036210BD0021F3E70121F1E70221CE
:10128000EFE70321EDE70421EBE70521E9E706217C
:10129000E7E70721E5E70821E3E700004E3800080B
:1012A00010B5012925D0042925D0102925D04029A1
:1012B00025D0B1F5807F24D0B1F5806F23D0B1F572
:1012C000805F22D0B1F5804F21D0B1F5803F20D092
:1012D0000921114B18305B5C184403680E4C143420
:1012E000615C0C248C40120CA3438A4013430360BE
:1012F00010BD0021EDE70121EBE70221E9E7032121
:10130000E7E70421E5E70521E3E70621E1E7072117
:10131000DFE70821DDE70000303800082DE9F04361
:101320000268224B224D234E234C4FF080499842B5
:1013300007D0484505D0A84203D0B04201D0A04212
:1013400003D14F6822F070023A431C4FDFF870C09F
:10135000DFF8708098420DD048450BD0A84209D0E4
:10136000B04207D0A04205D0B84203D0604501D0BA
:10137000404503D1CD6822F440722A4302608A6856
:10138000C2620A888262984207D0A04205D0B84261
:1013900003D0604501D0404501D10969016341692D
:1013A00041F0010141610020BDE8F083002C0140C3
:1013B00000040040000800400034014000400140AB
:1013C0000044014000480140012922D0042922D0D4
:1013D000102922D0402922D0B1F5807F21D0B1F54B
:1013E000806F20D0B1F5805F1FD0B1F5804F1ED047
:1013F000B1F5803F1DD009210F4A1830525C1044CE
:1014000002680D4B0A335B5C042199408A430260F9
:1014100070470021F0E70121EEE70221ECE703210C
:10142000EAE70421E8E70521E6E70621E4E70721EA
:10143000E2E70821E0E7000030380008012922D067
:10144000042922D0102922D0402922D0B1F5807F52
:1014500021D0B1F5806F20D0B1F5805F1FD0B1F5FC
:10146000804F1ED0B1F5803F1DD009210F4A1830A2
:10147000525C104402680D4B0A335B5C08219940B2
:101480000A43026070470021F0E70121EEE70221E4
:10149000ECE70321EAE70421E8E70521E6E7062176
:1014A000E4E70721E2E70821E0E700003038000820
:1014B0002DE9F0478C460121BCF5805F25D009DC81
:1014C000BCF1010F14D0BCF1100F15D0BCF5807F1A
:1014D00016D116E0424B434C434D444E444F4FF01F
:1014E0000009BCF5803F14D0BCF5801F74D141E0E9
:1014F000114601F015FA02E0114601F05DFA0146CD
:101500006AE0114601F0A8FAF9E7114601F0F2FA93
:10151000F5E7016A21F480310162D0F820C0016D45
:10152000DFF8D0802CF4003C01EA0801D2F80080FA
:10153000984241EA0801B2F810804CEA084CB2F82F
:1015400004802CF4803C4CEA084C07D0A04205D023
:10155000A84203D0B04201D0B84206D14368946992
:1015600023F4803343EA042343600165D168826C2D
:1015700081642EE0016A21F480110162D0F820C05C
:10158000016DDFF874802CF4001C01EA0801D2F828
:101590000080984241EA0821B2F810804CEA085CC9
:1015A000B2F804802CF4801C4CEA085C07D0A042FE
:1015B00005D0A84203D0B04201D0B84206D143685A
:1015C000946923F4802343EA842343600165D1684E
:1015D000C164C0F820C049460846BDE8F087000055
:1015E000002C014000340140004001400044014013
:1015F000004801408FFFFEFFFF8FFFFE10B501295D
:1016000024D0042924D0102924D0402924D0B1F595
:10161000807F23D0B1F5806F22D0B1F5805F21D0DB
:10162000B1F5804F20D0B1F5803F1FD00921104B7C
:1016300018305B5C184403680D4C0A34615C0D4C37
:101640008C40A3438A401343036010BD0021EEE7A2
:101650000121ECE70221EAE70321E8E70421E6E7BC
:101660000521E4E70621E2E70721E0E70821DEE7BC
:10167000A63800087300010030B50844016E92FAE4
:10168000A2F4B4FA84F404F01F054FF4007492FA43
:10169000A2F2AC40B2FA82F202F01F02A1439340E0
:1016A0001943016630BD00004268024B1A400A43EC
:1016B000426070478FFFFFFD2DE9F041044600684E
:1016C0000D46012610F0010F4CD12969A868EA697E
:1016D000084369691143084321682B4A11400843B4
:1016E0002060E868616821F4405101436160A869A5
:1016F000A16821F440710143A1602448844201D1D2
:10170000032008E02248844201D10C2003E0214854
:10171000844203D13020FFF7EFFB05E01E488442EE
:1017200019D1C020FFF7BAFBA8B1696899B12A683E
:101730000026EB690B2A0ED8184FD2B2B3F5004F32
:1017400057F82220B0FBF2F00FD000EB5100B0FBB5
:10175000F1F080B2E0602888E16A80B221F00F01E8
:101760000143E1623046BDE8F081400000EB5100EA
:10177000B0FBF1F081B24FF6F07201EA0200C1F362
:1017800042010843E6E70000F369FFEF003801403B
:101790000044004000480040004C00405838000819
:1017A00010F1080050E8002F22F0606242EA416226
:1017B00040E80023002BF5D17047000010F108002D
:1017C00050E8002F61F35F7240E80023002BF7D14F
:1017D00070470000F0B597B00024149415941821B8
:1017E00006A81694FEF796FD119412941394109483
:1017F0000C940D940E94182168460F94FEF78AFD00
:101800005A48FFF7E3FB4FF40050FFF795F801202B
:10181000FFF792F801260325CDE900654FF09047C8
:10182000694638460494FFF75DFA0420CDE90005C7
:10183000694604943846FFF755FA01F08BFB002205
:10184000052101F053F80146122001F08BFB122014
:1018500001F073FBF003CDE914404FF0A04514A94B
:1018600028461694FEF7C2FFCDE90646089409946F
:101870000A9406A928460B94FEF7CEFF00212846BD
:10188000FFF732F8286940F20341884328614FF49A
:101890004030CDE91004364E10A93046FEF748FF1F
:1018A0008020CDE90C040E940CA928460F94FEF775
:1018B00067FFE8682F49084040F00040E860E86CA6
:1018C00020F4C07040F08000E864A8682A4908400D
:1018D000A860A8682949084040F08050A8602848BE
:1018E00028490068B0FBF1F000EB800080000A217D
:1018F000B0FBF1F000E0401E0028FCD1224C062194
:1019000022462846FEF7B2FF012221462846FEF76E
:10191000CCFF7F2221462846FEF7D6FF1B4C09212B
:1019200022462846FEF755FF002221462846FEF7AC
:10193000BCFF7F2221462846FEF7C6FF144C0C212F
:1019400022462846FEF792FF022221462846FEF74D
:10195000ACFF7F2221462846FEF7B6FFB06820F094
:10196000E07040F48000B06017B0F0BD02001C00D1
:1019700000030050FFFFDF7FC0FFFF5FC0FFFF7F5E
:1019800004000020400D03000800900C0200300409
:10199000000084CB30B593B000241094119418212A
:1019A00068461294FEF7B6FC069407940894182132
:1019B0000AA80994FEF7AEFC3E48FFF707FB4FF478
:1019C0000050FEF7B9FF0120FEF7B6FF02200A9093
:1019D00003200B900AA90E944FF09040FFF782F974
:1019E00001F0B8FA0022052100F080FF0146122024
:1019F00001F0B8FA122001F0A0FA4FF40040CDE94E
:101A000010402D4D10A928461294FEF7EFFE0194C8
:101A1000029403940494694628460594FEF7FCFE5C
:101A200000212846FEF760FF286940F20341884301
:101A300028618020CDE90604089406A92846099467
:101A4000FEF79EFEE8681D49084040F00040E8604F
:101A5000E86C20F4C07040F08000E864A868184981
:101A60000840A860A8681749084040F08050A86066
:101A7000154816490068B0FBF1F000EB80008000CB
:101A80000A21B0FBF1F000E0401E0028FCD1104C10
:101A9000092122462846FEF79CFE002221462846C0
:101AA000FEF703FF7F2221462846FEF70DFF13B005
:101AB00030BD000002001C0000010050FFFFDF7F6E
:101AC000C0FFFF5FC0FFFF7F04000020400D030048
:101AD0000400600830B58DB0142106A8FEF71AFC8A
:101AE00018216846FEF716FC0220FEF725FF0120AC
:101AF000FEF722FF02250320CDE9005000246946AD
:101B000004941948FFF7EEF8A8020090CDE90154BB
:101B10000820CDE90440694603944FF09040FFF758
:101B2000E1F8E8010690502007904FF4E020CDE95D
:101B3000080406A90D480A94FEF722FF0C480D4937
:101B40000068B0FBF1F0C821484300E0401E0B9054
:101B50000028FBD14FF400142046FFF711F820466F
:101B6000FFF716F80DB030BD000400480002014038
:101B70000400002080841E0010B58CB0142168463B
:101B8000FEF7C8FB182105A8FEF7C4FB0120FEF7ED
:101B9000D3FE0820059003200024069005A909948F
:101BA0004FF09040FFF79EF84FF480700090402077
:101BB000CDE90104039469460C480494FEF7E0FE65
:101BC0000B480C490068B0FBF1F0C821484300E025
:101BD000401E0B900028FBD14FF480042046FEF7F6
:101BE000CFFF2046FEF7D4FF0CB010BD0402014029
:101BF0000400002080841E0010B58CB014216846BB
:101C0000FEF788FB182105A8FEF784FB0420FEF7E9
:101C100093FE0220059003200024069005A9099454
:101C20001248FFF75FF84FF4807000904020CDE934
:101C30000104039469460E480494FEF7A1FE0D4882
:101C40000D490068B0FBF1F0C821484300E0401E98
:101C50000B900028FBD14FF000542046FEF790FF78
:101C60002046FEF795FF0CB010BD000000080048AC
:101C7000080201400400002080841E0010B58CB0D2
:101C800014216846FEF746FB182105A8FEF742FB23
:101C90000220FEF751FE012005900320002406904B
:101CA00005A909941148FFF71DF84020CDE900402F
:101CB0000294039469460E480494FEF761FE0D48B1
:101CC0000D490068B0FBF1F0C821484300E0401E18
:101CD0000B900028FBD14FF080442046FEF750FFC8
:101CE0002046FEF755FF0CB010BD00000004004870
:101CF0000C0201400400002080841E0030B587B033
:101D00001C216846FEF706FB4FF48030FEF714FEF8
:101D10000F4D104C002229462046FEF7A0FE002061
:101D2000022104910090019002900121CDE905105B
:101D30006A4629462046FEF746FE206820F002004B
:101D40002060E06B20F48070E06307B030BD0000DD
:101D5000010011020008005030B587B01C21684610
:101D6000FEF7D8FA4FF48020FEF7E6FD184D194C27
:101D7000002229462046FEF772FE0020022104912F
:101D80000090019002900121CDE905106A46294694
:101D90002046FEF718FE206820F002002060E06B6D
:101DA00020F48070E0630C4D002229462046FEF7A7
:101DB00056FE6A4629462046FEF705FE206820F4B6
:101DC00000302060E06B20F08070E06307B030BD31
:101DD0000100110200100050F200423510B504203D
:101DE000FEF79EFD0220FEF79BFD0120FEF798FD09
:101DF00001F0B0F80022114600F078FD01460B20FA
:101E000001F0B0F80B2001F098F801F0A3F80022DF
:101E1000114600F06BFD01460C2001F0A3F80C20E8
:101E200001F08BF801F096F80022114600F05EFDFB
:101E30000146382001F096F8382001F07EF801F0D4
:101E400089F80022114600F051FD0146392001F0C9
:101E500089F8BDE81040392001F06FB8F0B589B0BD
:101E6000002406940794182168460894FEF752FA55
:101E70000420FEF761FD2020FEF75EFD0120FEF745
:101E80005BFD0220FEF758FD374E4FF48065B562CA
:101E90006F00B7620820CDE900046946304604941B
:101EA000FEF720FF00950125CDE901540394694612
:101EB00030460494FEF716FF0097CDE901540394D1
:101EC000694630460494FEF70DFF284881684FF4B8
:101ED000706292FAA2F2B2FA82F202F01F0221F4C8
:101EE000706105FA02F2114381608DF8205040269E
:101EF0008DF8214006968DF8225006A8FEF750FE78
:101F00001B480222C36896FAA6F1B1FA81F14D008E
:101F1000032101FA05F5AB4396FAA6F5B5FA85F566
:101F20006D00AA401343C360026896FAA6F3B3FAA1
:101F300083F35B0099408A4396FAA6F1B1FA81F1E6
:101F400049008C402243026001F004F80022042181
:101F500000F0CCFC0146172001F004F8172000F037
:101F6000ECFF09B0F0BD000000080048040001408B
:101F7000000400482DE9F0418EB01C2106A8FEF7B0
:101F8000C9F918216846FEF7C5F94FF44020FFF75C
:101F900037F80220FEF7D0FC802002250124CDE98D
:101FA000000503260427CDE90264DFF8C880CDE9E7
:101FB000044769464046FEF795FE2002CDE900053C
:101FC000CDE90264CDE9044769464046FEF78AFE42
:101FD0006005FEF7BDFC284C102201212046FEF7CB
:101FE000B3FD002201212046FEF77AFD32030121D4
:101FF0002046FEF75FFD202201212046FEF790FDDE
:10200000002201212046FEF795FD80220121204675
:10201000FEF772FD002201212046FEF7A7FD0022F7
:1020200001212046FEF772FD00201449144CCDE931
:102030000601089009900A900B900C9006A9204682
:10204000FEF7EBFE606840F000706060E06840F210
:10205000FE718843E060E06820F40040E0602068A2
:1020600020F400202060206820F4003020600EB0B2
:10207000BDE8F0810004004800040240FBA7A03046
:102080000054004070B58EB01C2106A8FEF742F93E
:1020900018216846FEF73EF94FF48010FEF7B0FFB6
:1020A0000420FEF749FC0120FEF746FC4FF40070C7
:1020B00002250124CDE9000508200326CDE90440CE
:1020C000CDE9026469461B48FEF70CFE2002CDE90B
:1020D0000005CDE9026469464FF09040CDE9044522
:1020E000FEF700FEA007FEF733FC00201249134C58
:1020F000CDE90601089009900A900B900C9006A972
:102100002046FEF78AFE606840F000706060E0687C
:1021100040F2FE718843E060E06820F40040E06037
:10212000206820F400202060206820F40030206027
:102130000EB070BD00080048FBA7A030007800403A
:10214000F0B591B0282106A8FEF7E4F818216846FA
:10215000FEF7E0F84FF48040FEF7FAFB0220FEF7AE
:10216000EBFB0120FEF7E8FB4FF4805000900225C6
:102170000024CDE901540526334FCDE904466946D4
:1021800038460394FEF7AEFD28030090CDE90154D4
:10219000CDE90446694638460394FEF7A3FD6F0275
:1021A0000097CDE90154CDE9044669464FF09040CF
:1021B0000394FEF797FD254D0C2200212846FEF7DB
:1021C000C3FC002211462846FEF78AFC0022114675
:1021D0002846FEF76FFC202200212846FEF7A0FCCF
:1021E000002211462846FEF7A5FC0022114628468B
:1021F000FEF782FCAA1500212846FEF7B7FC3A46F6
:1022000000212846FEF782FC4FF48270CDE906706B
:102210004FF45060CDE908043802CDE90A40282087
:10222000CDE90C040720CDE90E40094C06A9204653
:10223000FEF704FF606820F010006060606840F006
:102240000800606011B0F0BD0004004800040240C6
:10225000003800402DE9F041A0B014211AA8FEF783
:1022600059F8202106A8FEF755F830210EA8FEF7F0
:1022700051F818216846FEF74DF84FF40060FEF75C
:1022800073FB402000241B901CAAADF8684042F26A
:102290003310012682E85100694D1AA92846FFF73C
:1022A0003DF8286820F080002860A868654908404B
:1022B000A86001212846FFF7C1F87020CDE9060487
:1022C000089409940A940B940C9406AA01212846B8
:1022D0000D94FFF7EDF801212846FFF775F810215E
:1022E0002846FFF7ABF806AA10212846FFF7E0F8CA
:1022F00010212846FFF768F8AF1539462846FFF742
:102300009DF806AA39462846FFF7D2F839462846EE
:10231000FFF75AF820212846FFF7C6F9686820F42D
:1023200070006860A86820F08000A8600023042284
:1023300019462846FFF7A0F9414F6037386840F04A
:10234000040038600023082219462846FFF794F954
:10235000386840F0080038600023102219462846EB
:10236000FFF78AF9386840F010003860A8148DF83B
:1023700044404700ADF846000E940F94109480013D
:102380001297CDE91304C001CDE9154017941894B4
:102390000EA928461994FEF793FE0420FEF7CCFA06
:1023A0000220FEF7C9FA0120FEF7C6FA00970225BF
:1023B000CDE901540427DFF89080CDE90447694650
:1023C00040460394FEF78EFC0096CDE90154694621
:1023D00040460394CDE90445FEF784FC0097CDE91F
:1023E0000154694640460394CDE90445FEF77AFC62
:1023F00068030090CDE901540626DFF85080CDE94E
:102400000446694640460394FEF76CFC2F02009791
:10241000CDE90154CDE9044669464FF0904003945C
:10242000FEF760FC0097CDE901540C20CDE9044093
:10243000694603944046FEF755FC20B0BDE8F081A4
:10244000002C0140F8BFFEFF0008004800040048CF
:1024500070B594B014210EA8FDF75CFF202106A8EA
:10246000FDF758FF18216846FDF754FF0220FEF7DC
:102470006FFA0120FEF760FA0420FEF75DFA4020B3
:10248000009002250024CDE901544FF090466946A2
:1024900030460394CDE90445FEF724FC80200090EB
:1024A000CDE90154694630460394CDE90445FEF771
:1024B00019FCE8010090CDE9015469462D480394C8
:1024C000CDE90445FEF70EFCADF838404FF6FF703D
:1024D000CDE90F40284D0EA928461194FEF71EFFA6
:1024E000286820F080002860286A20F01100286207
:1024F0004FF4403201212846FEF71EFE0022012142
:102500002846FEF7CDFE002201212846FEF752FEA6
:10251000002201212846FEF78BFE686840F080000B
:102520006860A8681549084040F04000A860A868A5
:102530001349084040F00400A8607020CDE906046B
:10254000089409940A940B940C9406AA1021284626
:102550000D94FEF7ADFF10212846FEF735FF502100
:102560002846FFF7A1F8A86820F08000A86014B002
:1025700070BD000000080048000400408FFFCFFF3E
:10258000F8FFFEFFF0B58BB0142106A8FDF7C2FEE0
:1025900018216846FDF7BEFE4FF40050FEF7E4F93F
:1025A0000420FEF7C9F94020009002250024CDE95F
:1025B00001540426374FCDE9044669463846039452
:1025C000FEF790FB80200090CDE90154CDE9044650
:1025D000694638460394FEF785FB00F0BBFC0022F9
:1025E000032100F083F901462C2000F0BBFC2C20D5
:1025F00000F0A3FCADF8184042F21070CDE907409E
:1026000009940A94244C06A92046FEF787FE206808
:1026100020F080002060A0682049084040F00300BE
:10262000A060ED032A4601212046FEF785FD002229
:1026300001212046FEF734FE4FF4401201212046CE
:10264000FEF7B8FD002201212046FEF7F1FD2A46E3
:1026500010212046FEF770FD002210212046FEF7D3
:102660001FFE002210212046FEF7A4FD00221021AB
:102670002046FEF7DDFD00212046FFF715F86068D3
:1026800020F470006060A06820F08000A0600BB0B3
:10269000F0BD00000008004800340140F8FFFEFFD4
:1026A000F0B58FB0202106A8FDF734FE182168464A
:1026B000FDF730FE4FF44030FEF7B4FC4FF480409D
:1026C000FEF752F90420FEF737F91020009002259A
:1026D0000024CDE9015407264B4FCDE90446694655
:1026E00038460394FEF7FEFA20200090CDE901540D
:1026F000CDE90446694638460394FEF7F3FA434DA4
:10270000192200212846FEF71FFA10220021284630
:10271000FEF7E6F94FF4405200212846FEF7CAF9C9
:10272000002211462846FEF7FBF9002211462846F2
:10273000FEF700FA802200212846FEF7DDF900228C
:1027400011462846FEF712FA002211462846FEF7E7
:10275000DDF9182201212846FEF7F6F900220121B1
:102760002846FEF7BDF9002201212846FEF7A2F90E
:10277000002201212846FEF7D3F900220121284634
:10278000FEF7D8F9802201212846FEF7B5F900228C
:1027900001212846FEF7EAF9002201212846FEF72A
:1027A000B5F91B480894CDE906400C20CDE90A4054
:1027B00009940C940D94174C06A92046FEF77CFF53
:1027C00000212046FEF7FAFF00212046FEF7E8FF31
:1027D000206820F000502060606820F49040606025
:1027E000A06820F02A00A060206840F0010020606E
:1027F000E069C0F340500028FAD0E069C0F380508F
:102800000028F5D00FB0F0BD0008004800000240DD
:1028100060E3160000380140F0B58FB0202106A813
:10282000FDF778FD18216846FDF774FD4FF4401060
:10283000FEF7F8FB4FF48020FEF78AF80220FEF73F
:102840007BF84FF48060009002250024CDE901540C
:102850000726234FCDE90446694638460394FEF720
:1028600041FAA8020090CDE90154CDE90446694639
:1028700038460394FEF736FA4FF4E130CDE90640CE
:102880000C20CDE90A40089409940C940D94154C41
:1028900006A92046FEF710FF00212046FEF78EFF16
:1028A00000212046FEF77CFF206820F000502060C9
:1028B000606820F490406060A06820F02A00A0606A
:1028C000206840F001002060E069C0F3405000281B
:1028D000FAD0E069C0F380500028F5D00FB0F0BD09
:1028E0000004004800480040FEE7FEE730B500F075
:1028F0000703C3F10704042C00D90424181D07287A
:1029000001D2002300E0DB1E012505FA04F0401E81
:10291000084098409D406D1E1540284330BD000082
:1029200030B5026A22F001020262036A44688269D9
:102930001B4D22F003022A400D6823F002032A43B4
:102940000D692B434D6823F001032B43154DA8421D
:102950000BD0154DA84208D0144DA84205D0144DF7
:10296000A84202D0134DA84212D14D6923F00803AA
:1029700043EA85038D6823F0040343EA85038D69E8
:1029800024F480742C43CD6924F4007444EA450493
:1029900044608261C96841630362002030BD000069
:1029A0008FFFFEFF002C0140003401400040014039
:1029B000004401400048014030B5026A22F0100294
:1029C0000262056A426883691D4C23F44073234008
:1029D0000C6843EA042425F020030D6943EA05133B
:1029E0004D6823F0100343EA0513164DA8420BD09F
:1029F000154DA84208D0154DA84205D0144DA84247
:102A000002D0144DA84213D14D6923F0800343EA4C
:102A100085138D6823F0400343EA85138D6922F402
:102A2000806242EA8502CD6922F4006242EAC50270
:102A300042608461C96881630362002030BD000088
:102A4000FF8FFFFE002C0140003401400040014098
:102A5000004401400048014030B5026A22F480720F
:102A60000262046A4368C2691C4D22F003022A40D4
:102A70000D6824F400742A430D6944EA05244D6866
:102A800024F4807444EA0524154DA8420BD0154D5A
:102A9000A84208D0144DA84205D0144DA84202D037
:102AA000134DA84213D14D6924F4006444EA8524EF
:102AB0008D6824F4806444EA85248D6923F480536E
:102AC00043EA0513CD6923F4005343EA45134360F9
:102AD000C261C968C1630462002030BD8FFFFEFF80
:102AE000002C0140003401400040014000440140FE
:102AF0000048014030B5026A22F480520262056A41
:102B00004268C3691D4C23F4407323400C6843EAB8
:102B1000042425F400530D6943EA05334D6823F47A
:102B2000805343EA0533164DA8420BD0154DA842F9
:102B300008D0154DA84205D0144DA84202D0144D1E
:102B4000A84213D14D6923F4004343EA85338D68CD
:102B500023F4804343EA85338D6922F4804242EABC
:102B60008512CD6922F4004242EAC5124260C46176
:102B7000C96801640362002030BD0000FF8FFFFEC2
:102B8000002C01400034014000400140004401405D
:102B9000004801407047000005498968054A01F076
:102BA000F0010909515C01F01F01C84070470000A5
:102BB000001002408838000805498968054A01F478
:102BC000E06102EB1121097801F01F01C840704754
:102BD000001002409838000805498968054A01F448
:102BE000605102EBD121097801F01F01C840704704
:102BF00000100240983800081549886800F00C035E
:102C00001448042B0DD04210082B09D00C2B08D1EE
:102C1000CB6803F00303022B05D0032B03D101E0A3
:102C2000104670471046CA68C2F306224243C8687D
:102C3000C96800F0F003012000EB1313B2FBF3F2BC
:102C400001F0C06100EB51604000B2FBF0F0704752
:102C5000001002400024F400704700002DE9F05FEE
:102C6000664D2DED028B286890F90400DFED648A33
:102C70009FED648ADFF89881DFF88C91DFF88CA1F2
:102C80000026644F401C4FF0020BA8F110040528E9
:102C900066D2DFE800F00310313B5D00FDF728FD50
:102CA0009FED5D0A88ED000A88ED010A00F0BEFB89
:102CB0002868067154E0FDF7E7FB386820EE280A23
:102CC000D0ED050A00EE880A80ED050A90ED050AB0
:102CD00010EE101A49450DDD90ED050A10EE100AB0
:102CE000504507DA2068411C2160322838D901207C
:102CF000266033E0266033E02068411C21603228E2
:102D00002ED92660FDF79CFB584627E0FDF76AFBAD
:102D100098ED001A21EE081A00EE281A88ED001A24
:102D200098ED010A20EE080A00EEA80A88ED010AD3
:102D30002068411C2160B0F57A7F11D9266038687F
:102D400080ED071A80ED080AFDF716FC032005E068
:102D5000FDF7F6FB20B1FDF7ABFC042029680871F4
:102D60002868007904283BD1FDF7EAFB4FF0FF38D3
:102D700010B9296881F80480FDF786FBDFED270A8A
:102D800038689FED271A20EE200AD0ED050A00EEE4
:102D9000810A80ED050A90ED050A10EE101A4945EA
:102DA00009DA2068411C2160322819D9FDF7A0FCFE
:102DB000594626600EE090ED050A10EE100A5045C7
:102DC0000DDD2068411C2160322809D9FDF790FCF7
:102DD000012126602868417180F8048000E02660A7
:102DE000D4E90201401C41F10001C4E90201BDEC3B
:102DF000028BBDE8F05FFDF7E3BB00001C0C001088
:102E0000CDCCCC3D6666663FCDCCF4419999254248
:102E100040000020280C001000000000A4707D3F3E
:102E20000AD7233CFFF71ABF2F4810B5016821F0DD
:102E30000F0141F004010160016801F00F01042954
:102E4000FAD12A4850F8801F21F480710160284C83
:102E5000206840F4803020602068C0F340400028A3
:102E6000FAD0E16845F21350224A11400843E0606D
:102E7000E06840F08070E060206840F08070206082
:102E80002068C0F340600028FAD0A06840F003003A
:102E9000A0608020FEF7AAF8A06800F00C000C28C3
:102EA000FAD11548016841F080710160134801684A
:102EB00041F0010101600021416041686429FCD3B7
:102EC0000020FEF793F8A06820F4E060A060A068FE
:102ED00020F46050A0600A4C2046FDF7D2FF204647
:102EE000BDE81040FEF7E6B8002002400070004048
:102EF000001002400C80FFF9FCED00E0001000E043
:102F000080FE210A0248016841F4700101607047A7
:102F100088ED00E00648016911F0010F06D06FF05E
:102F200001010161034901200968C8707047000070
:102F300000340140240C0010FEE7002809DB00F0FB
:102F40001F02012191404009800000F1E020C0F8FB
:102F50000011704702480068C0F30220704700006B
:102F60000CED00E00907090E002804DB00F1E02069
:102F700080F80014704700F00F0000F1E02080F8A6
:102F8000141D704701EB8000F0EE400A90ED000A3E
:102F900090ED011A31EE401A01EE200A7047000050
:102FA00086B00120FDF7E0FC4FF08050FDF7D0FC2B
:102FB000ED4908684FF6FF021040EC4A40F44070BB
:102FC00010430860FFF7C6FF00220621FFF78EFCC2
:102FD0004FF0FF38014644464046FFF7C3FFE44840
:102FE000016B21F001010163016B41F002010163FA
:102FF000E048816841F480418160FFF715FFFEF7EA
:10300000EDFEFEF72BFFFEF7E5FBFEF7C3FCFEF738
:1030100061FDFEF7B1FDFEF7EFFDFEF72FFEFEF7B7
:103020006DFEFEF799FEFEF7A5FFFFF72BF8FFF701
:1030300087F8FFF70FF9FFF70BFAFFF7A3FAFFF78F
:103040002FFBFFF7E9FB14216846FDF763F9012028
:10305000FDF77EFC002644F26820ADF80060CDE963
:103060000160C506694628460396FEF757F92868A9
:1030700020F080002860A868BF490840A86020218F
:103080002846FEF711FBA86820F08000A860082001
:10309000FDF746FCA814FDF743FCB848816821F011
:1030A00060018160816821F080018160B4494161E3
:1030B000816821F0180181600461B248016F11F448
:1030C000803F19D1B0498160B0498160B049C16089
:1030D000B049C1600169C903FCD4416921F0804154
:1030E0004161016F41F480310167416941F4003170
:1030F00041610169C903FCD4A7490868A74A104087
:10310000CA1210430860A74CA54F2068394640F00A
:103110000100B1462060A44E20684FF0100B40F42F
:10312000803020604FF47A6A52462046FDF742FC18
:10313000524631462046FDF73DFC606840F00100F4
:1031400060606068C007FCD1606840F002006060A9
:1031500060688007FCD49548016841F00101016076
:10316000001D016841F001010160001D016841F08E
:10317000010101608E4E394630684C4640F0010036
:10318000306040F2E2423046FDF714FC706840F0D7
:1031900001007060301D0168C907FCD18348001F21
:1031A000016841F001010160824E06F1080000BF94
:1031B00050E8001F41F0800140E80012002AF7D1DA
:1031C0007C4B7E4F28337C4A00213846CDF800B036
:1031D000FDF752FC182200213846FDF775FC00214E
:1031E0003846FDF75DFC083656E8000F40F0400019
:1031F00046E800010029F7D16E4A714B24320121C3
:1032000038460094FDF738FC802201213846FDF74E
:103210005BFC01213846FDF743FC4FF0A04600223D
:103220007F213046FDF733FB7F213046FDF76CFBF5
:10323000B068C00FFCD1634F00227F213846FDF7F4
:1032400026FB7F213846FDF75FFBB868C00FFCD135
:10325000B1685D48014041F00801B160716841F01A
:1032600040017160B1680140491CB160B96801401A
:1032700041F00801B960796841F040017960B968AE
:103280000140491CB9605148002141638163C16319
:10329000416C41F480514164416C21F4004141642E
:1032A000016A21F001010162016A21F00401016259
:1032B000016A21F010010162016A21F040010162FE
:1032C000016A21F480710162016A21F48061016266
:1032D000016841F001010160286840F001002860A8
:1032E0003B48016841F0010101603A48016841F042
:1032F00001010160C16841F00101C16036484168C7
:1033000041F48061416041686FF3090141F090012F
:103310004160416821F47F0141F40031416001685E
:1033200041F400410160016841F001010160009435
:10333000294A2B4C294B243201212046FDF79CFBC6
:10334000022201212046FDF7BFFB01212046FDF7A7
:10335000A7FB4FF0E020016941F002010161404606
:10336000FFF7EBFDFEE700000CED00E00000FA05C2
:103370000000014000700040F8BFFEFF0030024036
:10338000B71DC1040020024023016745AB89EFCD82
:103390003B2A19087F6E5D4C000C024000F887FF45
:1033A0000100110200100050F200423504020140F9
:1033B00000080050003801401400002000000240C6
:1033C0004800002000010050C0FFFF7F002C01409A
:1033D0000004004000340140005400400000002080
:1033E00000040240F7EE002A70EE601A82EE812A95
:1033F00003EE100AB8EE433A61EE821AF4EEC31AF5
:10340000F1EE10FA0ED2FCEEE11A11EE900AF8EE8F
:10341000611A41EE810A30EE600A20EE020A81ED67
:10342000000A7047C1ED002A401E704700B500F049
:10343000C9F800F0D3F900F097F900F029F800F08E
:1034400061F800F00FF800F0B7F900F0F1F800F0C3
:1034500063F900F0C3F800F017F95DF804EB00F031
:103460009DB8000008489FED070A00F1180180EDA3
:10347000030A81ED030A9FED050A80ED050A81ED3F
:10348000050A704700000000D40B001017B7D138B0
:103490001B489FED1A0AF7EE000A80ED130A80ED33
:1034A000140A80ED000A80ED010A80ED120A80ED19
:1034B000020AC0ED030A80ED0A0A80ED0B0A80EDD6
:1034C000080A80ED090A80ED040A80ED050A80ED06
:1034D000060A80ED070A80ED0E0A80ED0F0A80EDE6
:1034E000150A80ED160A002180F85C1080F85D1046
:1034F00080ED110A80ED100A704700000000000006
:10350000C800002021489FED200ADFED210A80ED50
:10351000170A80ED180AC0ED120A012180F86C101C
:1035200080ED0A0A80ED0B0A80ED080A80ED090A99
:1035300080ED040A80ED050A80ED0E0A80ED0F0A89
:1035400080ED100A80ED110A80ED190A80ED130A52
:1035500080ED140A80ED070ADFED0E0A80ED060A01
:10356000C0ED1A0ADFED0C0AC0ED150AF2EE040AEE
:10357000C0ED160A80ED010A80ED000A80ED030A15
:1035800080ED020A704700000000000028010020C2
:10359000CDCCCC3E17B7D1380000484307480021B6
:1035A000017041708170C170416081609FED040ABB
:1035B00080ED030A0174FF2141747047840B0010F1
:1035C00000000000044800214171FF220271816067
:1035D0000173016070470000540B001011489FED0B
:1035E000100ADFED110A80ED070A80ED0C0A80ED6C
:1035F0000B0AC0ED030ADFED0D0A0021C0ED040A3D
:1036000080ED050A80ED060A80F8341080ED020A8C
:1036100080ED010A142202624162017081627047EA
:10362000000000001402002066666640666666C000
:103630001148B1EE000A052180ED000A80ED010A73
:103640009FED0E0A80ED030A9FED0D0A80ED040A3E
:103650008162002180F830109FED0A0A80ED050A92
:1036600080ED060A80ED0B0A416280ED020A142209
:103670000262C16170470000980100208FC2F53CD2
:103680008FC2F5BC000000001B489FED1A0ADFED59
:103690001B0A80ED050A80ED040A80ED070A80ED23
:1036A000060AC0ED020ADFED160AC0ED000ADFEDE2
:1036B000150AC0ED010ADFED140AC0ED080ADFEDBE
:1036C000130AC0ED030ADFED120A80ED100AC0ED07
:1036D0000C0ADFED100AC0ED0D0A80ED0F0A80ED37
:1036E0000E0A80ED110A80ED120A80ED090A80EDC4
:1036F0000A0A7047000000004C0200200E4F2F3CC9
:1037000011C73A3ACDCC883E17B7D13800401C4695
:10371000000048430000C8430E489FED0D0A80EDAD
:10372000010A9FED0D0A80ED000A9FED0C0A80ED65
:103730000F0A9FED0B0A80ED110A80ED100A9FED34
:10374000090A80ED040AB7EE000A80ED030A70470B
:10375000CDCCCC3DCC0100200000484317B7D13878
:10376000000000006A438FBE12489FED110AF7EE79
:10377000000A80ED010A80ED000AC0ED020A80ED2A
:10378000030A80ED040A80ED050A80ED060A80ED4B
:10379000070A80ED080A80ED090A80ED0A0A80ED2B
:1037A0000C0A80ED0B0A80ED0E0A80ED0D0A7047C1
:1037B00000000000980B001006489FED050A80ED00
:1037C000030A80ED000A9FED040A80ED050A7047A8
:1037D00000000000040C00106F12833A0D489FEDAA
:1037E0000C0A002180ED000A9FED0B0A80ED010A12
:1037F0009FED0A0A80ED040A80ED050A80ED020AB9
:1038000080ED030A01834183818381777047000043
:1038100000001042640B0010E246A64100000000C8
:103820004FF04070E1EE100A7047081C3044586CAD
:103830000000000004040404383800000800000000
:103840000800000800000800000008000000000256
:103850000406080A0C0E101401000000020000000B
:103860000400000006000000080000000A0000003C
:103870000C000000100000002000000040000000CC
:1038800080000000000100000000000000000000B7
:1038900001020304060708090000000001020304F6
:1038A000081C3044586C000000000404040438383C
:1038B00000000800000008000008000000000000F0
:1038C000D041243A2941A43A1C60F63A8E3E243B6A
:1038D000C04B4D3B5157763B77B08F3B2234A43BD6
:1038E00080B6B83B6837CD3BAFB6E13B2E34F63BF4
:1038F000DD57053C95940F3C2CD0193C8B0A243C99
:103900009F432E3C547B383C96B1423C4FE64C3CA6
:103910006D19573CDA4A613C837A6B3C55A8753C7B
:103920003BD47F3C10FF843CFA128A3CD0258F3C6C
:103930008937943C1C48993C7E579E3CA765A33C24
:103940008C72A83C247EAD3C6688B23C4991B73C61
:10395000C298BC3CCA9EC13C57A3C63C5FA6CB3CA8
:10396000DBA7D03CC0A7D53C06A6DA3CA4A2DF3C2E
:10397000929DE43CC796E93C3A8EEE3CE383F33CEF
:10398000B977F83CB469FD3CE62C013DFCA3033D4E
:10399000191A063D388F083D55030B3D6C760D3DD9
:1039A0007AE80F3D7A59123D6AC9143D4438173DF3
:1039B00005A6193DAB121C3D307E1E3D92E8203D10
:1039C000CD51233DDDB9253DBF20283D70862A3DE0
:1039D000ECEA2C3D314E2F3D39B0313D0411343DE0
:1039E0008D70363DD0CE383DCD2B3B3D7E873D3D65
:1039F000E1E13F3DF43A423DB392443D1CE9463D8E
:103A00002B3E493DDF914B3D33E44D3D2735503D45
:103A1000B684523DDFD2543DA01F573DF46A593D54
:103A2000DCB45B3D53FD5D3D5744603DE789623D3D
:103A300000CE643DA010673DC551693D6C916B3D62
:103A400094CF6D3D3B0C703D5F47723DFE80743DF1
:103A500016B9763DA6EF783DAB247B3D24587D3DDD
:103A60000F8A7F3D35DD803D9BF4813D370B833DE3
:103A70000921843D1136853D4D4A863DBE5D873D19
:103A80006170883D3882893D40938A3D7AA38B3DA1
:103A9000E5B28C3D80C18D3D4BCF8E3D46DC8F3DE8
:103AA0006FE8903DC7F3913D4DFE923D0108943D76
:103AB000E110953DEF18963D2920973D8F26983DC2
:103AC000212C993DDE309A3DC7349B3DDA379C3D31
:103AD000183A9D3D803B9E3D133C9F3DD03BA03D11
:103AE000B63AA13DC638A23D0036A33D6332A43D9F
:103AF000F02DA53DA528A63D8422A73D8C1BA83D01
:103B0000BC13A93D160BAA3D9901AB3D44F7AB3D53
:103B100019ECAC3D16E0AD3D3DD3AE3D8DC5AF3D9E
:103B200005B7B03DA7A7B13D7397B23D6886B33DD9
:103B30008674B43DCE61B53D404EB63DDC39B73DEF
:103B4000A224B83D930EB93DAEF7B93DF4DFBA3DBE
:103B500065C7BB3D01AEBC3DC993BD3DBD78BE3D13
:103B6000DC5CBF3D2840C03DA022C13D4604C23DB3
:103B700018E5C23D19C5C33D47A4C43DA382C53D58
:103B80002D60C63DE73CC73DD018C83DE9F3C83DB0
:103B900031CEC93DAAA7CA3D5480CB3D2F58CC3D5C
:103BA0003C2FCD3D7B05CE3DEDDACE3D91AFCF3DF7
:103BB0006983D03D7556D13DB528D23D2AFAD23D14
:103BC000D4CAD33DB49AD43DCA69D53D1738D63D41
:103BD0009B05D73D57D2D73D4B9ED83D7869D93DFF
:103BE000DE33DA3D7FFDDA3D59C6DB3D6F8EDC3DCD
:103BF000C055DD3D4D1CDE3D16E2DE3D1DA7DF3D1F
:103C0000616BE03DE42EE13DA5F1E13DA6B3E23D6F
:103C1000E774E33D6835E43D2BF5E43D2FB4E53D25
:103C20007672E63D0030E73DCDECE73DDEA8E83DAD
:103C30003564E93DD01EEA3DB2D8EA3DDA91EB3D6C
:103C4000494AEC3D0002ED3D00B9ED3D486FEE3DC7
:103C5000DB24EF3DB7D9EF3DDF8DF03D5241F13D23
:103C600012F4F13D1EA6F23D7857F33D2008F43DD5
:103C700016B8F43D5D67F53DF315F63DDAC3F63D44
:103C80001271F73D9C1DF83D79C9F83DAA74F93DC4
:103C90002E1FFA3D07C9FA3D3572FB3DB81AFC3DAF
:103CA00093C2FC3DC569FD3D4E10FE3D30B6FE3D64
:103CB0006B5BFF3D0000003EF83C00080000002068
:103CC0004800000070020008403D0008000000109D
:103CD000540B00007002000894480008540B0010B8
:103CE000E400000070020008403D00084800002089
:103CF000B00800008C020008000000000024F4005E
:103D000000000000000000000000000001090502A2
:103D100000000000000000000000000000000000A3
:103D2000030707060000000000000000000000007C
:103D30000000000000000000000000000000000083
:103D40004FF0A0400168C1F3801100290AD0064954
:103D50000A68C2F38012002A04D0402202600A607E
:103D600000F04CBC7047000000010050A64810B5A0
:103D7000A44902780C1D12591204120C26D1A34A30
:103D80001368A34A93ED090A82ED010A93ED0C0A28
:103D900082ED020A93ED050A82ED030A93ED060A0D
:103DA00082ED040A02788A58037822F00102CA5090
:103DB0000278125903786FF30F0242F018021A5179
:103DC00002788A58007842F001020A5010BD9FED37
:103DD000911AC0EE010A9FED900A904920EE800AE8
:103DE000BDEEC00A10EE100A48608868896800EECF
:103DF000100A00EE901A9FED8A1AB8EEC00AF8EE8B
:103E0000E00A20EE010A60EE810A7047F0EE400AF7
:103E1000F5EEC00AF1EE10FA02DBB1EEE00A7047EF
:103E20009FED800A704710EE100AF6EE000A7E49F8
:103E300060EE200AA1EB600000EE100A20EE801A6E
:103E4000F7EE080A41EE400A20EE800A704710B5EE
:103E500009212DED068B4FF0A04000F001FD00EE92
:103E6000100AB8EE400A9FED719AC0EE090ADFED24
:103E700070AA9FED708AF3EE049AB0EE480A00EE45
:103E8000EA0AC0EE290A9FED6CAA09216B4860EE90
:103E90008A8A00F0E5FC00EE100AF8EE400A80EE97
:103EA000890A00EE6A8A88EE290A60EE0A0AB0EEF4
:103EB000680ABDEC068B10BD10B509212DED068BEF
:103EC0004FF0A04000F0CCFC00EE100AB8EE400A23
:103ED0009FED569AC0EE090ADFED55AA9FED558A6F
:103EE000F3EE049AB0EE480A00EEEA0AC0EE290AA0
:103EF0009FED51AA0921514860EE8A8A00F0B0FC7A
:103F000000EE100AF8EE400A80EE890A00EE6A8A96
:103F100088EE290A60EE0A0AB0EE680AC9E7484846
:103F2000006870474649243948627047F0B54548F3
:103F300000688568424E243E716A33684FF0000481
:103F400013F0100F05D190F910305F1C0774042B8B
:103F500005D0336803F01003102B03D00AE00123CF
:103F6000437406E090F910305E1E06741B1D01D1EB
:103F700044740474C37883B1437C012B02D0437C26
:103F80002BB108E04A1B42F210731A4403E04A1BAB
:103F9000A2F51C52103AC47000E04A1B816000EE8A
:103FA000102ADFED290A9FED2A1AB8EEC00A20EE8A
:103FB000200ADFED180A20EE200ADFED240A20EEA9
:103FC000200AD0ED030A00EE810A80ED030A90ED8D
:103FD000030AF0BD1A482438406A40F6C411B0FB09
:103FE000F1F201FB120000EE100ADFED1A0AB8EE42
:103FF000C00A80EE201A9FED070AF0EE400A11EE8B
:10400000200A704700000240A0380008280C001069
:1040100014000020DB0F49400000004F000C02405C
:104020000000003000000000DF59375F00FF7F47CD
:10403000333353403333D33F000048430001005033
:1040400024340140240C0010CDCC4C3FCDCCCC3DD1
:104050006666663F00409C44FFF7B9BED0ED000A9B
:1040600090ED011AF0EE001A90ED000A41EE210ADF
:104070009FED801A60EE810A704790ED000AD0ED46
:10408000000A9FED7C1A00EE810A9FED7B1A60EE1C
:10409000810A30EE201AB1EE411A704791ED010A03
:1040A000D0ED000A90ED011AD0ED001A20EE200AA2
:1040B000D1ED000A00EE810AD1ED010A90ED011A5E
:1040C00060EE810A91ED001A41EE610A704791EDB0
:1040D000010AD0ED000A90ED011AD0ED011A20EE90
:1040E000200AD1ED000A00EEC10AD1ED000A90EDE0
:1040F000001A60EE810A91ED011A41EE210A704723
:10410000FFF784BEFFF78FBEB4EEE00AF1EE10FABF
:1041100001DDB0EE600AB4EEC10AF1EE10FA01DD85
:10412000B0EE410A7047B4EEE00AF1EE10FA01D2A7
:10413000B0EE600AB4EEC10AF1EE10FA01D2B0EEB0
:10414000410A704770B59FED4D0A03291ED3002325
:104150004E1E14E00022CD1A6D1E0DE000EB82040D
:1041600094EC020AB4EEE00AF1EE10FA03DDC4EDBD
:10417000000A84ED010A521C9542EFDC5B1CB3423D
:10418000E8DB490800EB810090ED000A70BD9FED6F
:104190003B2AB5EEC00A08B5F1EE10FA07D1F5EEEC
:1041A000C00AF1EE10FA02D1B0EE420A5CE0B5EEC0
:1041B000C00A0023F1EE10FA08D2F5EEC00AF1EEC3
:1041C00010FA01D2032209E0042207E0F5EEC00A4A
:1041D000F1EE10FA01D2022200E00122F5EEC00A4F
:1041E000F1EE10FA01DCF1EE600AB5EEC00AB0EEB5
:1041F000601AF1EE10FACDED000A01DCB1EE400AD2
:10420000F0EE400AF4EEC10AF1EE10FA05DDF0EE30
:10421000601AF0EE410A012301E0F0EE411A69460E
:1042200080EEA10AFE209FED161AF0EE420A00F081
:104230001CFB14499DED000A00F01CFB1BB1F5EEC0
:10424000000A30EEC00AF6EE000A022A04D0032A61
:1042500005D0042A06D007E030EEC00A04E030EEB4
:10426000600A01E0B1EE400ADFED070A20EE200A05
:1042700008BD00003ACD133F3ACD933F0000000047
:104280000402813BBC380008DB0FC94010B590ED3B
:10429000042AD0ED050A00219FEDFE0AB6EE001AB1
:1042A00022EE000AF0EE401A40EEC11AF0EE613A3A
:1042B000DFEDF91A62EE211A90ED002AB0EE613AB4
:1042C00040EEC11A9FEDF54AF5EEC00A0122C4EE98
:1042D000022AF1EE10FA00DD0121B0EE632AB5EEFC
:1042E000C02AF1EE10FA00DD891CF5EEC01AF1EEDD
:1042F00010FA00DD091D9FEDEA2AF5EE001A0729E4
:1043000072D2DFE801F08B041D35495A7200022198
:10431000817700EE813A00EE810A23EE223A20EE08
:10432000221A72EE432A32EE810A60EE210A33EE3F
:10433000020A30EE010A32EEC11A20EE210A14E020
:104340000621817700EE810A22EEE01A20EE220A91
:1043500070EE020A32EE402A70EE810A32EE410A15
:1043600060EEA10A20EE210A55E021EE211A5BE061
:10437000827723EEA20A22EEA01A70EE020A32EE33
:10438000402A70EE810A32EE010A32EE411A60EEE6
:10439000A10A20EE210AE8E70421817700EE813AA4
:1043A00062EEE03A32EE630A23EE221A70EE410A20
:1043B00030EE010A60EEA10A29E00321817700EEC8
:1043C000810A22EEA03A22EEC01A72EE432A32EEA1
:1043D000C10A60EE210A33EE020A30EE010A32EE23
:1043E000811A20EE210AC0E718E00521817700EE4E
:1043F000810A00EE813A62EEC03A22EEC31A32EE32
:10440000630A70EE010A30EE410A60EEA10A20EE66
:10441000210A33EE822A32EE011AA6E79FEDA10AA5
:10442000F0EE400AB0EE401ADFED9F1A42F233146C
:1044300020EE210A60EEA10ABDEEC00AFDEEE00A00
:1044400010EE102A21EE210A10EE903ABDEEC00ABD
:10445000002B10EE101A01DA002302E0A34200DD67
:104460002346002A01DA002202E0A24200DD2246B1
:10447000002901DA002102E0A14200DD2146038388
:104480004283818310BDD0ED000A90ED051A874A62
:1044900070EEC00A90ED030A00EE810A80ED030A77
:1044A00090ED030A10EE101A914202DD9FED800A92
:1044B00008E090ED030A7F4A10EE101A914203D9EA
:1044C0009FED7D0A80ED030A90ED030AB5EE001A18
:1044D00020EE010A9FED791A794A00EE810A10EE6A
:1044E000101A914202DDB2EE040A06E010EE101A34
:1044F000744A914201D9BAEE040A80ED040A704769
:10450000F0B590ED000AD2ED000A6F4E30EE601A61
:1045100090ED030AD0ED050A01EE200A80ED030AB2
:1045200090ED030A10EE103ADFED683A684FDFEDC8
:10453000690AB34202DDC0ED033A07E090ED030AD9
:1045400010EE103ABB4201D9C0ED030A90ED030A08
:10455000DFED612A20EE220A9FED603A584C594D5A
:1045600001EE030AB2EE041AFAEE041A10EE103A43
:10457000A34202DDB0EE410A07E0B0EE402A12EE9F
:10458000103AAB4201D9B0EE610A91ED002A92EDEA
:10459000014AD1ED054A32EE442A91ED034A02EE7A
:1045A000244A81ED034A91ED034A14EE102AB242E7
:1045B00002DDC1ED033A07E0D1ED033A13EE902A94
:1045C000BA4201D9C1ED030AD1ED030A60EEA20A95
:1045D00042EE030A10EE902AA24202DDF0EE410AFA
:1045E00007E0B0EE601A11EE102AAA4201D9F0EEEF
:1045F000610A80ED040AC1ED040AF0BD2DE9FC4119
:10460000FFF725FC364C374E206880ED090AC0EDD7
:104610000A0A90ED090AD0ED070A30EE600A80ED33
:10462000090A90ED0A0AD0ED080A30EE600A80ED22
:104630000A0A306801792C4D042974D1017B0022CB
:104640002A4F9FED2B0ADFF8AC80012331B10129FD
:104650006FD0022969D0032964D187E001684E1C1C
:104660000660B1F5FA6F61D23868F1EE000A46468D
:10467000C0ED000AD8F8000080ED000AFFF7A7FBA4
:10468000206880ED030AC0ED040A2430FFF7E6FC41
:1046900032E00000D7B35D3FD7B35DBFEA9835394C
:1046A000C6B0D138C6B0D137E81F224D0000204235
:1046B00000002042000020C2000020C2CDCC4C3DB2
:1046C00000002041000020C11F11473F1F11473F3C
:1046D0001F1147BF1F1147BF8FC24D41C3F528406F
:1046E000280C00101C0C0010200C00102C0C0010CA
:1046F00000000000300C00108DEC020A68462168B2
:104700000C31FFF7CBFC226882ED0B0AC2ED0C0ADC
:1047100031682C323868FFF7F3FE286880ED020A12
:10472000C0ED030A7AE089E003E018E00260037359
:1047300074E001684E1C066005290CD2444E3068B6
:10474000037040F2E2473846FFF7ECFB30688760C1
:1047500000F095F862E00260022101735EE03868C3
:1047600080ED000A306802600321F6E7FFF732FCB3
:10477000206880ED010A90ED010AFFF728FB206810
:1047800080ED030AC0ED040A2430FFF767FC8DECCE
:10479000020A684621680C31FFF780FC226882ED2E
:1047A0000B0AC2ED0C0AD8F800102C323868FFF75B
:1047B000A7FE20689FED271AD0ED0C1A90ED002A75
:1047C00061EE811A01EEC20A90ED0B2ADFED221A8A
:1047D00042EE011A90ED001A286880ED020A41EEBF
:1047E000810AC0ED030A306801680A22B1FBF2F3C6
:1047F00002FB1312491C01600260006870B9FFF7E8
:1048000095FB206880ED000A90ED000A13480068CF
:10481000FFF739FED8F8000080ED000A216828680B
:104820000C310830FFF753FC286880ED040AC0ED16
:10483000050A216891ED050AFFF728FD2868828B9B
:10484000418B008B00F020F8BDE8FC41FFF78EBAE9
:10485000240C00106F12833A0E4F2F3C340C0010C2
:1048600040F2C37CC0F6000C604743F2E53CC0F662
:10487000000C604742F6857CC0F6000C604743F2AE
:10488000654CC0F6000C604740F2A16CC0F6000C0D
:104890006047000000000000FF0000000000000072
:1048A0000000000000000000000000000000000008
:1048B00000000000000000000000000000000000F8
:1048C00000000000000000000000000000000000E8
:1048D00000000000000000000000000000000000D8
:1048E00000000000000000000000000000000000C8
:1048F00000000000000000000000000000000000B8
:1049000000000000000000000000000000000000A7
:104910000000000000000000000000000000000097
:104920000000000000000000000000000000000087
:104930000000000000000000000000000000000077
:104940000000000000000000000000000000000067
:10495000000000000000000000000000540B0010E8
:10496000640B0010840B0010980B0010D40B001087
:08497000EC0B0010040C001018
:04000005080001D915
:00000001FF
