:020000040800F2
:10000000C8120020B902000833340008091900089A
:10001000313400084F0700088D3D00080000000043
:10002000000000000000000000000000C1370008D0
:100030008D080008000000009D350008953C000870
:10004000D3020008D3020008D3020008D30200083C
:10005000D3020008D3020008D3020008D30200082C
:10006000D3020008D3020008D30200088508000864
:1000700087080008D3020008D3020008D302000852
:10008000D302000800000000D5060008D3020008D3
:10009000D3020008D3020008D3020008C1080008F8
:1000A000D3020008D3020008D3020008D3020008DC
:1000B000D3020008D3020008D3020008D3020008CC
:1000C000D3020008D3020008D3020008D3020008BC
:1000D000D3020008D3020008D3020008D3020008AC
:1000E000D3020008D3020008D3020008D30200089C
:1000F000D3020008D3020008D30200080000000069
:1001000000000000D302000800000000D302000835
:10011000D302000800000000D3020008D302000848
:10012000890800088B080008D3020008D3020008E1
:10013000D30200080000000000000000D302000805
:10014000D3020008D30200080000000000000000F5
:10015000000000000000000000000000000000009F
:10016000000000000000000000000000D3020008B2
:10017000D3020008000000000000000000000000A2
:1001800000000000D3020008000000000000000092
:10019000000000000000000000000000000000005F
:1001A0000000000000000000D3020008D302000895
:1001B000D3020008D3020008D302000800000000A8
:1001C00000000000D3020008000000000000000052
:1001D000D3020008D302000800F002F800F05CF837
:1001E0000AA090E8000C82448344AAF10107DA4592
:1001F00001D100F051F8AFF2090EBAE80F0013F088
:10020000010F18BFFB1A43F0010318478467000071
:10021000A46700000A444FF0000C10F8013B13F0F3
:10022000070408BF10F8014B1D1108BF10F8015B4F
:10023000641E05D010F8016B641E01F8016BF9D142
:1002400013F0080F1EBF10F8014BAD1C0C1B09D199
:100250006D1E58BF01F801CBFAD505E014F8016B0B
:1002600001F8016B6D1EF9D59142D6D3704700009D
:100270000023002400250026103A28BF78C1FBD8AF
:10028000520728BF30C148BF0B6070471FB505F04B
:1002900025FD1FBD10B510BD00F046F91146FFF752
:1002A000F5FF03F063FE00F064F903B4FFF7F2FF1B
:1002B00003BC00F06BF9000009488047094800477B
:1002C000FEE7FEE7FEE7FEE7FEE7FEE7FEE7FEE706
:1002D000FEE7FEE704480549054A064B7047000063
:1002E0007D3D0008D9010008C80C0020C81200207C
:1002F000C80E0020C80E002053EA020C00F06980EE
:100300002DE9F04B4FF00006002B1FBFB3FA83F529
:1003100003FA05F424FA05F65E4012BF1643B2FA5A
:1003200082F502FA05F4C5F120051EBF22FA05FC8C
:1003300044EA0C04203556EA044C4FEA144418BF32
:10034000641C4FF000084FF00009904271EB030C61
:1003500039D3002919BFB1FA81F701FA07F6B0FACB
:1003600080F700FA07F6C7F120071EBF20FA07FC46
:1003700046EA0C062037B6FBF4FCA7EB0507103F56
:1003800007F01F0BCBF120060CFA0BFB2CFA06F63C
:1003900044BFB3460026202FA4BF5E464FF0000B9B
:1003A0005BEA060C08BF4FF0010B19EB0B09ABFB26
:1003B000027C48EB0608C01B06FB02CC0BFB03CCFF
:1003C00071EB0C01C1E70B46024641464846BDE8C9
:1003D000F08B13B54FF000004FF00001AFF3008039
:1003E000BDE81C407047032A40F2308010F0030C37
:1003F00000F0158011F8013BBCF1020F624498BF78
:1004000011F801CB00F8013B38BF11F8013BA2F114
:10041000040298BF00F801CB38BF00F8013B11F08F
:10042000030300F04F80083AC0F0088051F8043B05
:10043000083A51F804CBA0E80810F5E7121D5CBF9C
:1004400051F8043B40F8043BAFF30080D20724BFCF
:1004500011F8013B11F801CB48BF11F8012B24BF63
:1004600000F8013B00F801CB48BF00F8012B7047B2
:100470004FF0000200B5134694469646203922BF3D
:10048000A0E80C50A0E80C50B1F12001BFF4F7AF88
:10049000090728BFA0E80C5048BF0CC05DF804EB6A
:1004A000890028BF40F8042B08BF704748BF20F8D8
:1004B000022B11F0804F18BF00F8012B70477047D6
:1004C0007047704710B5203AC0F00B80B1E8185063
:1004D000203AA0E81850B1E81850A0E81850BFF42E
:1004E000F5AF5FEA027C24BFB1E81850A0E81850CD
:1004F00044BF18C918C0BDE810405FEA827C24BF21
:1005000051F8043B40F8043B08BF7047D20728BFAE
:1005100031F8023B48BF11F8012B28BF20F8023BFD
:1005200048BF00F8012B7047754600F02BF8AE4627
:1005300005006946534620F00700854618B020B5EF
:10054000FFF7C8FEBDE820404FF000064FF000075F
:100550004FF000084FF0000B21F00701AC46ACE86B
:10056000C009ACE8C009ACE8C009ACE8C0098D46D8
:10057000704710B50446AFF300802046BDE8104038
:10058000FFF793BE00487047640C00200149182013
:10059000ABBEFEE726000200704700009FED241A64
:1005A000B5EE002A46F28C130021B7EE004AC0F6E1
:1005B000000320EE010A30EE020ABDEEC01AB5EECD
:1005C000C00A11EE100AF1EE10FA9FED1A1AB8BF28
:1005D000013802EE100AB8EEC22A30EE420A9FED50
:1005E000162A20EE010ABDEEC01A11EE100A30EEF6
:1005F000021A0246B1EB502F18BF002202EE102A59
:1006000003EB8203B1EB502F18BFB0EE410AB8EEF6
:10061000421A93ED002A93ED013A30EE410A34EE8E
:10062000401A20EE030A21EE021A31EE000A70474A
:1006300083F9223E00000044000000C49FED221A0E
:1006400046F28C130021B7EE004AC0F6000320EEFC
:10065000010ABDEEC01AB5EEC00A11EE100AF1EEA5
:1006600010FA9FED1A1AB8BF013802EE100AB8EE60
:10067000C22A30EE420A9FED162A20EE010ABDEE94
:10068000C01A11EE100A30EE021A0246B1EB502FDA
:1006900018BF002202EE102A03EB8203B1EB502FA9
:1006A00018BFB0EE410AB8EE421A93ED002A93ED5E
:1006B000013A30EE410A34EE401A20EE030A21EEF0
:1006C000021A31EE000A704783F9223E000000440E
:1006D000000000C44FF0A040016811F0400F1ABFA5
:1006E000D0F8001111F0400F704740210160C0F8B0
:1006F000001102F055BF0000D0ED000A90ED011A84
:10070000F0EE001A90ED000A41EE210A9FED021A68
:1007100060EE810A704700003ACD133F91ED010A67
:10072000D0ED000A90ED011AD0ED001A20EE200A5B
:10073000D1ED000A00EE810AD1ED010A90ED011A17
:1007400060EE810A91ED001A41EE610A7047FEE702
:1007500001F05CB970B4404B90ED000A92ED001AC4
:100760001B683E4E30EE411AD3ED060A90ED030AA7
:100770009FED3B3A3B4D01EE200ADFED3B3A80ED29
:10078000030A90ED030A10EE103AB342C8BF80EDA1
:10079000033A0BDC90ED030A10EE103AAB4234BF83
:1007A00090ED030AB0EE630A80ED030A90ED030AB0
:1007B000DFED2E2A9FED2E2ADFF8B8C020EE220AA8
:1007C0002E4C9FED2F4A01EE020A9FED2B1A10EEE0
:1007D000103A6345C8BFB0EE410A05DC10EE103A8E
:1007E000A34228BFB0EE440AD1ED001AD2ED014A6F
:1007F00071EEE41AD1ED034A41EEA04AC1ED034A7D
:10080000D1ED030A10EE902AB242C8BF81ED033A3F
:1008100009DCD1ED030A10EE902AAA4238BFD1EDCF
:10082000033AC1ED033AD1ED030A60EEA20A41EEAC
:10083000820A10EE902A6245C8BFF0EE410A05DC3C
:1008400010EE902AA24228BFF0EE440A80ED040A7E
:10085000C1ED040A70BC704778000020CBAFC13EE8
:10086000CBAFC13ECBAFC1BECBAFC1BE8FC24D423D
:10087000C3F52840F9AC9B41F9AC9B41F9AC9BC155
:10088000F9AC9BC17047704770477047704791ED56
:10089000010AD0ED000A90ED011AD0ED011A20EE08
:1008A000200AD1ED000A00EEC10AD1ED000A90ED58
:1008B000001A60EE810A91ED011A41EE210A70479B
:1008C0000D48016811F0400F08BF704710B5402176
:1008D00001600A4C20680178002908BF10BD4178EA
:1008E00019B140690649486210BD0121417001F00B
:1008F0003FF82168486110BD14040140A8000020A1
:1009000000340140F0B5384E2DED028B83B03068D5
:10091000417C9FED360A364D364CD9B101291EBFB8
:1009200003B0BDEC028BF0BDB0EE408A01F06EF872
:100930002868314980ED010AC0ED020A096800F01B
:100940006BFE206880ED020A80ED038A03B0BDECE7
:10095000028BF0BD4268511C4160284FB2F5FA6F1E
:1009600039682ED2264EF1EE000AC1ED000A306839
:1009700080ED000A01F04AF8286880ED010AC0ED18
:10098000020A1C30FFF7B8FE8DED000ACDED010A1A
:100990002868011D6846FFF7C1FE286800F124029F
:1009A00080ED090AC0ED0A0A31683868FFF7D2FE07
:1009B000206880ED020AC0ED030A03B0BDEC028B93
:1009C000F0BD0022426081ED000A206880ED030A3C
:1009D00080ED020A05F096F831680120487403B0F2
:1009E000BDEC028BF0BD000078000020000000008C
:1009F000AC000020A0000020B0000020B4000020C7
:100A0000B80000202DE9F04F924D2DED028B83B000
:100A10002868427C944FDFF84092DFF84082904C87
:100A2000904E39684FF0000A72B1012A53D0DFF8B6
:100A30003CB29FED8F8A022A5ED0032A7DD003B09C
:100A4000BDEC028BBDE8F08F43685A1C42609FEDFD
:100A5000890A814AB3F5FA6F12682DD2D1ED030AE3
:100A6000C2ED000AD8F8000080ED000A00F0CEFFC9
:100A7000206880ED010AC0ED020A1C30FFF73CFE41
:100A80008DED000ACDED010A2068011D6846FFF7D3
:100A900045FE206800F1240280ED090AC0ED0A0A33
:100AA000D8F80010D9F80000FFF754FE306880ED48
:100AB000020AC0ED030AC2E7C0F804A082ED000AF2
:100AC000306880ED030A80ED020A05F01BF8296802
:100AD00001204874B3E74268531C4360642AAED9CE
:100AE000D8F8000091ED030A80ED000A2868C0F8EC
:100AF00004A002214174A2E791ED020A00F086FFF2
:100B0000206880ED010AC0ED020A1C30FFF7F4FDF9
:100B10008DED000ACDED010A2068011D6846FFF742
:100B2000FDFD206800F1240280ED090AC0ED0A0AEB
:100B3000D8F80010D9F8000000E03EE0FFF70AFE08
:100B4000306880ED020AC0ED030A29684A68501C2B
:100B50004860386803699A420AD290ED010AD1EDE3
:100B6000060A90ED001A00EE810A80ED010A03E00A
:100B7000C1F804A003224A7490ED020AD1ED060ADE
:100B800090ED011A00EE810A80ED020A90ED020A52
:100B900010EE101A90ED020A5945C8BF30EE480A0F
:100BA00009DC10EE101A344A914284BF90ED020A1B
:100BB00030EE080A01D980ED020A386890ED020A89
:100BC00000F024FF206880ED010AC0ED020A1C300D
:100BD000FFF792FD8DED000ACDED010A2068011DA1
:100BE0006846FFF79BFD206800F1240280ED090AAA
:100BF000C0ED0A0AD8F80010D9F80000FFF7AAFDE6
:100C0000306880ED020AC0ED030A3868296890ED6B
:100C1000020AD1ED060A90ED011A00EE810A80ED7C
:100C2000020A90ED020A10EE101A90ED020A5945E0
:100C3000C8BF30EE480A0ADC10EE101A0E4A914284
:100C400084BF90ED020A30EE080A7FF6F8AE80ED20
:100C5000020AF4E678000020B4000020B80000206A
:100C6000AC000020A0000020C8000020DB0F49409D
:100C7000DB0FC94000000000DB0F49C02DE9F04F39
:100C80009C4D2DED028B83B02868427C9F4FDFF88E
:100C90006892DFF868A2DFF868829A4C9A4E396849
:100CA0004FF0000B62B1012A5BD09FED998A022AB6
:100CB00068D0032A7DD003B0BDEC028BBDE8F08F75
:100CC00043685A1C42609FED930A8C4AB3F5FA6F51
:100CD000126831D2D1ED030AC2ED000AD8F8000043
:100CE00080ED000A00F092FE206880ED010AC0ED60
:100CF000020A1C30FFF700FD8DED000ACDED010A60
:100D00002068011D6846FFF709FD206800F12402F4
:100D100080ED090AC0ED0A0AD8F80010DAF80000E0
:100D2000FFF718FD306880ED020AC0ED030A40F2BB
:100D3000E24001F04BF8BEE7C0F804B082ED000AD3
:100D4000306880ED030A80ED020A04F0DBFED9F87A
:100D500000100120087040F2E2428A61296848745C
:100D6000A9E74268531C4360642AA4D9D8F800005C
:100D700091ED030A80ED000A2868C0F804B0022152
:100D8000417498E791ED020A00F040FE206880ED82
:100D9000010AC0ED020A1C30FFF7AEFC8DED000A1F
:100DA000CDED010A2068011D6846FFF7B7FC2068F9
:100DB00000E049E080ED090AC0ED0A0A00F12402D2
:100DC000D8F80010DAF80000FFF7C4FC306880EDB6
:100DD000020AC0ED030A29684A68501C4860386856
:100DE00003699A420AD290ED010AD1ED060A90ED0C
:100DF000001A00EE810A80ED010A03E0C1F804B098
:100E000003224A7490ED020AD1ED060A90ED011A10
:100E1000414A00EE810A80ED020A90ED020A10EECE
:100E2000101A90ED020A9142C8BF30EE480A09DC60
:100E300010EE101A394A914284BF90ED020A30EE4A
:100E4000080A01D980ED020AD9F8000001F016F86D
:100E5000D9F8000080ED080A386890ED020A00F029
:100E6000D5FD206880ED010AC0ED020A1C30FFF7B5
:100E700043FC8DED000ACDED010A2068011D684696
:100E8000FFF74CFC206800F1240280ED090AC0ED58
:100E90000A0AD8F80010DAF80000FFF75BFC3068A7
:100EA0001D4A80ED020AC0ED030A3868296890EDFA
:100EB000020AD1ED060A90ED011A00EE810A80EDDA
:100EC000020A90ED020A10EE101A90ED020A914209
:100ED000C8BF30EE480A0ADC10EE101A0F4A9142E1
:100EE00084BF90ED020A30EE080A7FF6E4AE80ED92
:100EF000020AE0E678000020A8000020B4000020EC
:100F0000B8000020AC000020A0000020C800002095
:100F1000DB0FC94000000000DB0F4940DB0F49C078
:100F20002DE9F0476E4E6F4C2DED028B82B030688C
:100F3000216890ED078A4A7CDFF8ACA16B4D6C4FBD
:100F4000DFF8B0814FF00009002A68D0012A7CD078
:100F5000022A1EBF02B0BDEC028BBDE8F08700F094
:100F60008DFF306880ED080A90ED080A00F04EFD14
:100F7000286880ED010AC0ED020A1C30FFF7BCFBB7
:100F80008DED000ACDED010A2868011D6846FFF7C6
:100F9000C5FB286800F1240280ED090AC0ED0A0AA9
:100FA000D8F80010DAF80000FFF7D4FB524829689F
:100FB000006891ED0A1AD0ED021A90ED012A21EE97
:100FC000211AD1ED091A01EE480A90ED061A386887
:100FD00001EE821A80ED020A41EE080AC0ED030A12
:100FE000206841684A1C4260092913D1C0F8049066
:100FF000306890ED070A00F05BFF306880ED070A6B
:1010000090ED070A3D48006802F0EEFDD8F80000B8
:1010100080ED000A02B0BDEC028BBDE8F0874A68A3
:10102000501C486030489FED360AB2F5FA6F0068F0
:101030002FD2F1EE000AC0ED000AD8F8000080EDD2
:10104000000A00F0E3FC286800E03AE080ED010AC5
:10105000C0ED020A1C30FFF74FFB8DED000ACDED0D
:10106000010A2868011D6846FFF758FB286800F14F
:10107000240280ED090AC0ED0A0AD8F80010DAF857
:101080000000FFF767FB386880ED020AC0ED030A35
:10109000C0E7C1F8049080ED000A3868012580EDB2
:1010A000030A80ED020A3068057040F2E241816176
:1010B00004F028FD40F2E24000F088FE206845740C
:1010C000A8E74868421C4A606428A3D9002000F0C1
:1010D0002BFE2068C0F80490022141749AE70000BA
:1010E000A800002078000020B4000020AC00002000
:1010F000A0000020B8000020A4000020BC000020B8
:10110000000000002DE9F0434E4C89B02068407C7F
:10111000DFF834914D4E00287DD001281CBF09B066
:10112000BDE8F0834A4D286890ED0B0A00F06EFC94
:10113000484F386880ED010AC0ED020A1C30FFF705
:10114000DBFA8DED020ACDED030A3868011D80ED52
:101150000B0A9DED030A80ED0C0A02A8FFF7DEFAE8
:101160003868DFF8F48000F1240280ED090AC0ED50
:101170000A0AD8F80010D9F80000FFF7EBFACDED15
:10118000050A3868354F2A6890ED0A1A3968D1ED9A
:10119000021A21EE211AD2ED0A1A01EE610A8DED32
:1011A000040A91ED061AD0ED091A91ED012A2C4995
:1011B00001EE821AD2ED0A1A41EE210ACDED050A9E
:1011C000096881ED020A9DED050A81ED030A011D02
:1011D00004A8FFF75CFB8DED060ACDED070A02A817
:1011E000009006AB32682968386802F023F920685D
:1011F00041684A1C426009291CBF09B0BDE8F08360
:1012000000214160286890ED0A0A306802F0ECFC89
:10121000D8F8000000E004E080ED000A09B0BDE865
:10122000F083D9F800009FED0F0A80ED000A3068C6
:101230009FED0D0A80ED000A21680120487409B075
:10124000BDE8F08378000020B4000020BC0000203E
:10125000C4000020AC000020B8000020A400002042
:10126000A000002000000000D2537B432DE9F04F86
:10127000894C89B02068417CDFF820B2884D894EC6
:10128000DFF82482894FDFF828924FF0000A002906
:101290007ED0012900F0ED8002291CBF09B0BDE815
:1012A000F08FD8F8000000F0E9FDD8F80000DFF872
:1012B000048280ED080AD8F8000090ED0B0A00F0D7
:1012C000A5FB286880ED010AC0ED020A1C30FFF77B
:1012D00013FA8DED040ACDED050A2868011D80ED95
:1012E0000B0A9DED050A80ED0C0A04A8FFF716FA1B
:1012F000286800F1240280ED090AC0ED0A0A396865
:10130000DBF80000FFF726FACDED030A28686A4DE6
:10131000D8F8002090ED0A1A2968D1ED021A21EEC2
:10132000211AD2ED0A1A01EE610A8DED020A91ED41
:10133000061AD0ED091A91ED012A01EE821AD2EDBA
:101340000A1A41EE210ACDED030A316881ED020A45
:101350009DED030A81ED030A011D02A8FFF797FA2C
:101360008DED060ACDED070A04A8009006ABD9F86A
:101370000020D8F80010286802F05CF82068416866
:101380004A1C426009291CBF09B0BDE8F08F00E08B
:101390000FE0C0F804A0D8F8000090ED0A0AD9F8D0
:1013A000000002F021FC386880ED000A09B0BDE8B9
:1013B000F08F41684A1C4260384A44F620639FED32
:1013C0003F0A1268994233D2F0EE080AC2ED000AD1
:1013D000386880ED000A00F019FB286880ED010AEA
:1013E000C0ED020A1C30FFF787F98DED040ACDED40
:1013F000050A2868011D04A8FFF790F9286800F184
:10140000240280ED090AC0ED0A0A3968DBF8000001
:10141000FFF7A0F98DED020ACDED030A306880EDEB
:10142000020A9DED030A80ED030A09B0BDE8F08FC2
:10143000C0F804A082ED000AD9F80000DFED200A10
:101440000125C0ED000A306880ED030A80ED020A34
:10145000D8F80000057040F2E241816104F052FBCF
:1014600040F2E24000F0B2FC2068457409B0BDE8EB
:10147000F08F41684A1C426064299CBF09B0BDE8F6
:10148000F08F002000F050FC2068C0F804A002217A
:10149000417409B0BDE8F08F78000020B40000204E
:1014A000AC000020A0000020A8000020B800002010
:1014B000BC000020C4000020A400002000000000A8
:1014C000DD7E3C43F0B54A4C83B02068417C494EF8
:1014D000494D0027E9B101295FD002291CBF03B0A3
:1014E000F0BD28681C30FFF707F98DED000ACDED3F
:1014F000010A2868011D6846FFF710F9286880ED89
:10150000090AC0ED0A0A21684B683C4A192B55D1DB
:101510004DE041684A1C42609FED390AB1F5FA6F0F
:101520002ED2384C384FF1EE000A2068C0ED000A88
:10153000386880ED000A00F069FA286880ED010A39
:10154000C0ED020A1C30FFF7D7F88DED000ACDED93
:10155000010A2868011D6846FFF7E0F8286800F1D5
:10156000240280ED090AC0ED0A0A39682068FFF7F5
:10157000F1F8306880ED020AC0ED030A03B0F0BD57
:10158000306880ED020A80ED030A04F0BBFA20689F
:1015900047600121417403B0F0BD41684A1C4260BC
:1015A000642987BF4760022103B0F0BDF2E74F60B6
:1015B00092ED000AB1EE400A82ED000A4B6803F199
:1015C000010CC1F804C011495BB90B6892ED001A17
:1015D0009FED0F0AD3ED010A326800EEC10A82EDD9
:1015E000020A90ED090A086801F00CFC03B0F0BD96
:1015F00078000020A0000020AC0000203000002077
:1016000000000000B4000020B8000020C00000204E
:10161000CDCC4C3E00F07AB92DE9F0410546AA4800
:101620000C462DED028B006891ED120AD0ED068A72
:1016300000F0ECF984ED020AC4ED030A94ED120AFD
:10164000D4ED170A9FEDA18AA14EA24F60EE880A41
:1016500000EEA80A84ED120A94ED120A10EE100AA8
:1016600094ED120AB042C8BF30EE480A08DC10EE12
:10167000100AB84284BF94ED120A30EE080A01D96C
:1016800084ED120A05F11C00FFF736F884ED040A18
:10169000C4ED050A291D04F11000FFF73FF884EDA1
:1016A000060AC4ED070A94ED060A8B4885ED090A7F
:1016B00094ED070A85ED0A0A90ED000A9FED871A5E
:1016C00000F1080160EE010A91ED002ADFED841AB5
:1016D00042EE610A94ED062ADFED822A103042EED6
:1016E000220A90ED002ADFED7F2AA0F1100281EDA1
:1016F000000A42EE620AC2ED000AD4ED060AC0ED0D
:10170000000AD2ED010A91ED012A20EE811A02EEC3
:10171000611AD4ED071A9FED732A01EE821AD0EDFB
:10172000011A9FED702AC1ED010AA0F1100101EE2E
:10173000C21A81ED011A94ED071A80ED011A1838CA
:1017400084ED080A00F12001C4ED090AD1ED000A78
:101750009FED652A00F1280220EE820A92ED001A20
:10176000DFED622A01EE620A94ED061ADFED601ADF
:1017700000F1300301EE210A93ED001A9FED5D3A6E
:10178000C2ED000A01EE030A81ED000A94ED060A9B
:1017900083ED000A91ED010AD2ED013A20EE021A22
:1017A00003EEE21AD4ED073A03EEA11AD3ED013AA3
:1017B00082ED010A03EE831A81ED011A94ED071AF6
:1017C00083ED011AC4ED0C0A84ED0D0A94ED080AAC
:1017D000D4ED020A00F1380194ED021A20EE200A3D
:1017E000D4ED090AD1ED003A00F1400220EE811A51
:1017F00063EE820A92ED004A00F1480344EE620A69
:1018000093ED004AC2ED003A40EE210A44EE030A8D
:10181000C1ED000A83ED000AD1ED010A20EE820A33
:1018200092ED012A02EE620A01EE210AD3ED011ABD
:10183000C2ED010A01EE830ADFED311A81ED010AE2
:1018400083ED011AC4ED150AD4ED150A90ED000AD6
:101850009FED291A00EEA80AF3EE040A80ED000AB3
:1018600060EE200A94ED150A40EE010A9FED230A6E
:1018700094ED141A20EE800A01EE210A84ED140A78
:1018800090ED010A00EEA80A10EE101A80ED010A90
:10189000B142C4BFDFED1B0A30EE200A06DC10EEB9
:1018A000101AB94288BF38EE400A01D980ED010A0A
:1018B00084ED130A94ED030AF0EE080ABDEC028BE6
:1018C00020EE200ABDE8F08178000020DB0FC9403F
:1018D000DB0F4940DB0F49C0D40000209318F43FD0
:1018E000F016783FDAACFA3CA69BF43F713D6A3FB4
:1018F0004B22FB3A3ECBF33A00004843CDCCCC3DE3
:10190000A4707D3FDB0FC9C0FEE70000F0EE400A87
:10191000F5EEC00AF1EE10FAACBFB1EEE00A9FEDB1
:10192000010A70470000000010B5104C4022012150
:10193000204601F0AFF940221021204601F0AAF91B
:1019400040229100204601F0A5F9502204212046B2
:1019500001F0A0F950224021204601F09BF95022CD
:1019600021152046BDE8104001F094B9002C01403B
:101970000148006870470000243401404FF0A04047
:10198000816821F03F0121F0004141F004018160B4
:10199000016811F0040FFBD0016C9FED141A89B29D
:1019A00000EE101ADFED121AF8EE400A80EE810AFE
:1019B000DFED100A20EE210A20EE200A016811F066
:1019C000040FFBD0006C80B200EE900A0B48F8EEDA
:1019D000600A006880EE812A9FED071A62EE210AF4
:1019E000C1EE201AC0ED001A7047000000FF7F47CB
:1019F000AE4751400000CA4200109B3FAC0000209F
:101A000001480068704700002448014010B52DEDE2
:101A1000028BF0EE408AFEF711FEB0EE408AB0EE87
:101A2000680AFEF7BBFDF0EE400AB0EE480ABDECD6
:101A3000028B10BD0B4800694FF0000110F0080F39
:101A4000094818BFC1800BD1C288521C92B2C28013
:101A5000B2F5967F04D9C180017881F0010101704F
:101A60000078704700080048080000201F4810B5A3
:101A70000068204990ED070A1D4880ED000A0968BA
:101A800091ED000A1C4980ED010A096891ED0A0AEE
:101A900080ED020A19488188D1B1A1F54072E73A78
:101AA00008D0491C81800C22BDE81040104900205C
:101AB00001F02EBE002181800C220D49002001F092
:101AC00027FE0322BDE810400D49002001F020BE92
:101AD0000121818003220B49002001F019FE0C2214
:101AE000BDE810400249002001F012BEAC00002009
:101AF0002C010020BC000020C400002008000020B1
:101B00005F5D00085C5D000810B5104C702201217B
:101B1000204601F0BFF870221021204601F0BAF8EB
:101B20007022A115204601F0B5F87022042120464C
:101B300001F0B0F870224021204601F0ABF870228D
:101B400021152046BDE8104001F0A4B8002C01404A
:101B50002DE9F00361494FF47A70DFF884C18C6895
:101B6000B4FBF0F200FB1240002848D15D48426807
:101B700042F4005242605C4802880088120A42EA3D
:101B8000002000B2401100EE100AF4EE000ADCF86A
:101B90000000B8EEC00A554B554A20EE200A80EDF1
:101BA000040A90ED040A10EE100A98421EDD514816
:101BB000436C23F400434364036A23F0010303628C
:101BC000036A23F004030362036A23F01003036231
:101BD000036A23F040030362036A23F48073036201
:101BE000036A23F480630362C014906150694FF468
:101BF0008063834300F4806043EA0040906148883A
:101C000000F07F08451C821CC01C00F07F093A4888
:101C100002F07F0605F07F0710F80820532A01BF65
:101C2000C25D3A2A10F809200A2A1AD1334A835D84
:101C30001268C92B24BF92ED000AB1EE400A07D208
:101C400000EE103ADFED2E0AB8EE400A20EE200A30
:101C500082ED000A0022C25500F8082000F8092091
:101C600082552948274A0678131DF6583604360C43
:101C70002DD1DCF800C0264E9CED070ADFF88CC0A1
:101C80008CED000A366896ED080A224E8CED010AAA
:101C9000366896ED0B0A8CED020A90F800C052F8F7
:101CA0000CC006782CF0010C42F806C090F800C079
:101CB0005CF803C006786FF30F0C4CF0100C46F87C
:101CC00003C00378D358007843F0010313504D80CC
:101CD000601C8860BDE8F003704700000800002029
:101CE000AC000020005400400000002000008242B0
:101CF00000080048002C014038010020BC000020F2
:101D0000DB0FC94000000240625D00081C0000209B
:101D1000A8000020C4000020024B58639963DA63D6
:101D200070470000002C01400149486270470000E4
:101D3000004801401048016A41F001010162016A56
:101D400041F004010162016A41F010010162016A7F
:101D500041F040010162016A41F480710162016A4F
:101D600041F480610162416C41F4004141640349E6
:101D7000C014886270470000002C01400008004831
:101D80001048416C21F400414164016A21F00101D5
:101D90000162016A21F004010162016A21F010016F
:101DA0000162016A21F040010162016A21F480713F
:101DB0000162016A21F4806101620349C0148861F3
:101DC00070470000002C01400008004801494862AB
:101DD00070470000003401401F480068DFED1F3AE3
:101DE00080B200EE100ADFED1F0A9FED1D2AB8EE4B
:101DF000400AF3EE042A9FED1C3ADFED1C1A80EE38
:101E0000231AB0EE600A1A481B4990ED004A01EE11
:101E1000420A80EE221A21EE030A9FED161A20EEE6
:101E2000210A04EE010A80ED000A096889B204EE75
:101E3000101AF8EE444A84EEA34A44EE420A80EEB9
:101E4000A22A62EE030A60EEA10AD0ED011A41EE69
:101E5000810AC0ED010A70478000005000FF7F47F3
:101E6000AE475140AE47D13F0000484348E17A3F7A
:101E7000140000200AD7A33C8001005010B504468E
:101E8000FFF776FDA168D4ED040AB0FBF1F201FB87
:101E9000120000EE100AB8EEC00A80EE201A9FED84
:101EA000030AF0EE400A11EE200A10BDDB0F494094
:101EB00070B505462DED028BB0EE408A8669FFF7BE
:101EC00057FD0446FFF79CFD08EE900A0020FFF73F
:101ED0002BFF404BA21B58684042C11700EB91708A
:101EE0003D49B2EBA00F08DD58684FEAE07C00EBFB
:101EF0009C70B2EBA00FB8BFCA603848006884611C
:101F0000B5EEC08AF1EE10FA38BFB1EE488A0A7811
:101F1000DFED330A9FED330A002A40D05B68F8EE0C
:101F2000681A01EE103A304BB8EEC11A1B6821EE68
:101F3000211AD3ED071A2D4B61EE211A1B681B786D
:101F40009FED2B2A01EE103AB8EE411A21EE022A3B
:101F500082EE211AD1ED021A21EE201A01EE801A2A
:101F600081ED021AD1ED031AF8EEE11A21EE811A81
:101F700061EE200A91ED011A41EE000AC1ED010A5D
:101F800090ED0A0AB4EEC80AF1EE10FA38BFD04359
:101F900000D20870B0EE600ABDEC028B70BD91ED0E
:101FA000031AD5ED031AB8EEC11A21EE811A61EEBB
:101FB000200A91ED011A41EE000AC1ED010A90EDEF
:101FC000090AB4EEC80AF1EE10FAC8BFFF20E1DD3D
:101FD000DFE70000440500201C010020A8000020CD
:101FE000CDCCCC3D6666663F78000020A400002082
:101FF000DB0FC94010B44FF0A04C4A68DCF8084031
:102000000023DCF808C144EA0C0C1CF0010F18BFD7
:10201000012302D010BC18467047DFF828C052B127
:102020000C682243D1E9024121431143826802EA4C
:102030000C02114304E08268096802EA0C021143B1
:102040008160E7E7E030C0FF4B68D0F808C00022AD
:102050001CF0010F18BF012201D0104670475BB180
:10206000D1E9023C43EA0C03D0F80CC02CF0047C0C
:1020700043EA0C03C36007E0C368D1F80CC023F047
:10208000047343EA0C03C360D1E900310B43C16C14
:102090006FF308011943C164DFE78368002213F07E
:1020A000010F18BF012201D010467047D1E9003C52
:1020B00043EA0C038968D0F80CC02CF0180C2CF4FF
:1020C000404C41EA0C011943C160EDE730B44B6864
:1020D000D0F808C000221CF0010F18BF012202D066
:1020E00030BC10467047002BDFF848C00B680ED09C
:1020F0008C682343D1E903452C4323434C69234394
:10210000C46804EA0C0C43EA0C03C3600BE0CC681F
:102110002343D1E904452C432343C46804EA0C0C4F
:1021200043EA0C03C3604968036B23F00F031943B0
:102130000163D5E71CC0F0FF10B403680022DB0F79
:1021400018BF012202D010BC10467047D1E9003CF4
:1021500043EA0C03D1E902C44CEA040C096943EADE
:102160000C0319430368DFF80CC003EA0C0319439E
:102170000160E8E70F7E00FF70B4002401F0100357
:102180000125D2F808C006689D40B54308BF012468
:102190005BD0BCF1000F39D0BCF1C00F10D001688A
:1021A00040F6FC759D40A943156845EA0C0CD568BE
:1021B0004CEA050C0CFA03FC41EA0C01016033E027
:1021C00005684FF0C00C0CFA03FC25EA0C0545EA43
:1021D0000C0CC0F800C0D0F860C040F60F759D40F0
:1021E0002CEA050C15685668AD08B60845EA0625C0
:1021F0009D404CEA050CC0F860C0C1F3C01100EB73
:102200008101D2F80CC0C1F858C00DE001684FF050
:10221000FC0C0CFA03FC21EA0C01D2F800C00CFA09
:1022200003FC41EA0C010160C16B4FF0070C0CFA92
:1022300003FC21EA0C01D2E904C592694CEA050CC1
:102240004CEA02029A401143C163204670BC7047B9
:1022500070B4684A067A684B0025141F0168A3F120
:10226000040C002E74D0A1B1467A76B3012E36D07C
:10227000022E18BF01253BD0847A54B15F490A1F52
:10228000012C3DD0022C45D0032C18BF45F002058F
:102290004AD04168002971D0427A002A4DD0012AE3
:1022A00057D0022A18BF45F004055DD0837A002B71
:1022B00064D053490A1F012B61D0022B6AD0032B33
:1022C00018BF45F0050571D090E0FFE7166826EAD3
:1022D000010111600168226811432160CCE7266882
:1022E00026EA010121600168146821431160C3E7F7
:1022F0002668314321600168146821431160BBE7FF
:1023000004680E6826EA04040C600168146821431E
:102310001160BEE70468166826EA040414600268C7
:102320000C6822430A60B4E70468166834431460FA
:1023300002680C6822430A60ABE71A6822EA0101CE
:1023400019604168DCF800201143CCF80010ADE7BB
:1023500037E0DCF8002022EA0101CCF800104168E7
:102360001A6811431960A1E7DCF800201143CCF88A
:10237000001041681A681143196097E736E0436816
:10238000D1F800C02CEA03030B60406811680843D1
:1023900010602BE04368D2F800C02CEA03031360FE
:1023A00040680A681043086020E0FFE74368D2F8FD
:1023B00000C04CEA0303136040680A6810430860D9
:1023C00014E0266826EA010121600168146824EA05
:1023D000010111604168DCF8002022EA0101CCF81B
:1023E00000104068196821EA00001860284670BC97
:1023F0007047000004040140240401400C04014023
:102400002C0401402DE9F0030A6892FAA2F3B3FA12
:1024100083F3DA407ED001250F244FF0030C00BF78
:102420000E6805FA03F2324075D04E68012E18BFCF
:10243000022E22D18F68D0F8088092FAA2F6B6FA5E
:1024400086F64FEA46060CFA06F628EA060692FADF
:10245000A2F8B8FA88F84FEA480807FA08F746EAF7
:1024600007068660CF680E68D0F8048028EA060860
:1024700006FB07F648EA060646600E69D0F80C80AF
:1024800092FAA2F7B7FA87F74FEA47070CFA07F76D
:1024900028EA070792FAA2F8B8FA88F84FEA48083B
:1024A00006FA08F647EA0606C6604E68022E34D1E0
:1024B000B2F5807F16D24E69076A92FAA2F8B8FA8E
:1024C00088F84FEA880804FA08F827EA080792FA19
:1024D000A2F8B8FA88F84FEA880806FA08F63E43E8
:1024E00006621AE04F69D0F82480160A96FAA6F917
:1024F000B9FA89F94FEA890904FA09F996FAA6F6B0
:10250000B6FA86F6B60028EA090807FA06F648EA97
:10251000060601E01BE015E046624F68D0F8008037
:1025200092FAA2F6B6FA86F676000CFA06F692FA57
:10253000A2F2B2FA82F2520028EA060607FA02F282
:10254000324302600A685B1CDA407FF469AFBDE881
:10255000F00300207047026822F001020260D1E916
:102560000232D0F800C043EA02222CF4F85C4CEAB4
:10257000020202604A680261026842F001020260DF
:10258000826822F4004282600B698A69D0F808C030
:102590001A436FF30A0C4CEA020282600A691AB10C
:1025A000826842F4004282600A68036823F44013A0
:1025B0001A4302604969426822F4004211434160B3
:1025C000002070474FF47A71B0FBF1F0411E4FF0DC
:1025D000E020416100218161052101617047000017
:1025E000014610B50020C02918BF10BD1A4CD4F800
:1025F000881001F0C00141F440014039B1F54001BB
:1026000017D0402919D080291ED001F04DF8A168BB
:10261000124A01F0F0010909515C01F01F01C840A4
:10262000A1680F4AC1F30221515C01F01F01C840AB
:1026300010BDBDE8104001F037B82168C1F380211A
:10264000002918BF074810BDD4F8901011F0020FF0
:1026500018BF4FF4004010BD00100240445D000858
:10266000545D00080024F40070B50246002044497F
:10267000444D454E454C032A13D00C2A43D0302AF2
:1026800018BF70BDD4F8882002F0300242F4401226
:10269000103AB2F5401262D0102A64D0202A68D0D5
:1026A0003FE0D4F888206FF4403302F0030242F494
:1026B0004032D21853D0012A13D0022A19D000F088
:1026C000F3FFA16801F0F0010909695C01F01F0145
:1026D000C840A168C1F3C221715C01F01F01C8406C
:1026E00070BD2268C2F38022002A08BF70BD084670
:1026F00070BDD4F8901011F0020F08BF70BD00BF7C
:102700004FF4004070BDD4F8882002F00C0242F46F
:102710004022121FB2F5402221D0042A13D0082AE9
:1027200017D000F0C1FFA16801F0F0010909695C50
:1027300001F01F01C840A168C1F30221715C01F0E2
:102740001F01C84070BD2268C2F38022002ACED18A
:1027500070BDD4F8901011F0020FD1D170BDBDE85A
:10276000704000F0A1BF2268C2F38022002ABED1CF
:1027700070BDD4F8901011F0020FC1D170BD0000EF
:102780000024F400445D0008545D0008001002407D
:102790000368012213F0400F31D1D1E900231A431D
:1027A000D1E9033C43EA0C031A434B691A438B6992
:1027B0001A43CB691A430B6A1A43036823F0BF0319
:1027C00023F47F431A43026042684B6922F441724A
:1027D00022F4406242EA13428B681A4342608A68DC
:1027E000B2F5006F03D2426842F4805242600A6A36
:1027F000B2F5005F02D1898C89B201610022C16902
:1028000021F40061C1611046704700000149086071
:1028100070470000040000200A7B8B681A434B6855
:1028200022F480621A430B6822F400621A43CB89B7
:1028300022F480521A430B6922F400521A43CB6AE5
:1028400022F480421A434B6922F470221A438B69A6
:1028500022F080521A43A0F18043B3F596331CBF97
:10286000A0F18043B3F59A330FD14B6A22F4700282
:102870001A43CB6922F080721A430B6A22F000726D
:102880001A43896A22F000520A43426400207047CA
:102890002DE9F0010268234B234CDFF89080DFF82C
:1028A00090C0984218BFB0F1804F04D0A0421CBF26
:1028B0004045604504D14D6822F0700242EA0502AD
:1028C0001C4D1D4E1D4F984218BFB0F1804F0BD0CC
:1028D000A04218BF404507D0604518BFA84203D0AA
:1028E000B04218BFB84204D1CC6822F4407242EA28
:1028F000040202608A68C2620A888262984218BF33
:10290000604504D0A8421CBFB042B84201D1096959
:102910000163416941F001014161BDE8F0014FF0FF
:1029200000007047002C01400004004000080040F7
:102930000034014000400140004401400048014093
:102940002DE9F0070023DFF838C3CE4CCE4DCF4E33
:10295000CF4F4FF00108B1F5805F00F0E08008DC58
:10296000012910D0102952D0B1F5807F7ED000F01F
:1029700083B9B1F5803F00F01781B1F5801F00F0F9
:10298000488100F079B9016A21F001010162016A10
:10299000D0F80480D0F81890D2F800A029F073097C
:1029A00029F4803949EA0A09D2F810A021F002017D
:1029B00041EA0A01D2F804A021F0010141EA0A012A
:1029C000604518BFA04204D0A8421CBFB042B84224
:1029D00015D1D2F814C021F0080141EA8C01D2F8D7
:1029E00008C021F0040141EA8C01946928F4807C3C
:1029F0004CEA040CD4692CF4007C4CEA4408C0F87E
:102A00000480C0F81890D268426300F033B9016ABC
:102A100021F010010162D0F820804168D0F81890B0
:102A2000D2F800A029F4E64929F0807949EA0A2978
:102A3000D2F810A028F0200848EA0A18D2F804A01A
:102A400028F0100848EA0A18604518BFA04204D0D0
:102A5000A8421CBFB042B84217D1546928F0800C7C
:102A60004CEA841C2CF0400C946800E013E04CEA23
:102A70008418D2F818C021F4806141EA8C01D2F8A0
:102A80001CC021F4006141EACC014160C0F81890FB
:102A9000D168816340E0016A21F480710162D0F85D
:102AA00020804168D0F81C90D2F800A029F073096A
:102AB00029F4803949EA0A09D2F810A028F40078EC
:102AC00048EA0A28D2F804A028F4807848EA0A28BC
:102AD000604518BFA04204D0A8421CBFB042B84213
:102AE00015D1546928F4006C4CEA842C94682CF4B9
:102AF000806C4CEA8428D2F818C021F4805141EA55
:102B00000C11D2F81CC021F4005141EA4C11416073
:102B1000C0F81C90D168C163C0F82080ABE0016AA6
:102B200021F480510162D0F820804168D0F81C90D7
:102B3000D2F800A029F4E64929F0807949EA0A2967
:102B4000D2F810A028F4005848EA0A38D2F804A0B5
:102B500028F4805848EA0A38604518BFA04204D0DB
:102B6000A8421CBFB042B84215D1546928F4004CA9
:102B70004CEA843C94682CF4804C4CEA8438D2F8BB
:102B800018C021F4804141EA8C11D2F81CC021F414
:102B9000004141EACC114160C0F81C90D168016449
:102BA000C0F82080984667E0016A21F48031016214
:102BB000D0F82080016DD2F8009021F0700121F44E
:102BC000803141EA0901B2F8109028F4003848EA4F
:102BD0000948B2F8049028F4803848EA094860456A
:102BE00018BFA04204D0A8421CBFB042B84208D1CE
:102BF000D0F804C094692CF4803C4CEA042CC0F852
:102C000004C00165D168826C8164C0F82080984658
:102C100032E0016A21F480110162016AD0F850802B
:102C2000D2F8009028F4E04828F0807848EA092893
:102C3000B2F8109021F4001141EA0951B2F8049061
:102C400021F4801141EA0951604518BFA04204D027
:102C5000A8421CBFB042B84208D1D0F804C0946961
:102C60002CF4802C4CEA842CC0F804C0C0F85080AE
:102C7000D268C264016298464046BDE8F0077047DA
:102C8000002C01400034014000400140004401405C
:102C900000480140012908BF002124D0042908BFB1
:102CA000012120D0102908BF02211CD0402908BFD3
:102CB000032118D0B1F5807F08BF042113D0B1F5EE
:102CC000806F08BF05210ED0B1F5805F08BF0621D7
:102CD00009D0B1F5804F08BF072104D0B1F5803F7E
:102CE0000CBF08210921084B18305B5C1844D0F850
:102CF00000C0064B595C064B8B402CEA030302FADA
:102D000001F1194301607047685D0008725D0008B9
:102D10007300010070B5044600680D46012610F0EE
:102D2000010F5CD12969A868EA6908436969114300
:102D300008432168314A114008432060E86861680F
:102D400021F4405108436060A869A16821F44071F2
:102D50000843A060A4F18040B0F59C3013D0A4F1EA
:102D60008040B0F5884008BF0C2010D0A4F180400E
:102D7000B0F5904008BF302009D0A4F18040B0F5F4
:102D8000984007D024E00320FFF76EFC05E0FFF732
:102D90006BFC02E0C020FFF723FC00281CBF696821
:102DA000002915D02A68EB694FF000060B2A0FD8CE
:102DB000DFF84CC0D2B2B3F5004F5CF82220B0FB74
:102DC000F2F00ED000EB5100B0FBF1F080B2E06009
:102DD0002888E16A80B221F00F010843E0623046A2
:102DE00070BD400000EB5100B0FBF1F080B24FF637
:102DF000F0710140C0F342000843E8E7F369FFEFD8
:102E0000145D00082DE9F041A04D04462DED048B22
:102E1000D5ED008ADFED9E0A95ED011A68EEA00A55
:102E2000DFED9C1A41EE610A9FED9B1AD5ED021A67
:102E3000C5ED018A40EE010A41EEC10AC5ED000A66
:102E400085ED020A90ED020AD0ED000A9FED938A0B
:102E50009348944F60EE880A0068DFF84C8290ED4A
:102E6000061A00EE810A84ED020A94ED020A10EEC1
:102E7000100A94ED020AB842C8BF30EE480A08DCD6
:102E800010EE100A404584BF94ED020A30EE080AA5
:102E900001D984ED020A94ED020AD4ED040A30EE61
:102EA000200A10EE100AB842C8BF30EE480A05DC0E
:102EB00010EE100A404588BF30EE080AFDF748FCC6
:102EC00094ED031A794821EE001A94ED030A84ED7B
:102ED000051A20EE200A61EE280A84ED060A20EE8B
:102EE000280AC4ED070A84ED080A90ED000ADFED18
:102EF000700A00F1080120EE200AD1ED001A9FEDC2
:102F00006D1A00F1100201EEC10A92ED002ADFED08
:102F10006A1AD4ED072A02EE210A9FED682AA0F171
:102F2000080300F11806B7EE009A02EE820A83ED5C
:102F3000000AD4ED072AC2ED002A80ED000A81EDD7
:102F4000000AD0ED012A62EEA00AD1ED012A42EE7C
:102F5000C10A92ED011A41EE210A94ED081A41EEE0
:102F6000020AC3ED010A94ED081A82ED011AC0EDC0
:102F7000010AC1ED010A84ED090AC4ED0A0AD6ED81
:102F8000000A94ED090A94ED091A40EE010AC6ED13
:102F9000000A96ED010A94ED0A1AD4ED0A1A01EE20
:102FA000210A86ED010A95ED030A30EE091A80EE3A
:102FB000810AFEF72FFBF0EE408A95ED030AD6ED6D
:102FC000010A30EE091A80EE810AFEF723FBD5EDE7
:102FD000030A70EE890AC5ED030AC4ED0B8A84ED7D
:102FE0000C0A94ED0B0AD4ED0B0A94ED0C1A20EEAA
:102FF000200AD4ED0C0A00EE810AFEF70BFBF0EE7E
:10300000000A60EE208AD4ED0B0A94ED0C0A00F061
:1030100023FFD4ED010A9FED2A1A2B4960EE810AA5
:1030200080EEA81ADFED270A61EE208A18EE900ADA
:103030008842C8BFDFED258AB1EE400A10EE100AC3
:10304000B842C8BF30EE480A05DC10EE100A404511
:1030500088BF30EE080AFDF77BFB60EEA80A20EE81
:10306000280A9FED1B1AC4ED0F0AFEEE000A60EE5F
:10307000200A80EE810AD4ED000A80EE201A84ED49
:10308000101ABDEC048BBDE8F08100004000002068
:10309000AC1CFA3FF016783F24B9FC3CDB0FC9406A
:1030A00078000020DB0F4940DB0F49C058000020AA
:1030B000355EFA3F2FDD743FA9E8FE39B72FFB39A3
:1030C000AAF1A23F2368D03F000020410000000089
:1030D000DB0F49402DE9F04FA1B000241C941F9450
:1030E0000A9406940794089409940F940B940C94F2
:1030F0000D940E94149410941194129413941994A2
:10310000AB4D15941694179418940094019402945E
:10311000039404940594286E40F400602866286E99
:10312000A44E00F400601A9040201D9042F233102B
:103130001E9001202090ADF870401CA93046FFF78A
:10314000A7FB306820F080003060B06820F00700F6
:1031500020F4A030B060DFF860B298489BF800100F
:103160000F1838680BF10A094FF0080A99F8001097
:103170000AFA01F1084338607020CDE9060408948A
:1031800009940A940B940C9406AA012130460D94DC
:10319000FFF7D6FB386899F800104FF0040808FADA
:1031A00001F1884338609BF8021084480F18386892
:1031B00099F802100AFA01F10843386006AA1021B2
:1031C0003046FFF7BDFB386899F8021008FA01F1A4
:1031D000884338609BF8041078480F18386899F8CD
:1031E00004100AFA01F10843386006AAA91530460E
:1031F000FFF7A6FB386899F8041008FA01F1884334
:103200003860706820F0700020F0007040F02000FE
:103210007060706820F470007060B06820F080000A
:10322000B0606749086898FAA8F2B2FA82F202F030
:103230001F024F1507FA02F2904398FAA8F2B2FA69
:1032400082F202F01F0204FA02F2104308600868DA
:1032500040F00400086008689AFAAAF2B2FA82F212
:1032600002F01F0207FA02F290439AFAAAF2B2FAA7
:1032700082F202F01F0204FA02F2104308600868AA
:1032800040F0080008600A68102090FAA0F3B3FA32
:1032900083F390FAA0F003F01F03B0FA80F007FA6E
:1032A00003F300F01F009A4304FA00F01043086093
:1032B000086840F01000086088148DF84440ADF8AC
:1032C00046004FF400590E940F9410948001CDF8ED
:1032D0004890CDE91304C001CDE915401794189426
:1032E0000EA930461994FFF797FAE86C40F00400F5
:1032F000E864E86C00F004001A90E86C40F002000A
:10330000E864E86C00F002001A90E86C40F00100FC
:10331000E864E86C022500F001001A90CDF80090F6
:10332000CDE90154274ECDE904486946304603945F
:10333000FFF768F801200090CDE901546946304656
:103340000394CDE90445FFF75DF8CDF80080CDE9A1
:103350000154694630460394CDE90445FFF752F81D
:1033600068030090CDE901540626DFF85C80CDE9C2
:103370000446694640460394FFF744F80097CDE9B8
:103380000154CDE9044669464FF090400394FFF79D
:1033900039F80097CDE901540C20CDE90440694685
:1033A00003944046FFF72EF821B0BDE8F08F0000EF
:1033B00000100240002C0140EC5C0008182C014079
:1033C000602C0140000800480004004810B49FED44
:1033D000170A03293CBF10BC70474FF0000C4C1E6D
:1033E000002C1BDDA1EB0C035A1E002AC4BF0246B1
:1033F0005B1E0FDD92ED000AD2ED010AB4EEE00A89
:10340000F1EE10FAC4BFC2ED000A82ED010A121DEE
:103410005B1EEFD10CF1010C6445E3DC490800EBC5
:10342000810090ED000A10BC704700000000000011
:10343000FEE7FEE710B553480C462DED0C8B0E99B8
:10344000006894ED031A91ED009A90ED040AD1ED15
:10345000018AD0ED060A69EE001A28EE802A94ED62
:10346000040AD4ED002A31EE613A30EE421A90EDB2
:10347000038A454823EE030A23EE223A006893EDBF
:1034800000CA01EE010A21EE221AD0ED069AD3ED10
:1034900001BA10EEA00A23EE00AA61EE00AA94ED94
:1034A000030A94ED041A30EE610A31EE421AC0EEBE
:1034B000201A81EE200AC4ED061A84ED050AD4ED27
:1034C00006CA94ED05DA90ED06BA94ED0D0AFDF703
:1034D0003FF960EE8D0A2D494CEEC00AC4ED070A93
:1034E00094ED0C0A00EE8B0A84ED0C0A94ED0C0AA4
:1034F00094ED091A20EE010A94ED081A01EE200A53
:1035000084ED0A0A94ED0D0AD4ED0A0A00EE8B0A46
:1035100084ED0D0A94ED0D0A10EE100A94ED0D0ADB
:10352000884220DDDFED1A0A30EE200A84ED0D0A14
:1035300009EE48AA94ED0D0A48EEC8AA84ED0B0ADC
:1035400094ED030A7AEE0C0A00EEA90A7AEEAB0AB1
:1035500084ED030A94ED040A00EEA90A84ED040A3E
:10356000BDEC0C8B10BD10EE100A0A4994ED0D0A4B
:10357000884284BFDFED080A30EE200A84ED0D0A90
:10358000D6E70000A400002078000020DB0F4940AF
:10359000DB0FC9C0DB0F49C0DB0FC940704700001B
:1035A00070B5FEF719FC3C4C3C49206880ED070AD9
:1035B000C0ED080A09680A7A042A07D00A7A022AA2
:1035C00004BF91F82020002A45D060E090ED070A62
:1035D000D0ED050A30EE600A80ED070A90ED080A8A
:1035E000D0ED060A30EE600A80ED080A087C082853
:1035F00019D2DFE800F00418070A0D101316FDF7C2
:103600008FFC10E0FDF75EFF0DE0FDF77BFD0AE0AB
:10361000FDF72CFE07E0FDF7F5F904E0FDF72EFBC2
:1036200001E0FDF76FF920681D4D011D2868083085
:10363000FDF72DF9286880ED040AC0ED050A216820
:1036400091ED030A00F0B8F92868828C418C008C57
:10365000FEF762FB1BE04A68531C4B60642A11D0E2
:1036600090ED070A4A680F4B03EB820282ED000AD5
:1036700090ED080A486803F5C87101EB800080ED01
:10368000000A04E000204860012081F82000BDE825
:103690007040FEF7EBB90000AC000020780000207D
:1036A000A0000020B80100201549886800F00C0334
:1036B0001448042B08BF7047134A082B04BF104658
:1036C00070470C2B18BF7047CB6803F00303022B25
:1036D00002D0032B08BF1046CA68C2F30622424339
:1036E000C868012300F0F00003EB1010B2FBF0F00B
:1036F000C968C1F34161491C4900B0FBF1F0704752
:10370000001002400024F40000127A0000F040BBD8
:103710002DE9F0411546294A00EB400002EBC000BC
:1037200000F11804C06A20B101281CD002283BD047
:1037300040E02069E668B04284BF3246801A02D871
:10374000A3689A1B1044401EA84233D3A068884641
:10375000871BBD421AD260682A463044FCF743FEFC
:103760007019E06027E02069E668B04284BF324605
:10377000801A02D8A3689A1B1044401EA84238BF82
:1037800005468846A068871BAF42E4D860683A4681
:103790003044FCF728FEEE1B08EB07013246606858
:1037A000FCF721FEE66006E02A46204600F028FBF2
:1037B000054600E000252846BDE8F081AC07002062
:1037C000704700002DE9F05F714C2DED028B2068F1
:1037D00090F90810DFF8BC81DFF8BC9100256F4F2D
:1037E0006F4E491C4FF0020A052977D2DFE801F03D
:1037F000030A3B586E00FEF7C3FA02F057F8206840
:1038000005726BE0FEF7BAF8D7E90201B0EE408A24
:103810000A220023FCF770FD08EB82000A2180EDEC
:10382000008A5C48FFF7D2FD306880ED030A90ED16
:10383000030A10EE101A494512DD90ED030A5949AA
:1038400010EE100A81420BDD21680868421C0A60F4
:10385000322843D9FEF768F820680560012133E07B
:10386000206805603AE001684A1C0260322904D9E8
:103870004560056080F808A030E001682D2909D96D
:1038800049480068C06902461146FEF745FAFEF74E
:1038900051FA23E00068232888BFFEF735F91DE0C0
:1038A00090F82000D0B164214048FFF78FFD3068C8
:1038B000642180ED050A3E48FFF788FD306880ED01
:1038C000060A206805600321017207E0FEF7B2F8DE
:1038D00020B1FEF72FFA2168042008722068007AD0
:1038E000042848D1FEF7A6F84FF0FF3B002804BF9C
:1038F000206880F808B0FEF741F8D7E90201B0EE81
:10390000408A0A220023FCF7F7FC08EB82000A2118
:1039100080ED008A1F48FFF759FD306880ED030AEB
:1039200090ED030A10EE101A49450CDA2168086878
:10393000421C0A608C281ED9FEF722FA2068056016
:1039400080F809A015E090ED030A1A4910EE100A5C
:103950008842DCBF206805600DDD21680868421CD4
:103960000A608C2807D9FEF70BFA20680560012150
:10397000417280F808B0D7E90201401C41F1000112
:10398000C7E90201BDEC028BBDE8F05FFEF7E0B8CD
:1039900078000020D8040020CDCCF4413000002075
:1039A000AC00002099992542A0000020B801002019
:1039B00048030020676666428749D0ED042AD0EDAF
:1039C000051A096891ED062A0021DFED840AB6EE9A
:1039D000003A62EEA00AB0EE601A01EEC31AB0EE31
:1039E000414ADFED7F3A62EEA33AF0EE634A41EEE0
:1039F000C34ADFED7C2AF5EEC01A012222EE225ADC
:103A0000C5EE002AF1EE10FAC8BF0121B5EEC01ACA
:103A1000F1EE10FAC8BF891CF5EEC04AF1EE10FABB
:103A2000C8BF091DB5EE001A07297AD2DFE801F0F8
:103A300096041E3449617A00022180F8261041EE76
:103A4000833A41EE830A23EEA20A60EEA21A72EED6
:103A5000402A32EE000A72EEA10A30EE210A72EE1E
:103A6000E11A60EE810A20EE010A74E0062180F876
:103A7000261041EE830A62EEE11A20EEA20A72EEEF
:103A8000000A32EE402A70EEA10A32EE610A60EEC0
:103A9000810A20EE010A29E080F8262024EE220A7D
:103AA00062EEA11A72EE000A32EE402A70EEA10A0E
:103AB00032EE210A72EE611A60EE810A20EE010AEE
:103AC00049E0042180F8261041EE833A22EEE14AD3
:103AD00032EE440A63EEA21A32EE042A70EE610A54
:103AE00030EE210A60EE810A20EE010A72EE211A00
:103AF00031E0032180F8261041EE830A22EEA10A6C
:103B000062EEE01A72EE402A32EE000A72EEE10A2C
:103B100030EE210A72EEA11A60EE810A20EE010A4F
:103B200019E01BE0052180F8261041EE830A41EEE2
:103B3000833A22EEE04A62EEE31A32EE440A32EEB3
:103B4000042A70EE210A30EE610A72EE211A60EE4C
:103B5000810A20EE010A21EE811A05E022EE010A17
:103B6000F0EE400AB0EE401AD0ED061A61EEA00A5F
:103B7000FDEEE00A10EE903AD0ED060A002B20EEA2
:103B8000800ABDEEC00A10EE102A90ED060A20EE63
:103B9000010ABDEEC00A10EE101AB8BF002304DB04
:103BA000D0F81CC09C4538BFC369002AB8BF0022AA
:103BB00004DBD0F81CC0944538BFC2690029B8BFE7
:103BC000002104DBD0F81CC08C4538BFC1690384D8
:103BD000428481847047000078000020D7B35D3FA5
:103BE000D7B35DBFD7B3DD3F2149D0ED000A214AED
:103BF000096870EEC00A90ED030A91ED051A00EE17
:103C0000810A80ED030A90ED030A10EE101A91422A
:103C1000C4BF9FED190A80ED030A0CDC90ED030A86
:103C2000164A10EE101A914234BF90ED030A9FED30
:103C3000140A80ED030A90ED030A9FED121A134A4D
:103C400020EE010A9FED101A00EE810A10EE101A04
:103C50009142C8BFB1EE0C0A04DC10EE101A0C4AF7
:103C6000914202D880ED040A7047B9EE0C0AF9E7D8
:103C70007800002000008C4200008C4200008CC2C2
:103C800000008CC2CDCCCC3D0AD7233C0000E040E4
:103C90000000E0C0FFF796BD314810B5016821F083
:103CA0000F0141F004010160016801F00F010429D6
:103CB000FAD12C4850F8801F21F4807101602A4805
:103CC000016841F4803101600168C1F3404100297D
:103CD000FAD0C26845F21351244B1A401143C16017
:103CE000C16841F08071C160016841F0807101607C
:103CF0000168C1F340610029FAD0816841F00301F5
:103D00008160816821F0F00141F08001816081686B
:103D100001F00C010C29FAD115490A6842F08072B1
:103D20000A6014490A6842F001020A6000224A60EF
:103D30004A68642AFCD3816821F0F00181608168BF
:103D400021F4E0618160816821F4605181600A4C56
:103D50002046FEF737FC2046BDE81040FEF756BD72
:103D60000020024000700040001002400C80FFF96B
:103D7000FCED00E0001000E080FE210A024801682E
:103D800041F470010160704788ED00E0FEE700003B
:103D900010B5164CA8212046FCF76AFB03202061D1
:103DA000606113A0A06104F1A800E0614FF480609D
:103DB00020620020A0626062E0620DA1216604F52D
:103DC000956161661021A1662067E06660670B4916
:103DD000C0F10F028A5C2254C0F10E0223188A5CE3
:103DE0005A70801C1028F3D310BD0000AC070020CF
:103DF0005465726D696E616C0000000078610008A6
:103E00002DE9F047C4681746894606464FF000087A
:103E10003069A0428FBF001BB168201A081A451EE6
:103E2000B068001BA84298BF0546BD4228BF3D466A
:103E300070682A4620444946FCF7D5FAB0687F1BD3
:103E40002C44A844A944A04208BF0024F460002FD9
:103E5000DED14046BDE8F0879FED3F1AB5EEC00ABF
:103E6000F1EE10FA04BFF5EEC00AF1EE10FA65D0DB
:103E7000B5EEC00A0021F1EE10FA64D2F5EEC00AE8
:103E8000F1EE10FA2CBF04220322F5EEC00AF1EE87
:103E900010FAD8BFF1EE600AB5EEC00AF1EE10FAE2
:103EA000D8BFB1EE400AB4EEE00AF1EE10FAD8BF86
:103EB000F0EE601A04DDF0EE401AB0EE600A012167
:103EC00080EE212A9FED260ADFED242AF7EE000A74
:103ED00062EE001AF4EEC01AF1EE10FA28BFFD20CF
:103EE0000BD2FCEEE10A10EE900AF8EE600A00EE4A
:103EF000A21A72EE410A60EE800A1A4B002903EB07
:103F0000800090ED001A90ED010A30EE410A00EEBB
:103F1000201A1CBFB5EE000A30EE411AB6EE000AB8
:103F2000022A08BF30EE411A08D0032A08BF31EE3A
:103F3000401A03D0042A08BFB1EE411A9FED0A0AC5
:103F400021EE000A7047F5EEC00AF1EE10FA34BF18
:103F50000222012299E70000000000000402813BD8
:103F600000007E437C5D0008DB0FC940FE4F9CB023
:103F7000386E40F001003866386E00F001000090A5
:103F8000B86D40F08050B865B86DDFF8E08300F0A0
:103F900080500090D8F800004FF6FF01084040F430
:103FA000407040F0FD7040F08060C8F80000D8F824
:103FB0000000C0F30220C0F10701042988BF0421DA
:103FC000021D072A34BF0020C01E4FF0010B0BFA60
:103FD00001F1491E01F0060101FA00F0E449002454
:103FE000000181F8140DE348016B21F00101016328
:103FF000016B41F002010163DF48816841F48041B7
:104000008160FFF749FEB86C40F00400B864B86CFA
:1040100000F004000090B86C40F00200B864B86C86
:1040200000F002000090B86C40F00100B864B86C79
:1040300000F001000090D8F80000C0F30220011D3C
:10404000072934BF0020C01E04FA00F0CB4900014C
:1040500081F800044FF0E0254FF40066C5F80061D8
:10406000D8F80000C0F30220011D072934BF00204A
:10407000C01E04FA00F0C249000181F800044FF4A8
:104080008050C5F80001D8F80000C0F30220011DDF
:10409000072934BF0020C01E04FA00F0B94900010E
:1040A00081F80004B8494FF08070C1F80001D8F8D9
:1040B0000000C0F30220021D072A34BF0020C01EEA
:1040C00004FA00F0B14A000182F800044FF00070D9
:1040D000C1F8000106940794089401940294039493
:1040E00004940594F86C40F00400F864F86C00F057
:1040F00004000990F86C40F02000F864F86C00F0BF
:1041000020000990F86C40F00100F864F86C00F0B1
:1041100001000990F86C40F00200F864F86C9C49CA
:1041200000F0020009904FF48060886240008862CD
:104130000820009069469648FEF764F94FF48060C5
:104140000090CDE901B40394694691480494FEF7C8
:1041500059F94FF400600090CDE901B40394694629
:104160008B480494FEF74EF98A4880684FF47061DA
:1041700091FAA1F1B1FA81F101F01F0120F4706010
:104180000BFA01F108438349886040208DF820B084
:1041900006908DF821408DF822B006A8FEF758F859
:1041A0007D48C168402292FAA2F2B2FA82F252002D
:1041B0004FF0030A0AFA02F29143402292FAA2F265
:1041C000B2FA82F2520004FA02F21143C1600168AD
:1041D000402292FAA2F2B2FA82F252000AFA02F2F3
:1041E0009143402292FAA2F2B2FA82F2520004FA09
:1041F00002F211430160D8F80000C0F30220C0F1C0
:104200000701042988BF0421021D072A34BF0020AA
:10421000C01E0BFA01F1491E01F0040101FA00F081
:104220005E49000181F800044FF40000C5F8000168
:1042300016941494159407940894099406940A9477
:104240001194129413940B940C940D940E940F9457
:1042500010940294039404940594D7F8880042497A
:1042600020F0405040F000500226C1F88800C86C91
:1042700040F40050C864C86C00F400501790C86C3B
:1042800040F00100C864C86CCDE900BA00F001003C
:10429000179069464FF09040FEF7B4F80420CDE93E
:1042A000000A694604944FF09040FEF7ABF82F489F
:1042B0000068C0F30220C0F10701042988BF04216F
:1042C000021D072A34BF0020C01E0BFA01F1491E4F
:1042D00001F0050101FA00F03149000181F8000404
:1042E0004FF48020C5F800014FF40048CDE9144890
:1042F00014A94FF0A0401694FDF7CFFECDE9064B70
:10430000089409940A9406A94FF0A0400B94FDF775
:10431000DDFE4FF0A040D0F8C0004FF0A0416FF399
:104320000D00C1F8C000086920F4803008610869F8
:1043300020F0030020F4806008614FF44030CDE9A4
:10434000100410A91748FDF755FE4FF08009CDE97C
:104350000C940E940CA94FF0A0400F94FDF774FE3E
:104360004FF0A040C0681FE0001002400CED00E0DC
:104370000FE000E000000140007000400BE000E0B2
:104380000CE000E038E000E004E000E039E000E0AC
:1043900000080048040001400004004817E000E065
:1043A00012E000E00003005020F4001020F0004074
:1043B0004FF0A04140F00040C860C86C20F4C070CD
:1043C00040F08000C864886820F03F0020F0204062
:1043D0008860886820F03F0020F0004040F0805066
:1043E0008860FE480168FE48B1FBF0F000EB8000F9
:1043F0008100FC48A0FB0110C00803D0B0F1004FC1
:1044000081F02482F84A4FF0A041106820F4F8604F
:1044100040F0C0001060F548036823F4606343F483
:104420000073036051F8B03F23F0080341F864398A
:104430000B6823F4785343F400730B60036823F094
:10444000380343F008030360486E20F0020048661A
:10445000106820F4F83040F490301060E4480268AE
:1044600022F0E06242F000720260486E20F4802088
:104470004866E0488068DF4920F0E07040F4800042
:1044800088600194029400940E94109411941294F4
:104490000F9413940B940C940D940A94069407941F
:1044A00008940994D7F8880020F0405040F000505C
:1044B000C7F88800F86C40F40050F864F86C00F419
:1044C00000500390F86C40F00100F864F86CCDF8EF
:1044D00014A000F00100CDE9030604A94FF09040BC
:1044E000FDF790FFC4480068C0F30220C0F1070147
:1044F000042988BF0421021D072A34BF0020C01EE2
:10450000012202FA01F1491E01F0050101FA00F051
:10451000BA49000181F800044FF0E0219004C1F88D
:104520000001CDE90048B64D694628460294FDF7E2
:10453000B4FD0F941094119412940EA9284613946C
:10454000FDF7C4FDD5F8C0006FF30D00C5F8C0003D
:10455000286920F480302861286920F0030020F4C5
:1045600080602861CDE90A940C940AA928460D942C
:10457000FDF76AFDE86820F4001020F0004040F0EC
:104580000040E860E86C20F4C07040F08000E8640F
:10459000A86820F03F0020F02040A860A86820F024
:1045A0003F0020F0004040F08050A860DFF82C82EF
:1045B0008B48D8F80010B1FBF0F000EB80008100D0
:1045C0008848A0FB0110C00803D0B0F1004F81F073
:1045D00041818B4850F84C1F21F4785141F480619F
:1045E000016088490A6822F4E07242F040020A60E1
:1045F000416E21F0040141660B940C940D940E94CD
:104600000A940694079408940994F86C40F0020008
:10461000F864F86C00F002000090F86C40F00100C3
:10462000F864F86C04A900F001000090CDE9046A78
:104630007548FDF7E7FE4FF400600490CDE905648E
:10464000082504A94FF090400794CDE90845FDF7EF
:10465000D9FE4FF4807B5020CDE90AB04FF4E02022
:10466000CDE90C040AA969480E94FDF765FD684878
:10467000D8F80010B1FBF0F1C82048430290019037
:1046800019D0B0F1004F81F0C9800028D8BF0020B8
:1046900005DD10F0010002D00299491E0291019936
:1046A000401C491C884206DA029A801C521E521E87
:1046B00002928842F8DB5748016821F4001101603A
:1046C000001F016821F40011016009940A940B9401
:1046D0000C9408940494059406940794F86C40F0A4
:1046E0000100F864F86C02A900F0010000900820B5
:1046F000CDE9020A4FF09040FDF784FE4020CDE95D
:1047000008B04FF4E020CDE90A0408A942480C940F
:10471000FDF712FD314801683D48B1FBF0F0C821BA
:1047200048430D90019019D0B0F1004F81F07C808A
:104730000028D8BF002005DD10F0010002D00D993F
:10474000491E0D910199401C491C884206DA0D9AB8
:10475000801C521E521E0D928842F8DBDFF8B48096
:10476000D8F8000020F48000C8F80000A8F1040583
:10477000286820F48000286009940A940B940C9413
:104780000D940494059406940794F96C41F0040187
:10479000F964F86CCDE9026A00F00400009002A907
:1047A0001E48FDF72FFE4020CDE90A04CDF824B0C5
:1047B0000C9409A91A480D94FDF7BEFC074801683E
:1047C0001348B1FBF0F0C8214843089001903ED057
:1047D000B0F1004F81F02E80002823E0040000207B
:1047E000400D0300CDCCCCCC300000501400005064
:1047F00018000050000300500CED00E012E000E053
:104800000001005014010050000400480002014063
:1048100080841E0004040140040201400008004896
:1048200008020140D8BF002005DD10F0010002D0D1
:104830000899491E08910199401C491C884206DAD2
:10484000089A801C521E521E08928842F8DBD8F843
:10485000000020F00050C8F80000FE48016821F078
:104860000051016009940A940B940C940D940494E3
:10487000059406940794F86C3D4640F00200F864F5
:10488000F86C012700F00200CDE9027A009002A93D
:10489000F148FDF7B7FD4020CDE909404FF4E02095
:1048A000CDE90B0409A9ED480D94FDF745FCEC4852
:1048B0000168EC48B1FBF0F1C82048430890019032
:1048C00019D0B0F1004F80F0BB870028D8BF00207E
:1048D00005DD10F0010002D00899491E08910199E8
:1048E000401C491C884206DA089A801C521E521E3F
:1048F00008928842F8DBD8F80000DB4920F08040BD
:104900000860081F0068091F20F0804008600194BB
:104910000094029403940694E86C40F48030E864B8
:10492000E86CDFF8488300F480300790D8F83C004A
:1049300020F40070C8F83C006A46CD494046CDE9F5
:104940000467FDF719FCD8F8000020F00200C8F851
:104950000000D8F83C0020F48070C8F83C000194B6
:104960000094029403940694E86C40F48020E86478
:10497000E86CDFF8008300F480200790D8F83C0052
:1049800020F40070C8F83C006A46B9494046CDE9B9
:104990000467FDF7F1FBD8F8000020F00200C8F82A
:1049A0000000D8F83C0020F48070C8F83C00B24900
:1049B000D8F83C0020F00070C8F83C006A46404639
:1049C000FDF7DAFBD8F8000020F40030C8F800004A
:1049D000D8F83C0020F08070C8F83C00A748069446
:1049E0000794089409940A940B940C94016821F498
:1049F00040510160E86C40F00200E864E86C6946F0
:104A000000F002000D900420CDE90470CDE902A76A
:104A1000CDE900969048FDF7F5FC0420CDE904703F
:104A2000CDE902A7CDE900B669468B48FDF7EAFC5F
:104A3000A86D40F40010A865A86D924900F400101C
:104A40000D908F48D1F800188E4A21F0FF0141F0F7
:104A50001001C2F800188C494A7882584B7822F02D
:104A6000100222F48042C2504A7882584B7842F4B5
:104A70004052C2504A7882584B7842F02002C250CD
:104A80004A7882584B7822F04002C2504A788258C5
:104A90004B7842F08002C2504A7882584B7822F418
:104AA0004072C2504A788258497822F4406242509B
:104AB0007648DFF8DC81CDE90640089409940A9431
:104AC0000B9406A940460C94FDF745FDD8F8040068
:104AD00040F00070C8F80400D8F80C006FF34A00EA
:104AE000C8F80C00D8F80C0020F40040C8F80C00FE
:104AF000D8F8000020F40020C8F80000D8F8000022
:104B000020F40030C8F800005C490694079408942B
:104B100009940A940B940C94086820F440300860BF
:104B2000E86C40F00400E864E86C00F004000D90CC
:104B3000E86C40F00100E864E86C00F001000D90C2
:104B40004815CDE900060820CDE90470CDE902A79B
:104B500069465048FDF756FCCDE900B6CDE902A7FD
:104B6000CDE9047669464FF09040FDF74BFCA86D07
:104B700040F08040A865A86DDFF81C8100F08040FF
:104B80000D9042480894CDE9064009940A940B948C
:104B900006A940460C94FDF7DEFCD8F8040040F06E
:104BA0000070C8F80400D8F80C006FF34A00C8F889
:104BB0000C00D8F80C0020F40040C8F80C00D8F81D
:104BC000000020F40020C8F80000D8F8000020F40D
:104BD0000030C8F8000007940894099406940A94D9
:104BE0000C940D940E940B940F94029403940494DB
:104BF000A86D40F48040A865A86D00F48040109036
:104C0000E86C40F00200E864E86C00F002001090EC
:104C1000E86C40F00100E864E86C694600F00100CF
:104C200010904FF48050CDE90006052005900A4809
:104C3000FDF7E8FB4FF400500090CDE9016405203A
:104C4000CDE90440694603940348FDF7DBFB4FF4CC
:104C5000806023E000040140000400480C02014091
:104C60000400002080841E0004040140000800505D
:104C70000100110200100050F2004235881002407D
:104C80000004024024000240E65C0008FBA7A030BC
:104C90000054004000080048007800400090CDE932
:104CA00001640520CDE90440694603944FF090402B
:104CB000FDF7A8FBFE49FD48D1F80018FC4A21F099
:104CC000FF0141F00C01C2F80018FA490A78825835
:104CD0000B7822F0100222F48042C2500A788258E7
:104CE0000B7822F44052C2500A7882580B7842F076
:104CF0002002C2500A7882580B7822F04002C2503B
:104D00000A7882580B7822F08002C2500A788258C2
:104D10000B7822F4407242F48072C2500A788258B2
:104D2000097822F4406242F48062425000150690F5
:104D30004FF4827007904FF45060CDE908044FF4AF
:104D40008020CDE90A402820CDE90C040720CDE9D8
:104D50000E40DFF8648306A94046FDF719FDD8F838
:104D6000040020F01000C8F80400D8F8040040F057
:104D70000800C8F80400FEF7ADF9169413941494D3
:104D8000159417940C940A940B940D940E9411940A
:104D90000F941094029403940494A86D40F00200C0
:104DA000A865A86D00F002000690E86C40F00100D4
:104DB000E864E86C00F001000690E86C40F0040044
:104DC000E864E86C694600F0040006904020CDE9F4
:104DD00000064FF090400596FDF714FBCDF80090CB
:104DE000CDE90164CDE9044669464FF09040039453
:104DF000FDF708FB4FF480700090CDE90164CDE928
:104E000004466946AD480394FDF7FCFA4FF6FF707F
:104E1000CDE91440DFF8A882ADF84C4013A9404614
:104E20001694FDF735FDD8F8000020F08000C8F892
:104E30000000D8F8200020F01100C8F82000A14898
:104E4000007800F1804000F5836002689E490B788D
:104E50000AFA03FB22EA0B0242EA0B020260026832
:104E600091F800C00C2303FA0CF39A4308930B78D3
:104E700004FA03FA42EA0A02026002680978F0239F
:104E80008B4022EA030141EA0A011A930160D8F833
:104E900020108E480A22007802FA00F081431B900D
:104EA0008A48007804FA00F019900843C8F82000F6
:104EB000D8F8040040F08000C8F80400D8F80800D2
:104EC00020F0700020F4401040F04000C8F80800C6
:104ED000D8F8080020F0070020F4803040F00400EB
:104EE000C8F808007020CDE90A040C940D940E94C3
:104EF0000F9410940AAA102140461194FDF720FD4A
:104F000070480221405C00F1804000F58360026837
:104F10006F4B4FF00408595C08FA01F122EA0101D5
:104F200001606748416821F0700121F0007141F093
:104F300050014160816821F08001816009940C94E6
:104F40000D940A940B94029403940494286E40F4F4
:104F500000502866286E00F400500690E86C40F07F
:104F60000400E864E86CCDF8148000F004000690BA
:104F70004020CDE9000669465048FDF743FACDF8D8
:104F80000090CDE90164CDE9044869464B4803949B
:104F9000FDF738FA42F21070CDE90A40DFF83481AB
:104FA000ADF824400C9409A940460D94FDF770FC1F
:104FB000D8F8000020F08000C8F80000D8F80800F9
:104FC00020F0070020F4803040F00300C8F808000B
:104FD0003C48414A0078104403683B4923EA0B03EC
:104FE00091F800C007FA0CFC43EA0C030360D0F808
:104FF00000C0089B4FF00C092CEA030343EA0A03A4
:105000000360D0F800C01A9B91F800A02CEA0303BB
:105010004FF0300C0CFA0AFC43EA0C034FF0F00B93
:105020000360D8F820C01B9801F10A032CEA000C99
:1050300019984FF00A0A4CEA0000C8F82000A1F1C4
:10504000140080781044026891F802C04FF0030801
:1050500008FA0CFC22EA0C0291F802C007FA0CFCD8
:1050600042EA0C020260026891F802C009FA0CFCE4
:1050700022EA0C0C8A7804FA02F24CEA020CC0F81C
:1050800000C0D0F800C089780BFA01F12CEA0101C8
:10509000114301600F480022D0F820C099780AFA25
:1050A00001F32CEA030302FA01F117E000040240C5
:1050B00020000240E65C000800380040000800487C
:1050C00000040040EC5C0008005D00080A5D000878
:1050D000F65C0008003401401834014019430162B5
:1050E000416821F0700121F000714160416821F4B4
:1050F00070014160816821F0800181600094019419
:105100000294049405940694039407940E940F94C7
:105110001094D5F8880020F00300C5F88800286EA8
:1051200040F480402866286E00F480400890E86CC7
:1051300040F00400E864E86C4FF0070B00F0040056
:1051400008901020CDF844B0CDE90C060CA9FE481B
:10515000FDF758F920200C900220CDE90D0407201E
:10516000CDE910400CA90F94F748FDF74BF9DFF893
:10517000DC83D8F8000820F0FF0040F01900C8F8E0
:105180000008F34F387858F80000397820F0100004
:1051900020F4804040F0100048F80100387858F8BA
:1051A0000000397840F4405048F80100387858F849
:1051B0000000397820F0200048F80100387858F8CD
:1051C0000000397820F0400048F80100387858F89D
:1051D0000000397840F0800048F80100387858F82D
:1051E0000000397820F4407048F80100387858F809
:1051F0000000397820F4406048F8010008F104000C
:10520000D0F8001821F0FF0141F01801C0F8001893
:10521000787858F80000797820F0100020F4804069
:1052200048F80100787858F80000797820F4405068
:1052300048F80100787858F80000797820F02000CC
:1052400048F80100787858F80000797820F040009C
:1052500048F80100787858F80000797840F080002C
:1052600048F80100787858F80000797820F4407008
:1052700048F80100787858F80000797820F4406008
:1052800048F80100B348DFF8D0A2CDE90040CDE9ED
:105290000449029403940694694650460794FDF726
:1052A00039FD00220AF1080050E8001F62F35F7127
:1052B00040E80013002BF7D100210AF1080000BFDD
:1052C00050E8002F22F0606242EA416240E8002389
:1052D000002BF5D1DAF8000020F00050CAF80000E9
:1052E000DAF8040020F49040CAF80400DAF8080064
:1052F00020F02A00CAF80800DAF8000040F00100A7
:10530000CAF80000DAF81C00C0F340500028F9D0B9
:10531000DAF81C00C0F380500028F3D00094019408
:105320000294049405940694039407940E940F94A5
:105330001094D5F8880020F03000C5F88800A86DDA
:1053400040F48020A865A86D00F480200890E86CE7
:1053500040F00200E864E86CCDF844B000F00200D0
:1053600008904FF48060CDE90C060CA97B48FDF74E
:1053700049F84FF400600C90CDE90D64CDE9104B75
:105380000CA976480F94FDF73DF84FF4E130CDE9D4
:105390000040CDE90449724E029403940694694694
:1053A00030460794FDF7B6FC002206F1080000BF66
:1053B00050E8001F62F35F7140E80013002BF7D143
:1053C000002106F1080000BF50E8002F22F06062C3
:1053D00042EA416240E80023002BF5D1306820F01A
:1053E00000503060706820F490407060B06820F029
:1053F0002A00B060306840F001003060F069C0F30E
:1054000040500028FAD0F069C0F380500028F5D051
:105410000094019403940494A86D40F00100A865E1
:10542000A86D694600F00100059044F268200290E2
:10543000ADF80040C006FDF72BFA4FF0804630680B
:1054400020F080003060B06820F0070020F4A03029
:10545000B060706820F0700020F0007040F0200014
:105460007060B06820F08000B060A86C40F0080068
:10547000A864A86C00F008000090A86C40F480506C
:10548000A864A86C00F4805000903648816821F030
:1054900060018160816821F0800181603249416151
:1054A000816821F0180181604FF0FF3101610094A3
:1054B000019403940494286E40F480202866286E9A
:1054C00000F480200590ADF80040080C274C0290B5
:1054D00069462046FDF7DCF9206820F08000206056
:1054E0002348016F11F4803F1BD12249816022497A
:1054F00081602249C1602249C160016911F4803F85
:10550000FBD1416921F080414161016F41F480315B
:105510000167416941F400314161016911F4803F43
:10552000FBD1FEF7F3F817480168174A114041EA2A
:10553000E02101601548016841F001010160016846
:1055400041F48031016023E000080048000002407F
:10555000E65C000860E316000038014000040048E3
:105560000048004000300240B71DC104004801401F
:105570000020024023016745AB89EFCD3B2A190883
:105580007F6E5D4C000C024000F887FF0010005059
:10559000B2490A686FF30B0242F47A620A60B049BA
:1055A0000A686FF30B0242F47A620A60416841F0C4
:1055B00001014160416811F0010FFBD1416841F0E8
:1055C00002014160416811F0020FFBD1A54801685A
:1055D00041F001010160001D016841F0010101601D
:1055E000001D016841F0010101609F48016841F020
:1055F000010101609D4B40F23A711A686FF30B0292
:1056000011431960416841F001014160001D0168CA
:1056100011F0010FFBD19648016841F001010160D2
:105620000AF1080050E8001F41F0800140E8001234
:10563000002AF7D13A78914B8E498F48D15039786A
:10564000A3F1040C41F80C003878ACF10402805846
:1056500039786FF30F0040F010008850387858F810
:105660000000397840F0010048F801000AF1080014
:1056700050E8001F41F0400140E80015002DF7D12F
:105680007D787F487F4945F80C007878C15078785C
:10569000805879786FF30F0040F080008850787858
:1056A00058F80000797840F0010048F801004FF008
:1056B000A040816821F03F0121F0404141F00041CC
:1056C00081608168C90FFCD16F4A916821F03F0168
:1056D00021F0404141F0004191609168C90FFCD137
:1056E000816821F03F0121F0004141F00801816013
:1056F000416841F040014160816821F03F0121F0A3
:10570000004141F001018160906820F03F0020F0ED
:10571000004040F008009060506840F04000506049
:10572000906820F03F0020F0004040F001009060C1
:105730005648002141638163C163416C41F480514B
:105740004164416C21F400414164016A21F001018E
:105750000162016A21F004010162016A21F0100175
:105760000162016A21F040010162016A21F4807145
:105770000162016A21F480610162016841F0010166
:105780000160306840F0010030604148016841F03C
:10579000010101603F48016841F0010101603E489C
:1057A000416841F48061416041686FF3090141F053
:1057B00090014160416821F47F0141F40031416072
:1057C000016841F400410160016841F0010101609C
:1057D0007B78DFF8D4C03148314A324943F80C2095
:1057E0007A780CF10403D1507A78011D52587B78F5
:1057F0006FF30F0242F002025A50797841587A78DA
:1058000041F001018150206840F0010020604FF01C
:10581000E020016941F002010161FEE70298401EAB
:105820000290FCD1FEF747BF0D98401E0D90FCD1B1
:10583000FEF794BF0898401E0890FCD1FFF707B808
:105840000898401E0890FCD1FFF755B8401EFDD1C6
:10585000FEF7D8BD401EFDD1FEF7BBBE08100050BC
:1058600014100050040201400008005008080050C5
:10587000000201401C000020283801400C000240BA
:10588000243801403801002000010050002C014064
:105890000004004000340140005400400004024075
:1058A0002454004000000020080402407E4800B557
:1058B000002180F820104172FF2101720021C16097
:1058C0000160416004210174002242749FED770A57
:1058D00080ED050ADFED760AC0ED060ADFED750AF8
:1058E000C0ED070ADFED740A744842F23312C0EDCE
:1058F000060AC261DFED720AC0ED000ADFED710A2F
:10590000C0ED010ADFED701A0022C0ED041AC0EDEF
:10591000051AC0ED021AC0ED031A02844284828483
:1059200080F82620DFED690A2830C0ED060ADFED99
:10593000680AC0ED050A80ED010A80ED020A80EDDB
:10594000040A0170B5EE080A80ED030A4830B7EE8C
:10595000001A80ED001AC0ED011AC0ED021AC0ED68
:10596000031AC0ED041AC0ED051AC0ED061AC0ED09
:10597000071AC0ED081AC0ED0A1AC0ED091AC0EDE9
:105980000C1AC0ED0B1A00F0CBF800F009F95148E1
:10599000B1EE002AC0ED031A1430C0ED031A143022
:1059A000C0ED031AC0ED001A143080ED002A80ED1E
:1059B000012A9FED490A80ED030A9FED480A05215F
:1059C00080ED040A8162002180F83010C0ED051AD4
:1059D000C0ED061AC0ED0B1A4162C0ED021A142187
:1059E00001620022C26134309FED3D0A80ED011A50
:1059F00080ED000AC0ED101A9FED3A0AC0ED0F1AB3
:105A000080ED040A80ED031A44309FED370AC0EDA3
:105A1000071AC0ED0C1AC0ED0B1A80ED030A9FEDBA
:105A2000330A80ED040AC0ED051AC0ED061A80F8AD
:105A30003420C0ED021AC0ED011A01624262027008
:105A4000826238309FED2A0AC0ED021AC0ED011AB9
:105A5000C0ED041AC0ED031A80ED000A9FED250A7F
:105A600080ED080A9FED240A80ED090AC0ED0B1AAB
:105A7000C0ED0A1AC0ED0C1AC0ED0D1AC0ED051AE2
:105A8000C0ED061A00F0D2F81D489FED1C0A4FF435
:105A90007A7180ED000A0161C0ED021AC0ED011AB1
:105AA00080ED032A00BD00007C0000206F12833AC5
:105AB00017B7D138B91DCA31E81F224D00050020A3
:105AC00000001042E246A64100000000696C423C22
:105AD000BD378635740600208FC2F53C8FC2F5BCF9
