:020000040800F2
:10000000E0120020790200087B370008E11A00089E
:1000100079370008B10500082540000800000000FD
:10002000000000000000000000000000613A00082D
:10003000BF05000800000000E53800082D3F00085B
:10004000930200089302000893020008930200083C
:10005000930200089302000893020008930200082C
:10006000930200089302000893020008B7050008F5
:10007000B9050008930200089302000893020008E3
:1000800093020008000000006F04000893020008BB
:10009000930200089302000893020008F505000887
:1000A00093020008930200089302000893020008DC
:1000B00093020008930200089302000893020008CC
:1000C00093020008930200089302000893020008BC
:1000D00093020008930200089302000893020008AC
:1000E000930200089302000893020008930200089C
:1000F0009302000893020008930200080000000029
:1001000000000000930200080000000093020008B5
:100110009302000800000000930200089302000808
:10012000BB050008BD050008930200089302000803
:100130009302000800000000000000009302000885
:100140009302000893020008000000000000000075
:10015000000000000000000000000000000000009F
:1001600000000000000000000000000093020008F2
:1001700093020008000000000000000000000000E2
:1001800000000000930200080000000000000000D2
:10019000000000000000000000000000000000005F
:1001A0000000000000000000930200089302000815
:1001B0009302000893020008930200080000000068
:1001C0000000000093020008000000000000000092
:1001D000930200089302000800F002F800F03CF8D7
:1001E0000AA090E8000C82448344AAF10107DA4592
:1001F00001D100F031F8AFF2090EBAE80F0013F0A8
:10020000010F18BFFB1A43F0010318479C6200005E
:10021000BC620000103A24BF78C878C1FAD85207EF
:1002200024BF30C830C144BF04680C607047000070
:100230000023002400250026103A28BF78C1FBD8EF
:10024000520728BF30C148BF0B6070471FB505F08B
:10025000D5FE1FBD10B510BD00F0CFF81146FFF759
:10026000F5FF03F0A3FF00F0EDF803B4FFF7F2FF92
:1002700003BC00F0F5F80000094880470948004732
:10028000FEE7FEE7FEE7FEE7FEE7FEE7FEE7FEE746
:10029000FEE7FEE704480549054A064B70470000A3
:1002A00015400008D9010008E00C0020E0120020F1
:1002B000E00E0020E00E002053EA020C00F06980FE
:1002C0002DE9F04B4FF00006002B1FBFB3FA83F56A
:1002D00003FA05F424FA05F65E4012BF1643B2FA9B
:1002E00082F502FA05F4C5F120051EBF22FA05FCCD
:1002F00044EA0C04203556EA044C4FEA144418BF73
:10030000641C4FF000084FF00009904271EB030CA1
:1003100039D3002919BFB1FA81F701FA07F6B0FA0B
:1003200080F700FA07F6C7F120071EBF20FA07FC86
:1003300046EA0C062037B6FBF4FCA7EB0507103F96
:1003400007F01F0BCBF120060CFA0BFB2CFA06F67C
:1003500044BFB3460026202FA4BF5E464FF0000BDB
:100360005BEA060C08BF4FF0010B19EB0B09ABFB66
:10037000027C48EB0608C01B06FB02CC0BFB03CC3F
:1003800071EB0C01C1E70B46024641464846BDE809
:10039000F08B13B54FF000004FF00001AFF3008079
:1003A000BDE81C4070474FF0000200B5134694466C
:1003B0009646203922BFA0E80C50A0E80C50B1F1BD
:1003C0002001BFF4F7AF090728BFA0E80C5048BFD1
:1003D0000CC05DF804EB890028BF40F8042B08BF6F
:1003E000704748BF20F8022B11F0804F18BF00F86B
:1003F000012B7047704770477047754600F02CF826
:10040000AE4605006946534620F00700854618B001
:1004100020B5FFF73FFFBDE820404FF000064FF04A
:1004200000074FF000084FF0000B21F00701AC4629
:10043000ACE8C009ACE8C009ACE8C009ACE8C00948
:100440008D46704710B50446AFF300802046BDE8E6
:100450001040FFF70ABF0000004870477C0C0020E6
:1004600001491820ABBEFEE72600020070474FF09E
:10047000A040016811F0400F1ABFD0F8001111F030
:10048000400F704740210160C0F8001103F02CBA02
:10049000D0ED000A90ED011AF0EE001A90ED000A7E
:1004A00041EE210A9FED021A60EE810A70470000BA
:1004B0003ACD133F10B5044601F062FB00EE100A7E
:1004C000DFED120A1349B8EE400A30EE600A80EE02
:1004D000201A9FED0F0AD4ED010A21EE000A30EE3A
:1004E000800A10EE100A8842C8BFDFED0B0A07DC55
:1004F00010EE100A0949884288BFDFED090A01D9C8
:1005000030EE200AB1EE400A10BD000000004D435D
:10051000DB0F4940DB0F4940DB0FC9C0DB0F49C08F
:10052000DB0FC94091ED010AD0ED000A90ED011AF0
:10053000D0ED001A20EE200AD1ED000A00EE810A6B
:10054000D1ED010A90ED011A60EE810A91ED001AD9
:1005500041EE610A7047F0EE400A90ED000A90ED1E
:10056000041AD0ED011A90ED052A20EE010A01EEE1
:10057000820AD0ED021A90ED062A01EEA00AD0ED13
:10058000031A80ED051A01EE820A80ED040AC0ED1F
:10059000060A704780EC040A9FED040A80ED060A03
:1005A00080ED050A80ED040A70470000000000009D
:1005B000FEE701F03DBB70477047704770477047DA
:1005C00091ED010AD0ED000A90ED011AD0ED011A6B
:1005D00020EE200AD1ED000A00EEC10AD1ED000A9A
:1005E00090ED001A60EE810A91ED011A41EE210AA8
:1005F000704700000D48016811F0400F08BF7047B8
:1006000010B5402101600A4C20680178002908BF1C
:1006100010BD417819B140690649486210BD0121F9
:10062000417001F0A7FA2168486110BD140401402F
:10063000A4000020003401402DE9F0476E4C2DED60
:10064000028B82B02068417C6C4F6D4EDFF8B49114
:100650006D4D4FF0000800294ED001297DD00229B0
:100660001EBF02B0BDEC028BBDE8F087DFF89CA195
:10067000DAF80000FFF71EFFDAF80000DFF890A1BB
:1006800080ED020ADAF8000090ED0C0A01F0D0FAD1
:10069000386880ED010AC0ED020ADAF8001001F0B6
:1006A00021F83868F0EE400A90ED0A0AF0EE601A80
:1006B000286801F0BDFDDFED570A306871EEA00A31
:1006C000C0ED020A80ED030A206841684A1C4260BE
:1006D00009290CD1C0F80480DAF8000090ED0D0A69
:1006E000D9F8000003F0D0FB286880ED000A02B0C2
:1006F000BDEC028BBDE8F08741684A1C42609FED6B
:10070000468AB1F5FA6F3BD24448454C006890EDFB
:10071000030A206880ED000A2868B0EE480A80EDE0
:10072000000A01F085FA386880ED010AC0ED020A7E
:100730001C30FFF7ADFE8DED000ACDED010A3868E3
:10074000011D6846FFF7EEFE386880ED090AC0ED2E
:100750000A0A90ED090A206800E042E001F054FC2A
:100760003868F0EE400A90ED0A0AF0EE601A286848
:1007700001F05EFD3068C0ED021A80ED030AB6E7B5
:10078000DFED281A9FED281ADFED280A9FED280AD1
:1007900001F0A0F8DFED271A9FED271ADFED270AF9
:1007A0009FED270A01F06EF8DFED261A9FED261A5D
:1007B000DFED260A9FED260A01F086F830689FEDEE
:1007C000250A80ED038A80ED028AD9F8000080EDC9
:1007D000000A05F0B1FB2068C0F8048001214174D3
:1007E00085E741684A1C4260B1F57A7F84BFC0F852
:1007F00004800221F3D87AE770000020A8000020CE
:100800009C000020BC000020B800002074000020E4
:10081000AC000020CDCC4C3E00000000C800002001
:10082000B400002024B4E53B77BAF33BBD5256BF79
:100830001058E93FDAACFABCDAACFA3CF01678BFF3
:100840009318F43FAC1C5ABEAC1C5A3EE71D47BF80
:10085000508DC73FD253FB412DE9F04F634D83B01C
:100860002868417CDFF888A1624C634EDFF88CB1C8
:10087000634F4FF0000900294CD001297ED0022996
:100880001CBF03B0BDE8F08FDFF87881D8F8000016
:1008900090ED130A01F0CCF9206880ED010AC0ED5B
:1008A000020AD8F8001001F037F82068F0EE400A8C
:1008B00090ED090AF0EE601ADAF8000001F0A4FBEE
:1008C0002068B0EE401A90ED0A0AB0EE412A38686E
:1008D00001F0AEFC72EE210A3068C0ED020A80ED34
:1008E000030A286841684A1C426009291CBF03B0FA
:1008F000BDE8F08FC0F80490D8F8000090ED140A1D
:10090000DBF8000003F0C0FA386880ED000A03B09D
:10091000BDE8F08F41684A1C426035489FED3A0AB5
:10092000B1F5FA6F00683AD238490968D1ED030A87
:10093000C0ED000A386880ED000A01F079F92068FE
:1009400080ED010AC0ED020A1C30FFF7A1FD8DED1C
:10095000000ACDED010A2068011D6846FFF7E2FD9F
:10096000206880ED090AC0ED0A0A90ED090ADAF85C
:10097000000001F049FBF0EE400A00E028E02068AA
:10098000F0EE601A90ED0A0A386801F051FC306808
:10099000C0ED021A80ED030A03B0BDE8F08FF6EE59
:1009A000000AC0ED000A306880ED030A80ED020AFB
:1009B000DBF800009FED160A80ED000A05F0BCFA96
:1009C0002868C0F804900121417403B0BDE8F08F9D
:1009D00041684A1C4260B1F57A7F84BFC0F8049038
:1009E0000221F1D803B0BDE8F08F000070000020B4
:1009F000B4000020A80000209C000020BC000020C3
:100A0000B8000020B000002000000000C800002056
:100A1000D253FB412DE9F04FA04D2DED028B83B059
:100A20002868427CA24FDFF87892DFF878829E4CEB
:100A30009E4E39684FF0000A72B1012A5CD0DFF88F
:100A400074B29FED9D8A022A67D0032A7ED003B03C
:100A5000BDEC028BBDE8F08F43685A1C42609FEDED
:100A6000970A8F4AB3F5FA6F126836D2D1ED030AAE
:100A7000C2ED000AD8F8000080ED000A01F0D8F8B5
:100A8000206880ED010AC0ED020A1C30FFF700FD6E
:100A90008DED000ACDED010A2068011D6846FFF7C3
:100AA00041FD206880ED090AC0ED0A0A90ED090AAF
:100AB000D9F8000001F0A8FA2068F0EE400A90EDA5
:100AC0000A0AF0EE601AD8F8000001F0B1FB3068B5
:100AD000C0ED021A80ED030AB9E7C0F804A082ED68
:100AE000000A306880ED030A80ED020A05F024FA5E
:100AF000296801204874AAE74268531C4360642AAD
:100B0000A5D9D8F8000091ED030A80ED000A286805
:100B1000C0F804A00221417499E791ED020A01F0A6
:100B200087F8206880ED010AC0ED020A1C30FFF74B
:100B3000AFFC8DED000ACDED010A2068011D68466D
:100B4000FFF7F0FC206880ED090A00E04FE0C0EDFF
:100B50000A0A90ED090AD9F8000001F055FA206858
:100B6000F0EE400A90ED0A0AF0EE601AD8F80000A4
:100B700001F05EFB3068C0ED021A80ED030A2968BF
:100B80004A68501C4860386803699A420AD290ED5E
:100B9000010AD1ED060A90ED001A00EE810A80EDFF
:100BA000010A03E0C1F804A003224A7490ED020A8E
:100BB000D1ED060A90ED011A00EE810A80ED020ADD
:100BC00090ED020A10EE101A90ED020A5945C8BFC6
:100BD00030EE480A09DC10EE101A394A914284BFFF
:100BE00090ED020A30EE080A01D980ED020A386859
:100BF00090ED020A01F01CF8206880ED010AC0EDBA
:100C0000020A1C30FFF744FC8DED000ACDED010A0D
:100C10002068011D6846FFF785FC206880ED090A01
:100C2000C0ED0A0A90ED090AD9F8000001F0ECF9CC
:100C30002068F0EE400A90ED0A0AF0EE601AD8F84B
:100C4000000001F0F5FA3068C0ED021A80ED030AE9
:100C50003868296890ED020AD1ED060A90ED011A74
:100C600000EE810A80ED020A90ED020A10EE101AE1
:100C700090ED020A5945C8BF30EE480A0ADC10EE72
:100C8000101A0F4A914284BF90ED020A30EE080A12
:100C90007FF6DDAE80ED020AD9E60000700000208C
:100CA000B4000020B8000020A80000209C00002014
:100CB000C8000020DB0F4940DB0FC94000000000E6
:100CC000DB0F49C02DE9F04FAA4D2DED028B83B00B
:100CD0002868427CAD4FDFF8A092DFF8A0A2DFF8D1
:100CE000A082A84CA84E39684FF0000B62B1012ACF
:100CF00064D09FEDA78A022A73D0032A70D003B074
:100D0000BDEC028BBDE8F08F43685A1C42609FED3A
:100D1000A10A9A4AB3F5FA6F12683AD2D1ED030AE2
:100D2000C2ED000AD8F8000080ED000A00F080FF54
:100D3000206880ED010AC0ED020A1C30FFF7A8FB15
:100D40008DED000ACDED010A2068011D6846FFF710
:100D5000E9FB206880ED090AC0ED0A0A90ED090A56
:100D6000DAF8000001F050F92068F0EE401A90ED3A
:100D70000A0AD8F8000001F05BFA3068F0EE400A89
:100D8000C0ED021AC0ED030A40F2E24001F0FEF8A5
:100D9000B5E7C0F804B082ED000A306880ED030AC0
:100DA00080ED020A05F0C8F8D9F80010012008709B
:100DB00040F2E2428A6129684874A0E74268531C05
:100DC0004360642A9BD9D8F8000091ED030A80EDB6
:100DD000000A2868C0F804B0022141748FE700E0DF
:100DE00068E091ED020A00F023FF206880ED010A1F
:100DF000C0ED020A1C30FFF74BFB8DED000ACDED74
:100E0000010A2068011D6846FFF78CFB206880ED11
:100E1000090AC0ED0A0A90ED090ADAF8000001F0AB
:100E2000F3F82068F0EE400A90ED0A0AF0EE601A3E
:100E3000D8F8000001F0FCF93068C0ED021A80ED2E
:100E4000030A29684A68501C4860386803699A4256
:100E50000AD290ED010AD1ED060A90ED001A00EEDB
:100E6000810A80ED010A03E0C1F804B003224A744C
:100E700090ED020AD1ED060A90ED011A464A00EE05
:100E8000810A80ED020A90ED020A10EE101A90ED30
:100E9000020A9142C8BF30EE480A09DC10EE102A5F
:100EA0003E498A4284BF90ED020A30EE080A01D919
:100EB00080ED020AD9F8000001F0FEF8D9F8000030
:100EC00080ED080A386890ED020A00F0B1FE206853
:100ED00080ED010AC0ED020A1C30FFF7D9FA8DED52
:100EE000000ACDED010A2068011D6846FFF71AFBD4
:100EF000206880ED090AC0ED0A0A90ED090ADAF8C7
:100F0000000001F081F82068F0EE400A90ED0A0A36
:100F1000F0EE601AD8F8000001F08AF930681E4A35
:100F2000C0ED021A80ED030A3868296890ED020AC4
:100F3000D1ED060A90ED011A00EE810A80ED020A59
:100F400090ED020A10EE101A90ED020A9142C8BF0D
:100F500030EE480A0ADC10EE101A104A914284BFA3
:100F600090ED020A30EE080A7FF6C9AE80ED020A63
:100F7000C5E6000070000020A4000020B40000209E
:100F8000B8000020A80000209C000020C80000201D
:100F9000DB0FC94000000000DB0F4940DB0F49C0F8
:100FA0002DE9F047764E774D2DED028B82B03068FB
:100FB000296890ED078A4A7CDFF8CCA1734C744F06
:100FC000DFF8D0814FF00009002A71D0012A6ED0DD
:100FD000022A1EBF02B0BDEC028BBDE8F08701F013
:100FE0006BF8306880ED080A90ED080A00F020FEEA
:100FF000206880ED010AC0ED020A1C30FFF748FAB4
:101000008DED000ACDED010A2068011D6846FFF74D
:1010100089FA206880ED090AC0ED0A0A90ED090AF4
:10102000DAF8000000F0F0FF2068F0EE401A90EDD2
:101030000A0AD8F8000001F0FBF857482168006858
:10104000D1ED0A0A90ED021A90ED012A60EE810AB4
:1010500091ED091A40EEC81AD0ED060A386841EE43
:10106000020AC0ED021A00EE880A80ED030A286821
:1010700041684A1C4260092913D1C0F804903068C5
:1010800090ED070A01F032F8306880ED070A90ED24
:10109000070A4248006802F0F7FED8F8000080ED29
:1010A000000A02B0BDEC028BBDE8F08700E058E01A
:1010B0004A68501C486034489FED390AB2F5FA6F0F
:1010C000006836D2F1EE000AC0ED000AD8F8000040
:1010D00080ED000A00F0ACFD206880ED010AC0ED53
:1010E000020A1C30FFF7D4F98DED000ACDED010A9C
:1010F0002068011D6846FFF715FA206880ED090A8F
:10110000C0ED0A0A90ED090ADAF8000000F07CFF51
:101110002068F0EE400A90ED0A0AF0EE601AD8F866
:10112000000001F085F83868C0ED021A80ED030A6E
:10113000B7E7C1F8049080ED000A3868012480ED1B
:10114000030A80ED020A3068047040F2E2418161D6
:1011500004F0F2FE40F2E24000F018FF2868447408
:101160009FE74868421C4A6064289AD9002000F032
:10117000BBFE2868C0F804900221417491E700008A
:10118000A400002070000020B4000020A80000206F
:101190009C000020B8000020A0000020BC0000201F
:1011A000000000002DE9F0414F4E88B03068407CCF
:1011B0004E4F00287ED001281CBF08B0BDE8F0814A
:1011C0004B4D286890ED0B0A00F032FD494C206829
:1011D00080ED010AC0ED020A1C30FFF759F98DEDD0
:1011E000040ACDED050A2068011D80ED0B0A9DED76
:1011F000050A80ED0C0A04A8FFF794F9206880ED39
:10120000090AC0ED0A0A90ED090A386800F0FCFEF0
:101210008DED020A2068384F90ED0A0A386801F017
:1012200007F88DED030A2068344C2A68D0ED0A0ACD
:101230002168D2ED0A1A91ED021A20EE811ADDED35
:10124000020A41EE610ACDED020A91ED061AD0EDD7
:10125000091A91ED012A2A4901EE821AD2ED0A1AE1
:1012600001EE210A8DED030A0968C1ED020A9DED28
:10127000030A81ED030A011D02A8FFF7A1F98DED14
:10128000060ACDED070A04A8DFF87880009006ABC7
:10129000D8F800202968206802F070FA30684168A8
:1012A0004A1C426009291CBF08B0BDE8F08100213A
:1012B000416000E00CE0286890ED0A0AD8F80000D0
:1012C00002F0E2FD386880ED000A08B0BDE8F08168
:1012D00038689FED0D0A80ED000A316801204874DE
:1012E00008B0BDE8F081000070000020B4000020CC
:1012F000C4000020A8000020B8000020A0000020AA
:101300009C000020BC000020000000002DE9F047F8
:101310008E4D88B02868417CDFF834A28D4C8E4E0B
:10132000DFF838828E4F4FF0000900297ED0012966
:1013300000F0F88002291CBF08B0BDE8F087D8F89B
:10134000000000F0B9FED8F80000DFF8188280ED48
:10135000080AD8F8000090ED0B0A00F069FC20683C
:1013600080ED010AC0ED020A1C30FFF791F88DED07
:10137000040ACDED050A2068011D80ED0B0A9DEDE4
:10138000050A80ED0C0A04A8FFF7CCF8206880ED70
:10139000090AC0ED0A0A90ED090ADAF8000000F027
:1013A00033FE8DED020A206890ED0A0A386800F0DD
:1013B0003FFF8DED030A20686B4CD8F80020D0ED7C
:1013C0000A0A2168D2ED0A1A91ED021A20EE811A5A
:1013D000DDED020A41EE610ACDED020A91ED061A39
:1013E000D0ED091A91ED012A01EE821AD2ED0A1A06
:1013F00001EE210A8DED030A3168C1ED020A9DED6F
:10140000030A81ED030A011D02A8FFF7D9F88DED4B
:10141000060ACDED070A04A8544E009006AB3268C8
:10142000D8F80010206802F0A9F900E017E0286859
:1014300041684A1C426009291CBF08B0BDE8F0871A
:10144000C0F80490D8F8000090ED0A0A306802F065
:101450001BFD386880ED000A08B0BDE8F0874268DF
:10146000511C416044F620639FED410A38499A427D
:1014700009683CD23F480068D0ED030AC1ED000A7C
:10148000386880ED000A00F0D3FB206880ED010A87
:10149000C0ED020A1C30FEF7FBFF8DED040ACDED16
:1014A000050A2068011D04A8FFF73CF8206880EDBC
:1014B000090AC0ED0A0A90ED090ADAF8000000F006
:1014C000A3FD8DED020A206890ED0A0A386800F04D
:1014D000AFFE8DED030A30689DED020A80ED020A31
:1014E0009DED030A80ED030A08B0BDE8F087C0F85F
:1014F000049081ED000A3068012480ED030A80ED3C
:10150000020AD8F80000047040F2E241816104F060
:1015100013FD40F2E24000F039FD2868447408B041
:10152000BDE8F08741684A1C426064299CBF08B04E
:10153000BDE8F087002000F0D7FC2868C0F80490D0
:101540000221417408B0BDE8F0870000700000205F
:10155000B4000020A80000209C000020A40000206F
:10156000B8000020C4000020A0000020BC00002023
:1015700000000000C8000020F0B54F4D83B028687F
:10158000417C4E4E4E4C0027E9B1012968D002291A
:101590001CBF03B0F0BD20681C30FEF779FF8DED55
:1015A000000ACDED010A2068011D6846FEF7BAFF6A
:1015B000206880ED090AC0ED0A0A29684B68414A93
:1015C000192B5ED156E041684A1C42609FED3E0AED
:1015D000B1F5FA6F37D23D4D3D4FF1EE000A286864
:1015E000C0ED000A386880ED000A00F021FB206899
:1015F00080ED010AC0ED020A1C30FEF749FF8DEDB7
:10160000000ACDED010A2068011D6846FEF78AFF39
:10161000206880ED090AC0ED0A0A90ED090A2868E1
:1016200000F0F2FC2068F0EE400A90ED0A0AF0EEBD
:10163000601A386800F0FCFD3068C0ED021A80EDD9
:10164000030A03B0F0BD306880ED020A80ED030AA2
:1016500004F072FC286847600121417403B0F0BDBA
:1016600041684A1C4260642987BF4760022103B079
:10167000F0BDF2E74F6092ED000AB1EE400A82ED54
:10168000000A4B6803F1010CC1F804C011495BB9B1
:101690000B6892ED001A9FED100AD3ED010A326833
:1016A00000EEC10A82ED020A90ED090A086801F015
:1016B0004DFD03B0F0BD0000700000209C00002034
:1016C000A80000202800002000000000B400002036
:1016D000B8000020C0000020CDCC4C3E00F002BA83
:1016E00000F016BA2DE9F04105465A480C462DED9A
:1016F000048B006891ED0B0AD0ED068A00F098FA91
:1017000084ED010AC4ED020A94ED0B0AD4ED0F0A30
:101710009FED518A514F524E60EE880A00EEA80AA2
:1017200084ED0B0A94ED0B0A10EE100A94ED0B0AEF
:10173000B842C8BF30EE480A08DC10EE100AB042CA
:1017400084BF94ED0B0A30EE080A01D984ED0B0A30
:1017500005F11C00FEF79CFE84ED030AC4ED040AAB
:10176000291D04F10C00FEF7DDFE84ED050AC4ED31
:10177000060A94ED050A3B48FEF7EDFE84ED070AE4
:1017800094ED060A3848FEF7E6FE84ED080A94ED6B
:10179000050AD4ED070A354830EE600A01F0A8FCCE
:1017A00085ED090A94ED060AD4ED080A304830EEBA
:1017B000600A01F09DFC85ED0A0A94ED080AD4ED5B
:1017C000020A2C4820EE209AB0EE490AFEF7C3FE2A
:1017D00039EE400ADFED280A284820EE200A84ED81
:1017E0000E0AD4ED0E0A90ED000A00EEA80A80ED74
:1017F000000AD4ED0E0A94ED101A60EE810A94ED01
:10180000111A40EE010AC4ED0D0A90ED010A00EE36
:10181000A80A10EE101A80ED010AB942C4BFDFED2C
:10182000180A30EE200A06DC10EE101AB14288BF0A
:1018300038EE400A01D980ED010A84ED0C0A94EDDE
:10184000020AD4ED000ABDEC048B20EE200ABDE8AC
:10185000F081000070000020DB0FC940DB0F494021
:10186000DB0F49C0700700208C07002038070020DC
:1018700054070020A807002000007A44CC00002074
:10188000DB0FC9C010B50E482DED048BB0EE618A98
:10189000F0EE418AB0EE609AF0EE409AFEF77AFEE2
:1018A000F0EE481AB0EE681AF0EE490AB0EE690A96
:1018B000BDEC048BBDE810400248FEF76BBE000093
:1018C000700700208C0700200148FEF763BE00006F
:1018D000A807002010B50E482DED048BB0EE618AEC
:1018E000F0EE418AB0EE609AF0EE409A01F020FCF2
:1018F000F0EE481AB0EE681AF0EE490AB0EE690A46
:10190000BDEC048BBDE81040024801F011BC0000A2
:10191000380700205407002070B505462DED028BD6
:101920000C461C30FEF7B4FD84ED040AC4ED050A34
:10193000291D04F11000FEF7F5FD85ED090AC5ED3E
:101940000A0A84ED060AC4ED070A94ED021AF0EEC5
:10195000408AB0EE608A30EE011AB6EE000A21EE3F
:10196000001A85ED091A94ED031A70EE810A60EEF3
:10197000800AC5ED0A0AD4ED040A94ED001AD4EDEC
:10198000011A94F8580070EEC10A94ED051A31EE70
:10199000611A60EE800A21EE000A00281CBFF1EEF9
:1019A000600AB1EE400AC4ED0A0A84ED0B0A94ED18
:1019B0000A0AD4ED0A0A94ED0B1A20EE200AD4ED9F
:1019C0000B0A00EE810AFFF789FED4ED0A0A3D48B2
:1019D0009FED3E2A60EE800A3D49C4ED0C0AD4ED2D
:1019E0000B0A20EE800A84ED0D0A94ED0D0AD5ED68
:1019F000020A95ED011A20EE200AD4ED0C0A00EE41
:101A0000C10A84ED150A006894ED151A94ED0F0AC9
:101A1000D0ED060A00EE810A84ED0F0A94ED0F0A5C
:101A2000D4ED121A20EE210AD4ED111A01EE210A8A
:101A30009FED251AD4ED141A20EE011A01EE821A38
:101A400084ED141A94ED101A00EE801A11EE100AAB
:101A5000884206DD9FED1F0A31EE000A84ED100A70
:101A60000DE011EE100A1C49884298BF84ED101A4F
:101A700005D99FED1A0A31EE000A84ED100A94EDA3
:101A8000100A84ED130A94ED040A84ED000A94ED23
:101A9000050A84ED010AC4ED028A84ED038A94F8F4
:101AA000580000280CBF0120002084F8580094ED55
:101AB0000E0AB1EE400A84ED0E0A94ED0E0ABDEC5A
:101AC000028B70BD700000200AD7A33B52B87E3F46
:101AD000DB0F4940DB0FC9C0DB0F49C0DB0FC9403A
:101AE000FEE7000010EE100AF6EE000A074960EE6D
:101AF000200AA1EB600000EE100A20EE801AF7EE3B
:101B0000080A41EE400A20EE800A7047DF59375F2D
:101B1000F0EE400AF5EEC00AF1EE10FAACBFB1EEFD
:101B2000E00A9FED010A70470000000010B5104C5C
:101B300040220121204601F023FA402210212046B4
:101B400001F01EFA40229100204601F019FA5022BD
:101B50000421204601F014FA50224021204601F0D1
:101B60000FFA502221152046BDE8104001F008BAB6
:101B7000002C0140014800687047000024340140F7
:101B80000648006800884FF4CD71C000C0F3CC0057
:101B9000B0FBF1F201FB120070470000740000205E
:101BA0004FF0A040816821F03F0121F0004141F059
:101BB00004018160016811F0040FFBD0016C9FEDFE
:101BC000141A89B200EE101ADFED121AF8EE400A6C
:101BD00080EE810ADFED100A20EE210A20EE200AB5
:101BE000016811F0040FFBD0006C80B200EE900A87
:101BF0000B48F8EE600A006880EE812A9FED071A14
:101C000062EE210AC1EE201AC0ED001A70470000F2
:101C100000FF7F47AE4751400000CA4200109B3F83
:101C2000A8000020014800687047000024480140D7
:101C30009FED0F1A1049C0EE010A9FED0E0A20EE2B
:101C4000800ABDEEC00A10EE100A486088688968F4
:101C500000EE100A00EE901A9FED081AB8EEC00AC6
:101C6000F8EEE00A20EE010A60EE810A70470000FB
:101C7000DB0F49400000004F000C02400000003024
:101C80000B4800694FF0000110F0080F094818BF19
:101C900081800BD18288521C92B28280B2F5967FED
:101CA00004D98180017881F00101017000787047CA
:101CB00000080048080000201F481E4902780B1D3C
:101CC000D2581204120C18BF70471C4ADFF874C0B7
:101CD000126892ED0C0A1A4A82ED000ADCF800C084
:101CE0009CED020ADFF860C082ED010ADCF800C05A
:101CF0009CED090A82ED020A9CED0A0A82ED030AB4
:101D000002788A5890F800C022F0010241F80C20B5
:101D10000278D25890F800C06FF30F0242F014021C
:101D20004CF8032002788A58007842F001020A50E9
:101D300070470000000002407C600008AC000020FA
:101D40001400002074000020A800002010B5104CE2
:101D500070220121204601F013F970221021204643
:101D600001F00EF97022A115204601F009F9702248
:101D70000421204601F004F970224021204601F0A0
:101D8000FFF8702221152046BDE8104001F0F8B898
:101D9000002C01402DE9F00145494FF47A708E681E
:101DA000B6FBF0F200FB1260002848D141484268BF
:101DB00042F400524260404802880088120A42EA17
:101DC000002000B2401100EE100A3C48F4EE000A78
:101DD000B8EEC00A00683A4B3A4A20EE200A80ED7D
:101DE000040A90ED040A10EE100A98421EDD3648EF
:101DF000436C23F400434364036A23F0010303624A
:101E0000036A23F004030362036A23F010030362EE
:101E1000036A23F040030362036A23F480730362BE
:101E2000036A23F480630362C014906150694FF425
:101E30008063834300F4806043EA004090614888F7
:101E400000F07F0500F10108821CC01C00F07F0734
:101E50001E4802F07F0C08F07F04425D532A01BF48
:101E6000025D3A2AC25D0A2A1AD1194A10F80C30CA
:101E70001268C92B24BF92ED000AB1EE400A07D2C6
:101E800000EE103ADFED130AB8EE400A20EE200A09
:101E900082ED000A002202554255C25500F80C207E
:101EA000A1F80280701C8860BDE8F0017047000056
:101EB000080000200054004000000020A80000207E
:101EC0000000824200080048002C0140E40000208D
:101ED000BC000020DB0FC940024B58639963DA63F2
:101EE00070470000002C0140014948627047000023
:101EF000004801401048016A41F001010162016A95
:101F000041F004010162016A41F010010162016ABD
:101F100041F040010162016A41F480710162016A8D
:101F200041F480610162416C41F400414164034924
:101F3000C014886270470000002C0140000800486F
:101F40001048416C21F400414164016A21F0010113
:101F50000162016A21F004010162016A21F01001AD
:101F60000162016A21F040010162016A21F480717D
:101F70000162016A21F4806101620349C014886131
:101F800070470000002C01400008004801494862E9
:101F90007047000000340140154800689FED151A95
:101FA00080B200EE100ADFED150ADFED131AB8EE6D
:101FB000400ADFED132A134880EE012AB0EE600AD2
:101FC000006802EE610AB3EE042A80EE023A23EEC4
:101FD000220A80B203EE100AF8EE433A83EE813A09
:101FE00043EE610A80EE821A61EE220A7047000019
:101FF0008000005000FF7F47AE475140AE47D13FC1
:1020000000004843800100502049D0ED000A204ADA
:10201000096870EEC00A90ED030A91ED061A00EE11
:10202000810A80ED030A90ED030A10EE101A914226
:10203000C4BF9FED180A80ED030A0CDC90ED030A83
:10204000154A10EE101A914234BF90ED030A9FED2D
:10205000130A80ED030A90ED030A9FED111A12494D
:1020600020EE010A9FED0F1A00EE810A10EE100A11
:102070008842C4BF9FED0D0A704710EE100A0C494C
:10208000884200D870479FED0B0A7047700000200F
:10209000F6A0AA41F6A0AA41F6A0AAC1F6A0AAC13C
:1020A000A69B243FD044583CB76D5B41B76D5B4164
:1020B000B76D5BC1B76D5BC110B50446FFF75AFD44
:1020C000A168D4ED040AB0FBF1F201FB120000EEAE
:1020D000100AB8EEC00A80EE201A9FED030AF0EE57
:1020E000400A11EE200A10BDDB0F494070B50546CD
:1020F0002DED028BB0EE408A8669FFF73BFD04466A
:10210000FFF790FD08EE900A0020FFF7EDFE404B30
:10211000A21B58684042C11700EB91703D49B2EBD9
:10212000A00F08DD58684FEAE07C00EB9C70B2EB32
:10213000A00FB8BFCA60384800688461B5EEC08A95
:10214000F1EE10FA38BFB1EE488A0A78DFED330AB3
:102150009FED330A002A40D05B68F8EE681A01EE62
:10216000103A304BB8EEC11A1B6821EE211AD3ED9C
:10217000071A2D4B61EE211A1B681B789FED2B2A45
:1021800001EE103AB8EE411A21EE022A82EE211A2F
:10219000D1ED021A21EE201A01EE801A81ED021A09
:1021A000D1ED031AF8EEE11A21EE811A61EE200A50
:1021B00091ED011A41EE000AC1ED010A90ED0A0A03
:1021C000B4EEC80AF1EE10FA38BFD04300D208705E
:1021D000B0EE600ABDEC028B70BD91ED031AD5ED37
:1021E000031AB8EEC11A21EE811A61EE200A91EDB0
:1021F000011A41EE000AC1ED010A90ED090AB4EEA0
:10220000C80AF1EE10FAC8BFFF20E1DDDFE70000E9
:10221000F0040020D4000020A4000020CDCCCC3D50
:102220006666663F70000020A0000020DB0FC940FA
:102230002049D0ED000A204A096870EEC00A90EDEE
:10224000030A91ED061A00EE810A80ED030A90ED73
:10225000030A10EE101A9142C4BF9FED180A80EDD8
:10226000030A0CDC90ED030A154A10EE101A914295
:1022700034BF90ED030A9FED130A80ED030A90ED41
:10228000030A9FED111A124920EE010A9FED0F1A61
:1022900000EE810A10EE100A8842C4BF9FED0D0ABD
:1022A000704710EE100A0C49884200D870479FED25
:1022B0000B0A704770000020F6A0AA41F6A0AA41C0
:1022C000F6A0AAC1F6A0AAC1A69B243FD044583CC0
:1022D000B76D5B41B76D5B41B76D5BC1B76D5BC1FE
:1022E00010B44FF0A04C4A68DCF808400023DCF83A
:1022F00008C144EA0C0C1CF0010F18BF012302D0E6
:1023000010BC18467047DFF828C052B10C68224351
:10231000D1E9024121431143826802EA0C021143D0
:1023200004E08268096802EA0C0211438160E7E771
:10233000E030C0FF4B68D0F808C000221CF0010F4D
:1023400018BF012201D0104670475BB1D1E9023CB1
:1023500043EA0C03D0F80CC02CF0047C43EA0C03D5
:10236000C36007E0C368D1F80CC023F0047343EAEC
:102370000C03C360D1E900310B43C16C6FF308015A
:102380001943C164DFE78368002213F0010F18BF0F
:10239000012201D010467047D1E9003C43EA0C030A
:1023A0008968D0F80CC02CF0180C2CF4404C41EA91
:1023B0000C011943C160EDE730B44B68D0F808C098
:1023C00000221CF0010F18BF012202D030BC1046C1
:1023D0007047002BDFF848C00B680ED08C68234391
:1023E000D1E903452C4323434C692343C46804EAE1
:1023F0000C0C43EA0C03C3600BE0CC682343D1E927
:1024000004452C432343C46804EA0C0C43EA0C0340
:10241000C3604968036B23F00F0319430163D5E7D9
:102420001CC0F0FF10B403680022DB0F18BF0122AC
:1024300002D010BC10467047D1E9003C43EA0C03BF
:10244000D1E902C44CEA040C096943EA0C031943BC
:102450000368DFF80CC003EA0C0319430160E8E7E6
:102460000F7E00FF70B4002401F010030125D2F8A4
:1024700008C006689D40B54308BF01245BD0BCF18D
:10248000000F39D0BCF1C00F10D0016840F6FC75C8
:102490009D40A943156845EA0C0CD5684CEA050C2B
:1024A0000CFA03FC41EA0C01016033E005684FF0CF
:1024B000C00C0CFA03FC25EA0C0545EA0C0CC0F82C
:1024C00000C0D0F860C040F60F759D402CEA050CA6
:1024D00015685668AD08B60845EA06259D404CEAE1
:1024E000050CC0F860C0C1F3C01100EB8101D2F847
:1024F0000CC0C1F858C00DE001684FF0FC0C0CFA9C
:1025000003FC21EA0C01D2F800C00CFA03FC41EAFA
:102510000C010160C16B4FF0070C0CFA03FC21EABF
:102520000C01D2E904C592694CEA050C4CEA02029E
:102530009A401143C163204670BC704770B4684A2A
:10254000067A684B0025141F0168A3F1040C002EC5
:1025500074D0A1B1467A76B3012E36D0022E18BFC0
:1025600001253BD0847A54B15F490A1F012C3DD02C
:10257000022C45D0032C18BF45F002054AD0416813
:10258000002971D0427A002A4DD0012A57D0022A60
:1025900018BF45F004055DD0837A002B64D0534901
:1025A0000A1F012B61D0022B6AD0032B18BF45F004
:1025B000050571D090E0FFE7166826EA0101116079
:1025C0000168226811432160CCE7266826EA0101F0
:1025D00021600168146821431160C3E72668314314
:1025E00021600168146821431160BBE704680E682C
:1025F00026EA04040C600168146821431160BEE7F8
:102600000468166826EA0404146002680C68224311
:102610000A60B4E7046816683443146002680C6802
:1026200022430A60ABE71A6822EA01011960416897
:10263000DCF800201143CCF80010ADE737E0DCF8FF
:10264000002022EA0101CCF8001041681A68114309
:102650001960A1E7DCF800201143CCF800104168B4
:102660001A681143196097E736E04368D1F800C053
:102670002CEA03030B6040681168084310602BE0EC
:102680004368D2F800C02CEA0303136040680A686C
:102690001043086020E0FFE74368D2F800C04CEA2E
:1026A0000303136040680A681043086014E026685A
:1026B00026EA010121600168146824EA0101116021
:1026C0004168DCF8002022EA0101CCF800104068E3
:1026D000196821EA00001860284670BC70470000A5
:1026E00004040140240401400C0401402C04014076
:1026F0002DE9F0030A6892FAA2F3B3FA83F3DA4001
:102700007ED001250F244FF0030C00BF0E6805FAA0
:1027100003F2324075D04E68012E18BF022E22D12E
:102720008F68D0F8088092FAA2F6B6FA86F64FEAD9
:1027300046060CFA06F628EA060692FAA2F8B8FA55
:1027400088F84FEA480807FA08F746EA070686605D
:10275000CF680E68D0F8048028EA060806FB07F662
:1027600048EA060646600E69D0F80C8092FAA2F795
:10277000B7FA87F74FEA47070CFA07F728EA07077F
:1027800092FAA2F8B8FA88F84FEA480806FA08F66A
:1027900047EA0606C6604E68022E34D1B2F5807F45
:1027A00016D24E69076A92FAA2F8B8FA88F84FEA88
:1027B000880804FA08F827EA080792FAA2F8B8FA93
:1027C00088F84FEA880806FA08F63E4306621AE0DF
:1027D0004F69D0F82480160A96FAA6F9B9FA89F951
:1027E0004FEA890904FA09F996FAA6F6B6FA86F6C6
:1027F000B60028EA090807FA06F648EA060601E0E4
:102800001BE015E046624F68D0F8008092FAA2F60D
:10281000B6FA86F676000CFA06F692FAA2F2B2FA48
:1028200082F2520028EA060607FA02F232430260F8
:102830000A685B1CDA407FF469AFBDE8F003002052
:102840007047026822F001020260D1E90232D0F83A
:1028500000C043EA02222CF4F85C4CEA0202026057
:102860004A680261026842F001020260826822F452
:10287000004282600B698A69D0F808C01A436FF37E
:102880000A0C4CEA020282600A691AB1826842F4B8
:10289000004282600A68036823F440131A4302600E
:1028A0004969426822F400421143416000207047A8
:1028B0004FF47A71B0FBF1F0411E4FF0E02041611E
:1028C000002181610521016170470000014610B5BA
:1028D0000020C02918BF10BD1A4CD4F8881001F090
:1028E000C00141F440014039B1F5400117D0402901
:1028F00019D080291ED001F07FF8A168124A01F09A
:10290000F0010909515C01F01F01C840A1680F4A9C
:10291000C1F30221515C01F01F01C84010BDBDE8A8
:10292000104001F069B82168C1F38021002918BF67
:10293000074810BDD4F8901011F0020F18BF4FF4E3
:10294000004010BD00100240646000087460000880
:102950000024F40070B5024600204449444D454E21
:10296000454C032A13D00C2A43D0302A18BF70BD1F
:10297000D4F8882002F0300242F44012103AB2F546
:10298000401262D0102A64D0202A68D03FE0D4F8E8
:1029900088206FF4403302F0030242F44032D21830
:1029A00053D0012A13D0022A19D001F025F8A168CA
:1029B00001F0F0010909695C01F01F01C840A1683C
:1029C000C1F3C221715C01F01F01C84070BD2268D3
:1029D000C2F38022002A08BF70BD084670BDD4F83B
:1029E000901011F0020F08BF70BD00BF4FF40040FF
:1029F00070BDD4F8882002F00C0242F44022121F6D
:102A0000B2F5402221D0042A13D0082A17D000F0B2
:102A1000F3FFA16801F0F0010909695C01F01F01F1
:102A2000C840A168C1F30221715C01F01F01C840D8
:102A300070BD2268C2F38022002ACED170BDD4F8C6
:102A4000901011F0020FD1D170BDBDE8704000F0C0
:102A5000D3BF2268C2F38022002ABED170BDD4F851
:102A6000901011F0020FC1D170BD00000024F400DD
:102A700064600008746000080010024003680122CE
:102A800013F0400F31D1D1E900231A43D1E9033CBF
:102A900043EA0C031A434B691A438B691A43CB6907
:102AA0001A430B6A1A43036823F0BF0323F47F43DE
:102AB0001A43026042684B6922F4417222F4406278
:102AC00042EA13428B681A4342608A68B2F5006F8B
:102AD00003D2426842F4805242600A6AB2F5005F53
:102AE00002D1898C89B201610022C16921F400619F
:102AF000C16110467047000001490860704700003E
:102B0000040000200A7B8B681A434B6822F4806221
:102B10001A430B6822F400621A43CB8922F48052D4
:102B20001A430B6922F400521A43CB6A22F4804202
:102B30001A434B6922F470221A438B6922F08052A7
:102B40001A43A0F18043B3F596331CBFA0F1804334
:102B5000B3F59A330FD14B6A22F470021A43CB6952
:102B600022F080721A430B6A22F000721A43896ABB
:102B700022F000520A434264002070472DE9F00120
:102B80000268234B234CDFF89080DFF890C0984216
:102B900018BFB0F1804F04D0A0421CBF4045604533
:102BA00004D14D6822F0700242EA05021C4D1D4E10
:102BB0001D4F984218BFB0F1804F0BD0A04218BFF4
:102BC000404507D0604518BFA84203D0B04218BFA7
:102BD000B84204D1CC6822F4407242EA0402026096
:102BE0008A68C2620A888262984218BF604504D02F
:102BF000A8421CBFB042B84201D1096901634169D2
:102C000041F001014161BDE8F0014FF00000704763
:102C1000002C014000040040000800400034014046
:102C20000040014000440140004801402DE9F00708
:102C30000023DFF838C3CE4CCE4DCF4ECF4F4FF0F0
:102C40000108B1F5805F00F0E08008DC012910D0B8
:102C5000102952D0B1F5807F7ED000F083B9B1F554
:102C6000803F00F01781B1F5801F00F0488100F02F
:102C700079B9016A21F001010162016AD0F804808A
:102C8000D0F81890D2F800A029F0730929F48039FF
:102C900049EA0A09D2F810A021F0020141EA0A012A
:102CA000D2F804A021F0010141EA0A01604518BFF1
:102CB000A04204D0A8421CBFB042B84215D1D2F8FD
:102CC00014C021F0080141EA8C01D2F808C021F0BB
:102CD000040141EA8C01946928F4807C4CEA040CDC
:102CE000D4692CF4007C4CEA4408C0F80480C0F895
:102CF0001890D268426300F033B9016A21F01001E4
:102D00000162D0F820804168D0F81890D2F800A075
:102D100029F4E64929F0807949EA0A29D2F810A075
:102D200028F0200848EA0A18D2F804A028F0100871
:102D300048EA0A18604518BFA04204D0A8421CBF48
:102D4000B042B84217D1546928F0800C4CEA841C78
:102D50002CF0400C946800E013E04CEA8418D2F8A0
:102D600018C021F4806141EA8C01D2F81CC021F422
:102D7000006141EACC014160C0F81890D1688163DC
:102D800040E0016A21F480710162D0F8208041683E
:102D9000D0F81C90D2F800A029F0730929F48039EA
:102DA00049EA0A09D2F810A028F4007848EA0A286B
:102DB000D2F804A028F4807848EA0A28604518BFB1
:102DC000A04204D0A8421CBFB042B84215D15469F9
:102DD00028F4006C4CEA842C94682CF4806C4CEA47
:102DE0008428D2F818C021F4805141EA0C11D2F89D
:102DF0001CC021F4005141EA4C114160C0F81C9004
:102E0000D168C163C0F82080ABE0016A21F4805131
:102E10000162D0F820804168D0F81C90D2F800A060
:102E200029F4E64929F0807949EA0A29D2F810A064
:102E300028F4005848EA0A38D2F804A028F4805848
:102E400048EA0A38604518BFA04204D0A8421CBF17
:102E5000B042B84215D1546928F4004C4CEA843C85
:102E600094682CF4804C4CEA8438D2F818C021F4D1
:102E7000804141EA8C11D2F81CC021F4004141EAA2
:102E8000CC114160C0F81C90D1680164C0F820806A
:102E9000984667E0016A21F480310162D0F8208011
:102EA000016DD2F8009021F0700121F4803141EAE7
:102EB0000901B2F8109028F4003848EA0948B2F83D
:102EC000049028F4803848EA0948604518BFA042B9
:102ED00004D0A8421CBFB042B84208D1D0F804C008
:102EE00094692CF4803C4CEA042CC0F804C00165C1
:102EF000D168826C8164C0F82080984632E0016A13
:102F000021F480110162016AD0F85080D2F800905B
:102F100028F4E04828F0807848EA0928B2F81090B0
:102F200021F4001141EA0951B2F8049021F4801112
:102F300041EA0951604518BFA04204D0A8421CBF15
:102F4000B042B84208D1D0F804C094692CF4802C67
:102F50004CEA842CC0F804C0C0F85080D268C26427
:102F6000016298464046BDE8F0077047002C0140DA
:102F7000003401400040014000440140004801404D
:102F8000012908BF002124D0042908BF012120D035
:102F9000102908BF02211CD0402908BF032118D0E6
:102FA000B1F5807F08BF042113D0B1F5806F08BF51
:102FB00005210ED0B1F5805F08BF062109D0B1F51B
:102FC000804F08BF072104D0B1F5803F0CBF082116
:102FD0000921084B18305B5C1844D0F800C0064B40
:102FE000595C064B8B402CEA030302FA01F11943AA
:102FF00001607047826000088C6000087300010067
:1030000070B5044600680D46012610F0010F5CD132
:103010002969A868EA690843696911430843216876
:10302000314A114008432060E868616821F440514A
:1030300008436060A869A16821F440710843A0605A
:10304000A4F18040B0F59C3013D0A4F18040B0F5DD
:10305000884008BF0C2010D0A4F18040B0F590400B
:1030600008BF302009D0A4F18040B0F5984007D0C7
:1030700024E00320FFF76EFC05E0FFF76BFC02E0A5
:10308000C020FFF723FC00281CBF6968002915D069
:103090002A68EB694FF000060B2A0FD8DFF84CC006
:1030A000D2B2B3F5004F5CF82220B0FBF2F00ED0A4
:1030B00000EB5100B0FBF1F080B2E0602888E16ADB
:1030C00080B221F00F010843E062304670BD40003D
:1030D00000EB5100B0FBF1F080B24FF6F07101400F
:1030E000C0F342000843E8E7F369FFEF34600008EB
:1030F000F0EE400A90ED000A90ED041AD0ED011AAE
:1031000090ED052A20EE010A01EE820AD0ED021AA6
:1031100090ED062A01EEA00AD0ED031A80ED051A03
:1031200001EE820A80ED040AC0ED060A7047000035
:1031300080EC040A9FED040A80ED060A80ED050A82
:1031400080ED040A70470000000000002DE9F04106
:10315000A04D04462DED048BD5ED008ADFED9E0ACF
:1031600095ED011A68EEA00ADFED9C1A41EE610AA6
:103170009FED9B1AD5ED021AC5ED018A40EE010ABA
:1031800041EEC10AC5ED000A85ED020A90ED020A82
:10319000D0ED000A9FED938A9348944F60EE880A21
:1031A0000068DFF84C8290ED061A00EE810A84ED8B
:1031B000020A94ED020A10EE100A94ED020AB842D7
:1031C000C8BF30EE480A08DC10EE100A404584BF44
:1031D00094ED020A30EE080A01D984ED020A94ED5A
:1031E000020AD4ED040A30EE200A10EE100AB842AA
:1031F000C8BF30EE480A05DC10EE100A404588BF13
:1032000030EE080AFDF7D5F994ED031A794821EE5E
:10321000001A94ED030A84ED051A20EE200A61EEEF
:10322000280A84ED060A20EE280AC4ED070A84ED78
:10323000080A90ED000ADFED700A00F1080120EEA7
:10324000200AD1ED001A9FED6D1A00F1100201EE77
:10325000C10A92ED002ADFED6A1AD4ED072A02EEC8
:10326000210A9FED682AA0F1080300F11806B7EEC5
:10327000009A02EE820A83ED000AD4ED072AC2ED1D
:10328000002A80ED000A81ED000AD0ED012A62EEED
:10329000A00AD1ED012A42EEC10A92ED011A41EED7
:1032A000210A94ED081A41EE020AC3ED010A94EDD9
:1032B000081A82ED011AC0ED010AC1ED010A84ED80
:1032C000090AC4ED0A0AD6ED000A94ED090A94ED44
:1032D000091A40EE010AC6ED000A96ED010A94EDC6
:1032E0000A1AD4ED0A1A01EE210A86ED010A95EDBB
:1032F000030A30EE091A80EE810AFEF7F1F9F0EECA
:10330000408A95ED030AD6ED010A30EE091A80EEE7
:10331000810AFEF7E5F9D5ED030A70EE890AC5EDDD
:10332000030AC4ED0B8A84ED0C0A94ED0B0AD4ED6C
:103330000B0A94ED0C1A20EE200AD4ED0C0A00EED4
:10334000810AFEF7CDF9F0EE000A60EE208AD4ED96
:103350000B0A94ED0C0A00F09FFED4ED010A9FEDDC
:103360002A1A2B4960EE810A80EEA81ADFED270A9F
:1033700061EE208A18EE900A8842C8BFDFED258AE8
:10338000B1EE400A10EE100AB842C8BF30EE480A4B
:1033900005DC10EE100A404588BF30EE080AFDF744
:1033A00008F960EEA80A20EE280A9FED1B1AC4ED6A
:1033B0000F0AFEEE000A60EE200A80EE810AD4EDCC
:1033C000000A80EE201A84ED101ABDEC048BBDE8D3
:1033D000F081000038000020AC1CFA3FF016783F66
:1033E00024B9FC3CDB0FC94070000020DB0F4940D2
:1033F000DB0F49C050000020355EFA3F2FDD743FDF
:10340000A9E8FE39B72FFB39AAF1A23F2368D03FC4
:103410000000204100000000DB0F49402DE9F04F83
:10342000A1B000241C941F940A9406940794089455
:1034300009940F940B940C940D940E94149410947E
:103440001194129413941994AB4D159416941794E7
:103450001894009401940294039404940594286EA3
:1034600040F400602866286EA44E00F400601A90B4
:1034700040201D9042F233101E9001202090ADF8A4
:1034800070401CA93046FFF779FB306820F08000BF
:103490003060B06820F0070020F4A030B060DFF8A2
:1034A00060B298489BF800100F1838680BF10A09B1
:1034B0004FF0080A99F800100AFA01F10843386041
:1034C0007020CDE90604089409940A940B940C9496
:1034D00006AA012130460D94FFF7A8FB386899F839
:1034E00000104FF0040808FA01F1884338609BF897
:1034F000021084480F18386899F802100AFA01F18E
:103500000843386006AA10213046FFF78FFB386861
:1035100099F8021008FA01F1884338609BF804100A
:1035200078480F18386899F804100AFA01F108432E
:10353000386006AAA9153046FFF778FB386899F875
:10354000041008FA01F188433860706820F07000B8
:1035500020F0007040F020007060706820F470006F
:103560007060B06820F08000B0606749086898FA21
:10357000A8F2B2FA82F202F01F024F1507FA02F225
:10358000904398FAA8F2B2FA82F202F01F0204FA0B
:1035900002F210430860086840F004000860086800
:1035A0009AFAAAF2B2FA82F202F01F0207FA02F2C3
:1035B00090439AFAAAF2B2FA82F202F01F0204FAD7
:1035C00002F210430860086840F0080008600A68CA
:1035D000102090FAA0F3B3FA83F390FAA0F003F06E
:1035E0001F03B0FA80F007FA03F300F01F009A43BC
:1035F00004FA00F010430860086840F0100008600A
:1036000088148DF84440ADF846004FF400590E94EC
:103610000F9410948001CDF84890CDE91304C001B7
:10362000CDE91540179418940EA930461994FFF768
:1036300069FAE86C40F00400E864E86C00F004000B
:103640001A90E86C40F00200E864E86C00F00200B8
:103650001A90E86C40F00100E864E86C022500F084
:1036600001001A90CDF80090CDE90154274ECDE924
:103670000448694630460394FFF73AF80120009069
:10368000CDE90154694630460394CDE90445FFF77E
:103690002FF8CDF80080CDE90154694630460394F7
:1036A000CDE90445FFF724F868030090CDE9015403
:1036B0000626DFF85C80CDE904466946404603945F
:1036C000FFF716F80097CDE90154CDE904466946A5
:1036D0004FF090400394FFF70BF80097CDE90154A9
:1036E0000C20CDE90440694603944046FFF700F8FA
:1036F00021B0BDE8F08F000000100240002C014016
:103700000C600008182C0140602C014000080048A3
:103710000004004810B49FED170A03293CBF10BCF9
:1037200070474FF0000C4C1E002C1BDDA1EB0C036E
:103730005A1E002AC4BF02465B1E0FDD92ED000A2E
:10374000D2ED010AB4EEE00AF1EE10FAC4BFC2ED08
:10375000000A82ED010A121D5B1EEFD10CF1010C73
:103760006445E3DC490800EB810090ED000A10BCE1
:103770007047000000000000FEE7FEE710B5534868
:103780000C462DED0C8B0E99006894ED031A91ED0B
:10379000009A90ED040AD1ED018AD0ED060A69EE97
:1037A000001A28EE802A94ED040AD4ED002A31EEA6
:1037B000613A30EE421A90ED038A454823EE030A3F
:1037C00023EE223A006893ED00CA01EE010A21EED1
:1037D000221AD0ED069AD3ED01BA10EEA00A23EE1C
:1037E00000AA61EE00AA94ED030A94ED041A30EEEB
:1037F000610A31EE421AC0EE201A81EE200AC4EDB1
:10380000061A84ED050AD4ED06CA94ED05DA90EDAA
:1038100006BA94ED0D0AFCF7CCFE60EE8D0A2D4938
:103820004CEEC00AC4ED070A94ED0C0A00EE8B0AB8
:1038300084ED0C0A94ED0C0A94ED091A20EE010AAD
:1038400094ED081A01EE200A84ED0A0A94ED0D0A9F
:10385000D4ED0A0A00EE8B0A84ED0D0A94ED0D0AF0
:1038600010EE100A94ED0D0A884220DDDFED1A0AF1
:1038700030EE200A84ED0D0A09EE48AA94ED0D0AF7
:1038800048EEC8AA84ED0B0A94ED030A7AEE0C0AFE
:1038900000EEA90A7AEEAB0A84ED030A94ED040A5D
:1038A00000EEA90A84ED040ABDEC0C8B10BD10EEED
:1038B000100A0A4994ED0D0A884284BFDFED080A18
:1038C00030EE200A84ED0D0AD6E70000A0000020AB
:1038D00070000020DB0F4940DB0FC9C0DB0F49C07F
:1038E000DB0FC9407047000070B5FEF755FB3E4C3A
:1038F0003E49206880ED070AC0ED080A09680A7A87
:10390000042A07D00A7A022A04BF91F82020002A4C
:1039100049D064E090ED070AD0ED050A30EE600A68
:1039200080ED070A90ED080AD0ED060A30EE600A35
:1039300080ED080A087C09281DD2DFE800F0051C8C
:10394000080B0E1114171A00FDF72AFB13E0FDF700
:1039500013FE10E0FDF726FC0DE0FDF7D7FC0AE0B2
:10396000FDF758F807E0FDF7ADF904E0FCF764FE59
:1039700001E0FCF771FF20681D4D011D286808302B
:10398000FCF71EFE286880ED040AC0ED050A2168D8
:1039900091ED030A00F060F92868828C418C008C5C
:1039A000FEF79AFA1BE04A68531C4B60642A11D058
:1039B00090ED070A4A680F4B03EB820282ED000A82
:1039C00090ED080A486803F5C87101EB800080EDAE
:1039D000000A04E000204860012081F82000BDE8D2
:1039E0007040FEF769B90000A800002070000020B8
:1039F0009C000020640100201549886800F00C0339
:103A00001448042B08BF7047134A082B04BF104604
:103A100070470C2B18BF7047CB6803F00303022BD1
:103A200002D0032B08BF1046CA68C2F306224243E5
:103A3000C868012300F0F00003EB1010B2FBF0F0B7
:103A4000C968C1F34161491C4900B0FBF1F07047FE
:103A5000001002400024F40000127A0000F0E4BAE2
:103A6000704700002DE9F05F714C2DED028B20684E
:103A700090F90810DFF8BC81DFF8BC9100256F4F8A
:103A80006F4E491C4FF0020A052977D2DFE801F09A
:103A9000030A3B586E00FEF753FA02F0ABF82068B9
:103AA00005726BE0FEF77CF8D7E90201B0EE408AC0
:103AB0000A220023FCF700FC08EB82000A2180EDBB
:103AC000008A5C48FFF726FE306880ED030A90ED1F
:103AD000030A10EE101A494512DD90ED030A594908
:103AE00010EE100A81420BDD21680868421C0A6052
:103AF000322843D9FEF71AF820680560012133E027
:103B0000206805603AE001684A1C0260322904D945
:103B10004560056080F808A030E001682D2909D9CA
:103B200049480068C06902461146FEF7D5F9FEF71C
:103B3000E1F923E00068232888BFFEF707F91DE0BC
:103B400090F82000D0B164214048FFF7E3FD3068D1
:103B5000642180ED050A3E48FFF7DCFD306880ED0A
:103B6000060A206805600321017207E0FEF788F865
:103B700020B1FEF7BFF92168042008722068007A9E
:103B8000042848D1FEF77CF84FF0FF3B002804BF23
:103B9000206880F808B0FEF703F8D7E90201B0EE1C
:103BA000408A0A220023FCF787FB08EB82000A21E7
:103BB00080ED008A1F48FFF7ADFD306880ED030AF5
:103BC00090ED030A10EE101A49450CDA21680868D6
:103BD000421C0A608C281ED9FEF7B2F920680560E5
:103BE00080F809A015E090ED030A1A4910EE100ABA
:103BF0008842DCBF206805600DDD21680868421C32
:103C00000A608C2807D9FEF79BF92068056001211E
:103C1000417280F808B0D7E90201401C41F100016F
:103C2000C7E90201BDEC028BBDE8F05FFEF7B2B858
:103C300070000020840400203433A34128000020B9
:103C4000A8000020CCCCDC419C00002064010020B6
:103C5000F40200209A9919428749D0ED042AD0ED48
:103C6000051A096891ED062A0021DFED840AB6EEF7
:103C7000003A62EEA00AB0EE601A01EEC31AB0EE8E
:103C8000414ADFED7F3A62EEA33AF0EE634A41EE3D
:103C9000C34ADFED7C2AF5EEC01A012222EE225A39
:103CA000C5EE002AF1EE10FAC8BF0121B5EEC01A28
:103CB000F1EE10FAC8BF891CF5EEC04AF1EE10FA19
:103CC000C8BF091DB5EE001A07297AD2DFE801F056
:103CD00096041E3449617A00022180F8261041EED4
:103CE000833A41EE830A23EEA20A60EEA21A72EE34
:103CF000402A32EE000A72EEA10A30EE210A72EE7C
:103D0000E11A60EE810A20EE010A74E0062180F8D3
:103D1000261041EE830A62EEE11A20EEA20A72EE4C
:103D2000000A32EE402A70EEA10A32EE610A60EE1D
:103D3000810A20EE010A29E080F8262024EE220ADA
:103D400062EEA11A72EE000A32EE402A70EEA10A6B
:103D500032EE210A72EE611A60EE810A20EE010A4B
:103D600049E0042180F8261041EE833A22EEE14A30
:103D700032EE440A63EEA21A32EE042A70EE610AB1
:103D800030EE210A60EE810A20EE010A72EE211A5D
:103D900031E0032180F8261041EE830A22EEA10AC9
:103DA00062EEE01A72EE402A32EE000A72EEE10A8A
:103DB00030EE210A72EEA11A60EE810A20EE010AAD
:103DC00019E01BE0052180F8261041EE830A41EE40
:103DD000833A22EEE04A62EEE31A32EE440A32EE11
:103DE000042A70EE210A30EE610A72EE211A60EEAA
:103DF000810A20EE010A21EE811A05E022EE010A75
:103E0000F0EE400AB0EE401AD0ED061A61EEA00ABC
:103E1000FDEEE00A10EE903AD0ED060A002B20EEFF
:103E2000800ABDEEC00A10EE102A90ED060A20EEC0
:103E3000010ABDEEC00A10EE101AB8BF002304DB61
:103E4000D0F81CC09C4538BFC369002AB8BF002207
:103E500004DBD0F81CC0944538BFC2690029B8BF44
:103E6000002104DBD0F81CC08C4538BFC169038435
:103E7000428481847047000070000020D7B35D3F0A
:103E8000D7B35DBFD7B3DD3F2149D0ED000A214A4A
:103E9000096870EEC00A90ED030A91ED051A00EE74
:103EA000810A80ED030A90ED030A10EE101A914288
:103EB000C4BF9FED190A80ED030A0CDC90ED030AE4
:103EC000164A10EE101A914234BF90ED030A9FED8E
:103ED000140A80ED030A90ED030A9FED121A20EEFA
:103EE000010A9FED111A00EE810A10EE101AB1F1CD
:103EF000814FC8BFB1EE000A04DC10EE101A11F1B8
:103F00007E5F02D880ED040A7047B9EE000AF9E737
:103F1000700000200000C8430000C8430000C8C370
:103F20000000C8C30AD7233CCDCCCC3CFFF79ABDD8
:103F3000314810B5016821F00F0141F00401016022
:103F4000016801F00F010429FAD12C4850F8801FB4
:103F500021F4807101602A48016841F480310160D8
:103F60000168C1F340410029FAD0C26845F21351FB
:103F7000244B1A401143C160C16841F08071C16097
:103F8000016841F0807101600168C1F3406100295E
:103F9000FAD0816841F003018160816821F0F0016D
:103FA00041F080018160816801F00C010C29FAD197
:103FB00015490A6842F080720A6014490A6842F0A2
:103FC00001020A6000224A604A68642AFCD38168C0
:103FD00021F0F0018160816821F4E06181608168F5
:103FE00021F4605181600A4C2046FEF761FC2046B6
:103FF000BDE81040FEF780BD002002400070004088
:10400000001002400C80FFF9FCED00E0001000E021
:1040100080FE210A0248016841F470010160704786
:1040200088ED00E0FEE7000010B5164CA821204600
:10403000FCF7B9F903202061606113A0A06104F1CD
:10404000A800E0614FF4806020620020A0626062FE
:10405000E0620DA1216604F5956161661021A166FB
:104060002067E06660670B49C0F10F028A5C22544A
:10407000C0F10E0223188A5C5A70801C1028F3D3FA
:1040800010BD0000C40700205465726D696E616C3C
:1040900000000000946400089FED3F1AB5EEC00ACE
:1040A000F1EE10FA04BFF5EEC00AF1EE10FA65D099
:1040B000B5EEC00A0021F1EE10FA64D2F5EEC00AA6
:1040C000F1EE10FA2CBF04220322F5EEC00AF1EE45
:1040D00010FAD8BFF1EE600AB5EEC00AF1EE10FAA0
:1040E000D8BFB1EE400AB4EEE00AF1EE10FAD8BF44
:1040F000F0EE601A04DDF0EE401AB0EE600A012125
:1041000080EE212A9FED260ADFED242AF7EE000A31
:1041100062EE001AF4EEC01AF1EE10FA28BFFD208C
:104120000BD2FCEEE10A10EE900AF8EE600A00EE07
:10413000A21A72EE410A60EE800A1A4B002903EBC4
:10414000800090ED001A90ED010A30EE410A00EE79
:10415000201A1CBFB5EE000A30EE411AB6EE000A76
:10416000022A08BF30EE411A08D0032A08BF31EEF8
:10417000401A03D0042A08BFB1EE411A9FED0A0A83
:1041800021EE000A7047F5EEC00AF1EE10FA34BFD6
:104190000222012299E70000000000000402813B96
:1041A00000007E4398600008DB0FC940FE4D9CB0C4
:1041B000286E40F001002866286E00F00100009093
:1041C000A86D40F08050A865A86DDFF8E09300F07E
:1041D00080500090D9F800004FF6FF01084040F4ED
:1041E000407040F0FD7040F08060C9F80000D9F8E0
:1041F0000000C0F30220C0F10701042988BF042198
:10420000021D072A34BF0020C01E012606FA01F154
:10421000491E01F0060101FA00F0E5490024000101
:1042200081F8140DE348016B21F001010163016B7A
:1042300041F002010163E048816841F480418160FE
:10424000FFF776FEA86C40F00400A864A86C00F0AC
:1042500004000090A86C40F00100A864A86C00F075
:1042600001000090A86C40F00200A864A86C00F067
:1042700002000090D9F80000C0F30220011D0729B8
:1042800034BF0020C01E04FA00F0CC49000181F8C0
:1042900000044FF0E0274FF40068C7F80081D9F818
:1042A0000000C0F30220011D072934BF0020C01EFA
:1042B00004FA00F0C249000181F800044FF4805074
:1042C000C7F80001D9F80000C0F30220011D07293A
:1042D00034BF0020C01E04FA00F0BA49000181F882
:1042E0000004B9494FF08070C1F80001D9F800000E
:1042F000C0F30220031D072B34BF0020C01E04FAA8
:1043000000F0B24B000183F800044FF00070C1F8D8
:104310000001009401940294059406940794089473
:104320000994E86C40F00400E864E86C00F00400D4
:104330000390E86C40F02000E864E86C00F0200096
:104340000390E86C40F00100E864E86C00F00100C4
:104350000390E86C40F00200E864E86C9C4900F0CF
:10436000020003904FF48060886240008862082059
:10437000049004A99648FEF7BBF94FF480600490BE
:10438000CDE90564079404A991480894FEF7B0F9B3
:104390004FF400600490CDE90564079404A98C48AB
:1043A0000894FEF7A5F98B4880684FF4706191FA84
:1043B000A1F1B1FA81F101F01F0120F4706006FA59
:1043C00001F108438349886040208DF8086000901F
:1043D0008DF809408DF80A606846FEF7AFF8DFF8FF
:1043E000F8B10220DBF80C10402292FAA2F2B2FAE5
:1043F00082F252004FF0030808FA02F29143402281
:1044000092FAA2F2B2FA82F2520090400843CBF83C
:104410000C00DBF80000402191FAA1F1B1FA81F122
:10442000490008FA01F18843402191FAA1F1B1FA5B
:1044300081F1490004FA01F10843CBF80000D9F8F2
:104440000000C0F30220C0F10701042988BF042145
:10445000021D072A34BF0020C01E06FA01F1491EC2
:1044600001F0050101FA00F05C49000181F8000447
:104470004FF0E0204FF40001C0F80011149415949F
:1044800016940F94109411940E9412940094019425
:1044900002941394039405940694079404940A9444
:1044A0000B940C940D94D5F888003F4920F04050AF
:1044B00040F000500227C1F88800C86C40F400505A
:1044C000C864C86C00F400501790C86C40F001003C
:1044D000C864C86C08A900F001001790CDE908680D
:1044E0004FF09040FEF704F90420CDE9080808A930
:1044F0000C944FF09040FEF7FBF82C480068C0F396
:104500000220C0F10701042988BF0421021D072AE7
:1045100034BF0020C01E06FA01F1491E01F004015B
:1045200001FA00F02E49000181F800044FF0E02963
:104530004FF4802AC9F800A14FF40040CDE914409F
:1045400014A94FF0A0401694FDF71DFFCDE90E46CB
:104550001094119412940EA94FF0A0401394FDF7FB
:104560002BFF4FF0A040D0F8C0004FF0A0416FF3F8
:104570000D00C1F8C000086920F4803008610869A6
:1045800020F0030020F4806008614FF44030CDE952
:10459000000469461348FDF7A3FE8020CDE904041A
:1045A000069404A920E00000001002400CED00E099
:1045B0000FE000E000000140007000400BE000E070
:1045C0000CE000E038E000E004E000E039E000E06A
:1045D00000080048040001400004004817E000E023
:1045E00012E000E0000300504FF0A0400794FDF7F8
:1045F000A1FE4FF0A040C0684FF0A04120F4001091
:1046000020F0004040F00040C860C86C20F4C0704A
:1046100040F08000C864886820F03F0020F020400F
:104620008860886820F03F0020F0004040F0805013
:104630008860FE480168FE48B1FBF0F000EB8000A6
:104640008100FC48A0FB0110C00803D0B0F1004F6E
:1046500081F09982F8484FF0A041026822F4F86294
:1046600042F0C0020260F54A136823F4606343F429
:104670000073136051F8B03F23F0080341F8643928
:104680000B6823F4785343F400730B60136823F032
:10469000380313604A6E22F002024A66026822F46E
:1046A000F83242F490320260E548026822F0E0629B
:1046B00042F000720260486E20F480204866E148B3
:1046C0008068E04920F0E07040F480008860079442
:1046D000089409940094019402940394049405941A
:1046E0000B940C940D940A941094119412941394B6
:1046F000D5F8880020F0405040F00050C5F8880000
:10470000E86C40F40050E864E86C00F40050069057
:10471000E86C40F00100E864E86CCDE90E7800F048
:10472000010006900EA94FF09040FDF7E1FFC6484A
:104730000068C0F30220C0F10701042988BF0421EA
:10474000021D072A34BF0020C01E012202FA01F117
:10475000491E01F0040101FA00F0BC49000181F892
:1047600000044FF0E0219004C1F80001C010CDE931
:104770000740DFF8DCA207A950460994FDF703FEC5
:104780000194029403940494694650460594FDF7FD
:1047900013FEDAF8C0006FF30D00CAF8C000DAF8B3
:1047A000100020F48030CAF81000DAF8100020F071
:1047B000030020F48060CAF810004FF08009CDE9B2
:1047C0000A940C940AA950460D94FDF7B3FDDAF84B
:1047D0000C0020F4001020F0004040F00040CAF827
:1047E0000C00DAF84C0020F4C07040F08000CAF8E9
:1047F0004C00DAF8080020F03F0020F02040CAF812
:104800000800DAF8080020F03F0020F0004040F0F7
:104810008050CAF80800854E85483168B1FBF0F039
:1048200000EB800081008348A0FB0110C00801005C
:1048300003D0B0F1004F81F0AA81854850F84C1F99
:1048400021F4785141F48061016082490A6822F4C0
:10485000E0720A60416E21F0040141660194029405
:104860000394059404940A940B940C940D94E86CAE
:1048700040F00200E864E86C00F002000090E86C90
:1048800040F00100E864E86C08A900F00100009025
:104890000320CDE908707048FDF72AFF4FF400604F
:1048A0000890CDE909744FF00808CDE90C4808A933
:1048B0004FF090400B94FDF71BFF4FF4807A50208F
:1048C000CDE901A04FF4E020CDE9030401A963483C
:1048D0000594FDF7A7FD62483168B1FBF0F1C820EF
:1048E00048430790069019D0B0F1004F81F0338112
:1048F0000028D8BF002005DD10F0010002D0079984
:10490000491E07910699401C491C884206DA079AFD
:10491000801C521E521E07928842F8DB51480168E3
:1049200021F400110160001F016821F400110160F1
:10493000029403940594069404940A940B940C94A2
:104940000D94E86C40F00100E864E86C4FF0030B54
:1049500000F0010000900820CDE9080B08A94FF0F5
:104960009040FDF7C5FE4020CDE902A04FF4E020C5
:10497000CDE9040402A93C480694FDF753FDDFF895
:10498000E0803168C820B1FBF8F1484307900190FE
:1049900019D0B0F1004F81F0E4800028D8BF00208A
:1049A00005DD10F0010002D00799491E0791019919
:1049B000401C491C884206DA079A801C521E521E6F
:1049C00007928842F8DB2748016821F480010160E2
:1049D000001F016821F48001016001940294039496
:1049E000059404940A940B940C940D94E86C40F094
:1049F0000400E864E86CCDE9087B00F00400009056
:104A000008A91A48FDF774FE4020CDE90204CDF84C
:104A100004A0049401A916480594FDF703FD03487A
:104A20000068B0FBF8F1C820484323E004000020F0
:104A3000400D0300CDCCCCCC300000501400005011
:104A400018000050000300500CED00E012E000E000
:104A50000001005014010050000400480002014011
:104A600080841E0004040140040201400008004844
:104A7000080201400790069019D0B0F1004F81F074
:104A800076800028D8BF002005DD10F0010002D09C
:104A90000799491E07910699401C491C884206DA6D
:104AA000079A801C521E521E07928842F8DBFE486D
:104AB000016821F000510160001F016821F00051E0
:104AC0000160009401940294039404940A940B945A
:104AD0000C940D94E86C40F00200E864E86C012648
:104AE00000F00200CDE9086B059008A9EF48FDF73A
:104AF000FFFD4020CDE900404FF4E020CDE9020465
:104B00006946EB480494FDF78DFCEA48C82100682B
:104B1000B0FBF8F048430790059019D0B0F1004F72
:104B200081F02B800028D8BF002005DD10F00100A7
:104B300002D00799491E07910599401C491C8842DB
:104B400006DA079A801C521E521E07928842F8DB32
:104B5000D5480068D44920F080400860081F0068EC
:104B6000091F20F08040086001940094029403948F
:104B70000694E86C40F48030E864E86CDFF8388331
:104B800000F480300790D8F83C0020F40070C8F89A
:104B90003C00CDE904766A46C8494046FDF762FC10
:104BA000D8F8000020F00200C8F80000D8F83C0057
:104BB00020F48070C8F83C0001940094029403949F
:104BC0000694E86C40F48020E864E86CDFF8F0823A
:104BD00000F480200790D8F83C0020F40070C8F85A
:104BE0003C00CDE904766A46B4494046FDF73AFCFC
:104BF000D8F8000020F00200C8F80000D8F83C0007
:104C000020F48070C8F83C00AE49D8F83C0020F091
:104C10000070C8F83C006A464046FDF723FCD8F80F
:104C2000000020F40030C8F80000D8F83C0020F064
:104C30008070C8F83C00A448009401940294039446
:104C4000049405940694016821F440510160E86CD5
:104C500040F00200E864E86CCDE90AB600F002001A
:104C60000997CDE907090420CDE90C6008A98F4810
:104C7000FDF73EFD0420CDE90C60CDE90AB6CDE993
:104C800008A708A98948FDF733FDA86D40F4001076
:104C9000A865A86D8E4900F4001007908B48D1F8E4
:104CA000001821F0FF0141F010028949C1F80028E5
:104CB00088494A7882584B7822F0100222F48042C8
:104CC000C2504A7882584B7822F44052C2504A78F7
:104CD00082584B7842F02002C2504A7882584B7872
:104CE00022F04002C2504A7882584B7842F080024B
:104CF000C2504A7882584B7822F44072C2504A78A7
:104D00008258497822F4406242507348DFF8CC81DF
:104D1000CDE900400294039404940594694640460A
:104D20000694FDF78EFDD8F8040040F00070C8F836
:104D30000400D8F80C006FF34A00C8F80C00D8F84B
:104D40000C0020F40040C8F80C00D8F8000020F453
:104D50000020C8F80000D8F8000020F40030C8F89F
:104D6000000059480094019402940394049405941B
:104D70000694016821F440310160E86C40F00400C1
:104D8000E864E86C00F004000790E86C40F0010073
:104D9000E864E86CCDE90AB600F0010007904FF432
:104DA0000070CDE908070820CDE90C6008A94C483F
:104DB000FDF79EFCCDE908A7CDE90AB608A94FF09A
:104DC0009040CDE90C67FDF793FCA86D40F0804062
:104DD000A865A86DDFF80C8100F0804007903E4880
:104DE0000294CDE90040039404940594694640463A
:104DF0000694FDF726FDD8F8040040F00070C8F8CE
:104E00000400D8F80C006FF34A00C8F80C00D8F87A
:104E10000C0020F40040C8F80C00D8F8000020F482
:104E20000020C8F80000D8F8000020F40030C8F8CE
:104E3000000007940894099406940A940C940D9425
:104E40000E940B940F94029403940494A86D40F470
:104E50008040A865A86D00F480401090E86C40F098
:104E60000200E864E86C00F002001090E86C40F08A
:104E70000100E864E86C694600F0010010904FF40E
:104E80008050CDE90007052005900848FDF730FC6B
:104E90004FF400500090CDE901740520CDE90440A5
:104EA0006946039401481FE00404014000040048DF
:104EB0000C02014004000020000800500100110213
:104EC00000100050F20042358810024000040240F9
:104ED0002400024006600008FBA7A03000540040F8
:104EE0000008004800780040FDF702FC4FF48060A5
:104EF0000090CDE901740520CDE904406946039492
:104F00004FF09040FDF7F4FBFE49FD48D1F8001842
:104F1000FC4A21F0FF0141F00C01C2F80018FA49E7
:104F20000A7882580B7822F0100222F48042C25094
:104F30000A7882580B7822F44052C2500A7882587C
:104F40000B7842F02002C2500A7882580B7822F087
:104F50004002C2500A7882580B7822F08002C25078
:104F60000A7882580B7822F4407242F48072C25060
:104F70000A788258097822F4406242F480624250F2
:104F8000001506904FF4827007904FF45060CDE901
:104F900008044FF48020CDE90A402820CDE90C0414
:104FA0000720CDE90E40DFF8648306A94046FDF7EF
:104FB00065FDD8F8040020F01000C8F80400D8F807
:104FC000040040F00800C8F80400FEF727FA129425
:104FD0001394149416940894099415940A940C94B8
:104FE0000D940E940B940F94029403940494A86D62
:104FF00040F00200A865A86D00F002000690E86C81
:1050000040F00100E864E86C00F001000690E86CF4
:1050100040F00400E864E86C694600F00400069083
:105020004020CDE900074FF090400597FDF760FB69
:10503000CDF80090CDE90174CDE9044769464FF001
:1050400090400394FDF754FB4FF480700090CDE93D
:105050000174CDE904476946AD480394FDF748FB68
:10506000ADF848404FF6FF70CDE91340DFF8A48259
:1050700012A940461594FDF781FDD8F8000020F0F4
:105080008000C8F80000D8F8200020F01100C8F80F
:105090002000A148007800F1804000F5836002689C
:1050A0009E490B780BFA03FB22EA0B0242EA0B0241
:1050B0000260D0F800C00B780C2202FA03F32CEA4D
:1050C000030217930B7804FA03FA42EA0A02026019
:1050D00002680978F0238B4022EA030141EA0A01C1
:1050E0001A930160D8F820108D480A22007802FA3D
:1050F00000F0814319908A48007804FA00F0189073
:105100000843C8F82000D8F8040040F08000C8F830
:105110000400D8F8080020F0700020F4401040F09F
:105120004000C8F80800D8F8080020F0070020F474
:10513000803040F00400C8F808007020CDE9080471
:105140000A940B940C940D940E9408AA10214046D6
:105150000F94FDF76BFD70490220095C01F180415D
:1051600001F583610A686F4B4FF00408185C08FA78
:1051700000F022EA000008606648416821F07001F2
:1051800021F0007141F050014160816821F08001FF
:105190008160009403940494019402940894099407
:1051A0000A94286E40F400502866286E00F40050DF
:1051B0000590E86C40F00400E864E86CCDF82C80C1
:1051C00000F0040005904020CDE9060706A95048EC
:1051D000FDF78EFACDF81890CDE90774CDE90A48AD
:1051E00006A94B480994FDF783FAADF8004042F256
:1051F0001070CDE90140DFF83081039469464046E4
:105200000494FDF7BBFCD8F8000020F08000C8F83B
:105210000000D8F8080020F0070020F4803040F0AB
:105220000300C8F808003C48404A0078104403686E
:105230003A4923EA0B0391F800C006FA0CFC43EA52
:105240000C030360D0F800C0179B4FF00C092CEA48
:10525000030343EA0A030360D0F800C01A9B91F8E5
:1052600000A02CEA03034FF0300C0CFA0AFC43EACE
:105270000C034FF0F00B0360D8F820C0199801F12F
:105280000A032CEA000C18984FF00A0A4CEA0000B6
:10529000C8F82000A1F1140080781044026891F849
:1052A00002C04FF0030808FA0CFC22EA0C0291F845
:1052B00002C006FA0CFC42EA0C020260026891F895
:1052C00002C009FA0CFC22EA0C0C8A7804FA02F2F9
:1052D0004CEA020CC0F800C0D0F800C089780BFA84
:1052E00001F12CEA0101114301600F480021D0F8BF
:1052F00020C09A780AFA02F32CEA0303914017E0DF
:10530000000402402000024006600008003800400F
:1053100000080048000400400C60000820600008FD
:105320002A6000081660000800340140183401406B
:1053300019430162416821F0700121F00071416060
:10534000416821F470014160816821F08001816031
:105350000294009401940394049407940594069491
:105360000C940D940E94D5F8880020F00300C5F835
:105370008800286E40F480402866286E00F4804043
:105380000890E86C40F00400E864E86C4FF0070B0C
:1053900000F0040008901020CDF83CB0CDE90A07D9
:1053A0000AA9FE48FDF7A4F920200A900220CDE9C1
:1053B0000B040720CDE90E400AA90D94F748FDF72C
:1053C00097F9DFF8DC8308F10400D0F8000808F151
:1053D000040120F0FF0040F01800C1F80008F14E71
:1053E000707858F80000717820F0100020F48040A8
:1053F00048F80100707858F80000717820F44050A7
:1054000048F80100707858F80000717840F02000EA
:1054100048F80100707858F80000717820F04000DA
:1054200048F80100707858F80000717840F080006A
:1054300048F80100707858F80000717820F4407046
:1054400048F80100707858F80000717820F4406046
:1054500048F80100D8F8000820F0FF0040F01900DB
:10546000C8F80008307858F80000317820F01000B3
:1054700020F4804040F0100048F80100307858F8DF
:105480000000317820F4405048F80100307858F896
:105490000000317820F0200048F80100307858F8FA
:1054A0000000317820F0400048F80100307858F8CA
:1054B0000000317840F0800048F80100307858F85A
:1054C0000000317820F4407048F80100307858F836
:1054D0000000317820F4406048F80100B248DFF85D
:1054E000CCA2CDE90040CDE904490294039406948E
:1054F000694650460794FDF783FD00220AF1080033
:1055000050E8001F62F35F7140E80013002BF7D1F1
:1055100000210AF1080000BF50E8002F22F060626D
:1055200042EA416240E80023002BF5D1DAF800009E
:1055300020F00050CAF80000DAF8040020F490408F
:10554000CAF80400DAF8080020F02A00CAF80800B7
:10555000DAF8000040F00100CAF80000DAF81C0098
:10556000C0F340500028F9D0DAF81C00C0F3805096
:105570000028F3D0089409940A940C940D940E9486
:105580000B940F94029403940494D5F8880020F0AF
:105590003000C5F88800A86D40F48020A865A86D8B
:1055A00000F480200690E86C40F00200E864E86CAB
:1055B000CDF814B000F0020006904FF48060CDE901
:1055C000000769467A48FDF793F84FF400600090B1
:1055D000CDE90174CDE9044B694675480394FDF7A4
:1055E00087F84FF4E130CDE90840CDE90C49714F1F
:1055F0000A940B940E9408A938460F94FDF700FD09
:10560000002307F1080100BF51E8002F63F35F7228
:1056100041E800200028F7D107F1080151E8002FE8
:1056200022F0606242EA406241E80023002BF5D19B
:10563000386820F000503860786820F49040786036
:10564000B86820F02A00B860386840F0010038607F
:10565000F869C0F340500028FAD0F869C0F38050D0
:105660000028F5D00094019403940494A86D40F0B0
:105670000100A865A86D694600F00100059044F29C
:1056800068200290ADF80040C006FDF777FA4FF0B1
:105690008047386820F080003860B86820F0070044
:1056A00020F4A030B860786820F0700020F000701E
:1056B00040F020007860B86820F08000B860A86CE6
:1056C00040F00800A864A86C009400F00800019461
:1056D00003940494286E40F480202866286E69465E
:1056E00000F480200590ADF800404FF6FF70324C7A
:1056F00002902046FDF742FA206820F080002060EA
:10570000A86C40F48050A864A86C2C4900F4805028
:105710000090886820F060008860886820F0800031
:10572000886027484861886820F0180088604FF03A
:10573000FF3008612348016F11F4803F1BD12249DB
:105740008160224981602249C1602249C1600169AA
:1057500011F4803FFBD1416921F080414161016F2B
:1057600041F480310167416941F4003141610169CF
:1057700011F4803FFBD1FEF771F917480168174A11
:10578000114041EAE02101601548016841F0010142
:105790000160016841F48031016023E000080048A5
:1057A000000002400660000860E316000038014077
:1057B000000400480048004000480140003002401A
:1057C000B71DC1040020024023016745AB89EFCD1E
:1057D0003B2A19087F6E5D4C000C024000F887FFE1
:1057E00000100050EC490A686FF30B0242F47A6231
:1057F0000A60EA490A686FF30B0242F47A620A60AF
:10580000416841F001014160416811F0010FFBD195
:10581000416841F002014160416811F0020FFBD183
:10582000DF48016841F001010160001D016841F09D
:1058300001010160001D016841F001010160D948CA
:10584000016841F001010160D74940F23A730A68EA
:105850006FF30B021A430A60416841F00101416095
:10586000001D016811F0010FFBD1D048016841F023
:1058700001010160CE48416841F0010141600168C9
:1058800041F040010160CD4A96F800C0CC4BC949B7
:10589000C94812684CF8030096F800C003F1040EE2
:1058A0004CF80E2096F800C00A1D4FF6FF705CF809
:1058B00002C06FF30F0C4CEA000096F800C04CF8E1
:1058C00002003078085896F800C040F0010041F816
:1058D0000C000AF1080000BF50E800CF4CF0800C2B
:1058E00040E800C5002DF7D196F80090DFF8DCC243
:1058F000B44DB54849F80C5096F80090ACF1040549
:1059000049F8050096F80090281F59F8009096F87D
:1059100000B06FF30F0949F014094BF8009096F8A6
:10592000009058F8099096F800B049F0010948F83D
:105930000B900AF1080900BF59E800AF4AF0400A8D
:1059400049E800ABBBF1000FF6D196F801B0DFF8E3
:1059500080A2DFF880924BF805A0757845F80C908E
:1059600096F801C05CF800C075786FF30F0C4CF02E
:10597000800C45F800C0707858F8000096F801C017
:1059800040F0010048F80C004FF0A040D0F808C0EB
:105990002CF03F0C2CF0404C4CF0004CC0F808C0F0
:1059A000D0F808C05FEADC7CFAD1DFF82CC2DCF862
:1059B000085025F03F0525F0404545F00045CCF85E
:1059C000085000BFDCF80850ED0FFBD1856825F0CA
:1059D0003F0525F0004545F008058560456845F020
:1059E00040054560856825F03F0525F0004545F0F8
:1059F00001058560DCF8080020F03F0020F0004041
:105A000040F00800CCF80800DCF8040040F040004A
:105A1000CCF80400DCF8080020F03F0020F0004043
:105A200040F00100CCF808006C484FF0000CC0F8C2
:105A300034C0C0F838C0C0F83CC0D0F844C04CF402
:105A4000805CC0F844C0D0F844C02CF4004CC0F8CE
:105A500044C0D0F820C02CF0010CC0F820C0D0F811
:105A600020C02CF0040CC0F820C0D0F820C02CF0CE
:105A7000100CC0F820C0D0F820C02CF0400CC0F8AA
:105A800020C0D0F820C02CF4807CC0F820C0D0F812
:105A900020C02CF4806CC0F820C0D0F800C04CF0BE
:105AA000010CC0F800C0386840F0010038604C4874
:105AB000D0F800C04CF0010CC0F800C04948D0F844
:105AC00000C04CF0010CC0F800C04748D0F804C03A
:105AD0004CF4806CC0F804C0D0F804C06FF3090C1B
